:1020000000800020CD5F00008D5F00008D5F00002C
:1020100000000000000000000000000000000000C0
:102020000000000000000000000000008D5F0000C4
:1020300000000000000000008D5F00002160000033
:102040008D5F00008D5F00008D5F00008D5F0000E0
:102050008D5F00008D5F00008D5F0000795F0000E4
:102060008D5F00008D5F00008D5F0000DD4000008F
:10207000ED400000FD4000000D4100008D5F0000BC
:102080008D5F00008D5F0000355F00008D5F0000F8
:10209000000000008D5F00008D5F00008D5F00007C
:1020A0008D5F00008D5F00008D5F00008D5F000080
:1020B0000000000010B5064C2378002B07D1054B1B
:1020C000002B02D0044800E000BF0123237010BDA4
:1020D000800200200000000028E30000084B10B53B
:1020E000002B03D00749084800E000BF07480368F9
:1020F000002B00D110BD064B002BFBD09847F9E711
:10210000000000008402002028E300007C02002080
:102110000000000070B504001F480D25606220001B
:1021200028300570002573301C4E65650570013040
:1021300006801B4E86B04680A3600A9B2160E36048
:102140000B9B626023610C9B442063610D9BA36128
:102150000E9BE3610F9B236203F0B2FF236AA26828
:102160000593E36921680493A369060003936368F8
:1021700002936369019323690093E36800F0B6FB5F
:102180002300200059336665013B5D70DD701D70D2
:1021900002331D7006B070BD00180D8F02400000A4
:1021A0000140000010B504000021406D00F000FC6B
:1021B0000121606D00F0F7FB10BD10B50400002197
:1021C000406D00F0F0FB0121606D00F0F1FB10BDEF
:1021D000F8B50400406D00F017FC606D012100F0BF
:1021E00084FE20003C2200215C3009F09AF9260090
:1021F000220001237021270046364A3233702937E6
:1022000011704A39517093703B70230008223133AA
:102210001A7034329A70002520225D70DA701D71B8
:102220002900606D00F020FC3178606D00F02FFC1B
:102230003100606D00F067FC3900606D00F09FFCBC
:10224000616A606D00F02EFC2A002900606D00F0CC
:102250004FFC2821E0226156606D00F03DFCF8BD86
:1022600030B5040085B00D00FFF7A7FF23009C33B5
:1022700019880023606D00930A0000F007FE606D6E
:10228000002D09D0022203AB1A7030325A80039914
:1022900000F096FE05B030BD012202AB52421D7027
:1022A0005A800299F4E710B50400FFF786FF20007A
:1022B0000021FFF7D5FF0021606D00F06FFB10BD1E
:1022C00010B504000021406D00F06DFB0021606D31
:1022D00000F06EFB606D00F012FE0E21606D00F0EC
:1022E0009DFB10BD10B5406D00F0B4FB10BD0200A9
:1022F0009B3211780B1E03D00023137003005C3354
:1023000018007047836D13B5FF211A00180A1C0CC2
:1023100008400A4000022140090410431B0E1B061E
:102320000843184316BD02000023593213705A3077
:10233000013A1370D37003707047000070B5002429
:102340000748084DA3B2934209DA0B5D06127340A9
:102350005B000602585B0134704080B2F2E770BD4A
:10236000FFFF000060D60000F7B5070004005C37EF
:102370003C2200213800260009F0D3F800239836CB
:10238000337032003C333900606D00F0C9FD051E2A
:102390003BD133789A1EA1185C310878E3185B337F
:1023A000000201901878D2B2844601980D70604402
:1023B00080B21D700190327039002000FFF7BEFF1F
:1023C000019B3F3E83422CD125004135606D2900A1
:1023D00000F062FC28780F2812D806F061F81B087C
:1023E000081B1B111111111111111111111E2300C4
:1023F00042331A7857331A70563B1A7857331A708B
:10240000220001239B323370137000212000FFF75C
:1024100027FFF7BD23004233EFE723000022993363
:10242000EDE73570F1E710B50400406D00F0F4FD04
:102430002100636D58311A790A70587A0231487058
:102440001B7A0B70002A02D02000FFF72CFF636D6F
:102450005B79002B02D02000FFF786FF10BD0B0038
:10246000F0B50600070004003C331A7898365C3754
:1024700085B03270380009F039F8357839002A0013
:102480002000FFF75BFF6319020A5C331A70AB1C74
:102490000135EDB265195C35337028702000FFF707
:1024A00081FE230000259E331988606D2B000A00F1
:1024B000009500F0EBFC23002100327833331A70D2
:1024C000606D293100F05BFB022103AB327819709B
:1024D00030315980039B3900606D009500F064FD38
:1024E0000121606D00F05AFA05B0F0BD10B5406DE5
:1024F00000F063FA10BD704713B513006A46073247
:10250000137003689C690123A04713BD37B56B4660
:10251000DC1D036822001D6A0123A84720783EBD08
:1025200010B5040003F0D0FD200010BD10B504006C
:10253000142003F089FD606A012105F053FA00219F
:10254000606A05F09BFA322003F07EFD606A01218B
:1025500005F094FA0021606A05F044FA142003F0B3
:1025600073FD10BD73B505000021006A05F086FA01
:1025700096231B01013BFDD100266B460E4C5E717C
:102580001E71019A0D49200005F08CFCC02120002D
:1025900005F0B8FC3100200005F0B4FC286A0121E8
:1025A00005F06CFA200005F099FCA86A05F092FA93
:1025B0000128FAD073BDC046D009002080841E00D7
:1025C000F0B505000F0085B000920193A86A05F0F0
:1025D00081FA0128FAD000240021286A05F04EFA79
:1025E00002AB134E5C711C7112493000039A05F066
:1025F00059FC3900300005F085FC019B9C4207DA4C
:10260000009B3000195D013405F07CFCA4B2F4E7B6
:10261000286A012105F032FA300005F05FFC842FB2
:1026200004D0A86A05F056FA0128FAD005B0F0BD2A
:10263000D009002080841E00F0B506000F0085B090
:1026400000920193B06A05F045FA0128FAD00024FF
:102650000021306A05F012FA02AB1C4D5C711C714E
:102660001B492800039A05F01DFC39002800C02FE3
:1026700019D105F047FC009B21001870280005F0D7
:1026800041FC2100280005F03DFC306A012105F0E5
:10269000F5F9280005F022FCB06A05F01BFA0128C4
:1026A000FAD005B0F0BD05F02DFC2100280005F0A2
:1026B00029FC019B9C42E8DA009B002128001F199D
:1026C00005F020FC01343870A4B2F2E7D0090020F4
:1026D00080841E00F0B506000F0085B000920193C3
:1026E000B06A05F0F7F90128FAD000240021306A19
:1026F00005F0C4F902AB164D5C711C71039A1549C3
:10270000280005F0CFFB1821280005F0FBFB390A53
:10271000280005F0F7FBF9B2280005F0F3FB019B58
:102720009C4207DA009B2800195D013405F0EAFBA2
:10273000A4B2F4E7306A012105F0A0F9280005F001
:10274000CDFBB06A05F0C6F90128FAD005B0F0BD9E
:10275000D009002080841E00F0B506000F0085B06F
:1027600000920193B06A05F0B5F90128FAD000246F
:102770000021306A05F082F902AB194D5C711C71C1
:10278000039A1849280005F08DFB1921280005F04F
:10279000B9FB390A280005F0B5FBF9B2280005F0AD
:1027A000B1FB2100280005F0ADFB019B9C4209DA3A
:1027B000009B002128001F1905F0A4FB013438708C
:1027C000A4B2F2E7306A012105F058F9280005F0BB
:1027D00085FBB06A05F07EF90128FAD005B0F0BD9E
:1027E000D009002080841E00F0B506000F0085B0DF
:1027F00000920193B06A05F06DF90128FAD0002427
:102800000021306A05F03AF902AB144D5C711C717D
:102810001349039A280005F045FB1A21280005F00A
:1028200071FB3900280005F06DFB019B9C4207DA23
:10283000009B2800195D013405F064FBA4B2F4E7A5
:10284000306A012105F01AF9280005F047FBB06A4B
:1028500005F040F90128FAD005B0F0BDD0090020FC
:1028600080841E00F0B506000F0085B00092019331
:10287000B06A05F02FF90128FAD000240021306A4F
:1028800005F0FCF802AB174D5C711C71039A1649F8
:10289000280005F007FB1B21280005F033FB390059
:1028A000280005F02FFB2100280005F02BFB019BE1
:1028B0009C4209DA009B002128001F1905F022FB29
:1028C00001343870A4B2F2E7306A012105F0D6F87D
:1028D000280005F003FBB06A05F0FCF80128FAD0E7
:1028E00005B0F0BDD009002080841E0070B5022321
:1028F00004000025012663730D33E373053B237445
:10290000244BA26208332360069B08006362079B86
:102910002571A363089B6571E363099BA57123641B
:10292000E571A572E5722573257265726574267767
:102930002162310005F056F83100206A05F09EF85A
:102940003100606A05F04EF83100606A05F096F8D3
:102950002900A06A05F046F83100A06B05F042F8A6
:102960002900A06B05F08AF83100E06B05F03AF819
:102970003100E06B05F082F83100206C05F032F890
:102980002900206C05F07AF8034805F063FA20006E
:1029900070BDC04660D80000D009002010B5006CA2
:1029A00005F06CF810BD10B5806B05F067F810BD30
:1029B00010B5C06B05F062F810BD10B5C06A05F027
:1029C00089F8C0B210BD5421036870B505005B6A78
:1029D000FF319847AA212B6804005B6A2800490050
:1029E00098472402204380B270BD37B56B46DC1D8A
:1029F00000232370036822005D69C0210123A847DA
:102A000020783EBD407B704710B5040003689B688A
:102A10009847236820005B6B984710BD13B56B4641
:102A20008C07DA1DCB07DB0FE40FA400DB00234388
:102A30000C074907E40FC90F2343490019431170DC
:102A4000437B842183730023437303681C69012340
:102A5000A04713BD437B10B5002B04D1837B437388
:102A600003685B6B984710BD73B56B46DD1DD9716C
:102A700003682A001E69802101230400B0472B78D7
:102A8000002B02D10233637373BD0323FBE713B53D
:102A90006B46DA1D03681170C1731C698A2101231A
:102AA000A04713BD37B50400080008F095FB0022CD
:102AB000084B07F031F905F00DFF01AA030C137064
:102AC000030A5370236890701D6986210323200038
:102AD000A84737BDA8CB684037B5036801AC1231B1
:102AE0001D6921706270022322008E21A84737BD24
:102AF00037B5036801AC1D692170627002232200A2
:102B00008F21A84737BD37B50C00C37B0978050076
:102B10008B4201D0FFF7BBFF207801AA0F2817D8FE
:102B200005F0BEFC080F0F1D2316161616161616F6
:102B30001616162963781370A3785370E378937090
:102B400006E02379137063795370A1792B74917027
:102B50002B6828001C698B210323A04737BDE3792C
:102B60001370237A5370637AE9E7A37A1370E37AD8
:102B70005370237BE3E7002313705370DFE737B50F
:102B80000C00C37B097805008B4201D0FFF77FFF63
:102B900020780F2818D805F083FC081F1F2D3C173C
:102BA000171717171717171717486A466378137000
:102BB000A3785370E37893702379D370637913719A
:102BC000A3795371E37993712B6828001C696A46D5
:102BD00007238C21A04737BD6A46237A1370637A96
:102BE0005370A37A9370E37AD370237B137100231D
:102BF0005371E8E76A46637B1370A37B5370E37BF2
:102C00009370237CD370637C1371A37C5371E37C3A
:102C1000D9E76A46237D1370637D5370A37D93705B
:102C2000E37DD37000231371E2E700236A4613703B
:102C300053709370D370F6E7F0B5040085B0036865
:102C400003AD01925F690E0002232A001721B847E5
:102C5000E37B012B10D123680D495B6A2000984764
:102C6000C011012808D123680A495B6A20009847EF
:102C7000307007E02B7804E0E37B042BFAD12B784B
:102C8000023333706B78019A137005B0F0BDC04603
:102C90000309000001090000F7B505000C000368F6
:102CA0006A465E691D210523B047E87B20700F2826
:102CB0005BD805F0F5FB084F4F5EAA5A5A5A5A5A8C
:102CC0005A5A5A5A5AE36B465B7801225B085B42B8
:102CD00063706B469878A378810911409343450946
:102CE00015400B430221954006098B4316402B43A8
:102CF00004258E40AB4333430826C5081540ED003C
:102D0000B3432B431025860816403601AB433343AB
:102D10002026450815406D01B3432B434025104044
:102D20008001AB430343A3706B46D878E378450931
:102D30001540934310402B4390401A008A430243AE
:102D4000E2706B4607211A7923790A408B431343BB
:102D500023710AE06B461B785B085B4263706B462D
:102D60005B787F2B02DC9B08A370F7BDFD3B9B10BB
:102D7000FAE76B465B7801215B085B4263706B4648
:102D80009878A27883090B408A431A4302234509A5
:102D90000D408D40070904260F409F409A432A4367
:102DA000B2433A430827C5080D40ED00BA432A4311
:102DB0001025AA43944683080B406546B3402B4335
:102DC000202542080A405201AB43134340220840E9
:102DD0009343800118436B46A070DA78E0781D3D7C
:102DE000A843930955090D400343AD001009B343AF
:102DF00008402B43C000BB4303430A401900102383
:102E0000B24099431143E1709BE76B465B78012226
:102E10005B085B4263706B469978A3788D09154017
:102E2000480993432B43104002259040AB43034392
:102E300004200D091540AD0083432B430825C80825
:102E40001040C000AB43034310208D0815402D01F6
:102E500083432B432025480810404001AB430343E4
:102E600040201140890183430B43A3706B46D978FE
:102E7000E378114093430B43E37062E7052200219E
:102E8000200008F04EFB0F2323706EE773B56E46EB
:102E900006AC24880D0A7170F2707371110A1A0A57
:102EA000230AB37103683570B1703271F4716A46E8
:102EB0001C698D210823A04773BD37B5036801AC99
:102EC0005D69220002231521A847237860781B0240
:102ED00018433EBD13B50B0A01AA13700368517065
:102EE0001C6997210223A04713BD13B56B46DA1D59
:102EF000036811701C6996210123A04713BD036864
:102F000010B51C690023D5211A00A04710BD70B56B
:102F10000D00190003689C6A13002A00A04770BDC9
:102F2000F0B5160085B0019302ABDD1D2A000F003D
:102F300031000400FFF780FE3378019A01209342AC
:102F400006DC226829782000D56A3A00A8470020CC
:102F500005B0F0BD13B5036801AA11701C69A32167
:102F60000123A04713BD00007FB50B0004000191B1
:102F700003AD090C2B70A9700B0A0A496B70FFF79F
:102F8000A9FFE37B022B03D101212000FFF7E2FF21
:102F900023682A001E69832103232000B0470623EB
:102FA00063737FBDFFFF000013B50400019304AB02
:102FB0001B78FFF7ACFF01992000FFF7D5FF13BD89
:102FC0007FB50B000400019103AD090C2B70A970B3
:102FD0000B0A0A496B70FFF77DFFE37B022B03D1DD
:102FE00000212000FFF7B6FF23682A001E69822116
:102FF00003232000B047052363737FBDFFFF00005C
:103000000023037143718371C3718372C3720373AD
:10301000037243727047000070B50400C67BFFF76F
:103020004CFF494905002000FFF754FF2000FFF73F
:10303000E7FF042E0BD83000637BDBB205F030FADB
:10304000032D5D030300052B02D0062B1CD070BDA1
:1030500002231D4203D06A0611D50133A3726B0708
:1030600001D50123A3712B0701D50223A3720123EC
:103070006A0400D563721D42E9D02371E7E72A078D
:10308000ECD401236371EAE701231D4200D02371D0
:103090006B04DCD501232372D9E7062BF4D0072B70
:1030A0001BD0052BD3D1AB0703D56B0612D5032359
:1030B000A372EB0601D50123E371AB0601D5012311
:1030C000A3726B0401D501236372EB05BFD5042302
:1030D000A372BCE701236371EBE7EB0408D58023FF
:1030E0009B011D4002D001232373B0E72573AEE797
:1030F0006B04ACD501236372A9E7052B0AD0062B1C
:10310000A5D16B0501D50323E372AB059FD504233D
:10311000E3729CE7EB0501D50123E3722B0501D592
:103120000223E3722B0601D50223E3726B0401D55F
:103130000123E372EB0601D50123E371AB0600D452
:1031400085E70123C4E7C046FFFF00007047002069
:1031500070470000034B0171083303600023437183
:103160007047C046A4D8000070B51D000379040064
:1031700016008B4201D0FF2B0AD183231B019E42F4
:1031800043D007D8303B9E421AD020339E4231D0E4
:1031900000262BE084231B019E4241D010339E4227
:1031A000F6D1E9B22A0A2B0C2D0E002943D02100BA
:1031B00056310A702200553213705434257015E0D0
:1031C000A800800808F008F800221F4B06F0A4FDB4
:1031D0001E4B002206F0A0FD08F088F86B0002D517
:1031E00080231B06C018002D02DB2064300070BD58
:1031F0006064FBE7280007F0ADFF0022144B06F0E7
:103200008BFD08F073F8A064F0E7280007F0E4FFF6
:103210000022104B06F080FD08F068F8E064E5E756
:10322000280007F0D9FF0022094B06F075FD08F0D1
:103230005DF82065DAE7210059310A702200583222
:1032400013705734BAE7C0460088C34000004E40B0
:103250000000594000609E4070B50D0001790400E7
:10326000914221D14079062818D805F019F9041E99
:1032700027323D485300626A93420AD9FA229200EB
:103280009B18A268636280210901280000F013F9ED
:1032900004E080210901280000F043F9637901333B
:1032A000DBB2062B3ED8637170BDA26A9342F0D99F
:1032B000FA2292009B18A362E268E4E7E26A934272
:1032C00005D9F533FF33E36222698221DCE78221ED
:1032D000E0E7226B934205D9F533FF33236362693C
:1032E0008321D1E78321D5E7626B934205D9F5337A
:1032F000FF336363A2698421C6E78421CAE7A26B16
:10330000934205D9084A9B18E269A3638521BBE76C
:103310008521BFE7E26B9342FAD9034A9B18E36326
:10332000226AF3E70023BEE71027000010B504006F
:10333000FFF710FF024B20000833236010BDC0468A
:10334000B4D8000070B50E000021051C05F082FA0B
:10335000002812D080231B06E818144905F05AFEF5
:10336000134905F057FE05F09DFA8400A408002ECD
:1033700016D180231B061C430CE00C49281C05F0C9
:1033800049FE0B4905F046FE05F08CFA8400A408BE
:10339000002EEED00021281C05F05CFA002802D097
:1033A0008023DB051C43200070BDC0460000704236
:1033B00000401C46F0B587B01E1C0EAB1B78040005
:1033C00001930FAB1B78081C029310AB1B780121F3
:1033D000039311AB1B78171C049312AB1B78059356
:1033E00013AB1D78FFF7AEFF0021A060381CFFF77C
:1033F000A9FF1549E0600D9805F00CFE05F052FAA2
:103400001249A0610C9805F005FE05F04BFA0E4933
:103410006061301C05F0FEFD06F0B8F8019B029AD1
:103420001B021343039A1B021343FF221B02134385
:10343000E361049B059A1B0213431B021D432D02EB
:103440002061256207B0F0BD0000C8420000F344CF
:1034500000234360036070470023016003817047CD
:1034600070B5040000680D00002811D003681B68C7
:103470007E290ED17D2198475E21206803681B6854
:1034800098472189491989B20B12C918C9B22181FB
:1034900070BD7D29F4D1984720685D2103681B68C1
:1034A000EEE7018910B5C943C9B20400FFF7D8FFA0
:1034B0000023238110BD37B56B46040000680092DD
:1034C0009D1DD98000282BD002F072FF1021200012
:1034D000FFF7C6FF29782000FFF7C2FF69782000B8
:1034E000FFF7BEFF6B4620001978FFF7B9FF6B4668
:1034F00020005978FFF7B4FF6B4620009978FFF75A
:10350000AFFF6B462000D978FFF7AAFF2000FFF736
:10351000C8FF20680368DB689847206802F043FF13
:1035200037BD37B56B46040000689D1DD980002863
:1035300020D002F03DFF00212000FFF791FF297805
:103540002000FFF78DFF69782000FFF789FF052530
:10355000013D002D04D000212000FFF781FFF7E797
:103560002000FFF79EFF20680368DB68984720680B
:1035700002F019FF37BD10B504007030FFF768FF87
:103580000022231D2000DA6710BD10B54360029BA6
:1035900002608360039B0200C360049B7C32036172
:1035A000059B4361069B8361079BC361089B036284
:1035B000099B43620A9B83620B9BC3620C9B036360
:1035C0000D9B43630E9B83630F9BC363109B03643C
:1035D000119B4364129B8364139BC364149B036518
:1035E000159B4365169B8365179BC365189B0366F4
:1035F000199B43661A9B83661B9BC366002313704B
:1036000013781B2B05DC9C002458002C01D00133BF
:10361000F5E77030FFF720FF10BD036FF7B504002A
:10362000002B2ED002F00AFD231DDB6F0190002B32
:1036300027D1206F03681B699847002821D0206F8D
:10364000FF2603685B69984723007D331A78C0B270
:103650007E2A00D106001870FF2E12D0002523000C
:103660007C331B789D420CDA2100AB0018593200E4
:10367000036870311B6801351F00019BB847EDB22C
:10368000EDE7F7BD020000234D3203704370436045
:10369000037243728372C3601370D3709371D371DA
:1036A0001372704710B5002302000400002103616B
:1036B00017322034A24202D011700132FAE7010021
:1036C0000400002222312C34A14202D00A700131C0
:1036D000FAE72A21841C02634263E1772B342275C6
:1036E000627502004C322170E1744364836411708E
:1036F0008363C36310BD0000F7B5C36802690400AB
:103700001A6006698049301C019305F093FA05F0B0
:10371000C9F87E490500301C05F08CFA071C6420AE
:10372000684305F0A3FF011C381C05F093FD05F06C
:10373000B9F807007648684305F098FF011C301C73
:1037400005F088FD061C6420784305F08FFF011CFE
:10375000301C05F07FFD05F0A5F8019B1871E368AA
:103760005F71E3689D7100231A0001330A2B0BD1AE
:1037700000235A1CE5680B2A0CD019002231615C29
:10378000ED18A9741300F4E7E068E118897D821848
:10379000D171E9E7E37D002B25D000232B622300C4
:1037A00026000A2720335B4817360193019BB3425A
:1037B00012D031782E290DD00B00303BDBB23929E5
:1037C00001DD3739CBB243432A6A3900D3182B6263
:1037D00004F004FF0136E9E7A31CDB7F532B02D181
:1037E0002B6A5B422B622F6A4B49380004F0F6FECD
:1037F00005F0ECFE061C380005F0E8FE424905F035
:1038000019FA4249071C301C05F004FC011C381C45
:1038100005F020FD414905F00DFA311C05F078F85E
:10382000E31CA862DB7F002B26D000236B62230001
:1038300026000A272C333A4822360193019BB342D3
:1038400012D031782E290DD00B00303BDBB2392954
:1038500001DD3739CBB243436A6A3900D3186B6252
:1038600004F0BCFE0136E9E723002D331B78572B0B
:1038700002D16B6A5B426B626F6A2749380004F0C1
:10388000ADFE05F0A3FE061C380005F09FFE1E49A4
:1038900005F0D0F91D49071C301C05F0BBFB011CCD
:1038A000381C05F0D7FC1D4905F0C4F9311C05F0A2
:1038B0002FF8A31CE862DB7F6B7423002D33E268D2
:1038C0001B785377230040331A78E36830331A703B
:1038D000230041331A78E36831331A7023004233EE
:1038E0001A78E36832331A70E368626C5A63A26C28
:1038F0009A6322004C3212783C331A700122E3683A
:103900003D331A70F7BDC04600401C460000C84257
:10391000102700008096980040420F00000070427F
:1039200000E1F50570B504001D0000239626E26055
:103930003D32616013700B68B601DB69080031002D
:1039400098470321059804F0DDF80321049804F05A
:10395000D9F8FA20800002F077FB2049606802F075
:10396000F7FBFA20800002F06FFB9623DB019D42FB
:1039700030D010D8B54228D00321059804F0C2F801
:103980000321049804F0BEF82000FFF78BFE20000E
:10399000FFF7B2FE70BD96231B029D421CD0E123AF
:1039A0000F491B029D42E7D1606802F0D1FBFA206B
:1039B000800002F049FB606803685B6A98476068B2
:1039C00029000368DB699847D6E7FA20800002F0F7
:1039D0003BFBD1E70349E7E70349E5E7C4D800002B
:1039E0001AD90000F6D8000008D9000002000D29FD
:1039F00002D00120242908D1110052310B78FF2B6D
:103A000001D001330B70002010727047F0B5040034
:103A10008FB0606803681B69984703005A1E934182
:103A20002370002870D0606803685B699847C1B252
:103A30000200207A61700F2832D804F03BFD10009C
:103A40001E003F00670072008C00A600C100DD0070
:103A5000040137019101E40100021802290224291E
:103A60004FD1220000235032637220001370D370B4
:103A7000FFF718FE0123237243E02200607A5332DD
:103A80000130C0B26072137801384B4013700528C2
:103A900006D804F005FD030703030A0D4729E9D002
:103AA0000023E8E75029FBD1E4E74129F8D1E1E719
:103AB0002C29F5D1002363720233DCE7637A2000FE
:103AC00001336372FFF792FF00281AD022005332AD
:103AD000657813786B40137003232E2DCBD0BA4931
:103AE000206905F097FA061C28003038C0B2392D3D
:103AF00001DD373DE8B205F069FD311C04F008FF37
:103B000020612378002B84D10FB0F0BD2200533206
:103B100013784B4013702C29F3D1002363720433C4
:103B2000A9E7637A200001336372FFF75FFF002883
:103B3000E7D02100533162780B7853400B702C2A68
:103B400003D100236372053395E7637A092BD8DC30
:103B5000E3189A75D5E7637A200001336372FFF7A3
:103B600045FF0028CDD02100533163780A785A40B0
:103B70000A702C2B03D10023637206337BE7627A31
:103B8000012ABED1A21CD377BBE7637A20000133A0
:103B90006372FFF72BFF0028B3D021005331627806
:103BA0000B7853400B702C2A03D100236372073328
:103BB00061E7637A0A2BA4DCE3180233DA77A0E723
:103BC000637A200001336372FFF710FF002898D05A
:103BD0002100533163780A785A400A702C2B03D1A4
:103BE00000236372083346E7627A012A00D088E72F
:103BF00022002D32137084E7637A20000133637250
:103C0000FFF7F4FE002800D17BE7210053316378F1
:103C10000A785A400A702C2B03D1002363720933AF
:103C200029E7627A012A00D06BE722004032137044
:103C30001A00303AD2B2392B01DD373BDAB2230019
:103C400041331A705DE7637A200001336372FFF736
:103C5000CDFE002800D154E72100533163780A7863
:103C60005A400A702C2B06D1220000235532637271
:103C700013700A33FFE62100627A4231012A08D12B
:103C80001A00303AD2B2392B01DD373BDAB20A7072
:103C900037E70A220878424318003038D2B2C0B25F
:103CA000392B01DD373BD8B21218F0E7637A2000D8
:103CB00001336372FFF79AFE002800D121E722004A
:103CC0005332657813786B4013702C2D04D1002388
:103CD000637293700B33CEE62E2D03D123000A229C
:103CE0005533AEE72D2D02D1384B636409E7270029
:103CF00055373E78002E12D13349606C05F08AF9B1
:103D0000061C28003038C0B2392D01DD373DE8B23D
:103D100005F05CFC311C04F0FBFD6064F1E6642EF0
:103D200000DDEEE62800636C30380193C0B2392D17
:103D300001DD373DE8B205F099FC051C300005F0C7
:103D400095FC011C281C04F075FF019904F0E0FDAE
:103D50006064642E00D1D4E60A235E433E70D0E650
:103D6000637A200001336372FFF740FE002800D120
:103D7000C7E622005332657813786B4013702C2D00
:103D800003D1002363720C3375E62E2DA6D02D2DA2
:103D900002D10E4BA364B4E6270055373E78002EBF
:103DA00016D10949A06C05F035F9061C28003038F9
:103DB000C0B2392D01DD373DE8B205F007FC311CFA
:103DC00004F0A6FDA0649CE600002041000080BF36
:103DD000642E00DD95E62800A36C30380193C0B254
:103DE000392D01DD373DE8B205F040FC051C3000FF
:103DF00005F03CFC011C281C04F01CFF019904F098
:103E000087FDA064A5E7637A200001336372FFF7A2
:103E1000EDFD002800D174E62100533163780A7863
:103E20005A400A702C2B03D1002363720D3322E613
:103E3000627A012A00D064E622004C32DAE6637A24
:103E4000200001336372FFF7D1FD002800D158E64E
:103E500063782A2B06D12200002354326372137038
:103E60000E3308E62200533211784B40C2E6FF239E
:103E70001A400B00303BDBB2392A01DD3739CBB2B7
:103E80002200543211781B01CB1813700F23F2E576
:103E9000FF231A400B00303BDBB2392A01DD3739F2
:103EA000CBB222005432117859182300C9B21170D4
:103EB00053331B788B4244D1264D2749286802F0A2
:103EC00030F92000FFF718FC244905A82D6803F0FD
:103ED000CAFEE3680222196802A803F02BFF02A9B8
:103EE00005A803F064FF1E4903F06EFF0600E368B7
:103EF0000A223233197808A803F0E7FE08A9300037
:103F000003F055FF174903F05FFF0600E3680BA8B5
:103F10003033197803F0CBFE0BA9300003F047FFD4
:103F20000100280002F00AF90BA803F054FE08A8CB
:103F300003F051FE02A803F04EFE05A803F04BFE6D
:103F4000AEE5220051321378FF2B00D1A8E50133F2
:103F50001370A5E59C0200202CD9000049D900006F
:103F60004ED9000054D90000F7B50121002003F01C
:103F700039FD0021080003F081FD0021132003F02A
:103F800031FD0021102003F02DFD032003F092FCF1
:103F900000210F2003F026FD0121142003F022FD53
:103FA0000021142003F06AFD01211D2003F01AFDF9
:103FB00001211D2003F062FD8F26FA20B600C0000B
:103FC00002F042F8300002F07BF8012400250700DF
:103FD0000C22019500940B233A4902F09DFA3A4BCA
:103FE000210002201F6003F0FDFC2100022003F0ED
:103FF00045FD2100152003F0F5FC2100152003F0FC
:104000003DFD300002F05CF8212307001A00019505
:1040100000942E4902F080FA2D4B210012201F60DF
:1040200003F0E0FC2900122003F028FD210020000D
:1040300003F0D8FC2900200003F020FD210004201B
:1040400003F0D0FC2900042003F018FD210011200A
:1040500003F0C8FC2100112003F010FD21002020F6
:1040600003F0C0FC2900202003F008FD29000520F2
:1040700003F0B8FC2900192003F0B4FC210018203B
:1040800003F0B0FC2100182003F0F8FC29001A20EE
:1040900003F0A8FC21001E2003F0A4FC29001E2030
:1040A00003F0ECFC300002F00BF803230500009352
:1040B00001940B330D22074902F02EFA064B1D60C6
:1040C000F7BDC046000A0020A0020020080A002018
:1040D000A40200200C0A00209C02002010B5024B14
:1040E000186802F084FA10BDA002002010B5024B3F
:1040F000186802F07CFA10BDA802002010B5024B2F
:10410000186802F074FA10BDA402002010B5024B2A
:10411000186802F06CFA10BD9C02002010B5102047
:1041200003F0FAFB05F0A2FA07F08EF8054A064BF9
:1041300006F026FA0022054B06F022FA07F0D6F820
:1041400010BDC046CDCCCCCCCCCC16400000503FEE
:1041500010B5132003F0E0FB05F088FA034904F0E2
:1041600059FFEA21890504F055FF10BD00003041D8
:1041700010B50F2003F0D0FB05F078FA034904F0E6
:1041800049FFEA21890504F045FF10BD00003041D8
:1041900010B50121002003F071FC10BD002110B505
:1041A000080003F06BFC10BD10B50021142003F0D3
:1041B00065FC10BD10B50121142003F05FFC10BD9B
:1041C00010B501211D2003F059FC10BD10B50021D0
:1041D0001E2003F053FC10BD10B501211E2003F07A
:1041E0004DFC10BD70B50B4C206800F030FF0A4D3F
:1041F000280002F05DFE0423084A11690B43136195
:10420000BFF34F8F30BF280002F014FE206800F08B
:1042100026FF70BD980300201004002000ED00E090
:1042200010B50A4B9A79042A09DD00229A713433B9
:104230001B78934204D1064B186800F019FF10BD9B
:10424000044B0549186801F083FFF8E7A00300203C
:10425000980300209C0200209BD90000F0B5322575
:104260008FB04C4C6379002B00D190E0013B63711F
:10427000FFF754FFA060FFF76BFFE060FFF778FFE8
:10428000454B2061196845480B7907934B79069394
:104290008B790593002304930393029300230193E6
:1042A00000938B6BCA6A896AFFF784F8E06806F0AE
:1042B000CBFF3B4A3B4B04F09DFA220035320028ED
:1042C00004D1230036331B78002B03D01378FF2B47
:1042D00001D00133137034490BA803F0C4FC1A2039
:1042E00003F0F8FB0A22010008A803F0FFFC08A96C
:1042F0000BA803F05CFD01002C4801F01FFF08A88B
:1043000003F069FC0BA803F066FC1A2003F0E2FB43
:10431000012822D10A2600271A2003F0DBFB013EE8
:104320003F18022001F090FE002EF5D10A2F98D1FF
:1043300022003A3213780133DBB21370022B05D11D
:10434000FFF744FF3B34012323708AE7032B88DD0A
:104350003B34FFF741FF267083E723003B331B7894
:10436000002B12D00A26FFF737FF280001F06CFE61
:10437000013EFFF72BFF280001F066FE002EF2D170
:1043800023003B331E703C34DDE73A34DCE70FB0EA
:10439000F0BDC046A003002090030020AC02002026
:1043A0003333333333331140B5D90000F4030020E5
:1043B00070B5FFF753FF534D2868FFF727FBFFF752
:1043C0002FFF514B186800F031FC504C23003C3358
:1043D0001B78002B01D00523E371E079052831D843
:1043E00004F05EF8880313224E71230035331B78E6
:1043F000022B02DD0223E371DBE7454B186801F075
:104400009BFC4448FFF709F9D3E7230035331B78B9
:10441000002B01D10133EEE73C2BEEDDFFF7D0FEA0
:10442000002323870323E6E7E06806F00DFF3A4AFE
:104430003A4B04F0E9F9002806D0230036331B7804
:10444000002B01D10023D6E73549A06804F00CFA0F
:10445000061E01D00523CEE7FFF7C4FE238F0133EC
:104460009BB223873C2BA4D9FA20C000268701F0F9
:10447000EBFD2868FFF7CAFAFFF79CFE0423BAE7B2
:10448000E06806F0E1FE244A244B04F0BDF9002860
:1044900004D0230036331B78002BD3D02049A068EA
:1044A00004F0E2F9051ED5D1FFF79CFE9622238F7A
:1044B000920001339BB22387934200D879E7258786
:1044C000FFF772FEAEE7FFF769FE152532240121E2
:1044D000280003F0D3FAFFF779FE200001F0B4FDC5
:1044E0002800002103F0CAFAFFF776FE200001F051
:1044F000ABFDECE7FFF758FE220000233532637175
:10450000137087E78C03002098030020A00300208D
:104510009C0300200803002033333333333311402E
:1045200000004040F0B5002585B0009136490400F8
:10453000019203F098FB009E019B009A9B1BD318ED
:10454000002B2BDD327802A96B1C4A55032B22D19C
:104550000A7803AD93082B704B78302112010A4082
:10456000190952183C216A7002AA92789B000B40EC
:1045700091095B18AB703F2300271A40EA70E95D90
:10458000224803F035FC01370178200003F005FCD8
:10459000042FF4D1002301361D00CDE7002D30D0CB
:1045A0002B000022022B03DC02A9CA540133F9E7D5
:1045B000302102AB1A7803AE9308337002AB5B78FC
:1045C00012010A401909521872703C2200279B0000
:1045D000134002AA927892099B18B370F15D0B48C0
:1045E00003F006FC01370178200003F0D6FBBD4242
:1045F000F4DA032D05D03D21200003F0CEFB013578
:10460000F7E7200005B0F0BD7EDB0000E0030020EE
:10461000FE22214B920510B51A600B221A7100225E
:1046200000249A60DA601A611C4A5C719C715A61BC
:104630001268DC719A611A4A8321DA61126819489A
:104640001A62194A5A6212689A62184ADA62126841
:104650001C871A631A00343214701A003532147031
:104660001A00363214701A003A3214701A003C33B1
:104670003B321C701470FEF759FE21000C48FEF707
:104680007AFF0C4C0C49200003F0EDFA0B4A0C4960
:10469000200003F0F3FE10BDA00300200CA080005A
:1046A00040A08000AC02002044A0800048A0800010
:1046B00008030020E00300205AD900000000002079
:1046C000D77B0000F0B5E124ADB0FFF74DFCFB480F
:1046D00001F0BAFCFA4B6402186821000368DB6938
:1046E0009847F84E2100300002F0EEF8FA20400022
:1046F00001F0AAFCF44925A803F0B5FAF34D2868A7
:1047000004F044FF0A22010022A803F0EFFA22A9D4
:1047100025A803F04CFBEE4903F056FB2C6807007C
:10472000201C04F033FF04F051FF011C201C04F096
:1047300091FDE84904F06EFC04F028FF28AC0A2241
:104740000100200003F0D2FA2100380003F02FFB13
:104750000100300001F0F2FC200003F03CFA22A836
:1047600003F039FA25A803F036FADB49200003F0FC
:104770007AFA0A22A96925A803F0CAFA25A9200015
:1047800003F015FB0100300001F0D8FC25A803F070
:1047900022FA200003F01FFAD049200003F063FA48
:1047A0000A22296A25A803F0B3FA25A9200003F0FC
:1047B000FEFA0100300001F0C1FC25A803F00BFA5D
:1047C000200003F008FAC649200003F04CFA0A2240
:1047D000A96A25A803F09CFA25A9200003F0E7FAAE
:1047E0000100300001F0AAFC25A803F0F4F9200034
:1047F00003F0F1F9BB49200003F035FA0A22296BD6
:1048000025A803F085FA25A9200003F0D0FA0100BD
:10481000300001F093FC25A803F0DDF9200003F03F
:10482000DAF9B1491FA803F01EFA0A22A9691CA8E7
:1048300003F06EFA1CA91FA803F0B9FA07000A22B8
:10484000296A22A803F064FA22A9380003F0AFFA1B
:1048500007000A22A96A25A803F05AFA25A93800F8
:1048600003F0A5FA07000A22296B200003F050FA92
:104870002100380003F09BFA9C4F390003F0A4FAA2
:104880000100300001F05AFC200003F0A4F925A833
:1048900003F0A1F922A803F09EF91CA803F09BF9EC
:1048A0001FA803F098F9AB6991491A0E22701A0CEF
:1048B0006270E3701A0A2B6AA2701A0E22711A0C27
:1048C0006271E3711A0AAB6AA2711A0E22721A0C93
:1048D0006272E3721A0A2B6BA2721A0E22731A0CFE
:1048E000627325A81A0AE373A27303F0BCF91022BD
:1048F000210022A8FFF716FE22A925A803F057FAE7
:10490000390003F061FA0100300001F017FC22A821
:1049100003F061F925A803F05EF90021754B5956A3
:104920005A68C9015118744A8918022208789043BC
:10493000087018215956D869C90141186E480918DC
:10494000087890430870190078310978D86F49B217
:10495000C901411868480918087890430870CC21AB
:104960004900585604315958C001091862480918BD
:10497000087890430870D821490058560431595896
:10498000C00109185C480918087890430870F021A4
:104990004900585604315958C00109185648091899
:1049A000087890430870FC21490058560431595842
:1049B000C001091850480918087890430870C021B0
:1049C000C1208900595680001B58C9015B184A490B
:1049D0005B18197891431970FFF7E6FB582001F036
:1049E0006FFB0400FEF74EFE444F40203C6001F098
:1049F00067FB40220021040006F093FD0B23404E8C
:104A000040493460019301330093E12322001B02EB
:104A100009683868FEF786FFA02001F051FB1523D6
:104A2000002407000593043B04930F330393073BD3
:104A300000930422012102940194143BFDF76AFBC8
:104A4000314B32481F6001F03BFB2F4932682B008D
:104A500009681B9000F00CFA2D4F1B9BD0203B6087
:104A600001F02EFB284B39681A68060001F0D9F8CE
:104A70008F20284B80001E6001F022FB0123019350
:104A800002330722009324490333060001F044FD5A
:104A9000E121224F300009023E6001F05FFC03215A
:104AA000072003F02FF80321062003F02BF81994B8
:104AB000189417941694159432E0C0468813000099
:104AC0009C020020F4030020BDD90000A0030020B8
:104AD000DBD900000000C842DDD90000FFD900008A
:104AE00021DA000043DA000065DA000080DA000015
:104AF00082DA000020DC0000404400418C030020EA
:104B000090030020A0020020940300205810000011
:104B1000980300209C030020040A0020A802002023
:104B2000149413941294119410940F940E940D9461
:104B30000C940B940A940994089407940694059491
:104B40000494039402940194009423000C4A39685D
:104B50000C48FEF71AFD012001F0A0F9EC71FFF7F7
:104B600017FBFFF72DFBFFF7D9FAA860FFF7F0FA64
:104B7000E860FFF7FDFA2861FFF72EFB2DB0F0BDCE
:104B8000AC02002008030020F8B50E4B002503609E
:104B900003000200070004000E0080331D705D70EA
:104BA000FD327C33FF371D70080015707D709D60ED
:104BB0006160FDF70DFB30002900FDF751FB7D70B2
:104BC0002000F8BDB8DA000081300078704770B579
:104BD00008000D1E0FD00B78022B0DD0032B13D025
:104BE0000020012B07D1802001F06AFA290004007F
:104BF00000F0A0FD200070BD802001F061FA2900C6
:104C0000040000F059FEF5E7582001F059FA290098
:104C1000040000F0EDFFEDE710B504004068FDF77B
:104C200061FB00216068FDF71BFB10BDF0B50400BF
:104C300085B04068FDF75AFC012802D16068FDF795
:104C4000F2FB6068FDF75EFB030CDBB2070A039022
:104C5000C6B2050E60680093FDF765FB2300FF33C5
:104C600001935878FFB203280AD803F019FC0226F2
:104C70003D50002E04D1009B002B01D1002D05D00A
:104C800000216068FDF7ECFA002708E02368002F98
:104C900001D05B6800E09B68200098470700019BFB
:104CA0005B78BB4207D0236820001B689847019BB4
:104CB000FC34A0605F7005B0F0BD002EE0D1009B19
:104CC000002BDDD1002F01D02368E2E7002DD7D1E2
:104CD000236820001B68984723000127FC339B684A
:104CE00064339842DBD9CBE7002FC9D1002DC7D15F
:104CF000009B002BC4D1002EC2D1236820001B686A
:104D000098472300FC339B6802376433E9E7002FA0
:104D1000B6D1002DB4D1009B002BB1D1002E05D00F
:104D200001216068FDF79CFA0137B8E7236820008D
:104D30001B6898472300FC339B6803276433D0E744
:104D400010B504002000FFF771FF2300FF335B78EC
:104D5000002BF7D16068FDF7B3FA10BD10B5040061
:104D60007934227800231E2A0DD0030078331B7873
:104D70009B181D2B01D91E3B9BB2DBB29B00195027
:104D8000012301322270180010BD030010B5FD335D
:104D90001B7804001E2B07D0FFF719FF011E03D05C
:104DA00020008430FFF7DAFF10BD10B504000300C7
:104DB000002079342278824211D01A00783210789B
:104DC0008000C35801200B6013780133DBB21370ED
:104DD0002178013921701E2B01D10023137010BDE1
:104DE000030073B5002681331B7805001800B34219
:104DF00039D02C002800093401A9FF34083001966D
:104E0000FFF7D3FF31003C22200006F08AFB019817
:104E100000F0ADFB0600019800F0A9FB3C300278E1
:104E20003100200006F062FB019800F0A0FBA223F5
:104E30003C3002785B00EA54019800F098FB3D2278
:104E400046238256FF33EA54019800F090FB3E223D
:104E5000A323825601985B00EA54002802D003681D
:104E60009B689847200076BD10B501F0E7F810BDAB
:104E700070B5040016001D00FFF786FE0D4B48229A
:104E8000083323600023FF32A35422004832FF324C
:104E9000537093704B3A1365230007495933074801
:104EA000FF336118186080338B42FBD156659565DE
:104EB000200070BD18DB0000581000005CDB000013
:104EC00070B50C0005000B793F2203718B6883607D
:104ED000CB68C3600B6903614B69183143611830BB
:104EE00006F004FBA36D2800AB65E36DEB65236E54
:104EF0002B66230064331A782B0064331A70230066
:104F000065331A782B0065331A70230066331A78DC
:104F10002B0066331A70A36EAB66E36EEB6623005C
:104F200070331A782B0070331A70636F6B67A36F3E
:104F3000AB6723007C331A782B007C331A707D22F8
:104F40002B00A2567D331A707E22A2565A7070BD75
:104F5000F0B5040007000D0000235934ABB0FF3456
:104F600048260293FF36BB5D029A934228DD280053
:104F7000049400F0D9FA0390280000F0D7FA0590C5
:104F8000280000F0D5FA0600280000F0D3FA33001C
:104F90000090059A2000039900F0D6FA803403901F
:104FA00000280AD029000AA800F0AEFD0AA904983A
:104FB000FFF786FF03982BB0F0BD029B0133CFE7CC
:104FC000002203921D2BF5DCDB015933FF33FC1863
:104FD00029000AA800F098FD0AA92000FFF770FF39
:104FE0000D490AA802F03FFE0A22B95D07A802F0A7
:104FF0006CFE07A90AA802F0DAFE0100074801F0DA
:105000009DF807A802F0E7FD0AA802F0E4FDBB5DE9
:105010000133BB55CEE7C046F9DA0000F4030020A7
:1050200070B5050008000C0000F01EFC0300002015
:10503000142B03DD21002800FFF78AFF70BDA42296
:105040005200835CFD2B01DC0133835470474A23FB
:10505000012210B5FF33C254FFF772FE10BD4A2380
:10506000002210B5FF33C254FFF7D6FD10BD00007B
:1050700070B505008EB0802001F022F82B00FC33C3
:105080009C6D5A6D4823FF33EB5C06000D9323792A
:1050900002200C9323680B93A3680A93A4235B005C
:1050A000EB5C09930023089307930023E17902390D
:1050B000C9B288425B41DBB20693130031331B78DF
:1050C0000593130032331B780493536A0393136AD6
:1050D0000293106803F0E6FB0190236B300000930D
:1050E000A36A226AA16900F04DFA2B00FD331B78F8
:1050F0001E2B06D1064B0749186801F029F80EB09F
:1051000070BD280031008430FFF728FEF7E7C04665
:105110009C020020C4DA0000F0B50700FC37B1B0F3
:105120000600386DFDF7E3F801003000FFF74FFD92
:105130000E90051E19D000F0F5F9012804D00328BF
:1051400016D00024250005E00E993000FFF768FF17
:1051500000250400330081331B781E2B00D108E1A9
:1051600030000E990830FFF7F9FD280031B0F0BD8E
:10517000B96D0E980B6B00938B6A0A6A896900F00F
:10518000E3F90028DDD0A42300245B00F4540E983A
:1051900000F044FD01380328D4D803F081F902451A
:1051A000D3E44A23FF33F45C002CCAD14822FF32F7
:1051B000B25CBD6D7B6D0D922A7902200C922A683B
:1051C00021000B92AA680A92A4225200B25C0992B2
:1051D000002208920792EA79023AD2B290426141E3
:1051E000CAB206921A003132127805921A0032328F
:1051F000127804925A6A03921A6A0292186803F0AB
:1052000051FB01902B6B10A80093AB6A2A6AA96925
:1052100000F0B8F93D6D10A800F0A9F901002800D0
:10522000FDF71DF9022595E74A23FF33F45C002CB6
:1052300000D086E74823FF33F35C002B00D180E7E2
:10524000013BDD0175190F932B005D33FF331B7894
:1052500010AF3B712B002900FC335A6E7131129252
:105260009A6EFF311392DA6E1B6F149216A83F22CA
:10527000159306F03BF9434B02A910932B00B13371
:10528000FF331B683800BB652B00B533FF331B6849
:10529000FB652B00B933FF331B683B662B00BD3326
:1052A000FF331A7829AB1A702B00BE33FF331A78FC
:1052B0009D235B181A702B00BF33FF331A789E238F
:1052C0005B181A702B00C133FF331B68BB662B00C1
:1052D000C533FF331B68FB662B00C933FF331A78D5
:1052E0002CAB1A702B00CD33FF331B687B672B0070
:1052F000D133FF331B68BB672B00D533FF331A78DC
:105300002FAB1A702B00D633FF331A78B5235B18F6
:105310001A70B623D735FF352A785B181A703C21EE
:105320006A46482352181278FF33F25400F0FAF814
:1053300025000F90022800D00CE73300FC331D6DD0
:10534000380069E70121152002F098FBFA20C0001F
:1053500000F07AFE0021152002F090FB0122BB6DC7
:105360003C331A70EDE60122BB6D363319784A40A2
:10537000F7E7002C00D0F8E60E9B0E981B689B68A0
:105380009847F2E65CDB0000002337B501934A231F
:10539000FF33C45C0500002C02D0002420003EBD79
:1053A00001A98430FFF701FD0028F6D001980028FC
:1053B000F3D000F0B7F8002803D0022803D903285F
:1053C0000CD000241EE0FC352C6D019800F0CFF8C5
:1053D00001002000FDF743F8022413E0019800F0DB
:1053E0001DFC013803280DD8FC352C6D03F04EF858
:1053F0000202EDED019800F0BAF801002000FDF77F
:105400002EF8032401980028C8D003689B689847A9
:10541000C4E7000001710176110E4176110C826023
:1054200081760277110A1A0E70B542771A0C8277CC
:10543000049D059C104E1A0AC277421C0660C36088
:1054400005614461C176D3772A0E831CDA772A0C72
:10545000C31CDA772A0A031DDA77431DDD77220E93
:10546000831DDA77220CC31DDA77220A0133DA773B
:1054700020331C7070BDC04634DB000070B50E00D8
:105480000400274B3C360360327818300D0006F0DC
:105490002DF82300327854331A703D222300AA5687
:1054A00055331A703E22AA5620005A70237EA27EDF
:1054B0002371637E12041B069B18E27E12029B1866
:1054C000227F9B18A360A27F637F12041B069B1898
:1054D000E27F12029B18621CD27F9B18E360E21CE1
:1054E000A31CDB7FD27F1B0612049B18221DD27FD8
:1054F00012029B18621DD27F9B182361E21DA31D1F
:10550000DB7FD27F1B0612049B1822000832D27F59
:1055100012029B182200283212789B18636170BD1A
:1055200034DB00000079704780687047C0687047BE
:1055300000697047406970475530007840B2704745
:105540005630007840B2704730B50400A56800209E
:105550008D420BD1E168914208D122699A4205D16E
:10556000039B6069C01A42424241D0B230BD18303C
:1055700070477047704710B5040000F0A5FD20008B
:1055800010BD0000F0B587B0040010A8007804AE8C
:10559000039011A80078049012A80578252080199E
:1055A000C77F18A80078059019A806780C98009372
:1055B0000190130020000A000121FFF72BFF594B37
:1055C0006A46083323600D9B127BA3650E9B242142
:1055D000E3650F9B2366230064331A706A46127CCE
:1055E0009D705A70139B6A46A366149B127DE366F6
:1055F000230070331F70169B6367179BA3672300FC
:105600007C331A705E700D9B1A0C230029331A70BC
:105610000D9B1A0A23002A331A7004AA5218127812
:1056200004315A700E9B1A0E23002C331A700E9BF5
:105630001A1423002D331A700E9B1A1223002E33D6
:105640001A7004AA5218127804315A700F9B1A0E5D
:10565000230030331A700F9B1A14230031331A7051
:105660000F9B1A12230032331A7004AA52181278B0
:1056700003995A706022049B5B011340413A0A402F
:105680001343002D01D080221343220034321370C3
:10569000139803F007F9230080B2020A35331A7019
:1056A00058702149149803F0B5FC03F0FBF823006F
:1056B00080B23733020A1A7058709F70169805F03E
:1056C000C3FD80230022DB0505F0DAF90022174B29
:1056D00004F056FF03F0FEF823003A3318701798D1
:1056E00003F0E0F82300C5B23B331D701049179852
:1056F00003F090FC071C6420684303F067FF011C63
:10570000381C03F0A7FD03F0CDF86A462300127D94
:105710003C3318705A70200027229E701A7607B00A
:10572000F0BDC04640DB00000000204100005940B1
:105730000000C84210B50400FFF7A0FE474B083335
:105740002360230054331B78262B00DC83E02300E6
:10575000220029332A321B7812781B0412029B186C
:1057600022002B32127821009B18A365220023000F
:105770002D322C331B7812781B0612049B18220042
:105780002E321278643112029B1822002F321278C6
:105790009B18E36522002300313230331B781278E6
:1057A0001B0612049B1822003232127812029B1838
:1057B0002200333212789B18236623001F223433D1
:1057C0001B781A400A705A06920F5BB24A70002B7F
:1057D00003DA2300012266331A7023003533187868
:1057E00001331B780002C01803F0F0FE2300A0660E
:1057F0003733187801331B780002C01803F0E6FE37
:10580000174903F017FA2300E06639331A78373363
:105810001A70363B187803F029FF124903F00AFA90
:105820008021C90503F074F8230060673B331878C2
:1058300001331B780002C01803F0C8FE094903F0C9
:10584000F9F92300A0673D331A783F331A703E3BC5
:105850001A783F331A70200010BDC04640DB0000AC
:10586000000020410000C842703000787047806D11
:105870007047C06D7047006E7047643000787047A5
:10588000653000787047663000787047806E7047EA
:10589000C06E7047703000787047406F7047806FFF
:1058A00070477C30007870477047704710B504002F
:1058B00000F00AFC200010BD10B50400FFF7DEFD6B
:1058C000494B08332360230054331B78272B00DC1B
:1058D00087E02300220029332A321B7812781B0428
:1058E00012029B1822002B32127821009B18A3650C
:1058F000220023002D322C331B7812781B06120451
:105900009B1822002E321278643112029B1822005A
:105910002F3212789B18E365220023003132303396
:105920001B7812781B0612049B1822003232127860
:1059300012029B182200333212789B182366230030
:105940001F2234331B781A400A705A06920F5BB23A
:105950004A70002B03DA2300012266331A702300F9
:105960003533187801331B780002C01803F02EFE7F
:105970002300A0663733187801331B780002C01863
:1059800003F024FE194903F055F92300E06639338A
:105990001A7837331A70363B187803F067FE1449CB
:1059A00003F048F98021C90502F0B2FF23006067C7
:1059B0003B33187801331B780002C01803F006FE51
:1059C0000B4903F037F92300A0673D331A783F33C2
:1059D0001A703E3B1A783F331A703E3B1A783F33B9
:1059E0001A70200010BDC04654DB000000002041AA
:1059F0000000C8420200836D2932190C70B5117085
:105A0000190A51709370C36D0400190ED1701914E6
:105A10001171191251719371036E190ED17119140C
:105A200011729372191203005172602265331B7850
:105A30001F215B0113400200643212780A401343B5
:105A4000020066321278002A01D08022134322001D
:105A500034321370A06E02F025FF230080B2020AD8
:105A600035331A705870E06E244903F0D3FA02F00F
:105A700019FF230080B23733020A1A7022005870CF
:105A8000703212789A70606F05F0DEFB802300227E
:105A9000DB0504F0F5FF0022194B04F071FD02F064
:105AA00019FF23003A331870A66F301C02F0FAFE7B
:105AB0002300C5B23B331D701249301C03F0AAFA13
:105AC000061C6420684303F081FD011C301C03F0B8
:105AD000C1FB02F0E7FE230022003C3318707C3249
:105AE00012785A7022007D3212789A7022007E322B
:105AF00012785434DA702823237070BD00002041DE
:105B0000000059400000C842F0B5040085B008000C
:105B10000D00FFF709FD03902800FFF707FD0600C1
:105B20002800FFF705FD07002800FFF703FD039A93
:105B300002210190330000972000FFF76BFC274BF8
:105B4000280008332360FFF792FEA0652800FFF7C6
:105B500090FEE0652800FFF78EFE20662800FFF724
:105B60008CFE2300643318702800FFF789FE2300A1
:105B7000653318702800FFF786FE2300663318701F
:105B80002800FFF783FEA0662800FFF781FEE0668D
:105B90002800FFF77FFE2300703318702800FFF7FE
:105BA0007CFE60672800FFF77AFEA0672800FFF7F9
:105BB00078FE23007C3318702800FFF7BDFC23001B
:105BC0007D3318702800FFF7BBFC23007E3318706C
:105BD0002000FFF70FFF200005B0F0BD54DB0000F0
:105BE0007047704710B5040000F06EFA200010BD39
:105BF00010B50400FFF742FC074B08332360230075
:105C000054331B78112B04DD230029331A782E33EB
:105C10001A70200010BDC04668DB000057300078C5
:105C20007047002310B5040003608371CC300380FB
:105C3000A164E26419003C22C43805F072FC200023
:105C400010BD030070B500253C26040044331D70D0
:105C50005D7032002900083005F063FC200032003E
:105C60002900503005F05DFC2300CC348C331D70CE
:105C70005D709D70258070BD70B5037A0400012BA6
:105C800017D103000600010044331D785036033D50
:105C900009312A00300005F029FC230022008C3352
:105CA0001D7000238D32137053703100A06CFFF70C
:105CB0006CF870BDF8B506000D001E230200070049
:105CC00004008F363C3533702B78903202331370DA
:105CD00091372A78380005F009FC2A783900E06C01
:105CE000FCF72CFB2B78020AE31891331A702B78FF
:105CF0003100E418923420702A780248043200F00F
:105D000069FDF8BDF4030020037A10B5002B0FD114
:105D100001000200503151320B7013700300022257
:105D20008C331A70FFF7C6FF0122024B34331A700E
:105D300010BDC046A0030020F8B5494E0400300055
:105D400000F03CFD04272060002854D1A06CFEF731
:105D50003BFF002815D0A06CFFF742F802003C3250
:105D600013780100392B0CDC0D003D3000783E35F6
:105D7000C8542D78C8180233457013702000FFF7FF
:105D800099FFF8BDE3791E2B32D12000FFF759FFB0
:105D90000123A3712CE0E3793B2B01DD0023F8E71D
:105DA0001E2BF2D02200443213700223F1E7E27975
:105DB0001E2AEAD06271022AF0D8210045310B7800
:105DC000581CE31808701A720323E2E721004531DA
:105DD0000A78531CDBB20B70E179A21811723B2BCD
:105DE000DCD8220044321278023A934200DBA771D9
:105DF0002368002BC5DD300000F008FDE0713000A5
:105E000000F0DCFC2060A0790528C7D802F03EFB3A
:105E1000BAC3CFDE030A2200E379CC321B0213801F
:105E20000523B6E72500CC352A88E3792100134302
:105E30002B80230045331A780831E06CFCF77EFA9A
:105E40002B888342AAD16379002B05D0022BA5D8D9
:105E50002000FFF711FFA1E72000FFF755FF9DE7A6
:105E6000F403002037B501018020000202F0B6FBE8
:105E70000023094C451E208A228B80B2009592B2E5
:105E8000190001F09DFEADB280B220822583E37B34
:105E9000DB09FCD137BDC046002C0042204B214A13
:105EA00070B55A805A78D209FCD11F4A5A605A7884
:105EB000D209FCD11D4C0232238893432380E37B1B
:105EC000DB09FCD1802322881B0113432380238814
:105ED0009BB22380E37BDB09FCD122882033134370
:105EE0002380E37BDB09FCD180232288DB00134382
:105EF0002380E57BED09FCD1FFF7B4FF1023657328
:105F0000627B134380226373094BD2021A6002231F
:105F1000228813432380E37BDB09FCD170BDC0469C
:105F2000000C00401B42000002032100002C004234
:105F300000E100E010B50C4B9A7BD20612D510227E
:105F4000997B0A439A73094B1868FFF778F8084B56
:105F50005A79FD2A01DC01325A719A79132A01DC3F
:105F600001329A7110BDC046002C004298030020F7
:105F7000A0030020FEE70000034B10B51B68002BB8
:105F800000D0984710BDC046EC03002070B5012139
:105F9000152001F027FD15250A24322601212800AD
:105FA00001F06CFD300000F04FF80021280001F0F6
:105FB00065FD013C300000F047F8002CEED10248AE
:105FC00000F042F8E8E7C046B603000070B50F499C
:105FD0000F4CA14204D100F00FF900F051F8FEE798
:105FE0000C4D00238D42F6D0CA18E818A24205D302
:105FF0009042F0D0084B0949002204E000680433C5
:106000001060F1E704C38B42FCD3E4E700000020FA
:10601000800200202CE30000800200202C0A0020D7
:1060200010B500F02AF8002801D100F01BF810BDCF
:10603000014B18607047C046EC030020014B186804
:106040007047C046F003002070B5041E07D0044D11
:106050002E6800F011F82B689B1B9C42F9D870BD8C
:10606000F003002010B5034A13680133136000F0F9
:1060700087F810BDF003002070470020704770477C
:1060800010B501F09DFB05F0E7F9FFF7F8FF0120DF
:10609000FFF7DAFF084C200000F06CFE200000F053
:1060A000C9FEFEF70FFBFEF783F9044B002BFAD075
:1060B00000E000BFF7E7C046100400200000000029
:1060C00010B505F0EDF910BD10B505F0F3F910BDF0
:1060D000F7B506000D000C008B180193019B671BA0
:1060E0009C4207D0336821781B6830009847013400
:1060F0000028F3D13800FEBD70B505000C00081E65
:1061000007D005F075FF2B6802005B6821002800AE
:10611000984770BD10B503688A685B68096898473E
:1061200010BD10B5FFF7E8FF10BD000010B5024923
:10613000FFF7E2FF10BDC0467CDB000070B5050034
:10614000FFF7E8FF04002800FFF7F0FF201870BDFC
:1061500070B50400FFF7D0FF05002000FFF7E6FF51
:10616000401970BD014B18607047C0460400002004
:106170000122024B52421A607047C04604000020C0
:10618000164A10B51368591C27D0013B1360002B29
:1061900023D172B6124B134A0433934208D8BFF38B
:1061A0004F8F114A114BDA60BFF34F8FC046FDE7A6
:1061B0000F4A01211000147D0C42FCD02021148BC9
:1061C000FF319B085B0021431183D361094B13808E
:1061D0000123027D1A42FCD0E1E710BD040000203B
:1061E00000200000030200000400FA0500ED00E0BA
:1061F0000040004102A5FFFF1E2270B546484749F6
:10620000436893431C3A1343436008238C69234338
:106210008B61434C434B9C829C8A14439C82DC6878
:106220001442FCD00124404A14701578254203D052
:1062300055786DB2002DF8DB01249460547864B277
:10624000002CFBDB394C5460547864B2002CFBDB2F
:106250008224E4015480547864B2002CFBDB0224D5
:106260009C840E34DD682542FCD0314CDC62102465
:10627000DD682542FCD09D8C2E4C2C439C84102440
:10628000DD682542FCD002249D8C80262C439C8412
:106290004024DD683542FCD0DD682542F9D0102469
:1062A000DD682542FCD000249460547864B2002C50
:1062B000FBDB214C5460547864B2002CFBDB1C6A7D
:1062C0001E4D2C4080251C621C6AAC431C620323BB
:1062D00093601B4B536053785BB2002BFBDB0023B6
:1062E000FF240B72174A4B728B72CB72164B1A60DB
:1062F000164B174A1B6811689A065B01C90E2340AA
:10630000520F12020B431343124A13858023426833
:106310001343436070BDC04600400041000400408C
:106320000C06000000080040000C004001050100C0
:10633000B905FF7D040A000000070300FFFCFFFF12
:1063400003060100006CDC02840000202460800051
:1063500020608000004000420120704710B50368B3
:10636000014A1B6A984710BD130400000300FC3368
:10637000D9699A69914203D0DB69C018007D7047E2
:1063800001204042FBE710B50400006901F0DCFE8B
:1063900022000023FC329361D36186229200A4186C
:1063A0006360A36010BD10B5006901F017FF10BD58
:1063B00010B5006901F01AFF10BDF020014030391E
:1063C000484248417047F0231B01194080230620B2
:1063D0009B0099420AD00133FF330130994205D026
:1063E000802302385B00994200D0002070470F20C4
:1063F00001400020012903D00239481E8141481C78
:10640000704700008923F0B5182685B002919B00E3
:106410000400C05C330008214343324D1700EB18E1
:10642000595601F06FFB304B0821E05C33004343C9
:10643000EB18595601F066FB2C4BE25C0393022AE1
:1064400009D11133E05CFF2805D008214643AE197D
:10645000715601F057FB8A26B600A05DFF2819D0BF
:10646000012101F0BFFA1822A35D21495A43AB561E
:10647000AD18DB0158188B21890060501D4901229D
:106480005B188C218900635069688A408D218900DE
:1064900062501A600122029B1100206901F042FF44
:1064A00039002000FFF78FFF390005002000FFF7BB
:1064B0009EFF390006002000FFF77FFF33000090A9
:1064C00029002069012201F013FE0B4B2069E25CD8
:1064D000039BE15C01F026FE206901F041FE05B05E
:1064E000F0BDC04620DC00002502000027020000AD
:1064F000184400411444004126020000802210B5D7
:1065000004005200002105F00CF823000022FC33A7
:106510005A6020009A6010BDF7B51D0008AB1B78CB
:106520000400009309AB1B7816000193002343601D
:10653000FA239B008360114B0F0008330360143073
:10654000FFF7DCFF20001D30FF30FFF7D7FF892366
:106550006A469B002761E654094B1278E554094BC3
:106560002000E2546A46084B1279E2548A22293B01
:10657000FF3B9200A3541032A354FEBD80DB000009
:106580002502000026020000270200000300FC3361
:1065900058689B68C01A01D50130FF30704710B5AC
:1065A000040020001D30FF30FFF7F0FF0028F8D175
:1065B000206901F0DEFD10BD10B51430FFF7E6FFD5
:1065C00010BD0300FC3359689A68914204DB5A6895
:1065D0009868801AFF30704798685B68C01A013865
:1065E000F9E710B51D30FF30FFF7EBFF10BD10B518
:1065F0000400006901F0C9FD002820D0206901F0E5
:10660000D9FD2200FC329369D1690133DBB28B42A0
:1066100003D091696118087593618A239B00E35C3C
:10662000FF2B0CD020001430FFF7CBFF092806DC2D
:106630008B238D229B009200E358A2581A60206998
:1066400001F0B3FD00281AD020001D30FF30FFF705
:106650009DFF002822D086239B00E31899685A6882
:10666000914218D08E219A684900A218515C9A680C
:106670000132D2B29A60C9B2206901F09FFD20694F
:1066800001F088FD002805D0206901F087FD206910
:1066900001F077FD10BD01214942ECE7206901F0CE
:1066A00099FDECE770B5040000690D0001F07DFD77
:1066B000002824D1FF2686239B00E3185A68996896
:1066C000013232408A422FD1EFF31083DB070DD421
:1066D0001E4B5B68DB05DB0DEDD0103B5BB2002B86
:1066E00019DB9B08C0331A4A9B009B58206901F0B4
:1066F0005CFD0028DFD02000FFF779FFDBE72000FA
:106700001D30FF30FFF742FF0028D3D12900206958
:1067100001F054FD17E00F221340083B9B080D4A7F
:106720009B009B181B68E1E75A68013216409A6883
:10673000964205D08E215A684900A21855545E60D1
:10674000206901F043FD012070BDC04600ED00E06E
:1067500000E100E01CED00E00300FC33D9699A6918
:1067600070B5040091421AD0DA698218157DDA6991
:106770000132D2B2DA618A239B00E35CFF2B0CD09A
:1067800020001430FFF71DFF0A2806DD8C238D2220
:106790009B009200E358A2581A60280070BD0125A2
:1067A0006D42E8E73F20704713B56B460268D97128
:1067B0000733546819000122A04716BD10B5022105
:1067C000006900F029FC10BD10B50321006900F03C
:1067D00039FC10BD10B5130004000A000069032144
:1067E00000F01CFD002801D10123636010BD0000F2
:1067F00010B5054C23685A1C04D103685B6998479F
:1068000003002060180010BD58000020074B020054
:10681000186810B5411C03D0012252421A6010BD05
:106820000221106900F0ECFCF9E7C0465800002096
:1068300010B503784222023303700249024800F087
:106840008DFD10BD140000201004002010B501784B
:10685000030042780020A12908D1212A05D11A3A43
:106860001649174800F07AFD012010BD2129FCD1FE
:10687000202A11D1193A1149114800F027FC96221B
:106880000E4BD2001968914203D10124D8790440FB
:106890000ED0FFF76DFC0EE0222A03D19A78074B49
:1068A000DA71ECE7232AE0D15A88064B1A60DCE75C
:1068B000FA20FFF757FC0020D7E7C0460C00002065
:1068C000100400200800002070470000FA22002178
:1068D000054B92009A60054A596008321A60044AD2
:1068E00019761A617047C046F4030020B4DB00003B
:1068F0001004002030B50F25CB1D013902002A40BD
:10690000140000093034092A01DD373214001C70EC
:10691000013B8B42F2D130BD70B582291FD1C3B289
:106920002C4D5A01AA1891692B4C80010C40C021B2
:106930008905214391612949083308188021506154
:106940002A685B01D0180479494221430171702003
:10695000995C8143080030210143995470BD00299E
:10696000FCD1C024C1B21B4E4B01F3189A681A4DDA
:10697000A4052A4022439A60194A800110180A008F
:1069800058603068072608325201115CB1430E008E
:1069900001213143115499690D402C439C617024AD
:1069A0000E495961115CA1430C001021214311547F
:1069B00099680C4C82180C4080214903214399604E
:1069C0009968890B89039960402351790B4353716E
:1069D000C4E7C046C8080020FFFFFF8F3C0400202A
:1069E000FC050020FF3F00F070B50400012320CC1F
:1069F00000212A782000134380222B70520004F0DB
:106A000090FDAB78DB07FCD46C6270BD1F22144B89
:106A100070B51B68590B9C0C9B0111405B0F224009
:106A20001F2900D11A391F2A00D1023A072B00D1A1
:106A3000043B1F2500688E01048D0A492A4021402D
:106A400031430185018D14000A00AA4322430285C7
:106A5000028D1903044B13400B43038570BDC046E0
:106A6000246080003FF8FFFFFF8FFFFFEFF31083EC
:106A700003600123436072B670470368002B02D1A4
:106A800062B6BFF36F8F704737B50569040068467B
:106A9000002D14D1FFF7EAFF019B621D013B02D3D9
:106AA000D57FEDB2FAE768460193FFF7E6FF002DC8
:106AB00001D100203EBD206AE369C01AFAE7FFF762
:106AC000D5FF22000025019B3432013B02D315780B
:106AD000EDB2FAE768460193FFF7CFFF002DE8D04B
:106AE000206BE36AE9E70000F0B501254668037A08
:106AF00031685A018C18FF34A77AB2183D43A57249
:106B0000C468094D9068A40428402409204390607B
:106B100090680833800B8003906040225B01CB18A3
:106B200019790A431A71F0BDFF3F00F0F7B5036908
:106B300004000E0017006846002B3DD1FFF796FFBA
:106B4000019B611D013B5A1C0CD0CD7F5A1EEDB23A
:106B5000002D05D168460193FFF78FFF2800FEBD89
:106B60001300F0E7684601930025FFF786FFE3690D
:106B7000AF4202D0226A934257D3226A9342EDD1A8
:106B80000023E361013323616846FFF76FFF2200B2
:106B90000021019B671D013B3532581CDAD0F97783
:106BA00010785E1E002805D0117020000193FFF7B9
:106BB0009BFFECE73300F0E7FFF758FF2100019B54
:106BC0003431013B5A1C06D00D785A1EEDB2002D0F
:106BD000C0D01300F6E7684601930025FFF74DFF8C
:106BE000E36ABD4202D0226B934226D3226B9342CA
:106BF000B4D100236846E3622361FFF737FF270023
:106C000022000021019B3437013B3532581CA1D0B2
:106C1000397010785E1E002805D011702000019395
:106C2000FFF762FFEBE73300F0E75A1CE261A2696D
:106C3000D3181B787355013599E75A1CE262A26A92
:106C4000D3181B7873550135CAE7F7B5027A436844
:106C5000110004000831186849014118C879C007BB
:106C600027D501255201CD719B189A68616992045C
:106C7000920C002921D12262226A002A3ED0A26A07
:106C8000656168465A60FFF7F1FE27002100019B0D
:106C9000661D013B343735315A1C2BD0F5773A78D5
:106CA000581ED2B2002A05D0019368460D70FFF736
:106CB000E4FEF7BD0A700300EEE72263226B002AB0
:106CC0001CD000226261A26968465A60FFF7CEFEBE
:106CD00026002100019B3436013B671D35315A1CCB
:106CE00008D03570FA7F581ED2B2002ADCD10A7063
:106CF0000300F4E768460193FFF7BFFE2000FFF7AB
:106D0000F3FED6E737B56B46DC1D00230D002000EF
:106D10002370FFF78DFD2B681818286001F09CFB8D
:106D2000210001F055FB2B681818286020783EBD23
:106D300003290ED180220E4B62311B68FF31585C53
:106D4000524202435A5468226339FF39FF32995440
:106D500070470129FCD18022054B24311B68FF318B
:106D6000585C524202435A542339FF392822EDE736
:106D7000C8080020202370B5254A0400D1690F20DF
:106D80000B43D361012223490B7813430B70224B31
:106D900019788143197006211D78294319701F49FC
:106DA0000D782A430A701A7802401A706022197806
:106DB0000A431A701A4B1B4A5A805A78D209FCD1DE
:106DC0001948FFF735F9194D2800FFF70DFE280087
:106DD000FFF71CFE7F212B68C1201A7880000A4033
:106DE0001A70042219780A430C211A701A898A43EE
:106DF0000F491A810A581202120A0A5080220A60A8
:106E000019787E3A0A431A700123237070BDC04678
:106E100000040040584400413C44004159440041B2
:106E2000000C004006400000A1770000C8080020C8
:106E300000E100E00078002810D00121084B1B6819
:106E40001A898A431A810822198B0A431A83042259
:106E5000198B0A431A830022024B1A607047C046FE
:106E6000C8080020C008002010B50F4A93699B0B8A
:106E70009B03936113680222FF331A729879823A56
:106E800002439A711A7A9207FCD57F24074A21405F
:106E9000937A0800A3431900802301439172917AE9
:106EA0005B420B43937210BDC808002000500041A4
:106EB0000078002805D0034B1A68012311890B4381
:106EC00013817047C808002010B50B790C00002B07
:106ED0000CD10800FFF7BAFC002801D0012010BD3A
:106EE000094A93699B0B9B039361F7E701F0B4FA9E
:106EF000210001F0A0FA0028F0D1034A93699B0B0E
:106F00009B039361EBE7C046C8080020F7B50D006E
:106F1000832A19D1CBB2324C5A01A2189169314857
:106F2000AD010840C0218905014391612E492068C7
:106F30004D197021083355615B011A5C8A431100B9
:106F400040220A431A54F7BD022A44D18B00019310
:106F5000264B8A00D658002EF5D13820FFF7B0F81E
:106F6000234B1F4F036080235B00C360431D0662F9
:106F7000856006614661C66104004760DE77C662CF
:106F8000066380202F331E7040005E7004F088FA84
:106F90000600A0618020400004F082FAEDB26B018F
:106FA000A062FB189A680F4907201140C022920581
:106FB0000A439A603A6808356D01A95C814308006C
:106FC00003210143A95420005E60FFF78DFD074BAC
:106FD000019AD450B7E711002800FFF79DFCB2E7F3
:106FE000C8080020FFFFFF8F3C040020140400208D
:106FF000E0DB000070B505000124064BA200D2586A
:10700000002A05D021002800FFF780FF0134F4E7B3
:1070100070BDC0465C000020084B8A00D05810B5F7
:10702000002803D003689B68984710BDC9B2044B81
:107030004901591888688004800CF6E71404002080
:10704000C808002010B50C00FFF7E6FF00280CD0A0
:10705000064BE4B21B68083464011C198023627972
:107060005B42134363710223E37110BDC808002023
:1070700070B5134BCCB2134A60018901591813182B
:1070800059609968104D08340D40802189022943C8
:10709000402599609968890B89039960116863019B
:1070A000CB181E7935431D719D796D06FCD56401A1
:1070B0000919CB79DB07FCD512189068C0B270BDF6
:1070C000FC050020C8080020FF3F00F070B5140048
:1070D00040220B4B0D001B68FF3359790A435A714C
:1070E0000021FFF7C5FFA04200D920000023054979
:1070F000A34203D05A5CEA540133F9E770BDC0469D
:10710000C8080020FC05002010B5C9B20B48490191
:10711000421893689B049B0C3F2B0BDD9468403B0B
:107120009B04A40B9B0CA403234393604118886821
:10713000C0B210BD93689B0B9B03F6E7C808002004
:10714000F0B51C002A4B85B01B6806000D000192AB
:10715000002B4AD0274B8A00D058002808D003685B
:1071600022005B68019998470400200005B0F0BD3B
:107170003000FFF751FF844204D929003000FFF7A7
:107180004BFF040029003000FFF7BEFF0121EBB2E6
:10719000194F03935B010293029A3B6801989B1875
:1071A000FF335A7A0A4315495A72AB01C9182200B3
:1071B00004F09CF9002CD8D029003000FFF72CFFF8
:1071C0000028D2D14021039B3A6808335B01D318D1
:1071D0001879014319710121D9710121029BD3183A
:1071E000FF339A7A0A439A72BFE701246442BCE7EC
:1071F000C008002014040020C8080020FC0500205E
:1072000013B56B46DC1D22000123FFF799FF01280F
:1072100001D1207816BD01204042FBE7F0B51E00E9
:10722000354B85B01B680F000192002B35D08023B1
:10723000DB019E4231D80025304A8B01D3180293DE
:10724000002E2CD02E4B1B680393FF233B401C00C9
:1072500000930834039B64011C19A379DB0921D036
:10726000284B2949186801F02FF9284B172158435A
:1072700001F02AF9264BE279920713D4DA5D002A4D
:1072800001D10138F7D20122DA55009B5A011C4B7B
:107290009B189A69920B92039A6101256D4228000E
:1072A00005B0F0BD00221A4B3400DA553F2E00D94C
:1072B0003F2422000199029804F018F9009BA104D0
:1072C0005A010F4B890C9B18029A2D195A619A6921
:1072D000361B920B92030A439A61009B039A083370
:1072E0005B01D3180222DA715979823A0A435A7142
:1072F000019B1B190193A3E7C00800203C04002058
:10730000C80800208400002040420F0070110100D6
:107310003104002070B50D001C000D4EAB01F618B5
:1073200011003000220004F0E1F8EDB209496D01CE
:107330004D196E61AB69084A20001340AB61AB691F
:10734000A2049B0B920C9B031343AB6170BDC04620
:107350003C040020C8080020FF3F00F0F7B5104BA8
:1073600001901B780F001500002B0CD10D4B16005F
:107370001C78002C09D00C4E0C4834880019641974
:1073800004F0B4F834802800FEBD002EFBD03A197A
:10739000330000210198FFF7BDFF2418361AF4E7E7
:1073A000BC070020BD080020BE080020BD0700204B
:1073B000F8B5002000AF0E001500012A26DDD31D10
:1073C0006A46DB08DB00D31A9D46080004F010FE75
:1073D0006C460323002101304000207063705A1E68
:1073E000D2B295420BDD3078002808D00136A05487
:1073F0009D4203D0E1540233DBB2F0E72A002100C2
:107400000348FFF7ABFF431E9841C0B2BD46F8BD2D
:1074100010040020F0B50027012687B01E4B009114
:1074200002A91E7005000297FFF76CFC03AC0190E7
:1074300009223900200004F074F809232370022384
:1074400063709E33E3715A332372029B6671093372
:1074500063806B461B7923710F4B1F70009B092BB8
:1074600007D11A0021002800FFF778FF012007B09C
:10747000F0BD0A4B09221E70094E21002800029718
:107480003780FFF76BFF02A92800FFF73BFC034B97
:1074900032881F700349E6E7BC070020BD080020C2
:1074A000BE080020BD07002070B5CE7892B0050060
:1074B0000C00022E08D1C9882B48FFF7ABFF431EF2
:1074C0009841C0B212B070BD00F0C6FF210000F0BC
:1074D00093FF002803D0C317181AC00FF2E7012E3C
:1074E0000BD1E2882149112A10DCD2B2002A0DD03A
:1074F0002800FFF733FF0120E4E7032EE2D1A37851
:10750000002B05D1E2881A49032AEEDD0A78EFE75D
:10751000022B05D1A27917492800FFF749FFD1E7CF
:10752000012B02D1A2791449F6E7032BCAD1134BE0
:1075300001A91868FFF7DEF9114B03A91868FFF7D6
:10754000D9F9104B05A91868FFF7D4F90E4B07A914
:107550001868FFF7CFF900F07FFF09A900F05CFF82
:10756000A27901A9D8E7C046100400200CDC000075
:10757000FCDB0000ECDB000000DC00000CA0800065
:1075800040A0800044A0800048A0800073B50600A1
:1075900048780D000B2811D800F082FF061D102E30
:1075A000104348704C4F696C097801AA002907D133
:1075B0000223117051703000FFF7ACFE012076BD40
:1075C0000023137053702E4B1B78012B00D11370C6
:1075D00002230021EFE78A780023012A04D101AABF
:1075E00013705370274BEFE7254A1370264A9369AF
:1075F0009B0B9B039361E1E78C78012C06D1002162
:10760000204B01AA1C7011702300D4E7002C08D174
:1076100001201B4B1C4A187093699B0B9B039361C1
:10762000CDE7A9783000FFF71FFCC7E73000FFF770
:107630003BFFC4E70123154ACBE70B780020DB06AC
:10764000BDD13000FFF7D6FC2A200221AA780F4BCB
:10765000FF301A600C4A13681C5C21434A241954F9
:10766000FF34195D2938FF3801431955D4E7012348
:10767000074AAEE78A78064B1A60B7E700209EE714
:107680003004002038040020C8080020C008002072
:10769000C40800203C4BF7B51C780700002C5ED1D5
:1076A0003A4E33689B8B1B070ED521002000FFF755
:1076B00033F9326810231100FF31887A03438B724B
:1076C000334B1C600823938333689A8B520701D590
:1076D00004229A83FF331A7AD20620D510221A7216
:1076E000597930320A435A7160232A4938000A789E
:1076F0001A4235D1FFF74AFF002834D08022336880
:107700005242FF3399790A439A713368FF331A7AE8
:10771000520604D540221A72597A0A435A723368C3
:1077200000251C8C01239C43E4B20193E9B2002C98
:1077300015D023002B41019A13420DD02B00326843
:1077400008335B01D318DA79D20713D4DB799B07AE
:1077500010D4019BAB409C430135092DE6D1F7BD08
:10776000FFF7B2FBC8E720220B4BCDE703681B688D
:107770009847EEE7094BAA00D0580028F6D1380008
:10778000FFF7D6FAE5E7C046BD080020C80800208C
:10779000C0080020FC050020FF5000411404002018
:1077A00010B50248FFF776FF10BDC0461004002058
:1077B000014A024B1A60704700500041C80800207F
:1077C000FA212D4B10B51868890000F07DFE2B4B77
:1077D000013898424FD82A492A4A4860C020136A83
:1077E00000061B021B0A0343136200238B6007334E
:1077F0000B608021136A09061B021B0A0B431362EC
:10780000FC22214B196A0A431A62FC22196A92016E
:107810000A431A62A022196AD2020A431A621B4B57
:107820001C005A7852B2002AFBDB194A5A80194BC5
:107830001A00597EC9090129FBD0E421C9009980A9
:107840003F21D970537EDB09012BFBD0C0230020E0
:107850005B011361907000F02DF863785BB2002B30
:10786000FBDB0D4B0D4A6380D379DB09012BFBD089
:107870004123537010BDFEE784000020FFFFFF008E
:1078800010E000E000ED00E000040040000C0040CB
:107890001E4000000040004221400000004800421D
:1078A000914202D002D98A1AD0407047521A9040B1
:1078B000FBE70000164A00B51300517EC9090129F3
:1078C000FBD00138042816D81969124A0A400F2142
:1078D0001A615A788A4300F0E3FD0308060B03009F
:1078E000110001220A435A7000BD11000322F9E77A
:1078F00011000222F6E7F02311691B050B430F214B
:10790000136153788B43190002230B435370EBE749
:1079100000400042FFFFFFF010B504000E2800D821
:107920000F340121200000F0EDF80F2C0DD1284B71
:107930001900DA79D209012AFBD002201A78824391
:107940001A70CB79DB09012BFBD022490B004A7E50
:10795000D209012AFBD0182262431F4CA418207CB4
:107960001F240A692040A24302430A615A7ED209B9
:10797000012AFBD0022219780A431A705A7ED209D2
:10798000012AFBD00222197B0A431A7301221A76BC
:107990005A7ED209012AFBD00222197B0A431A73AC
:1079A0001A7ED207FCD5588B80B25A7ED209012AA2
:1079B000FBD002211A788A431A705A7ED209012A12
:1079C000FBD0064B1A68064B1968FFF769FF10BD1C
:1079D000004800420040004220DC00008C000020F3
:1079E00088000020182330B51D00040045430820FE
:1079F000204A55192856013014D0032912D80800FE
:107A00006343D156D31800F04BFD02280E1B586873
:107A1000CB010221184A9B181A184032117001221A
:107A200082405A6030BD5868CB010621124A9B182B
:107A30001A1840321170012282405A609A61F1E7AF
:107A40005868CB0106210C4A9B181A184032117055
:107A5000012282405A605A61E4E75868CB01022152
:107A6000054A9B181A1840321170012282409A6010
:107A7000D8E7C04620DC0000004400411823F0B5E0
:107A800008245843114A13181C5701341BD00126EF
:107A900035005F688356BD400D4ADB019A18906837
:107AA00028420BD10C00601E8441D219403210785C
:107AB00034400336A400B04320431070044A9B189E
:107AC000002901D15D61F0BD9D61FCE720DC000073
:107AD00000440041182310B50824584307490023E7
