S016000052432D5472616E73706F6E6465722E73726563BC
S113200000800020FD600000B9600000B96000009D
S113201000000000000000000000000000000000BC
S1132020000000000000000000000000B960000093
S11320300000000000000000B960000051610000D1
S1132040B9600000B9600000B9600000B960000028
S1132050B9600000B9600000B9600000A56000002C
S1132060B9600000B9600000B96000005D40000084
S11320706D4000007D4000008D400000B96000000C
S1132080B9600000B960000061600000B960000040
S113209000000000B9600000B9600000B9600000F1
S11320A0B9600000B9600000B9600000B9600000C8
S11320B00000000010B5064C2378002B07D1054B17
S11320C0002B02D0044800E000BF0123237010BDA0
S11320D0300100200000000068C30000084B10B568
S11320E0002B03D00749084800E000BF07480368F5
S11320F0002B00D110BD064B002BFBD09847F9E70D
S1132100000000003401002068C300002401002006
S11321100000000070B504001F480D256062200017
S113212028300570002573301C4E6565057001303C
S113213006801B4E86B04680A3600A9B2160E36044
S11321400B9B626023610C9B442063610D9BA36124
S11321500E9BE3610F9B236204F04AF8236AA26892
S11321600593E36921680493A369060003936368F4
S113217002936369019323690093E36800F0B6FB5B
S11321802300200059336665013B5D70DD701D70CE
S113219002331D7006B070BD00180D8F02400000A0
S11321A00140000010B504000021406D00F004FC63
S11321B00121606D00F0FBFB10BD10B5040000218F
S11321C0406D00F0F4FB0121606D00F0F5FB10BDE3
S11321D0F8B50400406D00F01BFC606D012100F0B7
S11321E088FE20003C2200215C3009F0C2F8260061
S11321F0220001237021270046364A3233702937E2
S113220011704A39517093703B70230008223133A6
S11322101A7034329A70002520225D70DA701D71B4
S11322202900606D00F024FC3178606D00F033FC0F
S11322303100606D00F06BFC3900606D00F0A3FCB0
S1132240616A606D00F032FC2A002900606D00F0C4
S113225053FC2821E0226156606D00F041FCF8BD7A
S113226030B5040085B00D00FFF7A7FF23009C33B1
S113227019880023606D00930A0000F00BFE606D66
S1132280002D09D0022203AB1A7030325A80039910
S113229000F09AFE05B030BD012202AB52421D701F
S11322A05A800299F4E710B50400FFF786FF200076
S11322B00021FFF7D5FF0021606D00F073FB10BD16
S11322C010B504000021406D00F071FB0021606D29
S11322D000F072FB606D00F016FE0E21606D00F0E0
S11322E0A1FB10BD10B5406D00F0B8FB10BD02009D
S11322F09B3211780B1E03D00023137003005C3350
S113230018007047836D13B5FF211A00180A1C0CBE
S113231008400A4000022140090410431B0E1B061A
S11323200843184316BD02000023593213705A3073
S1132330013A1370D37003707047000070B5002425
S11323400748084DA3B2934209DA0B5D06127340A5
S11323505B000602585B0134704080B2F2E770BD46
S1132360FFFF00008CB60000F7B5070004005C37DF
S11323703C2200213800260008F0FBFF0023983699
S1132380337032003C333900606D00F0CDFD051E22
S11323903BD133789A1EA1185C310878E3185B337B
S11323A0000201901878D2B2844601980D706044FE
S11323B080B21D700190327039002000FFF7BEFF1B
S11323C0019B3F3E83422CD125004135606D29009D
S11323D000F066FC28780F2812D806F0D5FA1B08FE
S11323E0081B1B111111111111111111111E2300C0
S11323F042331A7857331A70563B1A7857331A7087
S1132400220001239B323370137000212000FFF758
S113241027FFF7BD23004233EFE72300002299335F
S1132420EDE73570F1E710B50400406D00F0F8FDFC
S11324302100636D58311A790A70587A0231487054
S11324401B7A0B70002A02D02000FFF72CFF636D6B
S11324505B79002B02D02000FFF786FF10BD0B0034
S1132460F0B50600070004003C331A7898365C3750
S113247085B03270380008F073FF357839002A00CF
S11324802000FFF75BFF6319020A5C331A70AB1C70
S11324900135EDB265195C35337028702000FFF703
S11324A081FE230000259E331988606D2B000A00ED
S11324B0009500F0EFFC23002100327833331A70CA
S11324C0606D293100F05FFB022103AB3278197093
S11324D030315980039B3900606D009500F068FD30
S11324E00121606D00F05EFA05B0F0BD10B5406DDD
S11324F000F067FA10BD704713B513006A4607323F
S1132500137003689C690123A04713BD37B56B465C
S1132510DC1D036822001D6A0123A84720783EBD04
S113252010B5040003F068FE200010BD10B50400CF
S1132530142003F021FE606A012105F045FB00210F
S1132540606A05F08DFB322003F016FE606A0121FB
S113255005F086FB0021606A05F036FB142003F0C9
S11325600BFE10BD73B505000021006A05F078FB71
S113257096231B01013BFDD100266B460E4C5E7178
S11325801E71019A0D49200005F03EFDC021200076
S113259005F06AFD3100200005F066FD286A01217E
S11325A005F05EFB200005F04BFDA86A05F084FBF6
S11325B00128FAD073BDC0468808002080841E001C
S11325C0F0B505000F0085B000920193A86A05F0EC
S11325D073FB0128FAD000240021286A05F040FB8F
S11325E002AB134E5C711C7112493000039A05F062
S11325F00BFD3900300005F037FD019B9C4207DAE2
S1132600009B3000195D013405F02EFDA4B2F4E7FF
S1132610286A012105F024FB300005F011FD842F08
S113262004D0A86A05F048FB0128FAD005B0F0BD33
S11326308808002080841E00F0B506000F0085B0D5
S113264000920193B06A05F037FB0128FAD0002408
S11326500021306A05F004FB02AB1C4D5C711C7157
S11326601B492800039A05F0CFFC39002800C02F2D
S113267019D105F0F9FC009B21001870280005F021
S1132680F3FC2100280005F0EFFC306A012105F07D
S1132690E7FA280005F0D4FCB06A05F00DFB012828
S11326A0FAD005B0F0BD05F0DFFC2100280005F0EC
S11326B0DBFC019B9C42E8DA009B002128001F19E7
S11326C005F0D2FC01343870A4B2F2E78808002087
S11326D080841E00F0B506000F0085B000920193BF
S11326E0B06A05F0E9FA0128FAD000240021306A22
S11326F005F0B6FA02AB164D5C711C71039A1549CC
S1132700280005F081FC1821280005F0ADFC390AE9
S1132710280005F0A9FCF9B2280005F0A5FC019BEE
S11327209C4207DA009B2800195D013405F09CFCEB
S1132730A4B2F4E7306A012105F092FA280005F00A
S11327407FFCB06A05F0B8FA0128FAD005B0F0BDF4
S11327508808002080841E00F0B506000F0085B0B4
S113276000920193B06A05F0A7FA0128FAD0002478
S11327700021306A05F074FA02AB194D5C711C71CA
S1132780039A1849280005F03FFC1921280005F098
S11327906BFC390A280005F067FCF9B2280005F043
S11327A063FC2100280005F05FFC019B9C4209DAD0
S11327B0009B002128001F1905F056FC01343870D5
S11327C0A4B2F2E7306A012105F04AFA280005F0C4
S11327D037FCB06A05F070FA0128FAD005B0F0BDF4
S11327E08808002080841E00F0B506000F0085B024
S11327F000920193B06A05F05FFA0128FAD0002430
S11328000021306A05F02CFA02AB144D5C711C7186
S11328101349039A280005F0F7FB1A21280005F054
S113282023FC3900280005F01FFC019B9C4207DAB9
S1132830009B2800195D013405F016FCA4B2F4E7EE
S1132840306A012105F00CFA280005F0F9FBB06AA2
S113285005F032FA0128FAD005B0F0BD880800204E
S113286080841E00F0B506000F0085B0009201932D
S1132870B06A05F021FA0128FAD000240021306A58
S113288005F0EEF902AB174D5C711C71039A164901
S1132890280005F0B9FB1B21280005F0E5FB3900F1
S11328A0280005F0E1FB2100280005F0DDFB019B79
S11328B09C4209DA009B002128001F1905F0D4FB73
S11328C001343870A4B2F2E7306A012105F0C8F986
S11328D0280005F0B5FBB06A05F0EEF90128FAD03E
S11328E005B0F0BD8808002080841E0070B5040087
S11328F0080002210025012661730D31E173E362B2
S11329000539079B21742549A363089B083121607D
S1132910E3630699099BA262236425716571A5711D
S1132920E571A572E5722573257265726574267763
S113293020626162310005F047F93100206A05F038
S11329408FF93100606A05F03FF93100606A05F0E3
S113295087F92900E06A05F037F92900A06A05F033
S113296033F93100A06B05F02FF92900A06B05F0B5
S113297077F93100E06B05F027F93100E06B05F0E1
S11329806FF93100206C05F01FF92900206C05F067
S113299067F9034805F010FB200070BD8CB80000F7
S11329A08808002010B5006C05F05AF910BD10B568
S11329B0806B05F055F910BD10B5C06B05F050F9EA
S11329C010BD10B5C06A05F077F9C0B210BD54212E
S11329D0036870B505005B6AFF319847AA212B682C
S11329E004005B6A2800490098472402204380B20F
S11329F070BD37B56B46DC1D0023237003682200CD
S1132A005D69C0210123A84720783EBD407B704703
S1132A1010B5040003689B689847236820005B6B2B
S1132A20984710BD13B56B468C07DA1DCB07DB0F37
S1132A30E40FA400DB0023430C074907E40FC90F8C
S1132A402343490019431170437B8421837300237A
S1132A50437303681C690123A04713BD437B10B56E
S1132A60002B04D1837B437303685B6B984710BDD1
S1132A7073B56B46DD1DD97103682A001E69802178
S1132A8001230400B0472B78002B02D10233637377
S1132A9073BD0323FBE713B56B46DA1D036811709E
S1132AA0C1731C698A210123A04713BD37B50400F3
S1132AB0080008F0D5FA0022084B07F091F806F058
S1132AC07DF901AA030C1370030A537023689070F4
S1132AD01D69862103232000A84737BDA8CB684081
S1132AE037B5036801AC12311D692170627002238D
S1132AF022008E21A84737BD37B5036801AC1D6994
S1132B0021706270022322008F21A84737BD37B598
S1132B100C00C37B097805008B4201D0FFF7BBFF93
S1132B20207801AA0F2817D805F02EFF080F0F1DD3
S1132B30231616161616161616161629637813700B
S1132B40A3785370E378937006E023791370637964
S1132B505370A1792B7491702B6828001C698B2108
S1132B600323A04737BDE3791370237A5370637A44
S1132B70E9E7A37A1370E37A5370237BE3E7002336
S1132B8013705370DFE737B50C00C37B0978050079
S1132B908B4201D0FFF77FFF20780F2818D805F06B
S1132BA0F3FE081F1F2D3C171717171717171717B2
S1132BB017486A4663781370A3785370E378937068
S1132BC02379D37063791371A3795371E379937182
S1132BD02B6828001C696A4607238C21A04737BD4F
S1132BE06A46237A1370637A5370A37A9370E37AF4
S1132BF0D370237B137100235371E8E76A46637B28
S1132C001370A37B5370E37B9370237CD370637C3A
S1132C101371A37C5371E37CD9E76A46237D137057
S1132C20637D5370A37D9370E37DD3700023137190
S1132C30E2E700236A46137053709370D370F6E78B
S1132C40F0B5040085B0036803AD01925F690E001E
S1132C5002232A001721B847E37B012B10D12368F4
S1132C600D495B6A20009847C011012808D12368E8
S1132C700A495B6A20009847307007E02B7804E02B
S1132C80E37B042BFAD12B78023333706B78019AEF
S1132C90137005B0F0BDC04603090000010900002F
S1132CA0F7B505000C0003686A465E691D2105231B
S1132CB0B047E87B20700F285BD805F065FE084F0D
S1132CC04F5EAA5A5A5A5A5A5A5A5A5A5AE36B4691
S1132CD05B7801225B085B4263706B469878A3784B
S1132CE0810911409343450915400B430221954046
S1132CF006098B4316402B4304258E40AB433343D4
S1132D000826C5081540ED00B3432B43102586085B
S1132D1016403601AB4333432026450815406D0168
S1132D20B3432B43402510408001AB430343A370BE
S1132D306B46D878E37845091540934310402B43FC
S1132D4090401A008A430243E2706B4607211A79C5
S1132D5023790A408B43134323710AE06B461B78A3
S1132D605B085B4263706B465B787F2B02DC9B08DD
S1132D70A370F7BDFD3B9B10FAE76B465B7801211E
S1132D805B085B4263706B469878A27883090B40BA
S1132D908A431A43022345090D408D40070904263E
S1132DA00F409F409A432A43B2433A430827C50839
S1132DB00D40ED00BA432A431025AA4394468308E4
S1132DC00B406546B3402B43202542080A4052017C
S1132DD0AB431343402208409343800118436B469E
S1132DE0A070DA78E0781D3DA843930955090D4099
S1132DF00343AD001009B34308402B43C000BB4359
S1132E0003430A4019001023B24099431143E1706F
S1132E109BE76B465B7801225B085B4263706B4601
S1132E209978A3788D091540480993432B431040A2
S1132E3002259040AB43034304200D091540AD0027
S1132E4083432B430825C8081040C000AB43034309
S1132E5010208D0815402D0183432B43202548085D
S1132E6010404001AB430343402011408901834398
S1132E700B43A3706B46D978E378114093430B431B
S1132E80E37062E705220021200008F072FA0F23A4
S1132E9023706EE773B56E4606AC24880D0A717014
S1132EA0F2707371110A1A0A230AB3710368357038
S1132EB0B1703271F4716A461C698D210823A047F0
S1132EC073BD37B5036801AC5D6922000223152187
S1132ED0A847237860781B0218433EBD13B50B0A3C
S1132EE001AA1370036851701C6997210223A0473B
S1132EF013BD13B56B46DA1D036811701C69962166
S1132F000123A04713BD036810B51C690023D52114
S1132F101A00A04710BD70B50D00190003689C6A23
S1132F2013002A00A04770BDF0B5160085B00193C8
S1132F3002ABDD1D2A000F0031000400FFF780FE04
S1132F403378019A0120934206DC22682978200014
S1132F50D56A3A00A847002005B0F0BD13B5036850
S1132F6001AA11701C69A3210123A04713BD00000D
S1132F707FB50B000400019103AD090C2B70A970FF
S1132F800B0A0A496B70FFF7A9FFE37B022B03D1FD
S1132F9001212000FFF7E2FF23682A001E69832134
S1132FA003232000B047062363737FBDFFFF0000A7
S1132FB013B50400019304AB1B78FFF7ACFF019930
S1132FC02000FFF7D5FF13BD7FB50B00040001916E
S1132FD003AD090C2B70A9700B0A0A496B70FFF73B
S1132FE07DFFE37B022B03D100212000FFF7B6FF16
S1132FF023682A001E69822103232000B047052389
S113300063737FBDFFFF000000230371437183716D
S1133010C3718372C37203730372437270470000F7
S113302070B50400C67BFFF74CFF4949050020003A
S1133030FFF754FF2000FFF7E7FF042E0BD8300002
S1133040637BDBB205F0A0FC032D5D030300052BBD
S113305002D0062B1CD070BD02231D4203D06A0689
S113306011D50133A3726B0701D50123A3712B077B
S113307001D50223A37201236A0400D563721D42A1
S1133080E9D02371E7E72A07ECD401236371EAE767
S113309001231D4200D023716B04DCD5012323726C
S11330A0D9E7062BF4D0072B1BD0052BD3D1AB07C4
S11330B003D56B0612D50323A372EB0601D50123B6
S11330C0E371AB0601D50123A3726B0401D501237F
S11330D06372EB05BFD50423A372BCE701236371BC
S11330E0EBE7EB0408D580239B011D4002D00123AC
S11330F02373B0E72573AEE76B04ACD50123637289
S1133100A9E7052B0AD0062BA5D16B0501D503230E
S1133110E372AB059FD50423E3729CE7EB0501D56D
S11331200123E3722B0501D50223E3722B0601D59B
S11331300223E3726B0401D50123E372EB0601D58C
S11331400123E371AB0600D485E70123C4E7C0463D
S1133150FFFF00007047002070470000034B01711F
S113316008330360002343717047C046D0B80000A1
S113317070B51D000379040016008B4201D0FF2BAB
S11331800AD183231B019E4243D007D8303B9E4281
S11331901AD020339E4231D000262BE084231B0119
S11331A09E4241D010339E42F6D1E9B22A0A2B0C3A
S11331B02D0E002943D0210056310A7022005532C9
S11331C013705434257015E0A800800807F048FFF8
S11331D000221F4B06F004FD1E4B002206F000FDEA
S11331E007F0C8FF6B0002D580231B06C018002D12
S11331F002DB2064300070BD6064FBE7280007F048
S1133200EDFE0022144B06F0EBFC07F0B3FFA064C4
S1133210F0E7280007F024FF0022104B06F0E0FC42
S113322007F0A8FFE064E5E7280007F019FF002293
S1133230094B06F0D5FC07F09DFF2065DAE7210075
S113324059310A702200583213705734BAE7C04615
S11332500088C34000004E400000594000609E407A
S113326070B50D0001790400914221D140790628FE
S113327018D805F089FB041E27323D485300626AC2
S113328093420AD9FA2292009B18A26863628021B1
S11332900901280000F013F904E080210901280045
S11332A000F043F963790133DBB2062B3ED8637136
S11332B070BDA26A9342F0D9FA2292009B18A362CD
S11332C0E268E4E7E26A934205D9F533FF33E36247
S11332D022698221DCE78221E0E7226B934205D94F
S11332E0F533FF33236362698321D1E78321D5E773
S11332F0626B934205D9F533FF336363A26984217A
S1133300C6E78421CAE7A26B934205D9084A9B18F1
S1133310E269A3638521BBE78521BFE7E26B9342A2
S1133320FAD9034A9B18E363226AF3E70023BEE752
S11333301027000010B50400FFF710FF024B200017
S11333400833236010BDC046E0B8000070B50E001D
S11333500021051C05F0F2FC002812D080231B0676
S1133360E818144906F0CAF8134906F0C7F805F03E
S11333700DFD8400A408002E16D180231B061C43D7
S11333800CE00C49281C06F0B9F80B4906F0B6F815
S113339005F0FCFC8400A408002EEED00021281CBB
S11333A005F0CCFC002802D08023DB051C43200060
S11333B070BDC0460000704200401C46F0B587B0A6
S11333C01E1C0EAB1B78040001930FAB1B78081C6A
S11333D0029310AB1B780121039311AB1B78171CCC
S11333E0049312AB1B78059313AB1D78FFF7AEFF64
S11333F00021A060381CFFF7A9FF1549E0600D9873
S113340006F07CF805F0C2FC1249A0610C9806F0A5
S113341075F805F0BBFC0E496061301C06F06EF8CF
S113342006F028FB019B029A1B021343039A1B021A
S11334301343FF221B021343E361049B059A1B02FF
S113344013431B021D432D022061256207B0F0BD0A
S11334500000C8420000F344002343600360704747
S1133460002301600381704770B5040000680D00FB
S1133470002811D003681B687E290ED17D2198474E
S11334805E21206803681B6898472189491989B21D
S11334900B12C918C9B2218170BD7D29F4D1984796
S11334A020685D2103681B68EEE7018910B5C943F4
S11334B0C9B20400FFF7D8FF0023238110BD37B53C
S11334C06B460400006800929D1DD98000282BD013
S11334D003F060F810212000FFF7C6FF29782000D0
S11334E0FFF7C2FF69782000FFF7BEFF6B4620009C
S11334F01978FFF7B9FF6B4620005978FFF7B4FF3E
S11335006B4620009978FFF7AFFF6B462000D9780F
S1133510FFF7AAFF2000FFF7C8FF20680368DB68F5
S11335209847206803F031F837BD37B56B4604007F
S113353000689D1DD980002820D003F02BF80021BD
S11335402000FFF791FF29782000FFF78DFF6978AD
S11335502000FFF789FF0525013D002D04D000213F
S11335602000FFF781FFF7E72000FFF79EFF2068A8
S11335700368DB689847206803F007F837BD10B587
S113358004007030FFF768FF0022231D2000DA6773
S113359010BD10B54360029B02608360039B020070
S11335A0C360049B7C320361059B4361069B83617A
S11335B0079BC361089B0362099B43620A9B836266
S11335C00B9BC3620C9B03630D9B43630E9B836342
S11335D00F9BC363109B0364119B4364129B83641E
S11335E0139BC364149B0365159B4365169B8365FA
S11335F0179BC365189B0366199B43661A9B8366D6
S11336001B9BC3660023137013781B2B05DC9C00E3
S11336102458002C01D00133F5E77030FFF720FF68
S113362010BD036FF7B50400002B2ED002F09EFDF1
S1133630231DDB6F0190002B27D1206F03681B69CA
S11336409847002821D0206FFF2603685B699847BC
S113365023007D331A78C0B27E2A00D10600187088
S1133660FF2E12D0002523007C331B789D420CDAF8
S11336702100AB0018593200036870311B68013512
S11336801F00019BB847EDB2EDE7F7BD0200002330
S11336904D32037043704360037243728372C3609C
S11336A01370D3709371D3711372704710B50023E4
S11336B0020004000021036117322034A24202D028
S11336C011700132FAE701000400002222312C3487
S11336D0A14202D00A700131FAE72A21841C026354
S11336E04263E1772B342275627502004C322170FB
S11336F0E1744364836411708363C36310BD000089
S1133700F7B5C368026904001A6006698049301C71
S1133710019305F003FD05F039FB7E490500301CDB
S113372005F0FCFC071C6420684306F013FA011C36
S1133730381C06F003F805F029FB070076486843B7
S113374006F008FA011C301C05F0F8FF061C642082
S1133750784306F0FFF9011C301C05F0EFFF05F07B
S113376015FB019B1871E3685F71E3689D71002389
S11337701A0001330A2B0BD100235A1CE5680B2ACB
S11337800CD019002231615CED18A9741300F4E720
S1133790E068E118897D8218D171E9E7E37D002BA7
S11337A025D000232B62230026000A2720335B4800
S11337B017360193019BB34212D031782E290DD0D4
S11337C00B00303BDBB2392901DD3739CBB243433F
S11337D02A6A3900D3182B6205F074F90136E9E737
S11337E0A31CDB7F532B02D12B6A5B422B622F6A13
S11337F04B49380005F066F906F05CF9061C380000
S113380006F058F9424905F089FC4249071C301C6E
S113381005F074FE011C381C05F090FF414905F0C9
S11338207DFC311C05F0E8FAE31CA862DB7F002B69
S113383026D000236B62230026000A272C333A4843
S113384022360193019BB34212D031782E290DD038
S11338500B00303BDBB2392901DD3739CBB24343AE
S11338606A6A3900D3186B6205F02CF90136E9E76E
S113387023002D331B78572B02D16B6A5B426B629A
S11338806F6A2749380005F01DF906F013F9061C84
S1133890380006F00FF91E4905F040FC1D49071CCD
S11338A0301C05F02BFE011C381C05F047FF1D4998
S11338B005F034FC311C05F09FFAA31CE862DB7FA1
S11338C06B7423002D33E2681B7853772300403355
S11338D01A78E36830331A70230041331A78E368A6
S11338E031331A70230042331A78E36832331A7082
S11338F0E368626C5A63A26C9A6322004C321278B9
S11339003C331A700122E3683D331A70F7BDC04698
S113391000401C460000C842102700008096980012
S113392040420F000000704200E1F50570B504004C
S11339301D0000239626E2603D32616013700B681F
S1133940B601DB690800310098470321059804F0AB
S1133950CBF90321049804F0C7F9FA20800002F09F
S11339600BFC2049606802F08FFCFA20800002F012
S113397003FC9623DB019D4230D010D8B54228D0F9
S11339800321059804F0B0F90321049804F0ACF97C
S11339902000FFF78BFE2000FFF7B2FE70BD9623D8
S11339A01B029D421CD0E1230F491B029D42E7D11B
S11339B0606802F069FCFA20800002F0DDFB6068B8
S11339C003685B6A9847606829000368DB69984765
S11339D0D6E7FA20800002F0CFFBD1E70349E7E7FE
S11339E00349E5E7F0B8000046B9000022B9000039
S11339F034B9000002000D2902D00120242908D185
S1133A00110052310B78FF2B01D001330B700020D1
S1133A1010727047F7B50400606803681B69984723
S1133A2003005A1E93412370002870D06068036815
S1133A305B699847C1B20200207A61700F2832D8BE
S1133A4004F0ACFF10001E003F00660071008B0004
S1133A50A500C000DC00030136019001E301FF0171
S1133A601702280224294FD1220000235032637206
S1133A7020001370D370FFF719FE0123237243E073
S1133A802200607A53320130C0B260721378013878
S1133A904B401370052806D804F076FF0307030390
S1133AA00A0D4729E9D00023E8E75029FBD1E4E7D0
S1133AB04129F8D1E1E72C29F5D1002363720233BF
S1133AC0DCE7637A200001336372FFF793FF002879
S1133AD01AD022005332657813786B401370032395
S1133AE02E2DCBD0B949206905F008FD061C28000D
S1133AF03038C0B2392D01DD373DE8B205F0DAFFC8
S1133B00311C05F079F920612378002B84D1F7BDAD
S1133B102200533213784B4013702C29F4D1002324
S1133B2063720433AAE7637A200001336372FFF7F8
S1133B3061FF0028E8D02100533162780B785340AC
S1133B400B702C2A03D100236372053396E7637A42
S1133B50092BD9DCE3189A75D6E7637A2000013380
S1133B606372FFF747FF0028CED0210053316378FA
S1133B700A785A400A702C2B03D10023637206334F
S1133B807CE7627A012ABFD1A21CD377BCE7637AAF
S1133B90200001336372FFF72DFF0028B4D0210009
S1133BA0533162780B7853400B702C2A03D10023D5
S1133BB06372073362E7637A0A2BA5DCE3180233E6
S1133BC0DA77A1E7637A200001336372FFF712FF0B
S1133BD0002899D02100533163780A785A400A703A
S1133BE02C2B03D100236372083347E7627A012A3E
S1133BF000D089E722002D32137085E7637A200014
S1133C0001336372FFF7F6FE002800D17CE7210040
S1133C10533163780A785A400A702C2B03D100235D
S1133C20637209332AE7627A012A00D06CE7220022
S1133C30403213701A00303AD2B2392B01DD373BCF
S1133C40DAB2230041331A705EE7637A200001334D
S1133C506372FFF7CFFE002800D155E721005331EE
S1133C6063780A785A400A702C2B06D1220000236C
S1133C705532637213700A3300E72100627A4231CD
S1133C80012A08D11A00303AD2B2392B01DD373B70
S1133C90DAB20A7038E70A2208784243180030384A
S1133CA0D2B2C0B2392B01DD373BD8B21218F0E7DB
S1133CB0637A200001336372FFF79CFE002800D171
S1133CC022E722005332657813786B4013702C2D51
S1133CD004D10023637293700B33CFE62E2D03D1EE
S1133CE023000A225533AEE72D2D02D1384B6364ED
S1133CF00AE7270055373E78002E12D13349606C0D
S1133D0005F0FCFB061C28003038C0B2392D01DD5B
S1133D10373DE8B205F0CEFE311C05F06DF8606465
S1133D20F2E6642E00DDEFE62800636C3038019380
S1133D30C0B2392D01DD373DE8B205F00BFF051C9B
S1133D40300005F007FF011C281C05F0E7F9019974
S1133D5005F052F86064642E00D1D5E60A235E4370
S1133D603E70D1E6637A200001336372FFF742FEAE
S1133D70002800D1C8E622005332657813786B40DE
S1133D8013702C2D03D1002363720C3376E62E2D91
S1133D90A6D02D2D02D10E4BA364B5E627005537CE
S1133DA03E78002E16D10949A06C05F0A7FB061C2D
S1133DB028003038C0B2392D01DD373DE8B205F0B6
S1133DC079FE311C05F018F8A0649DE6000020413E
S1133DD0000080BF642E00DD96E62800A36C303816
S1133DE00193C0B2392D01DD373DE8B205F0B2FED2
S1133DF0051C300005F0AEFE011C281C05F08EF9F0
S1133E00019904F0F9FFA064A5E7637A2000013367
S1133E106372FFF7EFFD002800D175E621005331EE
S1133E2063780A785A400A702C2B03D100236372FA
S1133E300D3323E6627A012A00D065E622004C3273
S1133E40DAE6637A200001336372FFF7D3FD0028BA
S1133E5000D159E663782A2B06D12200002354327C
S1133E60637213700E3309E62200533211784B400B
S1133E70C2E6FF231A400B00303BDBB2392A01DDD6
S1133E803739CBB22200543211781B01CB1813708E
S1133E900F23F3E5FF231A400B00303BDBB2392A32
S1133EA001DD3739CBB2220054321178591823007E
S1133EB0C9B2117053331B788B4208D1084B09499E
S1133EC0186802F0E1F92000FFF71AFCEBE5220084
S1133ED051321378FF2B00D1E5E501331370E2E58D
S1133EE04C01002058B90000F7B50121002003F06F
S1133EF06BFE0021080003F0B3FE0021132003F041
S1133F0063FE0021102003F05FFE032003F0C4FDD4
S1133F1000210F2003F058FE0121142003F054FE69
S1133F200021142003F09CFE01211D2003F04CFE0F
S1133F3001211D2003F094FE8F26FA20B600C00054
S1133F4002F01AF9300002F053F9012400250700A9
S1133F500C22019500940B233A4902F0CFFB3A4B13
S1133F60210002201F6003F02FFE2100022003F035
S1133F7077FE2100152003F027FE2100152003F011
S1133F806FFE300002F034F9212307001A00019576
S1133F9000942E4902F0B2FB2D4B210012201F6029
S1133FA003F012FE2900122003F05AFE2100200023
S1133FB003F00AFE2900200003F052FE2100042031
S1133FC003F002FE2900042003F04AFE2100112020
S1133FD003F0FAFD2100112003F042FE210020200D
S1133FE003F0F2FD2900202003F03AFE2900052009
S1133FF003F0EAFD2900192003F0E6FD2100182052
S113400003F0E2FD2100182003F02AFE29001A2003
S113401003F0DAFD21001E2003F0D6FD29001E2046
S113402003F01EFE300002F0E3F8032305000093C2
S113403001940B330D22074902F060FB064B1D600F
S1134040F7BDC046B808002050010020C008002079
S113405054010020C40800204C01002010B5024B7C
S1134060186802F0B6FB10BD5001002010B5024BD9
S1134070186802F0AEFB10BD5801002010B5024BC9
S1134080186802F0A6FB10BD5401002010B5024BC5
S1134090186802F09EFB10BD4C01002010B51020E2
S11340A003F02CFD05F056FD07F012F8054A064B07
S11340B006F0CAF90022054B06F0C6F907F05AF8D3
S11340C010BDC046CDCCCCCCCCCC16400000503F6B
S11340D010B5132003F012FD05F03CFD034905F073
S11340E00DFAEA21890505F009FA10BD00003041F6
S11340F010B50F2003F002FD05F02CFD034905F077
S1134100FDF9EA21890505F0F9F910BD00003041F7
S113411010B50121002003F0A3FD10BD002110B54E
S1134120080003F09DFD10BD10B50021142003F01C
S113413097FD10BD10B50121142003F091FD10BDB1
S113414010B501211D2003F08BFD10BD10B5002119
S11341501E2003F085FD10BD10B501211E2003F0C3
S11341607FFD10BD70B5134C1349206802F08CF824
S1134170642002F001F8114D286800F032FF104E5F
S1134180300002F087FF04230E4A11690B431361C8
S1134190BFF34F8F30BF300002F03EFF0A49206862
S11341A002F057F8286800F024FF0849206802F05C
S11341B06BF870BD4C01002016BA000048020020C4
S11341C0CC02002000ED00E026BA000031BA000065
S11341D070B50E4CA379042B12DD0D4D0D492868E2
S11341E002F037F80023A37134342378002B08D16C
S11341F0094B186800F006FF0849286802F044F8E3
S113420070BD0749286802F03FF8F5E75002002026
S11342104C01002073B900004802002031BA0000AC
S113422092B9000007B5002007F0CAF96B460733BE
S1134230181A0EBDF0B589B0514C6379002B00D12A
S11342409CE0504D5049286802F003F86379013B23
S11342506371FFF723FF4D49A060286801F0F9FF5F
S1134260FFF736FF4A49E060286801F0F2FFFFF7E4
S11342703FFF48492061286801F0EBFF464B47485F
S113428019680B7907934B7906938B79059300236F
S11342900493039302930023019300938B6BCA6AE4
S11342A0896AFFF78BF83E49286801F0D2FF3D493F
S11342B0286801F0CEFF2E68FFF7B4FF0A22010040
S11342C0300002F036F8E06806F002FF364A374B59
S11342D004F004FD22003532002804D123003633D3
S11342E01B78002B03D01378FF2B01D001331370FC
S11342F01A2003F0E1FC012826D10A2600271A20FF
S113430003F0DAFC013E3F18022001F035FF002ED5
S1134310F5D10A2F13D122003A3213780133DBB2DC
S11343201370022B05D1FFF711FF3B3401232370D7
S113433005E0032B03DD3B34FFF70EFF26701C4919
S1134340286801F0A1FF77E723003B331B78002B9B
S113435012D00A26FFF700FF322001F00DFF013EC4
S1134360FFF7F4FE322001F007FF002EF2D1230004
S11343703B331E703C34D9E73A34D8E709B0F0BD7A
S1134380500200204C010020ACB90000C2B900006A
S1134390D5B90000E6B90000400200205C0100200D
S11343A0F5B900000ABA0000333333333333114014
S11343B031BA000070B5FFF73DFF5B4D2868FFF789
S11343C029FBFFF705FF594B186800F0DDFB584C3B
S11343D023003C331B78002B06D0564B56491868F3
S11343E001F052FF0523E371E079052800D999E033
S11343F004F0CAFA900313225579230035331B784D
S1134400022B02DD0223E371D5E74C4B186801F05F
S113441029FD4B48FFF705F9CDE7230035331B7819
S1134420002B01D10133EEE73C2BEEDDFFF788FED4
S1134430002323870323E6E7E06806F049FE414AA8
S1134440414B04F055FC00280BD0230036331B7875
S1134450002B06D13D49E371364B186801F014FF77
S1134460A9E73B49A06804F073FC061E03D00523AA
S11344703849E371F0E7FFF775FE238F01339BB2F0
S113448023873C2B97D9FA20C000268701F074FEBD
S11344902868FFF7BFFAFFF74DFE0423B3E7E0688F
S11344A006F016FE274A284B04F022FC002804D00C
S11344B0230036331B78002BA5D02549A06804F0CF
S11344C047FC0523051E9ED1FFF74CFE9622238F41
S11344D0920001339BB22387934200D86BE7258770
S11344E0FFF722FEA6E7FFF719FE15253224012166
S11344F0280003F0B5FBFFF729FE200001F03CFE85
S11345002800002103F0ACFBFFF726FE200001F099
S113451033FEECE7FFF708FE220000233532637117
S113452013707FE700236EE73C020020480200205E
S1134530500200204C01002037BA00004C02002039
S1134540B8010020333333333333114061BA0000F0
S11345500000404096BA00001C4B1D4A10B51A607A
S11345600B221A71002200249A60DA601A61194A37
S11345705C719C715A611268DC719A61164A8321DC
S1134580DA61126815481A62154A5A6212689A6208
S1134590144ADA6212681C871A631A0034321470DF
S11345A01A00353214701A00363214701A003A3276
S11345B014701A003C333B3214701C70FEF7BAFEC0
S11345C021000948FEF7DBFF10BDC0465002002061
S11345D0AE47813F0CA0800040A080005C01002019
S11345E044A0800048A08000B8010020F0B5E12478
S11345F0B1B0FFF779FCFB4801F0BEFDFA4B640251
S1134600186821000368DB699847F84E21003000E0
S113461002F04CFAFA2026AC400001F0ADFDF4495A
S1134620200003F012FCF34D286805F023FA0A2257
S1134630010023A803F03EFC23A9200003F077FC2B
S1134640ED4903F081FC2F681B90381C05F012FA29
S113465005F030FA011C381C05F070F8E74904F045
S11346604DFF05F007FA0A2201002AA803F022FCF4
S11346702AA91B9803F05BFC0100300001F0FAFD4D
S11346802AA803F09AFB23A803F097FB200003F069
S113469094FBDB492AA803F0D8FB0A22A96920006D
S11346A003F01AFC21002AA803F041FC01003000A9
S11346B001F0E0FD200003F080FB2AA803F07DFB5D
S11346C0D0492AA803F0C1FB0A22296A200003F07A
S11346D003FC21002AA803F02AFC0100300001F0A9
S11346E0C9FD200003F069FB2AA803F066FBC64954
S11346F02AA803F0AAFB0A22A96A200003F0ECFB13
S113470021002AA803F013FC0100300001F0B2FDDF
S1134710200003F052FB2AA803F04FFBBB492AA850
S113472003F093FB0A22296B200003F0D5FB210040
S11347302AA803F0FCFB0100300001F09BFD2000DF
S113474003F03BFB2AA803F038FBB14920A803F08F
S11347507CFB0A22A9691DA803F0BEFB1DA920A8A1
S113476003F0E5FB07000A22296A23A803F0B4FB3F
S113477023A9380003F0DBFB07000A22A96A200002
S113478003F0AAFB2100380003F0D1FB07000A2242
S1134790296B2AA803F0A0FB2AA9380003F0C7FB61
S11347A09C4F390003F0D0FB0100300001F062FDA2
S11347B02AA803F002FB200003F0FFFA23A803F069
S11347C0FCFA1DA803F0F9FA20A803F0F6FAAB6985
S11347D091491A0E22701A0C6270E3701A0A2B6A3D
S11347E0A2701A0E22711A0C6271E3711A0AAB6A72
S11347F0A2711A0E22721A0C6272E3721A0A2B6BDD
S1134800A2721A0E22731A0C627330001A0AE3732E
S1134810A27301F01EFD102221002AA800F0AEFEB2
S11348202A99300001F015FD2AA803F051FF390040
S1134830300001F029FD0021784B59565A68C9010E
S11348405118774A89180222087890430870182171
S11348505956D869C9014118714809180878904314
S11348600870190078310978D86F49B2C901411824
S11348706B480918087890430870CC2149005856B1
S113488004315958C001091865480918087890433B
S11348900870D8214900585604315958C0010918E4
S11348A05F480918087890430870F0214900585669
S11348B004315958C0010918594809180878904317
S11348C00870FC214900585604315958C001091890
S11348D053480918087890430870C021C120890002
S11348E0595680001B58C9015B184D495B1819784B
S11348F091431970FFF718FC582001F079FC04006B
S1134900FEF7C4FE474F40203C6001F071FC40229A
S11349100021040006F02DFD0B23434E434934606F
S1134920019301330093E12322001B0209683868D4
S1134930FEF7FCFFA02001F05BFC15230024070018
S11349400593043B04930F330393073B0093042222
S1134950012102940194143BFDF7DCFB344B3548F0
S11349601F6001F045FC324932682B0009681B9036
S113497000F048FA304F1B9BD0203B6001F038FC1C
S11349802B4B39681A68060001F0E1F98F202B4B94
S113499080001E6001F02CFC0123019302330722E6
S11349A0009327490333060001F0A8FEE121254FB7
S11349B0300009023E6001F0C3FD0321072003F02B
S11349C093F90321062003F08FF91994189417948E
S11349D016941594149413941294119410940F949F
S11349E032E0C046881300004C010020B0020020D1
S11349F0C9BA000050020020C0B900000000C8423B
S1134A00E7BA000009BB00002BBB00004DBB00004F
S1134A106FBB00008ABB00008CBB000050BE0000CE
S1134A20404400413C02002040020020500100208C
S1134A304402002054100000480200204C020020D0
S1134A40BC080020580100200E940D940C940B9483
S1134A500A9409940894079406940594049403947E
S1134A6002940194009423000C4A39680C48FEF720
S1134A7090FD012001F0A8FAEC71FFF749FBFFF764
S1134A805FFBFFF70BFBA860FFF722FBE860FFF773
S1134A902FFB2861FFF760FB31B0F0BD5C01002003
S1134AA0B8010020F8B50E4B002503600300020096
S1134AB0070004000E0080331D705D70FD327C33EE
S1134AC0FF371D70080015707D709D606160FDF7F3
S1134AD07FFB30002900FDF7C3FB7D702000F8BD8B
S1134AE0C4BB0000813000787047000070B51A4DD7
S1134AF00E002868194901F0ACFB1949002E26D094
S1134B003378022B11D0032B18D01649012B1ED158
S1134B10802001F06DFB3100040000F0A1FE124979
S1134B20286801F0B1FB200070BD802001F060FB1B
S1134B303100040000F056FF0C49F1E7582001F061
S1134B4057FB3100040001F0E9F80949E8E7286857
S1134B5001F09AFB0020E7E74C010020D0BB0000E5
S1134B60E2BB0000FABB0000E8BB0000EEBB0000A3
S1134B70F4BB000010B504004068FDF7B3FB00214E
S1134B806068FDF76DFB10BDF0B5040085B04068AA
S1134B90FDF7ACFC012807D1454B4649186801F0E4
S1134BA073FB6068FDF73FFC6068FDF7ABFB030C2B
S1134BB0DBB2070A0390C6B2050E60680093FDF7E6
S1134BC0B2FB2300FF3301935878FFB203280FD8B8
S1134BD003F0DAFE022B4255002E04D1009B002B79
S1134BE001D1002D0AD0324B3349186801F04CFB37
S1134BF000216068FDF734FB002708E02368002FDC
S1134C0001D05B6800E09B68200098470700019B87
S1134C105B78BB4207D0236820001B689847019B40
S1134C20FC34A0605F7005B0F0BD002EE0D1009BA5
S1134C30002BDDD1002F01D02368E2E7002DD7D16E
S1134C40236820001B68984723000127FC339B68D6
S1134C5064339842DBD9CBE7002FC9D1002DC7D1EB
S1134C60009B002BC4D1002EC2D1236820001B68F6
S1134C7098472300FC339B6802376433E9E7002F2D
S1134C80B6D1002DB4D1009B002BB1D1002E05D09C
S1134C9001216068FDF7E4FA0137B8E723682000D2
S1134CA01B6898472300FC339B6803276433D0E7D1
S1134CB04C0100201FBC00002EBC000010B50400F5
S1134CC02000FFF761FF2300FF335B78002BF7D14F
S1134CD06068FDF7F5FA10BD10B504007934227848
S1134CE000231E2A0DD0030078331B789B181D2B3C
S1134CF001D91E3B9BB2DBB29B0019500123013248
S1134D002270180010BD0000030010B5FD331B789D
S1134D1004001E2B05D1074B0749186801F0B4FAAB
S1134D2010BDFFF7E3FE011EFAD020008430FFF728
S1134D30D3FFF5E74C01002008BC000010B50400C7
S1134D400300002079342278824211D01A0078328C
S1134D5010788000C35801200B6013780133DBB254
S1134D6013702178013921701E2B01D10023137097
S1134D7010BD030073B5002681331B7805001800AD
S1134D80B34239D02C002800093401A9FF3408307B
S1134D900196FFF7D3FF31003C22200006F0E9FA28
S1134DA0019800F0E8FB0600019800F0E4FB3C30B9
S1134DB002783100200006F0D3FA019800F0DBFB02
S1134DC0A2233C3002785B00EA54019800F0D3FB44
S1134DD03D2246238256FF33EA54019800F0CBFB70
S1134DE03E22A323825601985B00EA54002802D095
S1134DF003689B689847200076BD10B501F0B6F9AA
S1134E0010BD000070B5040016001D00FFF74AFE37
S1134E100D4B4822083323600023FF32A3542200A1
S1134E204832FF32537093702300084A55330849BF
S1134E30FF33A218196080339342FBD12300FC3363
S1134E401E655D65200070BDDCBC000054100000D0
S1134E508CBD000070B50C0005000B793F22037176
S1134E608B688360CB68C3600B6903614B6918313D
S1134E704361183006F074FAA36D2800AB65E36D46
S1134E80EB65236E2B66230064331A782B0064339E
S1134E901A70230065331A782B0065331A702300C7
S1134EA066331A782B0066331A70A36EAB66E36E12
S1134EB0EB66230070331A782B0070331A70636F1B
S1134EC06B67A36FAB6723007C331A782B007C33AA
S1134ED01A707D222B00A2567D331A707E22A256B0
S1134EE05A7070BDF0B5040007000D00002355345E
S1134EF0ABB0FF3448260293FF36BB5D029A93425F
S1134F0028DD2800049400F013FB0390280000F02F
S1134F1011FB0590280000F00FFB0600280000F0AC
S1134F200DFB33000090059A2000039900F010FB5C
S1134F308034039000280AD029000AA800F07AFEE1
S1134F400AA90498FFF786FF03982BB0F0BD029BD3
S1134F500133CFE7002203921D2BF5DCDB0155332F
S1134F60FF33FC1829000AA800F064FE0AA92000F7
S1134F70FFF770FF0D490AA802F067FF0A22B95D26
S1134F8007A802F086FF07A90AA802F0D0FF0100D3
S1134F90074801F06FF907A802F00FFF0AA802F012
S1134FA00CFFBB5D0133BB55CEE7C046BFBC000060
S1134FB0B002002070B5050008000C0000F0EAFC07
S1134FC003000020142B03DD21002800FFF78AFFD3
S1134FD070BDA4225200835CFD2B01DC0133835499
S1134FE070474A23012210B5FF33C254FFF766FE0F
S1134FF010BD4A23002210B5FF33C254FFF7BAFD97
S113500010BD000070B505008EB0802001F0F0F8EE
S11350102B00FC335C6D1A6D4823FF33EB5C0600F8
S11350200D93237902200C9323680B93A3680A93AE
S1135030A4235B00EB5C09930023089307930023EC
S1135040E1790239C9B288425B41DBB206931300AD
S113505031331B780593130032331B780493536A5E
S11350600393136A0293106803F090FE0190236B7C
S113507030000093A36A226AA16900F019FB2B0097
S1135080FD331B781E2B06D1064B0749186801F027
S1135090FBF80EB070BD280031008430FFF71CFE11
S11350A0F7E7C0464C0100208ABC0000F0B50600BA
S11350B0B1B04068FDF71BF901003000FFF716FDA1
S11350C00E90051E19D000F031FA012804D00328EF
S11350D016D00024250005E00E993000FFF76AFF82
S11350E000250400330081331B781E2B00D10DE111
S11350F030000E990830FFF7EFFD280031B0F0BD05
S11351003700FC37796D0E980B6B00938B6A0A6A33
S1135110896900F01DFA0028DBD0A42300245B0079
S1135120F4540E9800F010FE01380328D2D803F08E
S11351302BFC0243D6E74A23FF33F45C002CC8D18E
S11351404822FF32B25C7D6D3B6D0D922A790227B5
S11351500C922A6821000B92AA680A92642209928E
S1135160002208920792EA79023AD2B29742614148
S1135170CAB206921A003132127805921A003232FB
S1135180127804925A6A03921A6A0292186803F017
S1135190FDFD01902B6B10A80093AB6A2A6AA969E4
S11351A000F086FA10A8756800F0E5F901002800FF
S11351B0FDF755F93D0095E74A23FF33F45C002CD5
S11351C000D086E74823FF33F35C002B00D180E74F
S11351D0013BDD0175190F932B005933FF331B7805
S11351E010AF3B712B002900FC331A6E6D31129203
S11351F05A6EFF3113929A6EDB6E149216A83F22F8
S1135200159306F0ADF8464B02A910932B00AD336D
S1135210FF331B683800BB652B00B133FF331B68B9
S1135220FB652B00B533FF331B683B662B00B9339A
S1135230FF331A7829AB1A702B00BA33FF331A786C
S11352409D235B181A702B00BB33FF331A789E23FF
S11352505B181A702B00BD33FF331B68BB662B0031
S1135260C133FF331B68FB662B00C533FF331A7849
S11352702CAB1A702B00C933FF331B687B672B00E0
S1135280CD33FF331B68BB672B00D133FF331A7850
S11352902FAB1A702B00D233FF331A78B5235B1867
S11352A01A70B623D335FF352A785B181A703C215F
S11352B06A46482352181278FF33F25400F036F944
S11352C025000F90022800D00CE73800756800F024
S11352D052F901002800FDF7C2F80F9D02E70121F1
S11352E0152002F0BDFCFA20C00000F045FF0021AB
S11352F0152002F0B5FC01227B6D3C331A70E8E600
S113530001227B6D363319784A40F7E7002C00D030
S1135310F3E60E9B0E981B689B689847EDE6C04623
S11353208CBD0000002337B501934A23FF33C45CCE
S11353300500002C02D0002420003EBD01A98430C9
S1135340FFF7FCFC0028F6D001980028F3D000F009
S1135350EDF8002803D0022803D903280BD0002439
S11353601CE06C68019800F006F901002000FDF7CC
S113537076F8022412E0019800F0E6FC01380328D4
S11353800CD86C6803F0F6FA0202EEEE019800F015
S1135390F2F801002000FDF762F8032401980028C8
S11353A0CAD003689B689847C6E7000073B5040039
S11353B00D001600002901D1002A16D1731B019398
S11353C00F2B07D9002201A9200003F065F9019BE6
S11353D02060A36032002900206803F08BF90021CB
S11353E0019B22686360D15473BD014803F0EBF85C
S11353F045BD0000F8B504001D0016000F00204B49
S11354000360069B2171A2600361079BC560436131
S11354103C220021183005F0ACFF330E6376330CC8
S1135420A376330AE3762B0E63772B0CA3772B0A30
S1135430E377631C27762677DD77069B20001A0E18
S1135440A31CDA77069B1A0CE31CDA77069B1A0A6C
S1135450231DDA776A46127E631DDA77079B1A0EDC
S1135460A31DDA77079B1A0CE31DDA77079B1A0A48
S113547023000833DA776A46127F20331A70F8BDA6
S1135480F8BC000070B50E000400274B3C360360E6
S1135490327818300D0005F063FF2300327854335E
S11354A01A703D222300AA5655331A703E22AA567A
S11354B020005A70237EA27E2371637E12041B0691
S11354C09B18E27E12029B18227F9B18A360A27F86
S11354D0637F12041B069B18E27F12029B18621C56
S11354E0D27F9B18E360E21CA31CDB7FD27F1B06E8
S11354F012049B18221DD27F12029B18621DD27FB8
S11355009B182361E21DA31DDB7FD27F1B061204BF
S11355109B1822000832D27F12029B1822002832E4
S113552012789B18636170BDF8BC00000079704765
S113553080687047C0687047006970474069704769
S11355405530007840B270475630007840B270470A
S113555030B50400A56800208D420BD1E16891426A
S113556008D122699A4205D1039B6069C01A42425C
S11355704241D0B230BD1830704700000300F0B58E
S1135580002585B0009137490833019203600A0071
S11355900400FFF70BFF009E019B009A9B1BD3188E
S11355A0002B2ADD327802A96B1C4A55032B21D12A
S11355B00A7803AD93082B704B78302112010A400E
S11355C0190952183C216A7002AA92789B000B4078
S11355D091095B18AB703F2300271A40EA70224AF6
S11355E0EB5D12682000D15C013703F0CDF8042F85
S11355F0F5D1002301361D00CEE7002D2FD02B005E
S11356000022022B03DC02A9CA540133F9E730213A
S113561002AB1A7803AE9308337002AB5B781201C5
S11356200A401909521872703C2200279B0013404B
S113563002AA927892099B18B3700B4AF35D126820
S11356402000D15C013703F09FF8BD42F5DA032D49
S113565005D03D21200003F097F80135F7E720003D
S113566005B0F0BDAEBD00009002002010B5074C9F
S1135670074A23000833236020000649FFF796FEFB
S1135680054A0649200002F097FF10BD9002002051
S113569044BD000004BD0000000000207D87000020
S11356A07047704710B5040000F0A6FD200010BD3F
S11356B0F0B587B0040010A8007804AE039011A8D8
S11356C00078049012A8057825208019C77F18A8AF
S11356D00078059019A806780C980093019013009F
S11356E020000A000121FFF785FE594B6A46083362
S11356F023600D9B127BA3650E9B2421E3650F9B06
S11357002366230064331A706A46127C9D705A70B3
S1135710139B6A46A366149B127DE36623007033D1
S11357201F70169B6367179BA36723007C331A7053
S11357305E700D9B1A0C230029331A700D9B1A0AF4
S113574023002A331A7004AA5218127804315A70AA
S11357500E9B1A0E23002C331A700E9B1A1423006E
S11357602D331A700E9B1A1223002E331A7004AABA
S11357705218127804315A700F9B1A0E23003033DA
S11357801A700F9B1A14230031331A700F9B1A12CC
S1135790230032331A7004AA5218127803995A70EB
S11357A06022049B5B011340413A0A401343002DDD
S11357B001D080221343220034321370139803F073
S11357C0E5FA230080B2020A35331A705870214971
S11357D0149803F093FE03F0D9FA230080B2373310
S11357E0020A1A7058709F70169805F071FC802395
S11357F00022DB0505F0A8F80022174B04F024FE74
S113580003F0DCFA23003A331870179803F0BEFA59
S11358102300C5B23B331D701049179803F06EFE88
S1135820071C6420684304F045F9011C381C03F08C
S113583085FF03F0ABFA6A462300127D3C331870EF
S11358405A70200027229E701A7607B0F0BDC04619
S113585070BD000000002041000059400000C84213
S113586010B50400FFF70EFE474B083323602300F6
S113587054331B78262B00DC83E0230022002933D9
S11358802A321B7812781B0412029B1822002B3236
S1135890127821009B18A365220023002D322C339B
S11358A01B7812781B0612049B1822002E321278E1
S11358B0643112029B1822002F3212789B18E36580
S11358C022002300313230331B7812781B06120475
S11358D09B1822003232127812029B1822003332B3
S11358E012789B18236623001F2234331B781A4036
S11358F00A705A06920F5BB24A70002B03DA230037
S1135900012266331A7023003533187801331B786B
S11359100002C01804F0CEF82300A06637331878CC
S113592001331B780002C01804F0C4F8174903F0CF
S1135930F5FB2300E06639331A7837331A70363BA7
S1135940187804F007F9124903F0E8FB8021C9052F
S113595003F052FA230060673B33187801331B7855
S11359600002C01804F0A6F8094903F0D7FB23008D
S1135970A0673D331A783F331A703E3B1A783F33A1
S11359801A70200010BDC04670BD00000000204108
S11359900000C842703000787047806D7047C06D59
S11359A07047006E70476430007870476530007847
S11359B07047663000787047806E7047C06E7047DD
S11359C0703000787047406F7047806F70477C304C
S11359D0007870477047704710B5040000F00CFC65
S11359E0200010BD10B50400FFF74CFD494B0833EF
S11359F02360230054331B78272B00DC87E023002B
S1135A00220029332A321B7812781B0412029B18B5
S1135A1022002B32127821009B18A3652200230058
S1135A202D322C331B7812781B0612049B1822008B
S1135A302E321278643112029B1822002F3212780F
S1135A409B18E36522002300313230331B7812782F
S1135A501B0612049B1822003232127812029B1881
S1135A602200333212789B18236623001F2234331A
S1135A701B781A400A705A06920F5BB24A70002BC8
S1135A8003DA2300012266331A70230035331878B1
S1135A9001331B780002C01804F00CF82300A06640
S1135AA03733187801331B780002C01804F002F869
S1135AB0194903F033FB2300E06639331A7837338E
S1135AC01A70363B187804F045F8144903F026FBA5
S1135AD08021C90503F090F9230060673B331878EF
S1135AE001331B780002C01803F0E4FF0B4903F0F4
S1135AF015FB2300A0673D331A783F331A703E3BF1
S1135B001A783F331A703E3B1A783F331A702000DC
S1135B1010BDC04684BD0000000020410000C84202
S1135B200200836D2932190C70B51170190A517075
S1135B309370C36D0400190ED170191411711912E8
S1135B4051719371036E190ED171191411729372FC
S1135B50191203005172602265331B781F215B0107
S1135B6013400200643212780A4013430200663282
S1135B701278002A01D08022134322003432137099
S1135B80A06E03F003F9230080B2020A35331A70C1
S1135B905870E06E244903F0B1FC03F0F7F82300D9
S1135BA080B23733020A1A702200587070321278A9
S1135BB09A70606F05F08CFA80230022DB0504F0F4
S1135BC0C3FE0022194B04F03FFC03F0F7F8230056
S1135BD03A331870A66F301C03F0D8F82300C5B20E
S1135BE03B331D701249301C03F088FC061C6420F2
S1135BF0684303F05FFF011C301C03F09FFD03F0BA
S1135C00C5F8230022003C3318707C3212785A7095
S1135C1022007D3212789A7022007E321278543437
S1135C20DA702823237070BD000020410000594021
S1135C300000C842F0B5040085B008000D00FFF76D
S1135C4077FC03902800FFF775FC06002800FFF797
S1135C5073FC07002800FFF771FC039A02210190EE
S1135C60330000972000FFF7C5FB274B28000833BB
S1135C702360FFF792FEA0652800FFF790FEE06521
S1135C802800FFF78EFE20662800FFF78CFE230015
S1135C90643318702800FFF789FE230065331870F9
S1135CA02800FFF786FE2300663318702800FFF7EC
S1135CB083FEA0662800FFF781FEE0662800FFF758
S1135CC07FFE2300703318702800FFF77CFE6067A6
S1135CD02800FFF77AFEA0672800FFF778FE23006C
S1135CE07C3318702800FFF72BFC23007D331870D9
S1135CF02800FFF729FC23007E3318702000FFF7EB
S1135D000FFF200005B0F0BD84BD00007047704750
S1135D1010B5040000F070FA200010BD10B50400A6
S1135D20FFF7B0FB074B08332360230054331B7881
S1135D30112B04DD230029331A782E331A70200026
S1135D4010BDC04698BD000057300078704700234E
S1135D5010B5040003608371CC300380A164E26455
S1135D6019003C22C43805F004FB200010BD0300D8
S1135D7070B500253C26040044331D705D7032006C
S1135D802900083005F0F5FA2000320029005030CF
S1135D9005F0EFFA2300CC348C331D705D709D70D8
S1135DA0258070BD70B5037A0400012B17D1030060
S1135DB00600010044331D785036033D09312A00A2
S1135DC0300005F0CDFA230022008C331D7000232F
S1135DD08D32137053703100A06CFEF795FF70BDC7
S1135DE0F8B506000D001E230200070004008F36DC
S1135DF03C3533702B7890320233137091372A7804
S1135E00380005F0ADFA2A783900E06CFCF796FA10
S1135E102B78020AE31891331A702B783100E418B6
S1135E20923420702A780248043200F0C5FDF8BD8F
S1135E30B0020020037A10B5002B0FD1010002003C
S1135E40503151320B701370030002228C331A70DC
S1135E50FFF7C6FF0122024B34331A7010BDC0464F
S1135E6050020020F8B5494E0400300000F098FDBF
S1135E7004272060002854D1A06CFEF733FE0028CC
S1135E8015D0A06CFEF775FF02003C3213780100B8
S1135E90392B0CDC0D003D3000783E35C8542D788C
S1135EA0C8180233457013702000FFF799FFF8BD3E
S1135EB0E3791E2B32D12000FFF759FF0123A37190
S1135EC02CE0E3793B2B01DD0023F8E71E2BF2D015
S1135ED02200443213700223F1E7E2791E2AEAD049
S1135EE06271022AF0D8210045310B78581CE3185E
S1135EF008701A720323E2E7210045310A78531C23
S1135F00DBB20B70E179A21811723B2BDCD82200B2
S1135F1044321278023A934200DBA7712368002BC3
S1135F20C5DD300000F064FDE071300000F038FDA4
S1135F302060A0790528C7D802F01CFDBAC3CFDEC3
S1135F40030A2200E379CC321B0213800523B6E74F
S1135F502500CC352A88E379210013432B802300C4
S1135F6045331A780831E06CFCF7E8F92B88834252
S1135F70AAD16379002B05D0022BA5D82000FFF706
S1135F8011FFA1E72000FFF755FF9DE7B0020020B5
S1135F9037B501018020000202F094FD0023094C72
S1135FA0451E208A228B80B2009592B2190001F01E
S1135FB0F9FEADB280B220822583E37BDB09FCD1FC
S1135FC037BDC046002C0042204B214A70B55A8090
S1135FD05A78D209FCD11F4A5A605A78D209FCD1A6
S1135FE01D4C0232238893432380E37BDB09FCD1DD
S1135FF0802322881B011343238023889BB22380A0
S1136000E37BDB09FCD12288203313432380E37B29
S1136010DB09FCD180232288DB0013432380E57B4A
S1136020ED09FCD1FFF7B4FF10236573627B1343C2
S113603080226373094BD2021A600223228813431D
S11360402380E37BDB09FCD170BDC046000C00401B
S11360501B42000002032100002C004200E100E08A
S113606010B50C4B9A7BD20612D51022997B0A43A9
S11360709A73094B1868FEF7ACFF084B5A79FD2A4E
S113608001DC01325A719A79132A01DC01329A71C6
S113609010BDC046002C00424802002050020020DF
S11360A0FEE70000034B10B51B68002B00D0984797
S11360B010BDC046A802002070B515260A250D4C57
S11360C00021300001F0CCFDC046013C002CF7D18A
S11360D0084C0121300001F0C3FDC046013C002CF6
S11360E0F7D1013D002DEAD1034BC046013B002B03
S11360F0FBD1E3E7A8610000A025260070B50F4995
S11361000F4CA14204D100F069F900F051F8FEE708
S11361100C4D00238D42F6D0CA18E818A24205D3CC
S11361209042F0D0084B0949002204E0006804338F
S11361301060F1E704C38B42FCD3E4E700000020C5
S1136140300100206CC300003001002084090020CD
S113615010B500F02AF8002801D100F01BF810BD9A
S1136160014B18607047C046A8020020014B186814
S11361707047C046AC02002070B5041E07D0044D21
S11361802E6800F011F82B689B1B9C42F9D870BD57
S1136190AC02002010B5034A13680133136000F009
S11361A0E1F810BDAC020020704700207047704732
S11361B010B501F0F7FB05F09BF8FFF7F8FF01209D
S11361C0FFF7DAFF084C200000F0C6FE200000F0C4
S11361D023FFFEF70BFAFEF7EDF8044B002BFAD081
S11361E000E000BFF7E7C046CC020020000000003A
S11361F010B505F0A1F810BD10B505F0A7F810BD55
S1136200F7B506000D000C008B180193019B671B6A
S11362109C4207D0336821781B68300098470134CA
S11362200028F3D13800FEBD70B505000C00081E2F
S113623007D005F0BDF92B6802005B682100280037
S1136240984770BD10B503688A685B680968984709
S113625010BD10B5FFF7E8FF10BD10B503681B684B
S1136260984710BD10B50249FFF7DEFF10BDC046C8
S1136270ACBD000070B50500FFF7E4FF0400280082
S1136280FFF7F0FF201870BD70B50400FFF7CCFFD6
S113629005002000FFF7E6FF401970BDF0B51600B9
S11362A000228DB002AB053301900D00DA77012E88
S11362B000DC0A260BAC2800310002F0FFFB0F00C3
S11362C0CBB228003100009302F072FBFBB23733EB
S11362D00500013CDBB2092F02D8009B3033DBB24E
S11362E02370002DE7D121000198FFF79DFF0DB029
S11362F0F0BDF8B506000C00151E04D10368C9B240
S11363001B689847F8BDD2B20A2D0DD12A00002986
S11363100ADA2D21FFF7A1FF614207002A003000AD
S1136320FFF7BCFF3818EDE721003000FFF7B6FF98
S1136330E8E770B50400FFF7DCFF05002000FFF775
S113634091FF401970BD0000014B18607047C046B2
S1136350040000200122024B52421A607047C046DA
S113636004000020164A10B51368591C27D0013BBD
S11363701360002B23D172B6124B134A0433934299
S113638008D8BFF34F8F114A114BDA60BFF34F8F18
S1136390C046FDE70F4A01211000147D0C42FCD0D9
S11363A02021148BFF319B085B0021431183D361AF
S11363B0094B13800123027D1A42FCD0E1E710BD92
S11363C00400002000200000030200000400FA057D
S11363D000ED00E00040004102A5FFFF1E2270B561
S11363E046484749436893431C3A13434360082390
S11363F08C6923438B61434C434B9C829C8A14439A
S11364009C82DC681442FCD00124404A1470157844
S1136410254203D055786DB2002DF8DB0124946039
S1136420547864B2002CFBDB394C5460547864B269
S1136430002CFBDB8224E4015480547864B2002CE9
S1136440FBDB02249C840E34DD682542FCD0314CF5
S1136450DC621024DD682542FCD09D8C2E4C2C433C
S11364609C841024DD682542FCD002249D8C802667
S11364702C439C844024DD683542FCD0DD682542F1
S1136480F9D01024DD682542FCD0002494605478AF
S113649064B2002CFBDB214C5460547864B2002CB1
S11364A0FBDB1C6A1E4D2C4080251C621C6AAC431D
S11364B01C62032393601B4B536053785BB2002B25
S11364C0FBDB0023FF240B72174A4B728B72CB72D7
S11364D0164B1A60164B174A1B6811689A065B0123
S11364E0C90E2340520F12020B431343124A138561
S11364F0802342681343436070BDC046004000419E
S1136500000400400C06000000080040000C00409D
S113651001050100B905FF7D040A0000000703001E
S1136520FFFCFFFF03060100006CDC028400002076
S113653024608000206080000040004201207047F9
S113654010B50368014A1B6A984710BD1304000084
S11365500300FC33D9699A69914203D0DB69C018FE
S1136560007D704701204042FBE710B5040000693C
S113657001F088FE22000023FC329361D36186225D
S11365809200A4186360A36010BD10B5006901F007
S1136590C3FE10BD10B5006901F0C6FE10BDF020A9
S11365A001403039484248417047F0231B011940EB
S11365B0802306209B0099420AD00133FF33013027
S11365C0994205D0802302385B00994200D0002014
S11365D070470F2001400020012903D00239481ED2
S11365E08141481C704700008923F0B5182685B006
S11365F002919B000400C05C330008214343324DE8
S11366001700EB18595601F06FFB304B0821E05C82
S113661033004343EB18595601F066FB2C4BE25C04
S11366200393022A09D11133E05CFF2805D0082125
S11366304643AE19715601F057FB8A26B600A05D99
S1136640FF2819D0012101F0BFFA1822A35D2149C6
S11366505A43AB56AD18DB0158188B2189006050A2
S11366601D4901225B188C218900635069688A40A6
S11366708D21890062501A600122029B1100206959
S113668001F0EEFE39002000FFF78FFF390005000E
S11366902000FFF79EFF390006002000FFF77FFF70
S11366A03300009029002069012201F0BFFD0B4B4B
S11366B02069E25C039BE15C01F0D2FD206901F0FA
S11366C0EDFD05B0F0BDC04650BE0000250200003F
S11366D0270200001844004114440041260200002F
S11366E0802210B504005200002104F042FE230071
S11366F00022FC335A6020009A6010BDF7B51D00DB
S113670008AB1B780400009309AB1B7816000193B7
S113671000234360FA239B008360114B0F0008336E
S113672003601430FFF7DCFF20001D30FF30FFF75B
S1136730D7FF89236A469B002761E654094B1278E8
S1136740E554094B2000E2546A46084B1279E2549E
S11367508A22293BFF3B9200A3541032A354FEBD6E
S1136760B0BD000025020000260200002702000040
S11367700300FC3358689B68C01A01D50130FF3010
S1136780704710B5040020001D30FF30FFF7F0FF04
S11367900028F8D1206901F08AFD10BD10B514302D
S11367A0FFF7E6FF10BD0300FC3359689A68914275
S11367B004DB5A689868801AFF30704798685B68F1
S11367C0C01A0138F9E710B51D30FF30FFF7EBFFB1
S11367D010BD10B50400006901F075FD002820D03B
S11367E0206901F085FD2200FC329369D1690133EF
S11367F0DBB28B4203D091696118087593618A23D7
S11368009B00E35CFF2B0CD020001430FFF7CBFF80
S1136810092806DC8B238D229B009200E358A258A2
S11368201A60206901F05FFD00281AD020001D3095
S1136830FF30FFF79DFF002822D086239B00E3183A
S113684099685A68914218D08E219A684900A21812
S1136850515C9A680132D2B29A60C9B2206901F0DF
S11368604BFD206901F034FD002805D0206901F0BA
S113687033FD206901F023FD10BD01214942ECE7FD
S1136880206901F045FDECE770B5040000690D00D6
S113689001F029FD002824D1FF2686239B00E3185C
S11368A05A689968013232408A422FD1EFF310833B
S11368B0DB070DD41E4B5B68DB05DB0DEDD0103B15
S11368C05BB2002B19DB9B08C0331A4A9B009B5810
S11368D0206901F008FD0028DFD02000FFF779FFD0
S11368E0DBE720001D30FF30FFF742FF0028D3D143
S11368F02900206901F000FD17E00F221340083B36
S11369009B080D4A9B009B181B68E1E75A680132FB
S113691016409A68964205D08E215A684900A218FA
S113692055545E60206901F0EFFC012070BDC04643
S113693000ED00E000E100E01CED00E00300FC33AA
S1136940D9699A6970B5040091421AD0DA6982183B
S1136950157DDA690132D2B2DA618A239B00E35CE5
S1136960FF2B0CD020001430FFF71DFF0A2806DD92
S11369708C238D229B009200E358A2581A602800B1
S113698070BD01256D42E8E73F20704713B56B46A3
S11369900268D9710733546819000122A04716BD53
S11369A010B50221006900F029FC10BD10B50321C7
S11369B0006900F039FC10BD10B5130004000A0092
S11369C00069032100F01CFD002801D1012363604C
S11369D010BD000010B5054C23685A1C04D103688F
S11369E05B69984703002060180010BD5800002020
S11369F0074B0200186810B5411C03D00122524213
S1136A001A6010BD0221106900F0ECFCF9E7C046E1
S1136A105800002010B50378422202330370024963
S1136A20024800F08DFD10BD14000020CC020020AF
S1136A3010B50178030042780020A12908D1212A49
S1136A4005D11A3A1649174800F07AFD012010BD05
S1136A502129FCD1202A11D1193A1149114800F0F9
S1136A6027FC96220E4BD2001968914203D10124CF
S1136A70D87904400ED0FFF76DFC0EE0222A03D132
S1136A809A78074BDA71ECE7232AE0D15A88064B4F
S1136A901A60DCE7FA20FFF757FC0020D7E7C0466E
S1136AA00C000020CC0200200800002070470000E9
S1136AB0FA220021054B92009A60054A5960083277
S1136AC01A60044A19761A617047C046B002002061
S1136AD0E4BD0000CC02002030B50F25CB1D0139E8
S1136AE002002A40140000093034092A01DD37323B
S1136AF014001C70013B8B42F2D130BD70B5822969
S1136B001FD1C3B22C4D5A01AA1891692B4C800194
S1136B100C40C02189052143916129490833081893
S1136B20802150612A685B01D018047949422143CD
S1136B3001717020995C814308003021014399540C
S1136B4070BD0029FCD1C024C1B21B4E4B01F31807
S1136B509A681A4DA4052A4022439A60194A800172
S1136B6010180A0058603068072608325201115C78
S1136B70B1430E0001213143115499690D402C4356
S1136B809C6170240E495961115CA1430C001021D1
S1136B902143115499680C4C82180C4080214903FC
S1136BA0214399609968890B89039960402351793D
S1136BB00B435371C4E7C04684070020FFFFFF8FD7
S1136BC0F8020020B8040020FF3F00F070B5040074
S1136BD0012320CC00212A782000134380222B702B
S1136BE0520004F0C6FBAB78DB07FCD46C6270BDCA
S1136BF01F22144B70B51B68590B9C0C9B01114050
S1136C005B0F22401F2900D11A391F2A00D1023AF2
S1136C10072B00D1043B1F2500688E01048D0A490F
S1136C202A40214031430185018D14000A00AA4302
S1136C3022430285028D1903044B13400B43038541
S1136C4070BDC046246080003FF8FFFFFF8FFFFF48
S1136C50EFF3108303600123436072B67047036847
S1136C60002B02D162B6BFF36F8F704737B5056949
S1136C7004006846002D14D1FFF7EAFF019B621D52
S1136C80013B02D3D57FEDB2FAE768460193FFF7E3
S1136C90E6FF002D01D100203EBD206AE369C01A41
S1136CA0FAE7FFF7D5FF22000025019B3432013BB0
S1136CB002D31578EDB2FAE768460193FFF7CFFFE8
S1136CC0002DE8D0206BE36AE9E70000F0B5012568
S1136CD04668037A31685A018C18FF34A77AB218CF
S1136CE03D43A572C468094D9068A4042840240952
S1136CF02043906090680833800B800390604022AA
S1136D005B01CB1819790A431A71F0BDFF3F00F0FB
S1136D10F7B5036904000E0017006846002B3DD147
S1136D20FFF796FF019B611D013B5A1C0CD0CD7FE0
S1136D305A1EEDB2002D05D168460193FFF78FFF6F
S1136D402800FEBD1300F0E7684601930025FFF715
S1136D5086FFE369AF4202D0226A934257D3226A84
S1136D609342EDD10023E361013323616846FFF7C9
S1136D706FFF22000021019B671D013B3532581C27
S1136D80DAD0F97710785E1E002805D01170200043
S1136D900193FFF79BFFECE73300F0E7FFF758FFA1
S1136DA02100019B3431013B5A1C06D00D785A1E38
S1136DB0EDB2002DC0D01300F6E76846019300251C
S1136DC0FFF74DFFE36ABD4202D0226B934226D304
S1136DD0226B9342B4D100236846E3622361FFF738
S1136DE037FF270022000021019B3437013B353255
S1136DF0581CA1D0397010785E1E002805D011707F
S1136E0020000193FFF762FFEBE73300F0E75A1C21
S1136E10E261A269D3181B787355013599E75A1CAE
S1136E20E262A26AD3181B7873550135CAE7F7B535
S1136E30027A4368110004000831186849014118B6
S1136E40C879C00727D501255201CD719B189A68CE
S1136E5061699204920C002921D12262226A002ADB
S1136E603ED0A26A656168465A60FFF7F1FE2700CA
S1136E702100019B661D013B343735315A1C2BD050
S1136E80F5773A78581ED2B2002A05D001936846A5
S1136E900D70FFF7E4FEF7BD0A700300EEE722630E
S1136EA0226B002A1CD000226261A26968465A60E3
S1136EB0FFF7CEFE26002100019B3436013B671DFF
S1136EC035315A1C08D03570FA7F581ED2B2002AC8
S1136ED0DCD10A700300F4E768460193FFF7BFFEB4
S1136EE02000FFF7F3FED6E737B56B46DC1D002321
S1136EF00D0020002370FFF78DFD2B681818286003
S1136F0001F048FB210001F001FB2B6818182860F0
S1136F1020783EBD03290ED180220E4B62311B68BE
S1136F20FF31585C524202435A5468226339FF3994
S1136F30FF32995470470129FCD18022054B24313A
S1136F401B68FF31585C524202435A542339FF39BB
S1136F502822EDE784070020202370B5254A040089
S1136F60D1690F200B43D361012223490B781343CA
S1136F700B70224B19788143197006211D7829431F
S1136F8019701F490D782A430A701A7802401A7042
S1136F90602219780A431A701A4B1B4A5A805A788D
S1136FA0D209FCD11948FFF7DBF8194D2800FFF787
S1136FB00DFE2800FFF71CFE7F212B68C1201A78E4
S1136FC080000A401A70042219780A430C211A70AE
S1136FD01A898A430F491A810A581202120A0A505E
S1136FE080220A6019787E3A0A431A7001232370BA
S1136FF070BDC04600040040584400413C44004178
S113700059440041000C004006400000857900000E
S11370108407002000E100E00078002810D001215E
S1137020084B1B681A898A431A810822198B0A4360
S11370301A830422198B0A431A830022024B1A6012
S11370407047C046840700207C07002010B50F4A13
S113705093699B0B9B03936113680222FF331A729B
S11370609879823A02439A711A7A9207FCD57F245E
S1137070074A2140937A0800A3431900802301435F
S11370809172917A5B420B43937210BD8407002086
S1137090005000410078002805D0034B1A680123F2
S11370A011890B43138170478407002010B50B79B5
S11370B00C00002B0CD10800FFF7BAFC002801D00B
S11370C0012010BD094A93699B0B9B039361F7E769
S11370D001F060FA210001F04CFA0028F0D1034AD3
S11370E093699B0B9B039361EBE7C04684070020E5
S11370F0F7B50D00832A19D1CBB2324C5A01A2182C
S113710091693148AD010840C0218905014391616D
S11371102E4920684D197021083355615B011A5CB2
S11371208A43110040220A431A54F7BD022A44D16B
S11371308B000193264B8A00D658002EF5D13820B7
S1137140FFF756F8234B1F4F036080235B00C36097
S1137150431D0662856006614661C661040047609E
S1137160DE77C662066380202F331E7040005E7097
S113717004F0E2F80600A0618020400004F0DCF88E
S1137180EDB26B01A062FB189A680F490720114009
S1137190C02292050A439A603A6808356D01A95CD9
S11371A08143080003210143A95420005E60FFF7D6
S11371B08DFD074B019AD450B7E711002800FFF763
S11371C09DFCB2E784070020FFFFFF8FF802002038
S11371D0D002002010BE000070B505000124064B4B
S11371E0A200D258002A05D021002800FFF780FF12
S11371F00134F4E770BDC0465C000020084B8A00EF
S1137200D05810B5002803D003689B68984710BD78
S1137210C9B2044B4901591888688004800CF6E708
S1137220D00200208407002010B50C00FFF7E6FF11
S113723000280CD0064BE4B21B68083464011C1906
S1137240802362795B42134363710223E37110BDAF
S11372508407002070B5134BCCB2134A6001890136
S11372605918131859609968104D08340D4080213D
S113727089022943402599609968890B890399609B
S113728011686301CB181E7935431D719D796D0614
S1137290FCD564010919CB79DB07FCD51218906879
S11372A0C0B270BDB804002084070020FF3F00F086
S11372B070B5140040220B4B0D001B68FF33597945
S11372C00A435A710021FFF7C5FFA04200D92000EC
S11372D000230549A34203D05A5CEA540133F9E779
S11372E070BDC04684070020B804002010B5C9B2A0
S11372F00B484901421893689B049B0C3F2B0BDD00
S11373009468403B9B04A40B9B0CA403234393600D
S113731041188868C0B210BD93689B0B9B03F6E7C5
S113732084070020F0B51C002A4B85B01B680600BA
S11373300D000192002B4AD0274B8A00D058002818
S113734008D0036822005B68019998470400200074
S113735005B0F0BD3000FFF751FF844204D9290085
S11373603000FFF74BFF040029003000FFF7BEFF99
S11373700121EBB2194F03935B010293029A3B681C
S113738001989B18FF335A7A0A4315495A72AB0184
S1137390C918220003F0E4FF002CD8D029003000E3
S11373A0FFF72CFF0028D2D14021039B3A68083311
S11373B05B01D3181879014319710121D971012195
S11373C0029BD318FF339A7A0A439A72BFE70124C7
S11373D06442BCE77C070020D00200208407002020
S11373E0B804002013B56B46DC1D22000123FFF70F
S11373F099FF012801D1207816BD01204042FBE706
S1137400F0B51E00354B85B01B680F000192002BB0
S113741035D08023DB019E4231D80025304A8B01D0
S1137420D3180293002E2CD02E4B1B680393FF23FA
S11374303B401C0000930834039B64011C19A3798E
S1137440DB0921D0284B2949186801F0B1FA284BEF
S11374501721584301F0ACFA264BE279920713D472
S1137460DA5D002A01D10138F7D20122DA55009BF6
S11374705A011C4B9B189A69920B92039A6101253D
S11374806D42280005B0F0BD00221A4B3400DA55D5
S11374903F2E00D93F2422000199029803F060FF97
S11374A0009BA1045A010F4B890C9B18029A2D19B9
S11374B05A619A69361B920B92030A439A61009BA4
S11374C0039A08335B01D3180222DA715979823A9C
S11374D00A435A71019B1B190193A3E77C070020FF
S11374E0F8020020840700208400002040420F009E
S11374F070110100ED02002070B50D001C000D4E4E
S1137500AB01F61811003000220003F029FFEDB2A0
S113751009496D014D196E61AB69084A2000134099
S1137520AB61AB69A2049B0B920C9B031343AB614D
S113753070BDC046F802002084070020FF3F00F021
S1137540F7B5104B01901B780F001500002B0CD1E0
S11375500D4B16001C78002C09D00C4E0C483488B6
S11375600019641903F0FCFE34802800FEBD002ECF
S1137570FBD03A19330000210198FFF7BDFF24180E
S1137580361AF4E778060020790700207A070020ED
S113759079060020F8B5002000AF0E001500012A7E
S11375A026DDD31D6A46DB08DB00D31A9D4608009E
S11375B003F0FEFF6C4603230021013040002070DD
S11375C063705A1ED2B295420BDD3078002808D081
S11375D00136A0549D4203D0E1540233DBB2F0E7FC
S11375E02A0021000348FFF7ABFF431E9841C0B2B5
S11375F0BD46F8BDCC020020F0B50027012687B0B7
S11376001E4B009102A91E7005000297FFF76CFC47
S113761003AC019009223900200003F0AAFE0923DB
S11376202370022363709E33E3715A332372029BE7
S11376306671093363806B461B7923710F4B1F708E
S1137640009B092B07D11A0021002800FFF778FFBF
S1137650012007B0F0BD0A4B09221E70094E21001B
S1137660280002973780FFF76BFF02A92800FFF775
S11376703BFC034B32881F700349E6E77806002081
S1137680790700207A0700207906002070B5CE78AB
S113769092B005000C00022E08D1C9882B48FFF7D0
S11376A0ABFF431E9841C0B212B070BD00F072FF30
S11376B0210000F03FFF002803D0C317181AC00FA1
S11376C0F2E7012E0BD1E2882149112A10DCD2B253
S11376D0002A0DD02800FFF733FF0120E4E7032E32
S11376E0E2D1A378002B05D1E2881A49032AEEDD02
S11376F00A78EFE7022B05D1A27917492800FFF792
S113770049FFD1E7012B02D1A2791449F6E7032BF3
S1137710CAD1134B01A91868FFF7DEF9114B03A96D
S11377201868FFF7D9F9104B05A91868FFF7D4F9C1
S11377300E4B07A91868FFF7CFF900F02BFF09A932
S113774000F008FFA27901A9D8E7C046CC020020C6
S11377503CBE00002CBE00001CBE000030BE000079
S11377600CA0800040A0800044A0800048A08000BD
S113777073B5060048780D000B2811D801F004F900
S1137780061D102E104348704C4F696C097801AAED
S1137790002907D10223117051703000FFF7ACFEAD
S11377A0012076BD0023137053702E4B1B78012BE0
S11377B000D1137002230021EFE78A780023012A05
S11377C004D101AA13705370274BEFE7254A1370B5
S11377D0264A93699B0B9B039361E1E78C78012C08
S11377E006D10021204B01AA1C7011702300D4E79C
S11377F0002C08D101201B4B1C4A187093699B0B69
S11378009B039361CDE7A9783000FFF71FFCC7E71E
S11378103000FFF73BFFC4E70123154ACBE70B78A1
S11378200020DB06BDD13000FFF7D6FC2A20022160
S1137830AA780F4BFF301A600C4A13681C5C214372
S11378404A241954FF34195D2938FF380143195566
S1137850D4E70123074AAEE78A78064B1A60B7E7F4
S113786000209EE7EC020020F402002084070020A0
S11378707C070020800700203C4BF7B51C780700EC
S1137880002C5ED13A4E33689B8B1B070ED521002A
S11378902000FFF733F9326810231100FF31887A92
S11378A003438B72334B1C600823938333689A8B96
S11378B0520701D504229A83FF331A7AD20620D5BF
S11378C010221A72597930320A435A7160232A49B4
S11378D038000A781A4235D1FFF74AFF002834D01D
S11378E0802233685242FF3399790A439A7133688C
S11378F0FF331A7A520604D540221A72597A0A437F
S11379005A72336800251C8C01239C43E4B2019312
S1137910E9B2002C15D023002B41019A13420DD05B
S11379202B00326808335B01D318DA79D20713D4F9
S1137930DB799B0710D4019BAB409C430135092D97
S1137940E6D1F7BDFFF7B2FBC8E720220B4BCDE72A
S113795003681B689847EEE7094BAA00D058002833
S1137960F6D13800FFF7D6FAE5E7C04679070020DC
S1137970840700207C070020B8040020FF50004149
S1137980D002002010B50248FFF776FF10BDC046B4
S1137990CC020020014A024B1A607047005000419B
S11379A084070020FA212D4B10B51868890000F0D7
S11379B0FFFF2B4B013898424FD82A492A4A486086
S11379C0C020136A00061B021B0A03431362002330
S11379D08B6007330B608021136A09061B021B0AA4
S11379E00B431362FC22214B196A0A431A62FC22DC
S11379F0196A92010A431A62A022196AD2020A433E
S1137A001A621B4B1C005A7852B2002AFBDB194A3B
S1137A105A80194B1A00597EC9090129FBD0E42167
S1137A20C90099803F21D970537EDB09012BFBD01B
S1137A30C02300205B011361907000F02DF863787F
S1137A405BB2002BFBDB0D4B0D4A6380D379DB0962
S1137A50012BFBD04123537010BDFEE784000020AE
S1137A60FFFFFF0010E000E000ED00E00004004034
S1137A70000C00401E400000004000422140000075
S1137A8000480042914202D002D98A1AD04070477D
S1137A90521A9040FBE70000164A00B51300517ECD
S1137AA0C9090129FBD00138042816D81969124ADA
S1137AB00A400F211A615A788A4300F065FF0308CF
S1137AC0060B0300110001220A435A7000BD110085
S1137AD00322F9E711000222F6E7F02311691B05DE
S1137AE00B430F21136153788B43190002230B437B
S1137AF05370EBE700400042FFFFFFF010B50400B5
S1137B000E2800D80F340121200000F0EDF80F2CCE
S1137B100DD1284B1900DA79D209012AFBD00220B1
S1137B201A7882431A70CB79DB09012BFBD02249E6
S1137B300B004A7ED209012AFBD0182262431F4C53
S1137B40A418207C1F240A692040A24302430A612E
S1137B505A7ED209012AFBD0022219780A431A70EC
S1137B605A7ED209012AFBD00222197B0A431A73D6
S1137B7001221A765A7ED209012AFBD00222197BED
S1137B800A431A731A7ED207FCD5588B80B25A7EE8
S1137B90D209012AFBD002211A788A431A705A7E2C
S1137BA0D209012AFBD0064B1A68064B1968FFF765
S1137BB069FF10BD004800420040004250BE000072
S1137BC08C00002088000020182330B51D0004001C
S1137BD045430820204A55192856013014D003295A
S1137BE012D808006343D156D31800F0CDFE022802
S1137BF00E1B5868CB010221184A9B181A184032F0
S1137C001170012282405A6030BD5868CB010621B0
S1137C10124A9B181A1840321170012282405A608D
S1137C209A61F1E75868CB0106210C4A9B181A188F
S1137C3040321170012282405A605A61E4E7586868
S1137C40CB010221054A9B181A18403211700122F7
S1137C5082409A60D8E7C04650BE0000004400410C
S1137C601823F0B508245843114A13181C5701343B
S1137C701BD0012635005F688356BD400D4ADB01E9
S1137C809A18906828420BD10C00601E8441D219C6
S1137C904032107834400336A400B04320431070BF
S1137CA0044A9B18002901D15D61F0BD9D61FCE788
S1137CB050BE000000440041182310B50824584366
S1137CC0074900230A181457013406D043560549BE
S1137CD0DB015B181B6A5268D3400120184010BDB9
S1137CE050BE000000440041F8B50300182058437A
