:1020000000800020E1690000A1690000A1690000D2
:1020100000000000000000000000000000000000C0
:10202000000000000000000000000000A1690000A6
:102030000000000000000000A1690000356A0000F7
:10204000A1690000A1690000A1690000A169000068
:10205000A1690000A1690000A16900008D6900006C
:10206000A1690000A1690000A1690000DD42000033
:10207000ED420000FD4200000D430000A169000098
:10208000A1690000A169000049690000A169000080
:1020900000000000A1690000A1690000A169000022
:1020A000A1690000A1690000A1690000A169000008
:1020B0000000000010B5064C2378002B07D1054B1B
:1020C000002B02D0044800E000BF0123237010BDA4
:1020D000800200200000000060F10000084B10B5F5
:1020E000002B03D00749084800E000BF07480368F9
:1020F000002B00D110BD064B002BFBD09847F9E711
:10210000000000008402002060F100007C0200203A
:10211000000000007FB504000D252248224E2062F9
:10212000601DC57700259230256505700130068059
:102130001E4E4680A360089B2160E360099B62609D
:1021400023610A9B382063610B9BA3610C9BE361B5
:1021500004F0C0FC06006368A2680293636921680A
:10216000019323690093E36800F0F6FCA0692665FB
:10217000012106F041F92900A06906F089F9E0691A
:10218000012106F039F9E069012106F081F9230007
:10219000200055331D70013B1D70DD7002331D7032
:1021A00004B070BD00180D8F024000000140000017
:1021B00010B504000021C06906F06AF90121A06988
:1021C00006F066F910BD10B504000021806906F024
:1021D0005FF90121E06906F05BF910BDF0B504007C
:1021E00087B0006D00F00FFD206D012100F07DFF34
:1021F00020003C220021583009F0AFFE424D4349F7
:10220000286804F0AFFC4249286804F0ABFC41495F
:10221000286804F0A7FC4049286804F0A3FC2700C4
:10222000210001237020423746313B70A21D087007
:102230004A3848708B70D377230008222D331A70E8
:1022400034329A70002620225E70DA701E713100DE
:10225000206D00F008FD3978206D00F017FD390081
:10226000206D00F050FD2100206D253100F087FD2C
:10227000216A206D00F016FD32003100206D00F063
:1022800037FD1F21661DE0227156206D00F024FDF0
:10229000224903A82F6806F0F0F9206A204906F0C9
:1022A0002FFE0A220100684606F04EFA694603A88E
:1022B00006F099FA1B4906F0A3FA0100380004F071
:1022C00047FC684606F091F903A806F08EF9164916
:1022D00003A82C6806F0D1F90A22F17F684606F0BF
:1022E000FEF9694603A806F07EFA104906F088FA5E
:1022F0000100200004F02CFC684606F076F903A8E3
:1023000006F073F907B0F0BD9C02002009E300005D
:102310001EE3000038E3000050E3000067E3000024
:1023200040420F0079E300007DE300008EE30000EF
:1023300030B5040085B00D00FFF745FF230098334A
:1023400019880023206D00930A0000F09FFE206D85
:10235000002D09D0022203AB1A7030325A80039943
:1023600000F02EFF05B030BD012202AB52421D70BD
:102370005A800299F4E710B50400FFF724FF20000B
:102380000021FFF7D5FF0021152006F081F810BDD0
:1023900010B504000021806906F07AF80021E06998
:1023A00006F076F8206D00F0AAFE206D0E2100F0F8
:1023B00034FC0121206806F06BF810BD10B5006DEB
:1023C00000F047FC10BD0200973211780B1E03D0BD
:1023D000002313700300583318007047436D13B582
:1023E000FF211A00180A1C0C08400A400002214074
:1023F000090410431B0E1B060843184316BD0200B8
:102400000023553213705630013A1370D3700370A5
:102410007047000070B500240748084DA3B29342EE
:1024200009DA0B5D061273405B000602585B01344B
:10243000704080B2F2E770BDFFFF000098E000003E
:102440000300F0B5040058338DB03C220021180081
:102450002500009309F081FD002394352B702A009C
:102460003C330099206D00F05BFE061E2ED0404BE1
:10247000404906A81E6806F000F90A22297803A838
:1024800006F02DF903A906A806F0ADF93A4906F0C1
:10249000B7F905000A223A2109A806F031F909A97D
:1024A000280006F0A0F90100300004F051FB09A853
:1024B00006F09BF803A806F098F806A806F095F831
:1024C00000212000FFF734FF0DB0F0BD2B78981EDF
:1024D00022185832E318117857331F7809027918F7
:1024E000234F89B2167001911E70244928703868F4
:1024F00004F021FB2A7800992000FFF78BFF2500CC
:10250000019B553583422CD126001D493D36386844
:1025100004F028FB206D310000F0BEFC30780F285D
:1025200012D806F0D9FC170808171711111111114C
:1025300011111111111A23003E331A7857331A70F2
:10254000563B1A7857331A702200012397322B70AA
:102550001370B5E723003E33F3E7230000229533E1
:10256000F1E70849386804F0FDFA2E70A8E7C04684
:102570009C02002092E30000B9E30000C5E30000E4
:10258000D8E30000DCE3000030B5040087B0006D44
:1025900000F042FE2100236D54311A790A70587AF6
:1025A000023148701B7A0B70002A07D03F4B40491C
:1025B000186804F0D7FA2000FFF7DDFE236D5B7981
:1025C000002B07D0394B3B49186804F0CBFA2000A8
:1025D000FFF736FF236D9B79002B04D0334B364930
:1025E000186804F0BFFA236DDB79002B04D02F4B61
:1025F0003249186804F0B6FA236D1B7A002B04D018
:102600002A4B2F49186804F0ADFA236D5B7A002B32
:1026100004D0264B2B49186804F0A4FA236D9B7A4A
:10262000002B19D0214B284903A81D6806F025F876
:10263000236D0A22997A684606F062F8694603A873
:1026400006F0D1F80100280004F082FA684605F08F
:10265000CCFF03A805F0C9FF236DDB7A002B19D04E
:10266000124B1A4903A81D6806F007F8236D0A22C9
:10267000D97A684606F044F8694603A806F0B3F82C
:102680000100280004F064FA684605F0AEFF03A8D4
:1026900005F0ABFF236D1B7B002B04D0034B0C49D3
:1026A000186804F05FFA07B030BDC0469C020020F5
:1026B00098E20000A1E20000AAE20000BAE20000F5
:1026C000C8E20000D4E20000E0E20000ECE200001A
:1026D000FFE200000B00F0B50600070004003C33E9
:1026E0001A789436583785B03270380009F01AFCE1
:1026F000357839002A002000FFF78CFE6319020AA2
:1027000058331A70AB1C0135EDB26519583533706A
:1027100028702000FFF74CFD230000259A3319880C
:10272000206D2B000A00009500F0B0FC2300210072
:1027300032782F331A70206D253100F020FB0221F2
:1027400003AB3278197030315980206D039B39000A
:10275000009500F029FD0121152005F099FE05B036
:10276000F0BD704713B513006A4607321370036853
:102770009C690123A04713BD37B56B46DC1D036878
:1027800022001D6A0123A84720783EBD10B5040031
:1027900004F0A4F9200010BD10B50400142004F0CA
:1027A0005DF9606A012105F027FE0021606A05F0ED
:1027B0006FFE322004F052F9606A012105F068FED4
:1027C0000021606A05F018FE142004F047F910BDDE
:1027D00073B505000021006A05F05AFE96231B011F
:1027E000013BFDD100266B460E4C5E711E71019AB5
:1027F0000D49200006F072F8C021200006F09EF876
:102800003100200006F09AF8286A012105F040FE08
:10281000200006F07FF8A86A05F066FE0128FAD0CD
:1028200073BDC046D009002080841E00F0B50500AD
:102830000F0085B000920193A86A05F055FE0128AB
:10284000FAD000240021286A05F022FE02AB134EC4
:102850005C711C7112493000039A06F03FF8390090
:10286000300006F06BF8019B9C4207DA009B3000B9
:10287000195D013406F062F8A4B2F4E7286A012178
:1028800005F006FE300006F045F8842F04D0A86A53
:1028900005F02AFE0128FAD005B0F0BDD0090020CD
:1028A00080841E00F0B506000F0085B000920193F1
:1028B000B06A05F019FE0128FAD000240021306A20
:1028C00005F0E6FD02AB1C4D5C711C711B49280034
:1028D000039A06F003F839002800C02F19D106F03A
:1028E0002DF8009B21001870280006F027F8210021
:1028F000280006F023F8306A012105F0C9FD280000
:1029000006F008F8B06A05F0EFFD0128FAD005B02E
:10291000F0BD06F013F82100280006F00FF8019B27
:102920009C42E8DA009B002128001F1906F006F8F7
:1029300001343870A4B2F2E7D009002080841E0070
:10294000F0B506000F0085B000920193B06A05F063
:10295000CBFD0128FAD000240021306A05F098FD53
:1029600002AB164D5C711C71039A1549280005F0E5
:10297000B5FF1821280005F0E1FF390A280005F00D
:10298000DDFFF9B2280005F0D9FF019B9C4207DA70
:10299000009B2800195D013405F0D0FFA4B2F4E7D4
:1029A000306A012105F074FD280005F0B3FFB06A1C
:1029B00005F09AFD0128FAD005B0F0BDD00900203D
:1029C00080841E00F0B506000F0085B000920193D0
:1029D000B06A05F089FD0128FAD000240021306A90
:1029E00005F056FD02AB194D5C711C71039A184934
:1029F000280005F073FF1921280005F09FFF390A10
:102A0000280005F09BFFF9B2280005F097FF210090
:102A1000280005F093FF019B9C4209DA009B0021EE
:102A200028001F1905F08AFF01343870A4B2F2E7BC
:102A3000306A012105F02CFD280005F06BFFB06A1B
:102A400005F052FD0128FAD005B0F0BDD0090020F4
:102A500080841E00F0B506000F0085B0009201933F
:102A6000B06A05F041FD0128FAD000240021306A47
:102A700005F00EFD02AB144D5C711C711349039AF5
:102A8000280005F02BFF1A21280005F057FF390018
:102A9000280005F053FF019B9C4207DA009B2800A9
:102AA000195D013405F04AFFA4B2F4E7306A012150
:102AB00005F0EEFC280005F02DFFB06A05F014FDCE
:102AC0000128FAD005B0F0BDD009002080841E0096
:102AD000F0B506000F0085B000920193B06A05F0D2
:102AE00003FD0128FAD000240021306A05F0D0FC53
:102AF00002AB174D5C711C71039A1649280005F052
:102B0000EDFE1B21280005F019FF3900280005F013
:102B100015FF2100280005F011FF019B9C4209DAF6
:102B2000009B002128001F1905F008FF01343870B0
:102B3000A4B2F2E7306A012105F0AAFC280005F0F2
:102B4000E9FEB06A05F0D0FC0128FAD005B0F0BD6E
:102B5000D009002080841E00002370B50400080006
:102B60000221012523716371A371E371A372E372E2
:102B70002373237263726374104B61730833236091
:102B80000D31069BE17305396362A26221742577DA
:102B90002900206205F030FC2900206A05F078FC4D
:102BA0002900606A05F028FC2900606A05F070FCC5
:102BB000034805F06BFE200070BDC046E4E3000052
:102BC000D00900205421036870B505005B6AFF310D
:102BD0009847AA212B6804005B6A2800490098479F
:102BE0002402204380B270BD37B56B46DC1D002344
:102BF0002370036822005D69C0210123A847207863
:102C00003EBD407B704710B5040003689B68984741
:102C1000236820005B6B984710BD13B56B468C078B
:102C2000DA1DCB07DB0FE40FA400DB0023430C0706
:102C30004907E40FC90F2343490019431170437B2F
:102C4000842183730023437303681C690123A04715
:102C500013BD437B10B5002B04D1837B4373036802
:102C60005B6B984710BD73B56B46DD1DD97103686A
:102C70002A001E69802101230400B0472B78002B15
:102C800002D10233637373BD0323FBE713B56B46B5
:102C9000DA1D03681170C1731C698A210123A047E2
:102CA00013BD000037B50400080008F0B1FF002292
:102CB000084B07F04DFD06F029FB01AA030C137029
:102CC000030A5370236890701D6986210323200036
:102CD000A84737BDA8CB684037B5036801AC1231AF
:102CE0001D6921706270022322008E21A84737BD22
:102CF00037B5036801AC1D692170627002232200A0
:102D00008F21A84737BD37B50C00C37B0978050074
:102D10008B4201D0FFF7BAFF207801AA0F2817D8FD
:102D200006F0DAF8080F0F1D2316161616161616DB
:102D30001616162963781370A3785370E37893708E
:102D400006E02379137063795370A1792B74917025
:102D50002B6828001C698B210323A04737BDE3792A
:102D60001370237A5370637AE9E7A37A1370E37AD6
:102D70005370237BE3E7002313705370DFE737B50D
:102D80000C00C37B097805008B4201D0FFF77EFF62
:102D900020780F2818D806F09FF8081F1F2D3C1721
:102DA000171717171717171717486A4663781370FE
:102DB000A3785370E37893702379D3706379137198
:102DC000A3795371E37993712B6828001C696A46D3
:102DD00007238C21A04737BD6A46237A1370637A94
:102DE0005370A37A9370E37AD370237B137100231B
:102DF0005371E8E76A46637B1370A37B5370E37BF0
:102E00009370237CD370637C1371A37C5371E37C38
:102E1000D9E76A46237D1370637D5370A37D937059
:102E2000E37DD37000231371E2E700236A46137039
:102E300053709370D370F6E7F0B5040085B0036863
:102E400003AD01925F690E0002232A001721B847E3
:102E5000E37B012B10D123680D495B6A2000984762
:102E6000C011012808D123680A495B6A20009847ED
:102E7000307007E02B7804E0E37B042BFAD12B7849
:102E8000023333706B78019A137005B0F0BDC04601
:102E90000309000001090000F7B505000C000368F4
:102EA0006A465E691D210523B047E87B20700F2824
:102EB0005BD806F011F8084F4F5EAA5A5A5A5A5A70
:102EC0005A5A5A5A5AE36B465B7801225B085B42B6
:102ED00063706B469878A378810911409343450944
:102EE00015400B430221954006098B4316402B43A6
:102EF00004258E40AB4333430826C5081540ED003A
:102F0000B3432B431025860816403601AB433343A9
:102F10002026450815406D01B3432B434025104042
:102F20008001AB430343A3706B46D878E37845092F
:102F30001540934310402B4390401A008A430243AC
:102F4000E2706B4607211A7923790A408B431343B9
:102F500023710AE06B461B785B085B4263706B462B
:102F60005B787F2B02DC9B08A370F7BDFD3B9B10B9
:102F7000FAE76B465B7801215B085B4263706B4646
:102F80009878A27883090B408A431A4302234509A3
:102F90000D408D40070904260F409F409A432A4365
:102FA000B2433A430827C5080D40ED00BA432A430F
:102FB0001025AA43944683080B406546B3402B4333
:102FC000202542080A405201AB43134340220840E7
:102FD0009343800118436B46A070DA78E0781D3D7A
:102FE000A843930955090D400343AD001009B343AD
:102FF00008402B43C000BB4303430A401900102381
:10300000B24099431143E1709BE76B465B78012224
:103010005B085B4263706B469978A3788D09154015
:10302000480993432B43104002259040AB43034390
:1030300004200D091540AD0083432B430825C80823
:103040001040C000AB43034310208D0815402D01F4
:1030500083432B432025480810404001AB430343E2
:1030600040201140890183430B43A3706B46D978FC
:10307000E378114093430B43E37062E7052200219C
:10308000200008F06AFF0F2323706EE773B56E46C9
:1030900006AC24880D0A7170F2707371110A1A0A55
:1030A000230AB37103683570B1703271F4716A46E6
:1030B0001C698D210823A04773BD37B5036801AC97
:1030C0005D69220002231521A847237860781B023E
:1030D00018433EBD13B50B0A01AA13700368517063
:1030E0001C6997210223A04713BD13B56B46DA1D57
:1030F000036811701C6996210123A04713BD036862
:1031000010B51C690023D5211A00A04710BD70B569
:103110000D00190003689C6A13002A00A04770BDC7
:10312000F0B5160085B0019302ABDD1D2A000F003B
:1031300031000400FFF780FE3378019A01209342AA
:1031400006DC226829782000D56A3A00A8470020CA
:1031500005B0F0BD13B5036801AA11701C69A32165
:103160000123A04713BD00007FB50B0004000191AF
:1031700003AD090C2B70A9700B0A0A496B70FFF79D
:10318000A9FFE37B022B03D101212000FFF7E2FF1F
:1031900023682A001E69832103232000B0470623E9
:1031A00063737FBDFFFF000013B50400019304AB00
:1031B0001B78FFF7ACFF01992000FFF7D5FF13BD87
:1031C0007FB50B000400019103AD090C2B70A970B1
:1031D0000B0A0A496B70FFF77DFFE37B022B03D1DB
:1031E00000212000FFF7B6FF23682A001E69822114
:1031F00003232000B047052363737FBDFFFF00005A
:103200000023037143718371C3718372C3720373AB
:10321000037243727047000070B50400C67BFFF76D
:103220004CFF494905002000FFF754FF2000FFF73D
:10323000E7FF042E0BD83000637BDBB205F04CFEB9
:10324000032D5D030300052B02D0062B1CD070BD9F
:1032500002231D4203D06A0611D50133A3726B0706
:1032600001D50123A3712B0701D50223A3720123EA
:103270006A0400D563721D42E9D02371E7E72A078B
:10328000ECD401236371EAE701231D4200D02371CE
:103290006B04DCD501232372D9E7062BF4D0072B6E
:1032A0001BD0052BD3D1AB0703D56B0612D5032357
:1032B000A372EB0601D50123E371AB0601D501230F
:1032C000A3726B0401D501236372EB05BFD5042300
:1032D000A372BCE701236371EBE7EB0408D58023FD
:1032E0009B011D4002D001232373B0E72573AEE795
:1032F0006B04ACD501236372A9E7052B0AD0062B1A
:10330000A5D16B0501D50323E372AB059FD504233B
:10331000E3729CE7EB0501D50123E3722B0501D590
:103320000223E3722B0601D50223E3726B0401D55D
:103330000123E372EB0601D50123E371AB0600D450
:1033400085E70123C4E7C046FFFF00007047002067
:1033500070470000034B0171083303600023437181
:103360007047C04628E4000070B51D0003790400D2
:1033700016008B4201D0FF2B0AD183231B019E42F2
:1033800043D007D8303B9E421AD020339E4231D0E2
:1033900000262BE084231B019E4241D010339E4225
:1033A000F6D1E9B22A0A2B0C2D0E002943D02100B8
:1033B00056310A702200553213705434257015E0CE
:1033C000A800800808F024FC00221F4B07F0C0F979
:1033D0001E4B002207F0BCF908F0A4FC6B0002D5DC
:1033E00080231B06C018002D02DB2064300070BD56
:1033F0006064FBE7280008F0C9FB0022144B07F0CB
:10340000A7F908F08FFCA064F0E7280008F000FCA2
:103410000022104B07F09CF908F084FCE064E5E71B
:10342000280008F0F5FB0022094B07F091F908F09D
:1034300079FC2065DAE7210059310A702200583200
:1034400013705734BAE7C0460088C34000004E40AE
:103450000000594000609E4070B50D0001790400E5
:10346000914221D14079062818D805F035FD041E77
:1034700027323D485300626A93420AD9FA229200E9
:103480009B18A268636280210901280000F013F9EB
:1034900004E080210901280000F043F96379013339
:1034A000DBB2062B3ED8637170BDA26A9342F0D99D
:1034B000FA2292009B18A362E268E4E7E26A934270
:1034C00005D9F533FF33E36222698221DCE78221EB
:1034D000E0E7226B934205D9F533FF33236362693A
:1034E0008321D1E78321D5E7626B934205D9F53378
:1034F000FF336363A2698421C6E78421CAE7A26B14
:10350000934205D9084A9B18E269A3638521BBE76A
:103510008521BFE7E26B9342FAD9034A9B18E36324
:10352000226AF3E70023BEE71027000010B504006D
:10353000FFF710FF024B20000833236010BDC04688
:1035400038E4000070B50E000021051C05F09EFE59
:10355000002812D080231B06E818144906F076FADA
:10356000134906F073FA05F0B9FE8400A408002E92
:1035700016D180231B061C430CE00C49281C06F0C6
:1035800065FA0B4906F062FA05F0A8FE8400A4086B
:10359000002EEED00021281C05F078FE002802D075
:1035A0008023DB051C43200070BDC0460000704234
:1035B00000401C46F0B587B01E1C0EAB1B78040003
:1035C00001930FAB1B78081C029310AB1B780121F1
:1035D000039311AB1B78171C049312AB1B78059354
:1035E00013AB1D78FFF7AEFF0021A060381CFFF77A
:1035F000A9FF1549E0600D9806F028FA05F06EFE67
:103600001249A0610C9806F021FA05F067FE0E49F8
:103610006061301C06F01AFA06F0D4FC019B029A95
:103620001B021343039A1B021343FF221B02134383
:10363000E361049B059A1B0213431B021D432D02E9
:103640002061256207B0F0BD0000C8420000F344CD
:1036500000234360036070470023016003817047CB
:1036600070B5040000680D00002811D003681B68C5
:103670007E290ED17D2198475E21206803681B6852
:1036800098472189491989B20B12C918C9B22181F9
:1036900070BD7D29F4D1984720685D2103681B68BF
:1036A000EEE7018910B5C943C9B20400FFF7D8FF9E
:1036B0000023238110BD37B56B46040000680092DB
:1036C0009D1DD98000282BD003F07CFB1021200009
:1036D000FFF7C6FF29782000FFF7C2FF69782000B6
:1036E000FFF7BEFF6B4620001978FFF7B9FF6B4666
:1036F00020005978FFF7B4FF6B4620009978FFF758
:10370000AFFF6B462000D978FFF7AAFF2000FFF734
:10371000C8FF20680368DB689847206803F04DFB0A
:1037200037BD37B56B46040000689D1DD980002861
:1037300020D003F047FB00212000FFF791FF2978FC
:103740002000FFF78DFF69782000FFF789FF05252E
:10375000013D002D04D000212000FFF781FFF7E795
:103760002000FFF79EFF20680368DB689847206809
:1037700003F023FB37BD10B504007030FFF768FF7E
:103780000022231D2000DA6710BD10B54360029BA4
:1037900002608360039B0200C360049B7C32036170
:1037A000059B4361069B8361079BC361089B036282
:1037B000099B43620A9B83620B9BC3620C9B03635E
:1037C0000D9B43630E9B83630F9BC363109B03643A
:1037D000119B4364129B8364139BC364149B036516
:1037E000159B4365169B8365179BC365189B0366F2
:1037F000199B43661A9B83661B9BC3660023137049
:1038000013781B2B05DC9C002458002C01D00133BD
:10381000F5E77030FFF720FF10BD036FF7B5040028
:10382000002B2ED003F014F9231DDB6F0190002B29
:1038300027D1206F03681B699847002821D0206F8B
:10384000FF2603685B69984723007D331A78C0B26E
:103850007E2A00D106001870FF2E12D0002523000A
:103860007C331B789D420CDA2100AB0018593200E2
:10387000036870311B6801351F00019BB847EDB22A
:10388000EDE7F7BD020000234D3203704370436043
:10389000037243728372C3601370D3709371D371D8
:1038A0001372704710B50023020004000021036169
:1038B00017322034A24202D011700132FAE701001F
:1038C0000400002222312C34A14202D00A700131BE
:1038D000FAE72A21841C02634263E1772B342275C4
:1038E000627502004C322170E1744364836411708C
:1038F0008363C36310BD0000F7B5C36802690400A9
:103900001A6006698049301C019305F0AFFE05F08E
:10391000E5FC7E490500301C05F0A8FE071C64206C
:10392000684306F0BFFB011C381C06F0AFF905F038
:10393000D5FC07007648684306F0B4FB011C301C38
:1039400006F0A4F9061C6420784306F0ABFB011CCA
:10395000301C06F09BF905F0C1FC019B1871E3686F
:103960005F71E3689D7100231A0001330A2B0BD1AC
:1039700000235A1CE5680B2A0CD019002231615C27
:10398000ED18A9741300F4E7E068E118897D821846
:10399000D171E9E7E37D002B25D000232B622300C2
:1039A00026000A2720335B4817360193019BB34258
:1039B00012D031782E290DD00B00303BDBB23929E3
:1039C00001DD3739CBB243432A6A3900D3182B6261
:1039D00005F020FB0136E9E7A31CDB7F532B02D166
:1039E0002B6A5B422B622F6A4B49380005F012FBB1
:1039F00006F008FB061C380006F004FB424905F0FF
:103A000035FE4249071C301C06F020F8011C381C0A
:103A100006F03CF9414905F029FE311C05F094FC03
:103A2000E31CA862DB7F002B26D000236B622300FF
:103A300026000A272C333A4822360193019BB342D1
:103A400012D031782E290DD00B00303BDBB2392952
:103A500001DD3739CBB243436A6A3900D3186B6250
:103A600005F0D8FA0136E9E723002D331B78572BF0
:103A700002D16B6A5B426B626F6A2749380005F0BE
:103A8000C9FA06F0BFFA061C380006F0BBFA1E4958
:103A900005F0ECFD1D49071C301C05F0D7FF011C8B
:103AA000381C06F0F3F81D4905F0E0FD311C05F067
:103AB0004BFCA31CE862DB7F6B7423002D33E268B0
:103AC0001B785377230040331A78E36830331A7039
:103AD000230041331A78E36831331A7023004233EC
:103AE0001A78E36832331A70E368626C5A63A26C26
:103AF0009A6322004C3212783C331A700122E36838
:103B00003D331A70F7BDC04600401C460000C84255
:103B1000102700008096980040420F00000070427D
:103B200000E1F50570B504001D0000239626E26053
:103B30003D32616013700B68B601DB69080031002B
:103B400098470321059804F0E7FC0321049804F04A
:103B5000E3FCFA20800002F081FF2049606803F056
:103B600001F8FA20800002F079FF9623DB019D42E4
:103B700030D010D8B54228D00321059804F0CCFCF1
:103B80000321049804F0C8FC2000FFF78BFE2000FE
:103B9000FFF7B2FE70BD96231B029D421CD0E123AD
:103BA0000F491B029D42E7D1606802F0DBFFFA205B
:103BB000800002F053FF606803685B6A98476068A2
:103BC00029000368DB699847D6E7FA20800002F0F5
:103BD00045FFD1E70349E7E70349E5E748E400008B
:103BE0009EE400007AE400008CE4000002000D294D
:103BF00002D00120242908D1110052310B78FF2B6B
:103C000001D001330B70002010727047F0B5040032
:103C10008FB0606803681B69984703005A1E934180
:103C20002370002870D0606803685B699847C1B250
:103C30000200207A61700F2832D805F057F9100081
:103C40001E003F00670072008C00A600C100DD006E
:103C5000040137019101E40100021802290224291C
:103C60004FD1220000235032637220001370D370B2
:103C7000FFF718FE0123237243E02200607A5332DB
:103C80000130C0B26072137801384B4013700528C0
:103C900006D805F021F9030703030A0D4729E9D0E7
:103CA0000023E8E75029FBD1E4E74129F8D1E1E717
:103CB0002C29F5D1002363720233DCE7637A2000FC
:103CC00001336372FFF792FF00281AD022005332AB
:103CD000657813786B40137003232E2DCBD0BA492F
:103CE000206905F0B3FE061C28003038C0B2392D1B
:103CF00001DD373DE8B206F085F9311C05F024FB03
:103D000020612378002B84D10FB0F0BD2200533204
:103D100013784B4013702C29F3D1002363720433C2
:103D2000A9E7637A200001336372FFF75FFF002881
:103D3000E7D02100533162780B7853400B702C2A66
:103D400003D100236372053395E7637A092BD8DC2E
:103D5000E3189A75D5E7637A200001336372FFF7A1
:103D600045FF0028CDD02100533163780A785A40AE
:103D70000A702C2B03D10023637206337BE7627A2F
:103D8000012ABED1A21CD377BBE7637A200001339E
:103D90006372FFF72BFF0028B3D021005331627804
:103DA0000B7853400B702C2A03D100236372073326
:103DB00061E7637A0A2BA4DCE3180233DA77A0E721
:103DC000637A200001336372FFF710FF002898D058
:103DD0002100533163780A785A400A702C2B03D1A2
:103DE00000236372083346E7627A012A00D088E72D
:103DF00022002D32137084E7637A2000013363724E
:103E0000FFF7F4FE002800D17BE7210053316378EF
:103E10000A785A400A702C2B03D1002363720933AD
:103E200029E7627A012A00D06BE722004032137042
:103E30001A00303AD2B2392B01DD373BDAB2230017
:103E400041331A705DE7637A200001336372FFF734
:103E5000CDFE002800D154E72100533163780A7861
:103E60005A400A702C2B06D122000023553263726F
:103E700013700A33FFE62100627A4231012A08D129
:103E80001A00303AD2B2392B01DD373BDAB20A7070
:103E900037E70A220878424318003038D2B2C0B25D
:103EA000392B01DD373BD8B21218F0E7637A2000D6
:103EB00001336372FFF79AFE002800D121E7220048
:103EC0005332657813786B4013702C2D04D1002386
:103ED000637293700B33CEE62E2D03D123000A229A
:103EE0005533AEE72D2D02D1384B636409E7270027
:103EF00055373E78002E12D13349606C05F0A6FD8F
:103F0000061C28003038C0B2392D01DD373DE8B23B
:103F100006F078F8311C05F017FA6064F1E6642EBB
:103F200000DDEEE62800636C30380193C0B2392D15
:103F300001DD373DE8B206F0B5F8051C300006F0AB
:103F4000B1F8011C281C05F091FB019905F0FCF962
:103F50006064642E00D1D4E60A235E433E70D0E64E
:103F6000637A200001336372FFF740FE002800D11E
:103F7000C7E622005332657813786B4013702C2DFE
:103F800003D1002363720C3375E62E2DA6D02D2DA0
:103F900002D10E4BA364B4E6270055373E78002EBD
:103FA00016D10949A06C05F051FD061C28003038D7
:103FB000C0B2392D01DD373DE8B206F023F8311CDF
:103FC00005F0C2F9A0649CE600002041000080BF1B
:103FD000642E00DD95E62800A36C30380193C0B252
:103FE000392D01DD373DE8B206F05CF8051C3000E4
:103FF00006F058F8011C281C05F038FB019905F063
:10400000A3F9A064A5E7637A200001336372FFF788
:10401000EDFD002800D174E62100533163780A7861
:104020005A400A702C2B03D1002363720D3322E611
:10403000627A012A00D064E622004C32DAE6637A22
:10404000200001336372FFF7D1FD002800D158E64C
:1040500063782A2B06D12200002354326372137036
:104060000E3308E62200533211784B40C2E6FF239C
:104070001A400B00303BDBB2392A01DD3739CBB2B5
:104080002200543211781B01CB1813700F23F2E574
:10409000FF231A400B00303BDBB2392A01DD3739F0
:1040A000CBB222005432117859182300C9B21170D2
:1040B00053331B788B4244D1264D2749286802F0A0
:1040C0003AFD2000FFF718FC244905A82D6804F0EC
:1040D000D4FAE3680222196802A804F047FB02A997
:1040E00005A804F080FB1E4904F08AFB0600E36883
:1040F0000A223233197808A804F0F1FA08A930002E
:1041000004F071FB174904F07BFB0600E3680BA881
:104110003033197804F0D5FA0BA9300004F063FBB2
:104120000100280002F014FD0BA804F05EFA08A8B4
:1041300004F05BFA02A804F058FA05A804F055FA56
:10414000AEE5220051321378FF2B00D1A8E50133F0
:104150001370A5E59C020020B0E40000CDE400004F
:10416000D2E40000D8E40000F7B50121002004F0FB
:1041700043F90021080004F08BF90021132004F01A
:104180003BF90021102004F037F9032004F09CF8DB
:1041900000210F2004F030F90121142004F02CF943
:1041A0000021142004F074F901211D2004F024F9E9
:1041B00001211D2004F06CF98F26FA20B600C00002
:1041C00002F04CFC300002F085FC012400250700C1
:1041D0000C22019500940B233A4902F0A7FE3A4BBA
:1041E000210002201F6004F007F92100022004F0E2
:1041F0004FF92100152004F0FFF82100152004F0EC
:1042000047F9300002F066FC212307001A000195EF
:1042100000942E4902F08AFE2D4B210012201F60CF
:1042200004F0EAF82900122004F032F921002000FD
:1042300004F0E2F82900200004F02AF9210004200B
:1042400004F0DAF82900042004F022F921001120FA
:1042500004F0D2F82100112004F01AF921002020E6
:1042600004F0CAF82900202004F012F929000520E2
:1042700004F0C2F82900192004F0BEF8210018202B
:1042800004F0BAF82100182004F002F929001A20DD
:1042900004F0B2F821001E2004F0AEF829001E2020
:1042A00004F0F6F8300002F015FC0323050000933B
:1042B00001940B330D22074902F038FE064B1D60B6
:1042C000F7BDC046000A0020A0020020080A002016
:1042D000A40200200C0A00209C02002010B5024B12
:1042E000186802F08EFE10BDA002002010B5024B2F
:1042F000186802F086FE10BDA802002010B5024B1F
:10430000186802F07EFE10BDA402002010B5024B1A
:10431000186802F076FE10BD9C02002010B5102037
:1043200004F004F805F0BEFE07F0AAFC054A064BAF
:1043300006F042FE0022054B06F03EFE07F0F2FCBE
:1043400010BDC046CDCCCCCCCCCC16400000503FEC
:1043500010B5132003F0EAFF05F0A4FE034905F0B1
:1043600075FBEA21890505F071FB10BD00003041A5
:1043700010B50F2003F0DAFF05F094FE034905F0B5
:1043800065FBEA21890505F061FB10BD00003041A5
:1043900010B50121002004F07BF810BD002110B5FC
:1043A000080004F075F810BD10B50021142004F0C9
:1043B0006FF810BD10B50121142004F069F810BD8C
:1043C00010B501211D2004F063F810BD10B50021C7
:1043D0001E2004F05DF810BD10B501211E2004F070
:1043E00057F810BD70B50B4C206801F0C3F80A4DAA
:1043F000280003F067FA0423084A11690B4313618C
:10440000BFF34F8F30BF280003F01EFA206800F082
:10441000D5FD70BD980300201004002000ED00E0E1
:1044200010B50A4B9A79042A09DD00229A713433B7
:104430001B78934204D1064B186800F003FE10BDB0
:10444000044B0549186802F08DFBF8E7A003002033
:10445000980300209C0200201FE50000F0B53225E3
:104460008FB04C4C6379002B00D190E0013B63711D
:10447000FFF754FFA060FFF76BFFE060FFF778FFE6
:10448000454B2061196845480B7907934B79069392
:104490008B790593002304930393029300230193E4
:1044A00000938B6BCA6A896AFFF784F8E06807F0AB
:1044B000E7FB3B4A3B4B04F0B9FE220035320028B3
:1044C00004D1230036331B78002B03D01378FF2B45
:1044D00001D00133137034490BA804F0CEF81A2030
:1044E00004F002F80A22010008A804F009F908A95A
:1044F0000BA804F078F901002C4802F029FB08A869
:1045000004F073F80BA804F070F81A2003F0ECFF25
:10451000012822D10A2600271A2003F0E5FF013ED8
:104520003F18022002F09AFA002EF5D10A2F98D1F6
:1045300022003A3213780133DBB21370022B05D11B
:10454000FFF744FF3B34012323708AE7032B88DD08
:104550003B34FFF741FF267083E723003B331B7892
:10456000002B12D00A26FFF737FF280002F076FA58
:10457000013EFFF72BFF280002F070FA002EF2D167
:1045800023003B331E703C34DDE73A34DCE70FB0E8
:10459000F0BDC046A003002090030020AC02002024
:1045A000333333333333114039E50000F403002053
:1045B00070B5FFF753FF534D2868FFF727FBFFF750
:1045C0002FFF514B186800F051FF504C23003C3333
:1045D0001B78002B01D00523E371E079052831D841
:1045E00004F07AFC880313224E71230035331B78C4
:1045F000022B02DD0223E371DBE7454B186802F072
:104600009BF84448FFF709F9D3E7230035331B78BB
:10461000002B01D10133EEE73C2BEEDDFFF7D0FE9E
:10462000002323870323E6E7E06807F029FB3A4AE3
:104630003A4B04F005FE002806D0230036331B78E1
:10464000002B01D10023D6E73549A06804F028FEED
:10465000061E01D00523CEE7FFF7C4FE238F0133EA
:104660009BB223873C2BA4D9FA20C000268702F0F6
:10467000F5F92868FFF7CAFAFFF79CFE0423BAE7AA
:10468000E06807F0FDFA244A244B04F0D9FD002825
:1046900004D0230036331B78002BD3D02049A068E8
:1046A00004F0FEFD051ED5D1FFF79CFE9622238F58
:1046B000920001339BB22387934200D879E7258784
:1046C000FFF772FEAEE7FFF769FE152532240121E0
:1046D000280003F0DDFEFFF779FE200002F0BEF9AE
:1046E0002800002103F0D4FEFFF776FE200002F040
:1046F000B5F9ECE7FFF758FE22000023353263716D
:10470000137087E78C03002098030020A00300208B
:104710009C0300200803002033333333333311402C
:1047200000004040F0B5002585B0009136490400F6
:10473000019203F0A2FF009E019B009A9B1BD318DD
:10474000002B2BDD327802A96B1C4A55032B22D19A
:104750000A7803AD93082B704B78302112010A4080
:10476000190952183C216A7002AA92789B000B40EA
:1047700091095B18AB703F2300271A40EA70E95D8E
:10478000224804F051F801370178200004F021F8A4
:10479000042FF4D1002301361D00CDE7002D30D0C9
:1047A0002B000022022B03DC02A9CA540133F9E7D3
:1047B000302102AB1A7803AE9308337002AB5B78FA
:1047C00012010A401909521872703C2200279B00FE
:1047D000134002AA927892099B18B370F15D0B48BE
:1047E00004F022F801370178200003F0F2FFBD4207
:1047F000F4DA032D05D03D21200003F0EAFF013556
:10480000F7E7200005B0F0BDBBE90000E0030020A1
:10481000FE22214B920510B51A600B221A7100225C
:1048200000249A60DA601A611C4A5C719C715A61BA
:104830001268DC719A611A4A8321DA611268194898
:104840001A62194A5A6212689A62184ADA6212683F
:104850001C871A631A00343214701A00353214702F
:104860001A00363214701A003A3214701A003C33AF
:104870003B321C701470FEF759FE21000C48FEF705
:104880007AFF0C4C0C49200003F0F7FE0B4A0C4950
:10489000200004F00FFB10BDA00300200CA080003E
:1048A00040A08000AC02002044A0800048A080000E
:1048B00008030020E0030020DEE4000000000020E8
:1048C000EB850000F0B5E124ADB0FFF74DFCFB48EF
:1048D00002F0C4F8FA4B6402186821000368DB692F
:1048E0009847F84E2100300002F0F8FCFA20400012
:1048F00002F0B4F8F44925A803F0BFFEF34D286890
:1049000005F060FB0A22010022A803F0F9FE22A9AB
:1049100025A803F068FFEE4903F072FF2C6807003A
:10492000201C05F04FFB05F06DFB011C201C05F061
:10493000ADF9E84905F08AF805F044FB28AC0A22F5
:104940000100200003F0DCFE2100380003F04BFFE3
:104950000100300002F0FCF8200003F046FE22A81F
:1049600003F043FE25A803F040FEDB49200003F0DE
:1049700084FE0A22A96925A803F0E6FE25A92000E5
:1049800003F031FF0100300002F0E2F825A803F047
:104990002CFE200003F029FED049200003F06DFE1C
:1049A0000A22296A25A803F0CFFE25A9200003F0DA
:1049B0001AFF0100300002F0CBF825A803F015FE25
:1049C000200003F012FEC649200003F056FE0A2222
:1049D000A96A25A803F0B8FE25A9200003F003FF6B
:1049E0000100300002F0B4F825A803F0FEFD20001D
:1049F00003F0FBFDBB49200003F03FFE0A22296BB8
:104A000025A803F0A1FE25A9200003F0ECFE01007B
:104A1000300002F09DF825A803F0E7FD200003F028
:104A2000E4FDB1491FA803F028FE0A22A9691CA8C9
:104A300003F08AFE1CA91FA803F0D5FE07000A2276
:104A4000296A22A803F080FE22A9380003F0CBFED9
:104A500007000A22A96A25A803F076FE25A93800D6
:104A600003F0C1FE07000A22296B200003F06CFE50
:104A70002100380003F0B7FE9C4F390003F0C0FE60
:104A80000100300002F064F8200003F0AEFD25A81C
:104A900003F0ABFD22A803F0A8FD1CA803F0A5FDC0
:104AA0001FA803F0A2FDAB6991491A0E22701A0CDF
:104AB0006270E3701A0A2B6AA2701A0E22711A0C25
:104AC0006271E3711A0AAB6AA2711A0E22721A0C91
:104AD0006272E3721A0A2B6BA2721A0E22731A0CFC
:104AE000627325A81A0AE373A27303F0C6FD1022AD
:104AF000210022A8FFF716FE22A925A803F073FEC5
:104B0000390003F07DFE0100300002F021F822A8F8
:104B100003F06BFD25A803F068FD0021754B595685
:104B20005A68C9015118744A8918022208789043BA
:104B3000087018215956D869C90141186E480918DA
:104B4000087890430870190078310978D86F49B215
:104B5000C901411868480918087890430870CC21A9
:104B60004900585604315958C001091862480918BB
:104B7000087890430870D821490058560431595894
:104B8000C00109185C480918087890430870F021A2
:104B90004900585604315958C00109185648091897
:104BA000087890430870FC21490058560431595840
:104BB000C001091850480918087890430870C021AE
:104BC000C1208900595680001B58C9015B184A4909
:104BD0005B18197891431970FFF7E6FB582001F034
:104BE00079FF0400FEF74EFE444F40203C6001F088
:104BF00071FF40220021040007F0AFF90B23404E63
:104C000040493460019301330093E12322001B02E9
:104C100009683868FEF786FF9C2001F05BFF1123CE
:104C20000024070004930F330393073B00930422EF
:104C3000012102940194143BFDF76CFA324B334886
:104C40001F6001F047FF304932682B0009681B9054
:104C500000F098F82E4F1B9BD0203B6001F03AFFEC
:104C6000294B39681A68060001F0DBFC8F20294BBC
:104C700080001E6001F02EFF012301930233072202
:104C8000009325490333060002F050F9E121234F38
:104C9000300009023E6002F06BF80321072003F0A8
:104CA0003BFC0321062003F037FC19941894179459
:104CB000169415941494139432E0C046881300009F
:104CC0009C020020F403002041E50000A003002026
:104CD000D6E300000000C8425FE5000081E5000067
:104CE000A3E50000C5E50000E7E5000002E60000DE
:104CF00004E600005CEA0000404400418C03002010
:104D000090030020A0020020940300204C1000001B
:104D1000980300209C030020040A0020A802002021
:104D20001294119410940F940E940D940C940B946F
:104D30000A9409940894079406940594049403949F
:104D400002940194009423000C4A39680C48FEF741
:104D50001CFD012001F0ACFDEC71FFF719FBFFF722
:104D60002FFBFFF7DBFAA860FFF7F2FAE860FFF726
:104D7000FFFA2861FFF730FB2DB0F0BDAC02002038
:104D80000803002070B50D0000210400017041707F
:104D90008170C17041608C30017041707C30017055
:104DA000417021000B480D310B4EFF3120180E6071
:104DB00080318142FBD123612800A560E260FDF7CC
:104DC0000DFA28000021FDF7B3FA00232000E3705C
:104DD00070BDC0460C1000006CE900008D300078FA
:104DE000704770B50C0005000B793F2203718B688A
:104DF0008360CB68C3600B6903614B691831436101
:104E0000183007F08FF8A36D2800AB65E36DEB65F4
:104E1000236E2B66230064331A782B0064331A70D8
:104E2000230065331A782B0065331A70230066332C
:104E30001A782B0066331A70A36EAB66E36EEB66CE
:104E4000230070331A782B0070331A70636F6B670E
:104E5000A36FAB6723007C331A782B007C331A7066
:104E60007D222B00A2567D331A707E22A2565A70E4
:104E700070BD0000F0B5060004000D0000230D36E3
:104E8000ABB0FF3602932078029B984227DD2800C2
:104E9000039600F007FC0490280000F005FC059044
:104EA000280000F003FC0700280000F001FC3B0094
:104EB0000090059A3000049900F004FC8036071E2B
:104EC0000AD029000AA801F087FA0AA90398FFF777
:104ED00088FF38002BB0F0BD029B0133D2E70027DA
:104EE0001D28F6DCC0010D30FF30261829000AA865
:104EF00001F072FA0AA93000FFF773FF0D490AA802
:104F000003F0BBFB0A22217807A803F0E8FB07A9FE
:104F10000AA803F068FC0100074801F019FE07A881
:104F200003F063FB0AA803F060FB237801332370CE
:104F3000CFE7C04674E60000F403002070B505001A
:104F400008000C0000F01CFF03000020142B03DD00
:104F500021002800FFF78EFF70BD000070B508002B
:104F60000D1E0ED00B78022B0CD0032B12D0012B70
:104F700018D1802001F0AEFD2900040000F066FE8B
:104F8000200070BD802001F0A5FD2900040001F083
:104F9000FBF8F5E7582001F09DFD2900040001F021
:104FA00027FBEDE7034B0449186801F0DBFD002007
:104FB000E7E7C0469C02002066E6000070B50025C9
:104FC000040085708068FDF7F9F92900A068FDF7F5
:104FD000AFF970BD4378FD2B01DC0133437070479E
:104FE00010B504007934227800231E2A0DD0030066
:104FF00078331B789B181D2B01D91E3B9BB2DBB26B
:105000009B001950012301322270180010BD0000CE
:10501000030010B5FF339B7A04001E2B05D1074B0C
:105020000749186801F09EFD10BDFFF797FF011EAC
:10503000FAD020009030FFF7D3FFF5E79C02002064
:1050400091E6000070B504008EB0802001F042FDB2
:10505000237825690D932B7906000C932B68022089
:105060000B93AB68E2680A93637809930023089373
:1050700007930023E9790239C9B288425B41DBB268
:105080000693130031331B780593130032331B78DA
:105090000493536A0393136A0293106804F01EF991
:1050A00001902B6B30000093AB6A2A6AA96900F06B
:1050B000F5FC2300FF339B7A1E2B06D1064B0749D4
:1050C000186801F04FFD0EB070BD20003100903027
:1050D000FFF786FFF7E7C0469C02002031E600009C
:1050E000F0B50400B3B08068FDF76DF90100200051
:1050F000FFF734FF0F90061E1AD000F0D1FA0128F6
:1051000005D0032817D000230E931E0005E00F9949
:105110002000FFF713FF00260E9023008D331B782D
:105120001E2B00D1F0E020000F991430FFF758FF3C
:10513000300033B0F0BD21690F980B6B00938B6A80
:105140000A6A896900F0BEFA0028DCD000250F98B1
:10515000657001F063FA0138032800D9D1E003F04B
:10516000BBFE023FB9CAA3780E93002BCBD12278A5
:1051700025690D922A7902260C922A680E990B92C3
:10518000AA68E3680A92627809920022089207925C
:10519000EA79023AD2B296424941CAB206921A005C
:1051A0003132127805921A003232127804925A6A19
:1051B00003921A6A0292186804F090F801902B6B1F
:1051C00012A80093AB6A2A6AA96900F067FC12A8CA
:1051D000A56800F08AFA01002800FDF77BFA9CE739
:1051E000A3780E93002B00D08DE723781093002B2B
:1051F00000D188E7013BDF01E71911933B003E0036
:105200003900FF335B7CFC3612AD2B71B36925315D
:105210001493F369FF311593336A3F221693736A2F
:1052200018A8179306F07EFE3C4B04A91293B36EA8
:1052300004A8AB65F36EEB65336F2B663B007133EF
:10524000FF331A782BAB1A703B007233FF331A7896
:105250009D235B181A703B007333FF331A789E232B
:105260005B181A70B36FAB66F36FEB663B007D3370
:10527000FF331A7881372EABFF371A703B686B67A4
:10528000109BDB01E3181A00FC32FF339268597A55
:10529000AA6731AA1170B522997A12181170DA7AB8
:1052A000B6231B181A7044226B469B181B782800E3
:1052B000237000F0F5F90E9E0700022800D02CE7BD
:1052C0002800A66800F011FA01003000FDF702FA8C
:1052D0003E0022E70121152003F0DAF8FA20C00091
:1052E00001F0BCFB0021152003F0D2F80122236954
:1052F0003C331A7007E701222369363319784A4094
:10530000F7E70E952E0008E70E9B002B00D00FE765
:105310000F9B0F981B689B68984709E76CE9000092
:1053200010B504000300002079342278824211D0A5
:105330001A00783210788000C35801200B6013786F
:105340000133DBB213702178013921701E2B01D19A
:105350000023137010BD0000030073B500268D33C9
:105360001B7805001800B34235D0280001A914307D
:105370000196FFF7D5FF184B3100EC183C222000B6
:1053800006F0EBFD019800F0B0F90600019800F07E
:10539000ACF93C3002783100200006F0C3FD0198E2
:1053A00000F0A3F93C3002780C4B0198EA5400F06D
:1053B0009CF93D220A4B82560198EA5400F095F977
:1053C0003E22084B82560198EA54002802D0036816
:1053D0009B689847200076BD0C1000004810000024
:1053E000491000004A100000002337B5019384786B
:1053F00005009C4202D0002420003EBD01A990304F
:10540000FFF78EFF0028F6D001980028F3D000F0B7
:1054100047F9002803D0022803D903280BD0002421
:105420001CE0AC68019800F060F901002000FDF775
:1054300051F9022412E0019801F0F0F80138032834
:105440000CD8AC6803F03EFD0202EEEE019800F0CD
:105450004CF901002000FDF73DF9032401980028D4
:10546000CAD003689B689847C6E70000F0B50400FF
:1054700085B0192003F038F8012802D1A068FDF7A3
:1054800083F8A068FCF7AAFF030C070ADBB2C6B2D8
:10549000050EA0680193FCF7B2FFE078FFB2032885
:1054A0000AD803F019FD0222384A002E04D1019BCC
:1054B000002B01D1002D05D00021A068FCF738FF9A
:1054C000002705E0002F0CD02000FFF709FE0700A1
:1054D000E378BB4203D001F0BBFAE770606005B02F
:1054E000F0BD2000FFF780FFF1E7002EE4D1019B23
:1054F000002BE1D1002FE7D1002DDDD101F0A8FA7A
:1055000063680137643318499842E1D9174B18682A
:1055100001F028FBD0E7002FCED1002DCCD1019B8C
:10552000002BC9D1002EC7D101F092FA636802376F
:1055300064339842CCD90E49E8E7002FBCD1002D46
:10554000BAD1019B002BB7D1002E05D00121A06854
:10555000FCF7EEFE0137BBE701F07AFA6368032738
:1055600064339842B4D9A7E7BAE600009C02002051
:10557000E0E60000012310B5040083702000FFF76F
:1055800075FFE378002BF9D1A068FCF701FF10BD8F
:1055900001710176110E4176110C826081760277DD
:1055A000110A1A0E70B542771A0C8277049D059C79
:1055B000104E1A0AC277421C0660C360056144613E
:1055C000C176D3772A0E831CDA772A0CC31CDA77CC
:1055D0002A0A031DDA77431DDD77220E831DDA7751
:1055E000220CC31DDA77220A0133DA7720331C70CC
:1055F00070BDC04610E7000070B50E000400274BD8
:105600003C360360327818300D0006F08BFC230026
:10561000327854331A703D222300AA5655331A703B
:105620003E22AA5620005A70237EA27E2371637EFA
:1056300012041B069B18E27E12029B18227F9B1805
:10564000A360A27F637F12041B069B18E27F1202F5
:105650009B18621CD27F9B18E360E21CA31CDB7FBB
:10566000D27F1B0612049B18221DD27F12029B18A8
:10567000621DD27F9B182361E21DA31DDB7FD27FB9
:105680001B0612049B1822000832D27F12029B18BC
:105690002200283212789B18636170BD10E7000069
:1056A0000079704780687047C0687047006970472C
:1056B000406970475530007840B2704756300078E6
:1056C00040B2704730B50400A56800208D420BD170
:1056D000E168914208D122699A4205D1039B606931
:1056E000C01A42424241D0B230BD183070477047B4
:1056F000F0B50500D14CD24E93B03100206801F0D6
:1057000031FAD049206801F02DFACF490FA8276857
:1057100002F0B3FF0A2229790CA802F0F1FF0CA9CC
:105720000FA803F060F80100380001F011FA0CA88E
:1057300002F05BFF0FA802F058FF2368C34906A8D8
:10574000019302F09AFF0A22A96803A802F0FCFF65
:1057500003A906A803F047F807000A22E96809A888
:1057600002F0F2FF09A9380003F03DF807000A2211
:1057700029690CA802F0E8FF0CA9380003F033F8FF
:1057800007000A2269690FA802F0DEFF0FA938009E
:1057900003F029F80100019801F0DAF90FA802F0EE
:1057A00024FF0CA802F021FF09A802F01EFF03A8A5
:1057B00002F01BFF06A802F018FFA549206801F0BF
:1057C000D1F9A4490FA8276802F057FF0A22A96D52
:1057D0000CA802F0B9FF0CA90FA803F004F801000F
:1057E000380001F0B5F90CA802F0FFFE0FA802F096
:1057F000FCFE99490FA8276802F03FFF0A22E96DD5
:105800000CA802F08FFF0CA90FA802F0ECFF01001A
:10581000380001F09DF90CA802F0E7FE0FA802F095
:10582000E4FE8E490FA8276802F027FF0A22296E9E
:105830000CA802F077FF0CA90FA802F0D4FF01001A
:10584000380001F085F90CA802F0CFFE0FA802F095
:10585000CCFE83490FA8276802F00FFF2B006433AA
:1058600019780A220CA802F03AFF0CA90FA802F03E
:10587000BAFF0100380001F06BF90CA802F0B5FE88
:105880000FA802F0B2FE77490FA8276802F0F5FED4
:105890002B00653319780A220CA802F020FF0CA90E
:1058A0000FA802F0A0FF0100380001F051F90CA888
:1058B00002F09BFE0FA802F098FE2B0066331B78C7
:1058C0006949002B00D16949206801F04BF968490A
:1058D0000FA8276802F0D1FE0222A96E0CA802F0E0
:1058E00045FF0CA90FA802F07EFF0100380001F06F
:1058F0002FF90CA802F079FE0FA802F076FE5D49A0
:105900000FA8276802F0B9FE0222E96E0CA802F087
:105910002DFF0CA90FA802F066FF0100380001F06E
:1059200017F90CA802F061FE0FA802F05EFE5249C2
:105930000FA8276802F0A1FE2B00703319780A2205
:105940000CA802F0CCFE0CA90FA802F04CFF01003D
:10595000380001F0FDF80CA802F047FE0FA802F095
:1059600044FE46490FA8276802F087FE0222696FAD
:105970000CA802F0FBFE0CA90FA802F034FF0100F6
:10598000380001F0E5F80CA802F02FFE0FA802F095
:105990002CFE3B490FA8276802F06FFE0222A96F78
:1059A0000CA802F0E3FE0CA90FA802F01CFF0100F6
:1059B000380001F0CDF80CA802F017FE0FA802F095
:1059C00014FE30490FA8276802F057FE2B007C33E5
:1059D00019780A220CA802F082FE0CA90FA802F086
:1059E00002FF0100380001F0B3F80CA802F0FDFD41
:1059F0000FA802F0FAFD7D3523490FA8276802F0B1
:105A00003CFE0A2229780CA802F069FE0CA90FA816
:105A100002F0E9FE0100380001F09AF80CA802F04B
:105A2000E4FD0FA802F0E1FD1849206801F09AF8A2
:105A30003100206801F096F813B0F0BD9C02002000
:105A4000BBE900001CE700002CE7000045E7000070
:105A50005EE700006CE7000085E700009EE70000BD
:105A6000B7E70000D0E70000E9E70000FDE700002D
:105A70001AE8000032E800004AE8000062E800008E
:105A80007AE8000092E80000AAE80000C2E80000FE
:105A900010B5040001F022F8200010BDF0B587B069
:105AA000040010A8007804AE039011A800780490B8
:105AB00012A8057825208019C77F18A800780590BE
:105AC00019A806780C9800930190130020000A0092
:105AD0000121FFF75DFD594B6A46083323600D9B9A
:105AE000127BA3650E9B2421E3650F9B2366230095
:105AF00064331A706A46127C9D705A70139B6A4612
:105B0000A366149B127DE366230070331F70169BFF
:105B10006367179BA36723007C331A705E700D9B2D
:105B20001A0C230029331A700D9B1A0A23002A33FA
:105B30001A7004AA5218127804315A700E9B1A0E69
:105B400023002C331A700E9B1A1423002D331A7065
:105B50000E9B1A1223002E331A7004AA52181278C0
:105B600004315A700F9B1A0E230030331A700F9BAA
:105B70001A14230031331A700F9B1A122300323388
:105B80001A7004AA5218127803995A706022049B62
:105B90005B011340413A0A401343002D01D080229B
:105BA0001343220034321370139803F097FB230041
:105BB00080B2020A35331A7058702149149803F0E4
:105BC00045FF03F08BFB230080B23733020A1A70C3
:105BD00058709F70169806F053F880230022DB055A
:105BE00005F06AFC0022174B05F0E6F903F08EFB86
:105BF00023003A331870179803F070FB2300C5B2E6
:105C00003B331D701049179803F020FF071C6420D8
:105C1000684304F0F7F9011C381C04F037F803F06E
:105C20005DFB6A462300127D3C3318705A702000D9
:105C300027229E701A7607B0F0BDC04604E9000026
:105C400000002041000059400000C84210B5040087
:105C5000FFF7D2FC474B08332360230054331B78F3
:105C6000262B00DC83E02300220029332A321B7814
:105C700012781B0412029B1822002B32127821008A
:105C80009B18A365220023002D322C331B78127839
:105C90001B0612049B1822002E3212786431120265
:105CA0009B1822002F3212789B18E36522002300F4
:105CB000313230331B7812781B0612049B182200F5
:105CC0003232127812029B182200333212789B185B
:105CD000236623001F2234331B781A400A705A06A9
:105CE000920F5BB24A70002B03DA23000122663365
:105CF0001A7023003533187801331B780002C0185E
:105D000004F080F92300A0663733187801331B783C
:105D10000002C01804F076F9174903F0A7FC23002D
:105D2000E06639331A7837331A70363B187804F046
:105D3000B9F9124903F09AFC8021C90503F004FB6C
:105D4000230060673B33187801331B780002C018CA
:105D500004F058F9094903F089FC2300A0673D339A
:105D60001A783F331A703E3B1A783F331A7020007E
:105D700010BDC04604E90000000020410000C842F8
:105D8000703000787047806D7047C06D7047006E4E
:105D9000704764300078704765300078704766302F
:105DA00000787047806E7047C06E70477030007822
:105DB0007047406F7047806F70477C300078704745
:105DC00070470000F0B50500D64CD74E91B03100B9
:105DD000200000F0C7FED549200000F0C3FED449E2
:105DE0000DA802F04AFC0A2229790AA802F088FCD0
:105DF0000AA90DA802F0F7FC0100200000F0A8FE9F
:105E00000AA802F0F2FB0DA802F0EFFBC94904A8B2
:105E100002F033FC0A22A96801A802F095FC01A94E
:105E200004A802F0E0FC07000A22E96807A802F0D3
:105E30008BFC07A9380002F0D6FC07000A2229696A
:105E40000AA802F081FC0AA9380002F0CCFC070085
:105E50000A2269690DA802F077FC0DA9380002F04A
:105E6000C2FC0100200000F073FE0DA802F0BDFB93
:105E70000AA802F0BAFB07A802F0B7FB01A802F0DB
:105E8000B4FB04A802F0B1FBAB49200000F06AFEAD
:105E9000AA490DA802F0F1FB0A22A96D0AA802F096
:105EA00053FC0AA90DA802F09EFC0100200000F09E
:105EB0004FFE0AA802F099FB0DA802F096FBA0493C
:105EC0000DA802F0DAFB0A22E96D0AA802F02AFC0A
:105ED0000AA90DA802F087FC0100200000F038FE9E
:105EE0000AA802F082FB0DA802F07FFB95490DA8DD
:105EF00002F0C3FB0A22296E0AA802F013FC0AA9C9
:105F00000DA802F070FC0100200000F021FE0AA89C
:105F100002F06BFB0DA802F068FB8B490DA802F0A4
:105F2000ACFB2B00643319780A220AA802F0D7FBD5
:105F30000AA90DA802F057FC0100200000F008FE9D
:105F40000AA802F052FB0DA802F04FFB7F490DA8F2
:105F500002F093FB2B00653319780A220AA802F09D
:105F6000BEFB0AA90DA802F03EFC0100200000F0D3
:105F7000EFFD0AA802F039FB0DA802F036FB2B005A
:105F800066331B787249002B00D17249200000F063
:105F9000E9FD71490DA802F070FB0222A96E0AA862
:105FA00002F0E4FB0AA90DA802F01DFC010020008C
:105FB00000F0CEFD0AA802F018FB0DA802F015FBB8
:105FC00066490DA802F059FB0222E96E0AA802F008
:105FD000CDFB0AA90DA802F006FC0100200000F08C
:105FE000B7FD0AA802F001FB0DA802F0FEFA5C4919
:105FF0000DA802F042FB2B00703319780A220AA880
:1060000002F06DFB0AA90DA802F0EDFB01002000D3
:1060100000F09EFD0AA802F0E8FA0DA802F0E5FAE9
:1060200050490DA802F029FB0222696F0AA802F06C
:106030009DFB0AA90DA802F0D6FB0100200000F08C
:1060400087FD0AA802F0D1FA0DA802F0CEFA46495F
:106050000DA802F012FB0222A96F0AA802F086FB2B
:106060000AA90DA802F0BFFB0100200000F070FD9E
:106070000AA802F0BAFA0DA802F0B7FA3B490DA837
:1060800002F0FBFA2B007C3319780A220AA802F0EE
:1060900026FB0AA90DA802F0A6FB0100200000F0D3
:1060A00057FD0AA802F0A1FA0DA802F09EFA3049A5
:1060B0000DA802F0E2FA7D210A2269560AA802F030
:1060C0001FFB0AA90DA802F08EFB0100200000F0C2
:1060D0003FFD0AA802F089FA0DA802F086FA2549C8
:1060E0000DA802F0CAFA7E210A2269560AA802F017
:1060F00007FB0AA90DA802F076FB0100200000F0C2
:1061000027FD0AA802F071FA0DA802F06EFA1A49EA
:10611000200000F027FD3100200000F023FD11B029
:10612000F0BDC046F4030020BBE900001CE70000FE
:106130002CE7000045E700005EE700006CE7000088
:1061400085E700009EE7000018E90000D0E70000A6
:10615000E9E70000FDE700001AE8000032E800006F
:106160004AE8000062E800007AE8000092E80000D7
:1061700031E9000049E90000C2E8000010B5040060
:1061800000F0ACFC200010BD10B50400FFF734FA9D
:10619000494B08332360230054331B78272B00DC42
:1061A00087E02300220029332A321B7812781B044F
:1061B00012029B1822002B32127821009B18A36533
:1061C000220023002D322C331B7812781B06120478
:1061D0009B1822002E321278643112029B18220082
:1061E0002F3212789B18E3652200230031323033BE
:1061F0001B7812781B0612049B1822003232127888
:1062000012029B182200333212789B182366230057
:106210001F2234331B781A400A705A06920F5BB261
:106220004A70002B03DA2300012266331A70230020
:106230003533187801331B780002C01803F0E2FEF2
:106240002300A0663733187801331B780002C0188A
:1062500003F0D8FE194903F009FA2300E066393348
:106260001A7837331A70363B187803F01BFF14493D
:1062700003F0FCF98021C90503F066F8230060678C
:106280003B33187801331B780002C01803F0BAFEC4
:106290000B4903F0EBF92300A0673D331A783F3335
:1062A0001A703E3B1A783F331A703E3B1A783F33E0
:1062B0001A70200010BDC04664E9000000002041B3
:1062C0000000C8420200836D2932190C70B51170AC
:1062D000190A51709370C36D0400190ED17019140E
:1062E0001171191251719371036E190ED171191434
:1062F00011729372191203005172602265331B7878
:106300001F215B0113400200643212780A401343DC
:10631000020066321278002A01D080221343220044
:1063200034321370A06E02F0D9FF230080B2020A4B
:1063300035331A705870E06E244903F087FB02F081
:10634000CDFF230080B23733020A1A702200587042
:10635000703212789A70606F05F092FC80230022F0
:10636000DB0505F0A9F80022194B04F025FE02F028
:10637000CDFF23003A331870A66F301C02F0AEFF39
:106380002300C5B23B331D701249301C03F05EFB85
:10639000061C6420684303F035FE011C301C03F02A
:1063A00075FC02F09BFF230022003C3318707C3206
:1063B00012785A7022007D3212789A7022007E3252
:1063C00012785434DA702823237070BD0000204105
:1063D000000059400000C842F0B5040085B0080034
:1063E0000D00FFF75FF903902800FFF75DF9060045
:1063F0002800FFF75BF907002800FFF759F9039A17
:1064000002210190330000972000FFF7C1F8274BCD
:10641000280008332360FFF7B6FCA0652800FFF7CB
:10642000B4FCE0652800FFF7B2FC20662800FFF707
:10643000B0FC2300643318702800FFF7ADFC230084
:10644000653318702800FFF7AAFC23006633187024
:106450002800FFF7A7FCA0662800FFF7A5FCE06670
:106460002800FFF7A3FC2300703318702800FFF703
:10647000A0FC60672800FFF79EFCA0672800FFF7DC
:106480009CFC23007C3318702800FFF713F92300CD
:106490007D3318702800FFF711F923007E33187040
:1064A0002000FFF70FFF200005B0F0BD64E90000F9
:1064B00070470000F0B50500424C434E91B03100EA
:1064C000200000F04FFB4149200000F04BFB404909
:1064D0000DA802F0D2F80A2229790AA802F010F9D0
:1064E0000AA90DA802F07FF90100200000F030FB9E
:1064F0000AA802F07AF80DA802F077F8354904A846
:1065000002F0BBF80A22A96801A802F01DF901A94E
:1065100004A802F068F907000A22E96807A802F057
:1065200013F907A9380002F05EF907000A22296969
:106530000AA802F009F90AA9380002F054F9070084
:106540000A2269690DA802F0FFF80DA9380002F0CF
:106550004AF90100200000F0FBFA0DA802F045F80E
:106560000AA802F042F807A802F03FF801A802F0DA
:106570003CF804A802F039F81749200000F0F2FABC
:10658000573516490DA802F078F80A2229780AA88A
:1065900002F0B6F80AA90DA802F025F901002000C2
:1065A00000F0D6FA0AA802F020F80DA802F01DF8B3
:1065B0000B49200000F0D6FA3100200000F0D2FA9A
:1065C00011B0F0BDF4030020BBE900001CE700009F
:1065D0002CE7000045E700005EE7000078E90000D6
:1065E000D4E8000010B5040000F078FA200010BDD7
:1065F00010B50400FFF700F8074B083323602300B1
:1066000054331B78112B04DD230029331A782E33E1
:106610001A70200010BDC04694E900005730007881
:106620007047002310B5040003608371CC300380F1
:10663000A164E26419003C22C43805F08EFC2000FD
:1066400010BD030070B500253C26040044331D70C6
:106650005D7032002900083005F07FFC2000320018
:106660002900503005F079FC2300CC348C331D70A8
:106670005D709D70258070BD70B5037A0400012B9C
:1066800017D103000600010044331D785036033D46
:1066900009312A00300005F045FC230022008C332C
:1066A0001D7000238D32137053703100A06CFEF703
:1066B000AFFC70BDF8B506000D001E2302000700F8
:1066C00004008F363C3533702B78903202331370D0
:1066D00091372A78380005F025FC2A783900E06CDB
:1066E000FBF798FE2B78020AE31891331A702B7887
:1066F0003100E418923420702A780248043200F005
:1067000073FDF8BDF4030020037A10B5002B0FD100
:1067100001000200503151320B701370030002224D
:106720008C331A70FFF7C6FF0122024B34331A7004
:1067300010BDC046A0030020F8B54C4E0400300048
:1067400000F046FD04272060002859D1A06CFEF718
:1067500045FB002815D0A06CFEF7FEFD02003C3280
:1067600013780100392B0CDC0D003D3000783E35EC
:10677000C8542D78C8180233457013702000FFF7F5
:1067800099FFF8BDE3791E2B37D12000FFF759FFA1
:106790000123A37131E0E3793B2B06DD344B35490E
:1067A000186800F0DFF90023F3E71E2BEDD022007C
:1067B000443213700223ECE7E2791E2AE5D06271BD
:1067C000022AF0D8210045310B78581CE3180870D4
:1067D0001A720323DDE7210045310A78531CDBB22E
:1067E0000B70E179A21811723B2BDCD822004432E5
:1067F0001278023A934200DBA7712368002BC0DDB8
:10680000300000F00DFDE071300000F0E1FC206090
:10681000A0790528C7D802F055FBB5BECFDE030A24
:106820002200E379CC321B0213800523B1E7250057
:10683000CC352A88E379210013432B80230045338C
:106840001A780831E06CFBF7E5FD2B888342AAD16A
:106850006379002B05D0022BA5D82000FFF70CFF91
:10686000A1E72000FFF750FF9DE7C046F40300209A
:106870009C020020A8E9000037B501018020000239
:1068800002F0C8FB0023094C451E208A228B80B2EF
:10689000009592B2190001F09DFEADB280B2208247
:1068A0002583E37BDB09FCD137BDC046002C0042C9
:1068B000204B214A70B55A805A78D209FCD11F4A20
:1068C0005A605A78D209FCD11D4C02322388934376
:1068D0002380E37BDB09FCD1802322881B01134347
:1068E000238023889BB22380E37BDB09FCD12288B1
:1068F000203313432380E37BDB09FCD180232288F0
:10690000DB0013432380E57BED09FCD1FFF7B4FFE7
:1069100010236573627B134380226373094BD20299
:106920001A600223228813432380E37BDB09FCD116
:1069300070BDC046000C00401B4200000203210055
:10694000002C004200E100E010B50C4B9A7BD2060F
:1069500012D51022997B0A439A73094B1868FEF7E7
:1069600039FB084B5A79FD2A01DC01325A719A79B8
:10697000132A01DC01329A7110BDC046002C00427E
:1069800098030020A0030020FEE70000034B10B591
:106990001B68002B00D0984710BDC046EC030020B8
:1069A00070B50121152001F027FD15250A24322696
:1069B0000121280001F06CFD300000F04FF80021AB
:1069C000280001F065FD013C300000F047F8002C84
:1069D000EED1024800F042F8E8E7C046B6030000F6
:1069E00070B50F490F4CA14204D100F00FF900F02F
:1069F00051F8FEE70C4D00238D42F6D0CA18E81876
:106A0000A24205D39042F0D0084B0949002204E08D
:106A1000006804331060F1E704C38B42FCD3E4E761
:106A2000000000208002002064F1000080020020AD
:106A30002C0A002010B500F02AF8002801D100F03F
:106A40001BF810BD014B18607047C046EC030020D6
:106A5000014B18687047C046F003002070B5041E53
:106A600007D0044D2E6800F011F82B689B1B9C4248
:106A7000F9D870BDF003002010B5034A1368013344
:106A8000136000F087F810BDF0030020704700206D
:106A90007047704710B501F09DFB05F0F9F9FFF75D
:106AA000F8FF0120FFF7DAFF084C200000F06CFE31
:106AB000200000F0C9FEFDF705FFFDF779FD044B4E
:106AC000002BFAD000E000BFF7E7C046100400201A
:106AD0000000000010B505F0FFF910BD10B505F07D
:106AE00005FA10BDF7B506000D000C008B180193D8
:106AF000019B671B9C4207D0336821781B683000DC
:106B0000984701340028F3D13800FEBD70B5050068
:106B10000C00081E07D005F087FF2B6802005B6899
:106B200021002800984770BD10B503688A685B682B
:106B30000968984710BD10B5FFF7E8FF10BD0000C9
:106B400010B50249FFF7E2FF10BDC046B9E90000E9
:106B500070B50500FFF7E8FF04002800FFF7F0FF1D
:106B6000201870BD70B50400FFF7D0FF05002000AD
:106B7000FFF7E6FF401970BD014B18607047C04633
:106B8000040000200122024B52421A607047C046A6
:106B900004000020164A10B51368591C27D0013B89
:106BA0001360002B23D172B6124B134A0433934265
:106BB00008D8BFF34F8F114A114BDA60BFF34F8FE4
:106BC000C046FDE70F4A01211000147D0C42FCD0A5
:106BD0002021148BFF319B085B0021431183D3617B
:106BE000094B13800123027D1A42FCD0E1E710BD5E
:106BF0000400002000200000030200000400FA0549
:106C000000ED00E00040004102A5FFFF1E2270B52C
:106C100046484749436893431C3A1343436008235B
:106C20008C6923438B61434C434B9C829C8A144365
:106C30009C82DC681442FCD00124404A1470157810
:106C4000254203D055786DB2002DF8DB0124946005
:106C5000547864B2002CFBDB394C5460547864B235
:106C6000002CFBDB8224E4015480547864B2002CB5
:106C7000FBDB02249C840E34DD682542FCD0314CC1
:106C8000DC621024DD682542FCD09D8C2E4C2C4308
:106C90009C841024DD682542FCD002249D8C802633
:106CA0002C439C844024DD683542FCD0DD682542BD
:106CB000F9D01024DD682542FCD00024946054787B
:106CC00064B2002CFBDB214C5460547864B2002C7D
:106CD000FBDB1C6A1E4D2C4080251C621C6AAC43E9
:106CE0001C62032393601B4B536053785BB2002BF1
:106CF000FBDB0023FF240B72174A4B728B72CB72A3
:106D0000164B1A60164B174A1B6811689A065B01EE
:106D1000C90E2340520F12020B431343124A13852C
:106D2000802342681343436070BDC0460040004169
:106D3000000400400C06000000080040000C004069
:106D400001050100B905FF7D040A000000070300EA
:106D5000FFFCFFFF03060100006CDC028400002042
:106D600024608000206080000040004201207047C5
:106D700010B50368014A1B6A984710BD1304000050
:106D80000300FC33D9699A69914203D0DB69C018CA
:106D9000007D704701204042FBE710B50400006908
:106DA00001F0EEFE22000023FC329361D3618622C3
:106DB0009200A4186360A36010BD10B5006901F0D3
:106DC00029FF10BD10B5006901F02CFF10BDF020A7
:106DD00001403039484248417047F0231B011940B7
:106DE000802306209B0099420AD00133FF330130F3
:106DF000994205D0802302385B00994200D00020E0
:106E000070470F2001400020012903D00239481E9D
:106E10008141481C704700008923F0B5182685B0D1
:106E200002919B000400C05C330008214343324DB3
:106E30001700EB18595601F06FFB304B0821E05C4E
:106E400033004343EB18595601F066FB2C4BE25CD0
:106E50000393022A09D11133E05CFF2805D00821F1
:106E60004643AE19715601F057FB8A26B600A05D65
:106E7000FF2819D0012101F0BFFA1822A35D214992
:106E80005A43AB56AD18DB0158188B21890060506E
:106E90001D4901225B188C218900635069688A4072
:106EA0008D21890062501A600122029B1100206925
:106EB00001F054FF39002000FFF78FFF3900050073
:106EC0002000FFF79EFF390006002000FFF77FFF3C
:106ED0003300009029002069012201F025FE0B4BB0
:106EE0002069E25C039BE15C01F038FE206901F05F
:106EF00053FE05B0F0BDC0465CEA0000250200006C
:106F000027020000184400411444004126020000FA
:106F1000802210B504005200002105F01EF8230065
:106F20000022FC335A6020009A6010BDF7B51D00A6
:106F300008AB1B780400009309AB1B781600019383
:106F400000234360FA239B008360114B0F0008333A
:106F500003601430FFF7DCFF20001D30FF30FFF727
:106F6000D7FF89236A469B002761E654094B1278B4
:106F7000E554094B2000E2546A46084B1279E2546A
:106F80008A22293BFF3B9200A3541032A354FEBD3A
:106F9000BCE90000250200002602000027020000D4
:106FA0000300FC3358689B68C01A01D50130FF30DC
:106FB000704710B5040020001D30FF30FFF7F0FFD0
:106FC0000028F8D1206901F0F0FD10BD10B5143093
:106FD000FFF7E6FF10BD0300FC3359689A68914241
:106FE00004DB5A689868801AFF30704798685B68BD
:106FF000C01A0138F9E710B51D30FF30FFF7EBFF7D
:1070000010BD10B50400006901F0DBFD002820D0A0
:10701000206901F0EBFD2200FC329369D169013354
:10702000DBB28B4203D091696118087593618A23A2
:107030009B00E35CFF2B0CD020001430FFF7CBFF4C
:10704000092806DC8B238D229B009200E358A2586E
:107050001A60206901F0C5FD00281AD020001D30FB
:10706000FF30FFF79DFF002822D086239B00E31806
:1070700099685A68914218D08E219A684900A218DE
:10708000515C9A680132D2B29A60C9B2206901F0AB
:10709000B1FD206901F09AFD002805D0206901F0BA
:1070A00099FD206901F089FD10BD01214942ECE7FD
:1070B000206901F0ABFDECE770B5040000690D003C
:1070C00001F08FFD002824D1FF2686239B00E318C2
:1070D0005A689968013232408A422FD1EFF3108307
:1070E000DB070DD41E4B5B68DB05DB0DEDD0103BE1
:1070F0005BB2002B19DB9B08C0331A4A9B009B58DC
:10710000206901F06EFD0028DFD02000FFF779FF35
:10711000DBE720001D30FF30FFF742FF0028D3D10E
:107120002900206901F066FD17E00F221340083B9B
:107130009B080D4A9B009B181B68E1E75A680132C7
:1071400016409A68964205D08E215A684900A218C6
:1071500055545E60206901F055FD012070BDC046A8
:1071600000ED00E000E100E01CED00E00300FC3376
:10717000D9699A6970B5040091421AD0DA69821807
:10718000157DDA690132D2B2DA618A239B00E35CB1
:10719000FF2B0CD020001430FFF71DFF0A2806DD5E
:1071A0008C238D229B009200E358A2581A6028007D
:1071B00070BD01256D42E8E73F20704713B56B466F
:1071C0000268D9710733546819000122A04716BD1F
:1071D00010B50221006900F029FC10BD10B5032193
:1071E000006900F039FC10BD10B5130004000A005E
:1071F0000069032100F01CFD002801D10123636018
:1072000010BD000010B5054C23685A1C04D103685A
:107210005B69984703002060180010BD58000020EB
:10722000074B0200186810B5411C03D001225242DE
:107230001A6010BD0221106900F0ECFCF9E7C046AD
:107240005800002010B5037842220233037002492F
:10725000024800F08DFD10BD140000201004002035
:1072600010B50178030042780020A12908D1212A15
:1072700005D11A3A1649174800F07AFD012010BDD1
:107280002129FCD1202A11D1193A1149114800F0C5
:1072900027FC96220E4BD2001968914203D101249B
:1072A000D87904400ED0FFF76DFC0EE0222A03D1FE
:1072B0009A78074BDA71ECE7232AE0D15A88064B1B
:1072C0001A60DCE7FA20FFF757FC0020D7E7C0463A
:1072D0000C0000201004002008000020704700006F
:1072E000FA220021054B92009A60054A5960083243
:1072F0001A60044A19761A617047C046F4030020E8
:10730000F0E900001004002030B50F25CB1D013935
:1073100002002A40140000093034092A01DD373206
:1073200014001C70013B8B42F2D130BD70B5822934
:107330001FD1C3B22C4D5A01AA1891692B4C800160
:107340000C40C0218905214391612949083308185F
:10735000802150612A685B01D01804794942214399
:1073600001717020995C81430800302101439954D8
:1073700070BD0029FCD1C024C1B21B4E4B01F318D3
:107380009A681A4DA4052A4022439A60194A80013E
:1073900010180A0058603068072608325201115C44
:1073A000B1430E0001213143115499690D402C4322
:1073B0009C6170240E495961115CA1430C0010219D
:1073C0002143115499680C4C82180C4080214903C8
:1073D000214399609968890B890399604023517909
:1073E0000B435371C4E7C046C8080020FFFFFF8F5E
:1073F0003C040020FC050020FF3F00F070B50400B5
:10740000012320CC00212A782000134380222B70F6
:10741000520004F0A2FDAB78DB07FCD46C6270BDB7
:107420001F22144B70B51B68590B9C0C9B0111401B
:107430005B0F22401F2900D11A391F2A00D1023ABE
:10744000072B00D1043B1F2500688E01048D0A49DB
:107450002A40214031430185018D14000A00AA43CE
:1074600022430285028D1903044B13400B4303850D
:1074700070BDC046246080003FF8FFFFFF8FFFFF14
:10748000EFF3108303600123436072B67047036813
:10749000002B02D162B6BFF36F8F704737B5056915
:1074A00004006846002D14D1FFF7EAFF019B621D1E
:1074B000013B02D3D57FEDB2FAE768460193FFF7AF
:1074C000E6FF002D01D100203EBD206AE369C01A0D
:1074D000FAE7FFF7D5FF22000025019B3432013B7C
:1074E00002D31578EDB2FAE768460193FFF7CFFFB4
:1074F000002DE8D0206BE36AE9E70000F0B5012534
:107500004668037A31685A018C18FF34A77AB2189A
:107510003D43A572C468094D9068A404284024091D
:107520002043906090680833800B80039060402275
:107530005B01CB1819790A431A71F0BDFF3F00F0C7
:10754000F7B5036904000E0017006846002B3DD113
:10755000FFF796FF019B611D013B5A1C0CD0CD7FAC
:107560005A1EEDB2002D05D168460193FFF78FFF3B
:107570002800FEBD1300F0E7684601930025FFF7E1
:1075800086FFE369AF4202D0226A934257D3226A50
:107590009342EDD10023E361013323616846FFF795
:1075A0006FFF22000021019B671D013B3532581CF3
:1075B000DAD0F97710785E1E002805D0117020000F
:1075C0000193FFF79BFFECE73300F0E7FFF758FF6D
:1075D0002100019B3431013B5A1C06D00D785A1E04
:1075E000EDB2002DC0D01300F6E7684601930025E8
:1075F000FFF74DFFE36ABD4202D0226B934226D3D0
:10760000226B9342B4D100236846E3622361FFF703
:1076100037FF270022000021019B3437013B353220
:10762000581CA1D0397010785E1E002805D011704A
:1076300020000193FFF762FFEBE73300F0E75A1CED
:10764000E261A269D3181B787355013599E75A1C7A
:10765000E262A26AD3181B7873550135CAE7F7B501
:10766000027A436811000400083118684901411882
:10767000C879C00727D501255201CD719B189A689A
:1076800061699204920C002921D12262226A002AA7
:107690003ED0A26A656168465A60FFF7F1FE270096
:1076A0002100019B661D013B343735315A1C2BD01C
:1076B000F5773A78581ED2B2002A05D00193684671
:1076C0000D70FFF7E4FEF7BD0A700300EEE72263DA
:1076D000226B002A1CD000226261A26968465A60AF
:1076E000FFF7CEFE26002100019B3436013B671DCB
:1076F00035315A1C08D03570FA7F581ED2B2002A94
:10770000DCD10A700300F4E768460193FFF7BFFE7F
:107710002000FFF7F3FED6E737B56B46DC1D0023EC
:107720000D0020002370FFF78DFD2B6818182860CE
:1077300001F0AEFB210001F067FB2B6818182860F0
:1077400020783EBD03290ED180220E4B62311B688A
:10775000FF31585C524202435A5468226339FF3960
:10776000FF32995470470129FCD18022054B243106
:107770001B68FF31585C524202435A542339FF3987
:107780002822EDE7C8080020202370B5254A040010
:10779000D1690F200B43D361012223490B78134396
:1077A0000B70224B19788143197006211D782943EB
:1077B00019701F490D782A430A701A7802401A700E
:1077C000602219780A431A701A4B1B4A5A805A7859
:1077D000D209FCD11948FFF735F9194D2800FFF7F8
:1077E0000DFE2800FFF71CFE7F212B68C1201A78B0
:1077F00080000A401A70042219780A430C211A707A
:107800001A898A430F491A810A581202120A0A5029
:1078100080220A6019787E3A0A431A700123237085
:1078200070BDC04600040040584400413C44004143
:1078300059440041000C004006400000B5810000A2
:10784000C808002000E100E00078002810D00121E5
:10785000084B1B681A898A431A810822198B0A432C
:107860001A830422198B0A431A830022024B1A60DE
:107870007047C046C8080020C008002010B50F4A55
:1078800093699B0B9B03936113680222FF331A7267
:107890009879823A02439A711A7A9207FCD57F242A
:1078A000074A2140937A0800A3431900802301432B
:1078B0009172917A5B420B43937210BDC80800200D
:1078C000005000410078002805D0034B1A680123BE
:1078D00011890B4313817047C808002010B50B793C
:1078E0000C00002B0CD10800FFF7BAFC002801D0D7
:1078F000012010BD094A93699B0B9B039361F7E735
:1079000001F0C6FA210001F0B2FA0028F0D1034AD2
:1079100093699B0B9B039361EBE7C046C80800206B
:10792000F7B50D00832A19D1CBB2324C5A01A218F7
:1079300091693148AD010840C02189050143916139
:107940002E4920684D197021083355615B011A5C7E
:107950008A43110040220A431A54F7BD022A44D137
:107960008B000193264B8A00D658002EF5D1382083
:10797000FFF7B0F8234B1F4F036080235B00C36009
:10798000431D0662856006614661C661040047606A
:10799000DE77C662066380202F331E7040005E7063
:1079A00004F09AFA0600A0618020400004F094FAE6
:1079B000EDB26B01A062FB189A680F4907201140D5
:1079C000C02292050A439A603A6808356D01A95CA5
:1079D0008143080003210143A95420005E60FFF7A2
:1079E0008DFD074B019AD450B7E711002800FFF72F
:1079F0009DFCB2E7C8080020FFFFFF8F3C04002079
:107A0000140400201CEA000070B505000124064B98
:107A1000A200D258002A05D021002800FFF780FFDD
:107A20000134F4E770BDC0465C000020084B8A00BA
:107A3000D05810B5002803D003689B68984710BD44
:107A4000C9B2044B4901591888688004800CF6E7D4
:107A500014040020C808002010B50C00FFF7E6FF52
:107A600000280CD0064BE4B21B68083464011C19D2
:107A7000802362795B42134363710223E37110BD7B
:107A8000C808002070B5134BCCB2134A60018901BD
:107A90005918131859609968104D08340D40802109
:107AA00089022943402599609968890B8903996067
:107AB00011686301CB181E7935431D719D796D06E0
:107AC000FCD564010919CB79DB07FCD51218906845
:107AD000C0B270BDFC050020C8080020FF3F00F0C8
