:1020000000800020397F0000F17E0000F17E00009A
:1020100000000000000000000000000000000000C0
:10202000000000000000000000000000F17E000041
:102030000000000000000000F17E00008D7F000025
:10204000F17E0000F17E000041210000F17E0000E1
:10205000F17E0000F17E0000F17E0000DD7E0000D8
:10206000F17E0000F17E0000F17E0000695D00005D
:102070007D5D0000915D0000A55D0000F17E000027
:10208000F17E0000F17E00009D7E0000F17E0000E8
:1020900000000000F17E0000F17E0000F17E0000F3
:1020A000F17E0000F17E0000F17E0000F17E000074
:1020B0000000000010B5064C2378002B07D1054B1B
:1020C000002B02D0044800E000BF0123237010BDA4
:1020D000A00200200000000098320100084B10B55B
:1020E000002B03D00749084800E000BF07480368F9
:1020F000002B00D110BD064B002BFBD09847F9E711
:1021000000000000A4020020983201009C02002080
:10211000000000000022014B1A707047BC02002032
:10212000034AD379DB09FCD1A53313727047C0464B
:1021300000100040014B1878C0B2704738040040CE
:102140000221064B1A788A431A70DA79D209FCD137
:10215000997901320A439A717047C04600100040D5
:102160000F4B104A30B59A600F4A5A605A78D2091C
:10217000FCD10E4A0E495A8004220E4BCA67BFF3A7
:102180004F8FBFF36F8FC021C02449005A50A40065
:102190001959094D294019511A600123037030BDA6
:1021A000000C004002040000020311000342000082
:1021B00004E100E000E100E0FFFF00FFF8B5037874
:1021C00006000D001700002B01D1FFF7C9FF002307
:1021D000484C2370E379DB09FCD1474B9D4250DC2E
:1021E000002D4ED0AD022800FA21F530FF308900D5
:1021F0000AF0C8FA414B984247DC414B984248DC10
:10220000404B984249DC404B98424ADC3F4B984255
:102210004BDCFF284DDC7F284FDC3F2850DC1F289B
:1022200051DC0F2852DC002308250122002F50D05A
:1022300061790F200A4362710B2261780340814368
:102240000A43627062781901130003400B43637004
:102250000423227813432370E379DB09FCD1300097
:10226000FFF75EFF0223227813432370E379DB0933
:10227000FCD1FA208023800068439B00C0188012A4
:10228000F8BD80250B23ED01CFE780250A23AD01A2
:10229000CBE7802509236D01C7E7802508232D01A1
:1022A000C3E780250723ED00BFE780250623AD00A7
:1022B000BBE7802505236D00B7E704238025B4E73D
:1022C00003234025B1E702232025AEE70123102593
:1022D000ABE72179914321710F2162780B408A434A
:1022E000134304226370237893432370E379DB095B
:1022F000FCD1B4E7001000407F3E0000FF1F00004B
:10230000FF0F0000FF070000FF030000FF010000B7
:102310000A4B10B5436203000D22040028331A70E3
:10232000543000F0EBFB23000022DB331A70044A28
:1023300001331A80034A20005A8010BD00180D8F07
:102340000240000001400000F0B515001A00040032
:1023500087B00160456082600C980F9BE0600D982B
:10236000109E20610E98119F60612000A361E661BC
:10237000276203930E9B543001930D9B05970093A6
:1023800004960C9B029500F0D3FB220000239932A7
:1023900013709A34013A1370D370237007B0F0BDF4
:1023A000543010B50400002100F010FC0121200081
:1023B00000F007FC10BD543010B50400002100F0FF
:1023C00000FC0121200000F001FC10BDF7B5050064
:1023D00004005435280000F025FC2800012100F0FD
:1023E00092FE20003C2200219C300DF09AFA27003A
:1023F00022000123702146374A323B7011704A395E
:1024000051709370213A13702300019208223133E6
:102410001A7034329A70002620225E70DA701E71B3
:102420003100280000F02EFC3978280000F03DFC37
:102430003900280000F075FC2800019900F0ADFC7F
:102440002800616A00F03CFC32003100280000F0F6
:102450005DFC282128006156E02200F04BFCF7BD0E
:102460007FB5040025000E00FFF7A5FF0023DC3434
:102470002188543500930A00280000F015FE002E34
:1024800009D0022202AB1A7030325A800299280019
:1024900000F0A4FE7FBD012203AB52421E705A80A1
:1024A0000399F4E710B50400FFF785FF2000002131
:1024B000FFF7D6FF20000021543000F07DFB10BD57
:1024C000543010B50400002100F07BFB00212000F7
:1024D00000F07CFB200000F020FE0E21200000F028
:1024E000ABFB10BD10B5543000F0C2FB10BD0200B4
:1024F000DB3211780B1E03D00023137003009C33D2
:102500001800704713B598300368FF211A00180AA5
:102510001C0C08400A4000022140090410431B0E15
:102520001B060843184316BD02000023993213709E
:102530009A30013A1370D3700370704770B500245D
:102540000748084DA3B2934209DA0B5D06127340A7
:102550005B000602585B0134704080B2F2E770BD48
:10256000FFFF00001C1B01000300F7B504009C33B3
:102570003C2200211800270000930DF0D2F900231F
:10258000D8373B702300543301933A003C23009921
:10259000019800F0D3FD061E36D13B789A1EA11893
:1025A0009C31E3180D789B331878D2B22D020E704F
:1025B00045191E7000993A702000FFF7BFFFADB2B9
:1025C0003F3F85422CD1250041350198290000F07C
:1025D00071FC28780F2812D80AF036F81B08081B5F
:1025E0001B111111111111111111111E2300423370
:1025F0001A7897331A70963B1A7897331A7022001C
:102600000123DB323B70137000212000FFF728FF0D
:10261000F7BD23004233EFE723000022D933EDE773
:102620003E70F1E710B50400543000F003FE2300C3
:102630002200210058331B78983213705D310978DD
:102640000232517021005C3109781170002B02D0E8
:102650002000FFF727FF230059331B78002B02D0FF
:102660002000FFF781FF10BD0B00F0B5050007004B
:1026700004003C331A78D8359C3785B02A7038006E
:102680000DF034F92E78390032002000FFF756FFA4
:10269000A319020A9C331A70B31C0136F6B2A619AC
:1026A0009C362B7030702000FFF77AFE2300260046
:1026B000DE3319880023543600930A00300000F0FE
:1026C000F3FC230021002A7833331A7030002931BB
:1026D00000F063FB022103AB2A7819703031598076
:1026E0000023390000933000039B00F06BFD0121B3
:1026F000300000F061FA05B0F0BD10B5543000F0C4
:102700006AFA10BD704713B513006A46073213709A
:1027100003689C690123A04713BD37B56B46DC1DD8
:10272000036822001D6A0123A84720783EBD10B52A
:10273000040005F07FFC200010BD10B5040014203B
:1027400005F038FC606A012107F0F4F80021606AA6
:1027500007F03CF9322005F02DFC606A012107F0FA
:1027600035F90021606A07F0E5F8142005F022FC35
:1027700010BD000073B505000021006A07F026F9BE
:1027800096231B01013BFDD100266B460E4C5E716A
:102790001E71019A0D49200007F06AFBC02120003C
:1027A00007F096FB3100200007F092FB286A012118
:1027B00007F00CF9200007F077FBA86A07F032F960
:1027C0000128FAD073BDC046D428002080841E00A2
:1027D000F0B505000F0085B000920193A86A07F0DC
:1027E00021F90128FAD000240021286A07F0EEF828
:1027F00002AB134E5C711C7112493000039A07F052
:1028000037FB3900300007F063FB019B9C4207DA7D
:10281000009B3000195D013407F05AFBA4B2F4E7C5
:10282000286A012107F0D2F8300007F03DFB842F21
:1028300004D0A86A07F0F6F80128FAD005B0F0BD78
:10284000D428002080841E00F0B506000F0085B05B
:1028500000920193B06A07F0E5F80128FAD000244D
:102860000021306A07F0B2F802AB1C4D5C711C719C
:102870001B492800039A07F0FBFA39002800C02FF3
:1028800019D107F025FB009B21001870280007F0E4
:102890001FFB2100280007F01BFB306A012107F015
:1028A00095F8280007F000FBB06A07F0BBF8012894
:1028B000FAD005B0F0BD07F00BFB2100280007F0AF
:1028C00007FB019B9C42E8DA009B002128001F19AE
:1028D00007F0FEFA01343870A4B2F2E7D4280020E1
:1028E00080841E00F0B506000F0085B000920193B1
:1028F000B06A07F097F80128FAD000240021306A66
:1029000007F064F802AB164D5C711C71039A15490F
:10291000280007F0ADFA1821280007F0D9FA390A83
:10292000280007F0D5FAF9B2280007F0D1FA019B88
:102930009C4207DA009B2800195D013407F0C8FAB1
:10294000A4B2F4E7306A012107F040F8280007F04C
:10295000ABFAB06A07F066F80128FAD005B0F0BD0E
:10296000D428002080841E00F0B506000F0085B03A
:1029700000920193B06A07F055F80128FAD00024BC
:102980000021306A07F022F802AB194D5C711C710E
:10299000039A1849280007F06BFA1921280007F05C
:1029A00097FA390A280007F093FAF9B2280007F0DD
:1029B0008FFA2100280007F08BFA019B9C4209DA6C
:1029C000009B002128001F1907F082FA013438709B
:1029D000A4B2F2E7306A012106F0F8FF280007F000
:1029E00063FAB06A07F01EF80128FAD005B0F0BD0E
:1029F000D428002080841E00F0B506000F0085B0AA
:102A000000920193B06A07F00DF80128FAD0002473
:102A10000021306A06F0DAFF02AB144D5C711C71C4
:102A20001349039A280007F023FA1A21280007F017
:102A30004FFA3900280007F04BFA019B9C4207DA55
:102A4000009B2800195D013407F042FAA4B2F4E7B4
:102A5000306A012106F0BAFF280007F025FAB06AB3
:102A600006F0E0FF0128FAD005B0F0BDD428002020
:102A700080841E00F0B506000F0085B0009201931F
:102A8000B06A06F0CFFF0128FAD000240021306A96
:102A900006F09CFF02AB174D5C711C71039A16493E
:102AA000280007F0E5F91B21280007F011FA39008A
:102AB000280007F00DFA2100280007F009FA019B11
:102AC0009C4209DA009B002128001F1907F000FA38
:102AD00001343870A4B2F2E7306A012106F076FFC3
:102AE000280007F0E1F9B06A06F09CFF0128FAD04F
:102AF00005B0F0BDD428002080841E0000230222EF
:102B0000037143718371C3718372C3720373037260
:102B10004372437401330377044B42730D32C27323
:102B20000833053A027403607047C0461C1D01005B
:102B300010B50400E362059B0800A363069B2162B5
:102B4000E3630499079BA26223646162012106F09A
:102B5000F1FE206A012106F039FF606A012106F0CA
:102B6000E9FE606A012106F031FFE06A002106F00B
:102B7000E1FEA06A002106F0DDFEA06B012106F057
:102B8000D9FEA06B002106F021FFE06B012106F0C9
:102B9000D1FEE06B012106F019FF206C012106F047
:102BA000C9FE0021206C06F011FF024807F038F939
:102BB00010BDC046D428002010B5006C06F006FFFA
:102BC00010BD10B5806B06F001FF10BD10B5C06BD5
:102BD00006F0FCFE10BD10B5C06A06F023FFC0B2BF
:102BE00010BD5421036870B505005B6AFF3198473A
:102BF000AA212B6804005B6A280049009847240238
:102C0000204380B270BD37B56B46DC1D00232370B6
:102C1000036822005D69C0210123A84720783EBDDA
:102C2000407B704710B5040003689B689847236891
:102C300020005B6B984710BD13B56B468C07DA1DFF
:102C4000CB07DB0FE40FA400DB0023430C0749078D
:102C5000E40FC90F2343490019431170437B8421BA
:102C600083730023437303681C690123A04713BDCA
:102C7000437B10B5002B04D1837B437303685B6BEC
:102C8000984710BD73B56B46DD1DD97103682A00E6
:102C90001E69802101230400B0472B78002B02D14C
:102CA0000233637373BD0323FBE713B56B46DA1D71
:102CB00003681170C1731C698A210123A04713BDE9
:102CC00037B5040008000CF053FC0022084B0BF051
:102CD000EFF909F0F3FE01AA030C1370030A537015
:102CE000236890701D69862103232000A84737BD03
:102CF000A8CB684037B5036801AC12311D6921705B
:102D00006270022322008E21A84737BD37B50368C1
:102D100001AC1D6921706270022322008F21A84737
:102D200037BD37B50C00C37B097805008B4201D055
:102D3000FFF7BBFF207801AA0F2817D809F084FC01
:102D4000080F0F1D23161616161616161616162918
:102D500063781370A3785370E378937006E0237957
:102D6000137063795370A1792B7491702B682800CC
:102D70001C698B210323A04737BDE3791370237AA5
:102D80005370637AE9E7A37A1370E37A5370237B75
:102D9000E3E7002313705370DFE737B50C00C37B04
:102DA000097805008B4201D0FFF77FFF20780F28BC
:102DB00018D809F049FC081F1F2D3C1717171717C3
:102DC0001717171717486A4663781370A37853705C
:102DD000E37893702379D37063791371A379537176
:102DE000E37993712B6828001C696A4607238C21BC
:102DF000A04737BD6A46237A1370637A5370A37A6B
:102E00009370E37AD370237B137100235371E8E747
:102E10006A46637B1370A37B5370E37B9370237CC0
:102E2000D370637C1371A37C5371E37CD9E76A464A
:102E3000237D1370637D5370A37D9370E37DD37006
:102E400000231371E2E700236A46137053709370F6
:102E5000D370F6E7F0B5040085B0036803AD0192C6
:102E60005F690E0002232A001721B847E37B012B7C
:102E700010D123680D495B6A20009847C0110128D2
:102E800008D123680A495B6A20009847307007E040
:102E90002B7804E0E37B042BFAD12B7802333370D8
:102EA0006B78019A137005B0F0BDC04603090000AD
:102EB00001090000F7B505000C0003686A465E6969
:102EC0001D210523B047E87B20700F285BD809F04F
:102ED000BBFB084F4F5EAA5A5A5A5A5A5A5A5A5A64
:102EE0005AE36B465B7801225B085B4263706B467A
:102EF0009878A378810911409343450915400B4305
:102F00000221954006098B4316402B4304258E4031
:102F1000AB4333430826C5081540ED00B3432B43AC
:102F20001025860816403601AB433343202645085A
:102F300015406D01B3432B43402510408001AB4346
:102F40000343A3706B46D878E37845091540934353
:102F500010402B4390401A008A430243E2706B46B4
:102F600007211A7923790A408B43134323710AE01E
:102F70006B461B785B085B4263706B465B787F2B0C
:102F800002DC9B08A370F7BDFD3B9B10FAE76B4684
:102F90005B7801215B085B4263706B469878A2788E
:102FA00083090B408A431A43022345090D408D4093
:102FB000070904260F409F409A432A43B2433A43ED
:102FC0000827C5080D40ED00BA432A431025AA433F
:102FD000944683080B406546B3402B4320254208A6
:102FE0000A405201AB4313434022084093438001FF
:102FF00018436B46A070DA78E0781D3DA84393092A
:1030000055090D400343AD001009B34308402B435D
:10301000C000BB4303430A4019001023B240994348
:103020001143E1709BE76B465B7801225B085B42D2
:1030300063706B469978A3788D09154048099343CE
:103040002B43104002259040AB43034304200D095D
:103050001540AD0083432B430825C8081040C0002D
:10306000AB43034310208D0815402D0183432B43B0
:103070002025480810404001AB4303434020114045
:10308000890183430B43A3706B46D978E3781140E1
:1030900093430B43E37062E70522002120000CF00C
:1030A00040FC0F2323706EE773B56E4606AC248890
:1030B0000D0A7170F2707371110A1A0A230AB37142
:1030C00003683570B1703271F4716A461C698D21E4
:1030D0000823A04773BD37B5036801AC5D692200C2
:1030E00002231521A847237860781B0218433EBDB0
:1030F00013B50B0A01AA1370036851701C6997215C
:103100000223A04713BD13B56B46DA1D0368117087
:103110001C6996210123A04713BD036810B51C69E3
:103120000023D5211A00A04710BD70B50D0019006D
:1031300003689C6A13002A00A04770BDF0B5160012
:1031400085B0019302ABDD1D2A000F0031000400A1
:10315000FFF780FE3378019A0120934206DC226853
:1031600029782000D56A3A00A847002005B0F0BDB4
:1031700013B5036801AA11701C69A3210123A0479C
:1031800013BD00007FB50B000400019103AD090CD5
:103190002B70A9700B0A0A496B70FFF7A9FFE37B3C
:1031A000022B03D101212000FFF7E2FF23682A0050
:1031B0001E69832103232000B047062363737FBD6C
:1031C000FFFF000013B50400019304AB1B78FFF769
:1031D000ACFF01992000FFF7D5FF13BD7FB50B00B1
:1031E0000400019103AD090C2B70A9700B0A0A4968
:1031F0006B70FFF77DFFE37B022B03D100212000E2
:10320000FFF7B6FF23682A001E69822103232000EE
:10321000B047052363737FBDFFFF000000230371E8
:1032200043718371C3718372C372037303724372F8
:103230007047000070B50400C67BFFF74CFF49499A
:1032400005002000FFF754FF2000FFF7E7FF042EE2
:103250000BD83000637BDBB209F0F6F9032D5D0378
:103260000300052B02D0062B1CD070BD02231D428B
:1032700003D06A0611D50133A3726B0701D5012370
:10328000A3712B0701D50223A37201236A0400D581
:1032900063721D42E9D02371E7E72A07ECD40123CA
:1032A0006371EAE701231D4200D023716B04DCD572
:1032B00001232372D9E7062BF4D0072B1BD0052B53
:1032C000D3D1AB0703D56B0612D50323A372EB064C
:1032D00001D50123E371AB0601D50123A3726B0471
:1032E00001D501236372EB05BFD50423A372BCE7AC
:1032F00001236371EBE7EB0408D580239B011D409C
:1033000002D001232373B0E72573AEE76B04ACD57D
:1033100001236372A9E7052B0AD0062BA5D16B0503
:1033200001D50323E372AB059FD50423E3729CE729
:10333000EB0501D50123E3722B0501D50223E372CE
:103340002B0601D50223E3726B0401D50123E3723E
:10335000EB0601D50123E371AB0600D485E7012319
:10336000C4E7C046FFFF000030B5094D094CAB680B
:103370005B035B0F9B001C590460AB6801619BB24F
:1033800043606343A4008360C460426130BDC046B3
:1033900000400041601D0100F7B580261A4D03333F
:1033A0006F689B083E436E600191002B2BD0174E37
:1033B0002E802E7DF107FCD51E0001689F1B890819
:1033C0008F4219D2002E17D0FF2117788C433C432F
:1033D0000F4957780C403F023C439778013E39042F
:1033E0000C4F2740D478BFB20F43240601993C43C9
:1033F00010C101910432E0E7074B2B802B7DDB07E6
:10340000FCD53300D1E7F7BD0040004144A5FFFFE4
:10341000FF00FFFFFFFF00FF04A5FFFF044B054A6D
:103420004908D9611A801A7DD207FCD57047C04679
:103430000040004102A5FFFF70B5050016000C001A
:10344000EB68210028009E4205D9FFF7E7FFEB68F3
:10345000E418F61AF4E7FFF7E1FF70BD10B51000AD
:103460001A000CF043FA10BD7047002070470000AE
:10347000034B017108330360002343717047C0465A
:10348000801D010070B51D000379040016008B42F9
:1034900001D0FF2B0AD183231B019E4243D007D8C2
:1034A000303B9E421AD020339E4231D000262BE082
:1034B00084231B019E4241D010339E42F6D1E9B2D3
:1034C0002A0A2B0C2D0E002943D0210056310A70F8
:1034D0002200553213705434257015E0A80080087E
:1034E0000CF046F800221F4B0AF0E2FD1E4B0022B2
:1034F0000AF0DEFD0CF0C6F86B0002D580231B0637
:10350000C018002D02DB2064300070BD6064FBE752
:1035100028000BF0EBFF0022144B0AF0C9FD0CF061
:10352000B1F8A064F0E728000CF022F80022104B5C
:103530000AF0BEFD0CF0A6F8E064E5E728000CF008
:1035400017F80022094B0AF0B3FD0CF09BF8206538
:10355000DAE7210059310A702200583213705734CB
:10356000BAE7C0460088C34000004E400000594002
:1035700000609E4070B50D0001790400914221D198
:103580004079062818D809F05FF8041E27323D4814
:103590005300626A93420AD9FA2292009B18A268E9
:1035A000636280210901280001F017F904E08021FD
:1035B0000901280001F047F963790133DBB2062BDA
:1035C0003ED8637170BDA26A9342F0D9FA2292008C
:1035D0009B18A362E268E4E7E26A934205D9F533F7
:1035E000FF33E36222698221DCE78221E0E7226B7C
:1035F000934205D9F533FF33236362698321D1E711
:103600008321D5E7626B934205D9F533FF336363BA
:10361000A2698421C6E78421CAE7A26B934205D937
:10362000084A9B18E269A3638521BBE78521BFE7B0
:10363000E26B9342FAD9034A9B18E363226AF3E7E9
:103640000023BEE71027000010B50400FFF710FFAD
:10365000024B20000833236010BDC046901D0100BE
:1036600070B50E000021051C09F0C8F9002812D021
:1036700080231B06E818144909F080FE134909F05D
:103680007DFE09F003FA8400A408002E16D18023E1
:103690001B061C430CE00C49281C09F06FFE0B496B
:1036A00009F06CFE09F0F2F98400A408002EEED0B7
:1036B0000021281C09F0A2F9002802D08023DB0594
:1036C0001C43200070BDC0460000704200401C46F4
:1036D000F0B587B01E1C0EAB1B78040001930FAB36
:1036E0001B78081C029310AB1B780121039311ABCC
:1036F0001B78171C049312AB1B78059313AB1D7832
:10370000FFF7AEFF0021A060381CFFF7A9FF1549A5
:10371000E0600D9809F032FE09F0B8F91249A06195
:103720000C9809F02BFE09F0B1F90E496061301CCC
:1037300009F024FE0AF0F6F8019B029A1B021343DB
:10374000039A1B021343FF221B021343E361049BF2
:10375000059A1B0213431B021D432D0220612562A3
:1037600007B0F0BD0000C8420000F34400207047DD
:1037700030B5884000230125013A8A18D2B28A4226
:1037800004D32C008C4001312343F8E7184030BDAE
:1037900010B50400FFF76CFE174B8222083323603C
:1037A0000123A3710023D200E371E360A352134A03
:1037B0002000A352124AA3500432A354114AA3502A
:1037C000114AA350114AA3505432A3501832A350A7
:1037D0000F4AA3500C32A3503032A21813700D4A76
:1037E000A21813700C4AA3540C32A3502032A350D9
:1037F0001832A35010BDC046CC1D010012040000B9
:1038000014040000240400003C0400004C040000E8
:10381000CC040000090500000C05000030B5FF25B0
:1038200003ACDB0124782B40E03D294019432302FF
:103830008024640023401943602352011A40034B43
:103840000A43C2500122043BC25430BD240400008C
:1038500070B50500081C1D49141C09F08FFD0BF004
:10386000BFFE1B4A1B4B0AF023FC0BF00BFF9823F7
:10387000DB00E850061C1549201C09F07FFD0BF009
:10388000AFFE134A134B0AF013FC0BF0FBFE124B76
:103890001249E85009F0F0F9114909F06FFD09F0FB
:1038A000F5F8C4020F4809490440301C09F0E4F956
:1038B0000B4909F063FD09F0E9F801224005400DCC
:1038C000094B0443EC50043BEA5470BD00A08C4605
:1038D0006F1283C0CA210940C404000000A00C4636
:1038E000CDCC4C3D00F83F00CC04000070B51D006D
:1038F000CB17C8180C0016005840012A1BD1002312
:10390000012D06D1092806DC400083B22022002CBC
:103910001DDB180070BD1F239528F7DC0AF072F834
:10392000674909F02BFD07F0F3F909F0AFF8C3B2CE
:103930005B002B43EAE7022A5BD1012D1AD16328F1
:1039400007DC400083B2002CE3DA802252001343EC
:10395000DFE75C4AFF239042F5DC0AF053F8584950
:1039600009F00CFD07F0D4F909F090F8C3B25B0040
:103970002B43E8E70023022DCBD1632806DC80002F
:1039800083B2002CC5DA80229200E0E74E4B9842C9
:103990000DDC0AF037F84A4909F0F0FC07F0B8F9F5
:1039A00009F074F80123C0B280000343E9E7474BF4
:1039B00098420CD80AF026F8454909F0DFFC07F0D8
:1039C000A7F909F063F8C3B29B002B43D9E7414B39
:1039D00098420CD80AF016F83F4909F0CFFC07F0DE
:1039E00097F909F053F8C0B280000323DDE73B4BA1
:1039F000C7E70023032A00D08BE7012D1DD1324BEE
:103A0000984207DC400083B2002C00DB81E7802273
:103A100012019CE7324B98420DDC09F0F3FF284974
:103A200009F0ACFC07F074F909F030F883B25B00E0
:103A30002B439BB2E8E72B4BE6E7022D00D068E76B
:103A4000214B984207DC800083B2002C00DB60E74A
:103A5000802252017BE71D4A90420EDC09F0D2FF22
:103A6000174909F08BFC07F053F909F00FF801230F
:103A700080B2800003439BB2E7E71B4A90420CD818
:103A800009F0C0FF124909F079FC07F041F908F08C
:103A9000FDFF83B29B002B43EDE7144A90420CD804
:103AA00009F0B0FF0C4909F069FC07F031F908F0A2
:103AB000EDFF83B29B003343DDE70D4BC5E7C04606
:103AC000CDCCCC3DF5040000E70300000F2700003B
:103AD0000AD7233C17F001006F12833AFF01000060
:103AE000FF270000FF0700009F860100FF9F0F00D7
:103AF000FF0F0000F7B509AB1D880AAB1B78170054
:103B000004000422080000210193FFF731FE022285
:103B1000060004213800FFF72BFE022206430E2187
:103B20000198FFF725FE204A204B0643A65001923C
:103B30001F4F9D4230DDE353E15B01230222200051
:103B4000FFF7D4FE08220621FFF712FE019B064371
:103B5000E65064210B9808F015FE8621154BC9002C
:103B600098421FDC6050144B62589A4200DA63504E
:103B7000022361581A002000FFF7B8FE0F4B0922FC
:103B8000E0501621FFF7F4FD019B0643E650872322
:103B90000122DB00E254F7BD0A21280008F068FD8D
:103BA000E053C9E76350DEE73C040000F604000080
:103BB0002C04000018F00100E80FFEFF34040000A0
:103BC000F8B50400081C151C1E1C07F0A1F809F02C
:103BD000A9FE0223010003222000FFF787FE204BED
:103BE0000C22E0520021FFF7C3FD1E490700281CEC
:103BF00009F0C4FB07F08CF809F094FE02230100E1
:103C000003222000FFF772FE0C22174B05B21100B1
:103C1000E5522800FFF7ACFD94223843D200002D76
:103C20001ADBA050301C0BF0DBFC104A104B0AF0E2
:103C300073FE0BF027FC8B2300B2DB00E05207225F
:103C40001921FFF795FD9423DB00E2581043012270
:103C5000E050084BE254F8BD80235B041843E0E7D2
:103C6000540400000000204156040000BEA4315A54
:103C70004755D53F9C040000F7B5161C9722040059
:103C80001F1C0023D200A350081C364909F076FB04
:103C90009523DB00E050051C3249301C09F06EFB17
:103CA000314B3049E050061C381C09F067FB962365
:103CB000DB00E050071C0021281C08F09FFE2A4B67
:103CC0000193002804D0802397225B00D200A350E8
:103CD000281C07F01DF809F025FE0123010002222F
:103CE0002000FFF703FE050009F08CFE9523DB00A2
:103CF000E050082200212800FFF73AFD9723DB005F
:103D0000E3580500301C019307F002F809F00AFEA1
:103D10000123010002222000FFF7E8FD060009F060
:103D200071FE114B0822E05009213000FFF720FD01
:103D3000FC21019B89050543381C1D4309F01EFB2E
:103D40009623DB00E05008F0A1FE0B221121FFF7C3
:103D50000FFD972301220543DB00E550034BE2549E
:103D6000F7BDC04600002041AC040000B4040000D0
:103D7000F8B50500081C17491E1C171C09F0FEFAAF
:103D800008F084FE09220021FFF7F2FC114904002B
:103D9000381C09F0F3FA09F0C5FD09F0E3FD09F05C
:103DA000C1FD0123010002222800FFF79FFD0A4BFD
:103DB0000822E8520921FFF7DBFC0443301C08F01D
:103DC00065FE0F221121FFF7D3FC89232043DB007E
:103DD000E850F8BD000020414404000010B5040084
:103DE000FFF7C6FF0122024BE050024BE25410BD28
:103DF0004C04000046040000F8B504001F1C214BD1
:103E0000081CE2522049160009F0B8FA06F080FFBB
:103E100009F088FD0123010002222000FFF766FD62
:103E2000050009F0EFFD194B0822E05000212800A1
:103E3000FFF79EFC0722050008213000FFF798FCE1
:103E400011490543381C09F099FA06F061FF09F0A1
:103E500069FD0223010003222000FFF747FD060051
:103E600009F0D0FDA923DB00E0500C2230000F2127
:103E7000FFF77EFCAA2301220543DB00E550103B3F
:103E8000E254F8BD4C05000000002041440500004C
:103E90008A1892B210B2002803DA6932FF3210B2E7
:103EA00070476823FF339842FADD693AFF3AF6E734
:103EB000F0B5070085B0180001920E0009F052FD20
:103EC000924909F06BF8924B041CF8500A9809F0DB
:103ED00049FD8E4909F062F88C23DB00F850051C7F
:103EE000300009F03FFD894909F058F8894B061C5C
:103EF000F850019809F036FD844909F04FF88D23F8
:103F0000DB00F850844909F049F80BF069FB834A5B
:103F1000834B0AF001FD0BF0B5FB8E23DB00F8505C
:103F200001907D49301C09F039F80BF059FB7B4AB0
:103F30007B4B0AF0F1FC0BF0A5FB7A4B061CF8500A
:103F40007549281C09F02AF80BF04AFB734A744B98
:103F50000AF0E2FC0BF096FB8F23DB00F850051C07
:103F60006D49201C09F01AF80BF03AFB6B4A6C4BB8
:103F70000AF0D2FC0BF086FB6B4B0199F850041C45
:103F8000281C09F01BFB051C06F0E6FE0290201C15
:103F900006F080FE0190301C06F07CFE0390201C91
:103FA00006F0DAFE041C301C06F0D6FE061C281CA7
:103FB00006F070FE211C051C039809F0DFF9311C86
:103FC000041C019809F0DAF9291C09F0D7F9011C41
:103FD000201C09F0F3FA0199041C029809F0CEF9AB
:103FE000211C06F04BFF514C4B49385109F0C6F9E2
:103FF0000BF0F6FA4A4B494A0AF05AF80BF042FB2A
:104000000021061C08F0FAFC464B02940193464D31
:10401000474C002800D072E03E51385909F082FC2C
:10402000B42201B252423800FFF732FF09F09AFC85
:104030009123DB00F8503B4B7E59FB58301C191C78
:10404000019309F0BBFA3B4B041CF8501C3BF95898
:104050000833F85809F0B2FA9223FC21DB00F8503B
:10406000051C8905201C09F089F906F075FEFC2164
:10407000041C8905281C09F081F906F06DFE051C59
:10408000019806F007FE0190301C06F003FE291C83
:10409000061C281C09F072F9019909F06FF9311C0E
:1040A00009F06CF9211C051C201C09F067F9011CA2
:1040B000281C08F0E1FD029BF85006F04BFF06F0CB
:1040C00089FE011C08F0D8FD9023DB00F8501A4946
:1040D00009F054F9194B041CF8500B9809F042FCF4
:1040E000174908F05BFF9323DB00F850103B021CDC
:1040F000FB58211C3800FFF763FD05B0F0BD1149E6
:10410000301C08F0B9FD385187E7C0468096184B3F
:104110005C0400006404000000003443182D445483
:10412000FB2109406C040000740400007C040000C2
:10413000840400008C040000706DC24A94040000E6
:1041400000007A440000B44310B5080009F00AFCEE
:10415000074906F097FE0021041C08F04FFC0028D8
:1041600004D0201C024908F087FD041C201C10BD4F
:104170000000B443F7B5019108A980C904000020EC
:10418000085EA7210025C9006550314E314DA2536C
:10419000635109F0E7FBA523DB00E050391C09F06F
:1041A0000DFA09F0BFFB01B22000FFF7CDFF09F0C7
:1041B000B9FB2D21284B294FE0500433E150163034
:1041C00008F0E0FA0095074004D50820013F40427E
:1041D00007430137224B0198E7540A220021FFF7D9
:1041E000C7FAA723DB00E358A15B01930500022374
:1041F00003222000FFF77AFB0C220A21A053FFF7CD
:10420000B7FA019B05431D43009BE05806F080FD73
:1042100009F088FB012301001A002000FFF766FB6C
:10422000060009F0EFFB009B0622E050162130004B
:10423000FFF79EFA032205431D213800FFF798FA85
:10424000A72301220543DB00E550183BE254F7BDEC
:1042500022050000240500002C0500000700008056
:104260003405000030B580250A4C6D00025B002348
:10427000AA420DD08023DB00C35A9B18FF2B01D923
:10428000013BFF3B9BB29B001950012301320253BB
:10429000180030BD02040000F8B500238027040098
:1042A0000E001500C3607F0000223178E3680B43E5
:1042B000032A15D1E3600B00581E83410132F61822
:1042C000042AF2D1144B00290CD0E35ABB4204D08B
:1042D0002000E1681030FFF7C5FF0023E360E3E74B
:1042E0001B02E7E7802280206905120411400002CA
:1042F000AA0302401143E268ED011143FF22E35A91
:10430000154029430132E160934203D02000103070
:10431000FFF7A8FFF8BDC0461204000010B5040066
:104320002934227800230A2A0DD0030028331B7871
:104330009B18092B01D90A3B9BB2DBB29B00195099
:10434000012301322270180010BD000070B5040076
:104350001600080018220021FFF70AFA05001821AC
:1043600004223000FFF704FA2900094B0143E15011
:10437000084BE35C0A2B05D09C23DB00E018FFF719
:10438000CDFF70BD0449054803F08AFEF9E7C04639
:10439000DC04000009050000A01D0100FC22002033
:1043A00010B50122FFF7D2FF10BD10B50422FFF7B0
:1043B000CDFF10BD10B50522FFF7C8FF10BD10B529
:1043C0000622FFF7C3FF10BD70B50C4E0200845BE0
:1043D0000020844211D08025ED00535B013C980001
:1043E00080580133086080219BB253534900945395
:1043F00001208B4201D10023535370BD0204000001
:1044000010B504000300002029342278824211D024
:104410001A00283210788000C35801200B601378EE
:104420000133DBB213702178013921700A2B01D1DD
:104430000023137010BD0000F0B589B001911E007B
:104440000379040093423AD1C379069343790793E1
:10445000012303930293A3790493012B00D06EE010
:10446000039B05936779012F2BD0002F03D0022FD8
:104470003CD0002508E0A3683D009E4204D9A24B31
:10448000E35A002B00D024E163790133DBB2022B25
:1044900050D863716379079A93424DD0039B002DE6
:1044A0004BD1002BDED10023A371059B0393002D7C
:1044B00005D1029B002BCED1039B002BCBD109B0A1
:1044C000F0BD9922D200A55C002DDDD08F490023DC
:1044D000605886422CD9300032306050A3548C4B47
:1044E0008C49E258019800F078F9CDE79A23DB0077
:1044F000E35800259E42C7D9874BE35CAB42C3D04B
:10450000864FE3575A1CE255022B07DD9B23DB0045
:10451000E1180833E018FFF773FFE5559A223300DE
:10452000D2000A33A3509B23DB00E2587C49E5E02C
:104530001D00A9E70023ACE700230593B3E7029F22
:10454000E079002507281BD808F07EF8043044578E
:104550006B7E92A68422D200A55C002D10D07149FA
:1045600000236058864200D8ABE03000F530FF30C1
:104570006050A3546C4B6D49E258019800F02DF93E
:10458000E3790133DBB2072B00D99CE0E371E379D7
:10459000069A934200D198E0002D00D097E0029B4C
:1045A000002BCDD101230297A37180E78722D2008F
:1045B000A55C002DE4D08521C90060580023864207
:1045C0007FD9FA20800030186050A354584B5949C5
:1045D000E258D2E7584AA55C002DD1D08821C90005
:1045E0006058002386426CD9FA2080003018605051
:1045F000A354524B5249E258BFE7524AA55C002DE2
:10460000BED08A21C90060580023864259D93000A3
:10461000F530FF306050A3549423DB00E2584A4940
:10462000ABE74A4AA55C002DAAD04949002360584F
:10463000864246D93000F530FF306050A3549723AE
:10464000DB00E258434998E7434AA55C002D97D028
:10465000A221C90060580023864232D9FA20800086
:1046600030186050A354A323DB00E2583B4984E791
:10467000A822D200A55C002D82D0394900236058C1
:1046800086421ED93000F530FF306050A354AA2373
:10469000DB00E258334970E7A422D200A55C002D6C
:1046A00000D16DE7304900236058864209D9FA20CD
:1046B000800030186050A354A723DB00E2582B4938
:1046C0005BE71D005CE7002360E700276AE7029FC5
:1046D00068E78325ED0063575A1C6255012B06DD00
:1046E0002000234B1030E118FFF76EFE67553300B2
:1046F000A0210A33A3601E4BC901E258019800F0C3
:104700006CF8049DC0E6C04612040000BC04000022
:10471000CC04000006500000090500000C05000054
:10472000075000001C040000240400000150000099
:104730003C04000002500000460400004C0400004D
:10474000035000009C04000004500000B40400006A
:10475000A4040000055000001405000008500000EB
:104760003C050000F25000001C050000095000004C
:1047700014040000002343600360704700230160BD
:104780000381704770B5040000680D00002811D047
:1047900003681B687E290ED17D2198475E21206821
:1047A00003681B6898472189491989B20B12C918F7
:1047B000C9B2218170BD7D29F4D1984720685D215F
:1047C00003681B68EEE7018910B5C943C9B204004C
:1047D000FFF7D8FF0023238110BD37B56B460400D7
:1047E000006800929D1DD98000282BD003F088FD21
:1047F00010212000FFF7C6FF29782000FFF7C2FF35
:1048000069782000FFF7BEFF6B4620001978FFF79C
:10481000B9FF6B4620005978FFF7B4FF6B462000C4
:104820009978FFF7AFFF6B462000D978FFF7AAFF12
:104830002000FFF7C8FF20680368DB6898472068FE
:1048400003F059FD37BD37B56B46040000689D1D68
:10485000D980002820D003F053FD00212000FFF76D
:1048600091FF29782000FFF78DFF69782000FFF77E
:1048700089FF0525013D002D04D000212000FFF710
:1048800081FFF7E72000FFF79EFF20680368DB68E1
:104890009847206803F02FFD37BD10B50400703035
:1048A000FFF768FF0022231D2000DA6710BD10B556
:1048B0004360029B02608360039B0200C360049B11
:1048C0007C320361059B4361069B8361079BC36147
:1048D000089B0362099B43620A9B83620B9BC36232
:1048E0000C9B03630D9B43630E9B83630F9BC3630E
:1048F000109B0364119B4364129B8364139BC364EA
:10490000149B0365159B4365169B8365179BC365C5
:10491000189B0366199B43661A9B83661B9BC366A1
:104920000023137013781B2B05DC9C002458002CEB
:1049300001D00133F5E77030FFF720FF10BD036FA2
:10494000F7B50400002B2ED003F02EFB231DDB6FE8
:104950000190002B27D1206F03681B69984700281E
:1049600021D0206FFF2603685B69984723007D33C1
:104970001A78C0B27E2A00D106001870FF2E12D01D
:10498000002523007C331B789D420CDA2100AB000C
:1049900018593200036870311B6801351F00019BF4
:1049A000B847EDB2EDE7F7BD020000234D320370CA
:1049B00043704360836003734373837313704032A7
:1049C0001370D3709371D3711372704710B50023B5
:1049D000020004000021036557326034A24202D075
:1049E00011700132FAE701000400002262316C34D8
:1049F000A14202D00A700131FAE704002A21613491
:104A0000026742672173E17721700C342275627569
:104A100002000832D3678032136011718367C36765
:104A200010BD0000F8B5056D040005617B49281C28
:104A300008F0B4FA08F02AF879490600281C08F0B2
:104A4000ADFA071C6420704308F0DCFF011C381C21
:104A500008F0B4FD08F01AF807007248704308F037
:104A6000D1FF011C281C08F0A9FD051C6420784317
:104A700008F0C8FF011C281C08F0A0FD08F006F88B
:104A80002300210020756775A675173320318B42EE
:104A900005D01A00403212781A700133F7E723006C
:104AA000210022332C31994205D01A00403212786D
:104AB0001A700133F7E7250057352B78002B21D0EA
:104AC000002326000A27584823636036AE4212D0DE
:104AD00029782E290DD00B00303BDBB2392901DDBE
:104AE0003739CBB24343226B3900D318236307F025
:104AF00049FE0135EAE7230061331B78532B02D1CD
:104B0000236B5B422363266B4849300007F03AFE73
:104B100008F028FF051C300008F024FF3F4908F08A
:104B20003DFA3F49061C281C08F028FC011C301CDB
:104B300008F044FD3E4908F031FA291C08F09CF8C1
:104B40002500A06362352B78002B21D0002326009E
:104B50000A27384863636C36AE4212D029782E2972
:104B60000DD00B00303BDBB2392901DD3739CBB238
:104B70004343626B3900D318636307F003FE0135CA
:104B8000EAE723006D331B78572B02D1636B5B423E
:104B90006363666B2549300007F0F4FD08F0E2FE20
:104BA000051C300008F0DEFE1C4908F0F7F91C492E
:104BB000061C281C08F0E2FB011C301C08F0FEFC5F
:104BC0001B4908F0EBF9291C08F056F82200E063B5
:104BD00061321278A31CDA7722006D3212782B33FF
:104BE0001A70220080321278DA7422008132127830
:104BF0001A752200823212785A75253BDB6F22002B
:104C00006364230088331B688C32A364230012780A
:104C10004C331A7001234D342370F8BD00401C46FC
:104C20000000C842102700008096980040420F0004
:104C30000000704200E1F50570B50400A360230098
:104C40001500002296264D3361601A700B68B6017C
:104C5000DB69080031009847FA20800003F0AAF9C8
:104C60001E49606803F01CFAFA20800003F0A2F9E4
:104C700096231B029D422DD00DD8B54225D09623F8
:104C80001749DB019D420FD02000FFF79FFE200057
:104C9000FFF7C8FE70BDE1231B029D421CD0E1233B
:104CA00010495B029D42EFD1606803F0F9F9FA20E8
:104CB000800003F07FF9606803685B6A984760686A
:104CC00029000368DB699847DEE7FA20800003F0DB
:104CD00071F9D9E70449E7E70449E5E7DC1D01007C
:104CE0000E1E0100441E0100201E0100321E0100A4
:104CF00002000D2902D00120242908D1110092318F
:104D00000B78FF2B01D001330B700020107370471C
:104D1000F7B50400606803681B69984703005A1ED2
:104D200093412370002870D0606803685B699847DE
:104D3000C1B20200207B61700F2832D807F08EFCD0
:104D400010001E003F00660071008C00A700C1002B
:104D5000DC00020135019701F1010D022502360246
:104D600024294FD122000023903263732000137056
:104D7000D370FFF72BFE0123237343E02200607BF7
:104D800093320130C0B26073137801384B40137016
:104D9000052806D807F058FC030703030A0D472926
:104DA000E9D00023E8E75029FBD1E4E74129F8D115
:104DB000E1E72C29F5D1002363730233DCE7637B41
:104DC000200001336373FFF793FF00281AD02200FD
:104DD0009332657813786B40137003232E2DCBD05C
:104DE000BF49206D08F0CAFA061C28003038C0B24E
:104DF000392D01DD373DE8B208F0B4FD311C07F074
:104E00003BFF20652378002B84D1F7BD220093322D
:104E100013784B4013702C29F4D1002363730433AF
:104E2000AAE7637B200001336373FFF761FF00286B
:104E3000E8D02100933162780B7853400B702C2A14
:104E400003D100236373053396E7637B092BD9DC19
:104E5000E31856331A70D5E7637B20000133637380
:104E6000FFF746FF0028CDD02100933163780A7800
:104E70005A400A702C2B03D10023637306337BE75F
:104E8000627B012ABED1220061321370BAE7637BD4
:104E9000200001336373FFF72BFF0028B2D02100FD
:104EA000933162780B7853400B702C2A03D1002386
:104EB0006373073360E7637B0A2BA3DCE31861337A
:104EC000C8E7637B200001336373FFF711FF0028FD
:104ED00098D02100933163780A785A400A702C2BBD
:104EE00003D100236373083346E7627B012A00D0B5
:104EF00088E722006D32C8E7637B200001336373CB
:104F0000FFF7F6FE002800D17CE72100933163789B
:104F10000A785A400A702C2B03D10023637309339B
:104F20002AE7627B012A00D06CE7220080321370EE
:104F30001A00303AD2B2392B01DD373BDAB2230006
:104F4000813387E7637B200001336373FFF7D0FE73
:104F5000002800D156E72100933163780A785A403F
:104F60000A702C2B06D12200002395326373137034
:104F70000A3301E72100627B8231012A08D11A003D
:104F8000303AD2B2392B01DD373BDAB20A7039E759
:104F90000A220878424318003038D2B2C0B2392B06
:104FA00001DD373BD8B21218F0E7637B20000133F4
:104FB0006373FFF79DFE002800D123E722009332A0
:104FC000657813786B4013702C2D04D10023637324
:104FD00093700B33D0E62E2D03D123000A22953394
:104FE00038E72D2D04D123003E4A0833DA6709E75C
:104FF0002300953300931E78002E14D12600083626
:105000003749F06F08F0BAF9071C28003038C0B2F1
:10501000392D01DD373DE8B208F0A4FC391C07F05A
:105020002BFEF067EEE6642E00DDEBE6270028009D
:105030000837FB6F30380193C0B2392D01DD373DA1
:10504000E8B208F0DFFC051C300008F0DBFC011CB6
:10505000281C07F0A3FF019907F00EFEF867642EE5
:1050600000D1CFE60A235E43009B1E70CAE6637B35
:10507000200001336373FFF73BFE002800D1C1E637
:1050800022009332657813786B4013702C2D03D176
:10509000002363730C336FE62E2D9ED02D2D04D18B
:1050A0002300104A88331A60ACE62300953300933E
:1050B0001E78002E18D1260088360949306808F07D
:1050C0005DF9071C28003038C0B2392D01DD373DAD
:1050D000E8B208F047FC391C07F0CEFD306091E6DD
:1050E00000002041000080BF642E00DD8AE627001A
:1050F000280088373B6830380193C0B2392D01DD74
:10510000373DE8B208F07EFC051C300008F07AFC60
:10511000011C281C07F042FF019907F0ADFD386023
:105120009DE7637B200001336373FFF7E1FD0028F7
:1051300000D167E62100933163780A785A400A70FB
:105140002C2B03D1002363730D3315E6627B012AF8
:1051500000D057E622008C3297E6637B20000133B3
:105160006373FFF7C5FD002800D14BE663782A2B57
:1051700006D1220000239432637313700E33FBE5D3
:105180002200933211784B407FE6FF231A400B0038
:10519000303BDBB2392A01DD3739CBB22200943201
:1051A00011781B01CB1813700F23E5E5FF231A407C
:1051B0000B00303BDBB2392A01DD3739CBB222009C
:1051C0009432117859182300C9B2117093331B78A7
:1051D0008B4203D12000FFF725FCE2E5220091324B
:1051E0001378FF2B00D1DCE501331370D9E5C046FD
:1051F0004D300078704710B5006907F047FC10BDCE
:10520000006B7047406B7047413000787047423008
:1052100000787047406C704710B50C886040C2B28F
:1052200010015040C0B2C200030253402412634038
:1052300000115840088010BD70B506000500084BED
:10524000DD360360074BFF36C418B44205D0803CFE
:10525000236820005B689847F7E7280070BDC046C8
:10526000DC220100DC10000010B50400503005F015
:1052700081FA2000383005F07DFA2000203005F05A
:1052800079FA200010BD0000FE23F0B585B08370D0
:105290006B4600911B780192C37000231A4A437138
:1052A00083719379050003710133937102AB9F1DE4
:1052B000012304005B423B80C61C0835AE4205D08A
:1052C00030783900FFF7A8FF0136F7E72E003B885A
:1052D000E7782380EF19BE4205D030782100FFF730
:1052E0009BFF0136F7E701982100FFF795FFE37870
:1052F00022880098EA54E3780830ED1823881B12BE
:105300006B7005B0F0BDC046B01B0020F0B5D94CA5
:10531000C3B0200000F07EFFE121D748490203F02E
:105320007BFAD648FCF706FF0700200000F04AFF92
:10533000D3483BAC436922000169FEF78FF8D14B9B
:105340001900643125CC25C125CC25C122680A600D
:105350001A0064321278002A2BD13C219966D96652
:1053600096218900196719000A2074310870190004
:105370003730753108701900013076310870190026
:105380000130773108701900013078310870190048
:10539000013079310870190001307A310870190034
:1053A00001307B310870190001307C317D33087089
:1053B0001A70B54935A804F0FEFBB24D31AC290096
:1053C0002000753104F0F7FB210035A804F0C1FC82
:1053D00001001CA804F032FC200004F0A4FB35A856
:1053E00004F0A1FBA34E300000F086FEA74935A8CB
:1053F00004F0E1FB0A223900200004F065FC2100E2
:1054000035A804F0A6FC01001FA804F017FC20003A
:1054100004F089FB35A804F086FB9D49200004F0C8
:10542000CAFB286808F07EFA0A2201002EA804F0C0
:1054300039FC2EA9200004F08CFC964904F096FC5F
:105440002F681B90381C08F06DFA08F08BFA011CCD
:10545000381C08F0B3F8904907F090FF08F062FAA2
:105460000A22010035A804F01DFC35A91B9804F0A0
:1054700070FC8A4904F07AFC010022A804F0DEFBEB
:1054800035A804F050FB2EA804F04DFB200004F0DA
:105490004AFB300000F0BDFDE12103684902DB69F1
:1054A00098477F4935A804F086FBE1210A2249028A
:1054B000200004F0F7FB210035A804F04AFC0100AD
:1054C00025A804F0BBFB200004F02DFB35A804F058
:1054D0002AFB2B6A73491A0E22701A0C6270E37051
:1054E0001A0AAB6AA2701A0E22711A0C6271E37169
:1054F0001A0A2B6BA2711A0E22721A0C6272E372D4
:105500001A0AAB6BA2721A0E22731A0C62732EA8BF
:105510001A0AE373A27304F04EFB1022210035A88F
:1055200001F0A6FF35992BA804F045FB2BA92EA866
:1055300004F00FFC5C4904F019FC010028A804F0F9
:105540007DFB2BA804F0EFFA35A805F013F92EA87F
:1055500004F0E9FA300000F05AFD2A000100534837
:1055600001F030FE300000F056FD0024504F0100E5
:105570003B00504A0294019400944F4819941894A7
:1055800017941694159414941394129411941094DF
:105590000F940E940D940C940B940A94099408940F
:1055A00007940694059404940394FFF780F930005F
:1055B00000F02FFD3B003F4A0100404800F063FF30
:1055C000012002F01FFC30002C7300F06DFD300054
:1055D00000F08AFD300000F027FD2861300000F067
:1055E0003FFD6861300000F04DFD234EA86122A907
:1055F000300002F04BFD1FA9300002F047FD28A942
:10560000300002F043FD1CA9300002F03FFD25A947
:10561000300002F03BFD229938000722FEF73CFEE5
:10562000289938000722FEF737FE1C993800072218
:10563000FEF732FE072225993800FEF72DFE2900DD
:105640001F4802F037FA22001E490C48FCF7B6FD4D
:1056500028A804F068FA25A804F065FA22A804F046
:1056600062FA1FA804F05FFA1CA804F05CFA43B0C9
:10567000F0BDC046601C0020FC220020BC020020BF
:10568000481C0020301B0020462101005B21010046
:1056900071210100442101000000C8428A2101005B
:1056A0008D210100A0210100A8210100540A002041
:1056B0001C030020C002002070080020F408002015
:1056C000E01B00208813000070B5184D280001F081
:1056D000D8FD174C200000F046FD200000F053FDDF
:1056E000144B9B680A2B16D9134E300003F088FB2D
:1056F0000423124A11690B4313610222104B1968EB
:1057000091431960BFF34F8F30BF196830000A43CF
:105710001A6003F037FB200000F044FD200000F089
:105720002AFD280001F0B5FD70BDC046540A0020D6
:10573000601C0020301B00201823002000ED00E03A
:1057400010E000E0F0B585B04F4C6379002B00D13C
:1057500098E04E48FCF7E4FC4D4D63792800013B8E
:10576000637100F061FC2061280000F079FC606149
:10577000280000F087FCA061061C606909F030FF7A
:10578000444A454B07F00AF9002806D08021301C16
:10579000C90507F03DF9002804D123003E331B78EA
:1057A000002B1AD022003D321378FF2B01D0013399
:1057B0001370280000F0B0FC002843D022004232D1
:1057C00013780133DBB21370022B09D1280000F0EB
:1057D00093FC2300433301220AE022003D32E7E735
:1057E000032B06DD280000F08FFC2300002243334A
:1057F0001A70A368052B07D9230043331B78002BAD
:1058000002D1280000F080FC280000F00AFCFFF71D
:10581000EFFC002898D060342378002B94D11F49E6
:1058200001A804F0C8F9072201991D48FEF734FDCC
:1058300001A91C4802F02AFC012301A8237004F0EE
:1058400072F981E7230043331B78002B16D00A2618
:105850003227280000F058FC380002F0ABFB28008B
:1058600000F04AFC013E380002F0A4FB002EF0D10B
:10587000230043331E7023004433ACE7220042323E
:105880001370B6E705B0F0BD301B0020BC0200204D
:10589000601C002033333333333311409D1E01002D
:1058A0001C030020FC220020F0B5404C1500A5444C
:1058B0000F1C1C0009F094FE00223D4B09F02CF84F
:1058C00009F0E0FD0600381C09F08AFE0022384B82
:1058D00009F022F809F0D6FD042D61DDE123DB009B
:1058E000002202AD5119A55C0132CD76092AF8D10A
:1058F000002403A950ADCC772E492B833E23509131
:105900003121A860FF3302A81B18E9822339D97717
:105910009F231B215B001B180918DC770300542010
:10592000FF30C0186E60EC602C826C82AC82AC766A
:1059300009F0DCFF262229000EA809F0D7FFF62384
:105940000CAEB82226213000F371FFF79DFCF379ED
:10595000194AF178D25C3000FFF796FC80222100D2
:105960009200280009F0DDFF2A21F37828009F1D0E
:10597000019302AB3A00C91809F0B8FF3388EF1958
:10598000019E3B701B127B700836B4420ADA0B484A
:1059900000F03FFB0368295D1B6898470134F4E77A
:1059A000074B9DE7D1239B009D44F0BDBCFCFFFF4E
:1059B000D0126341FFCA000000200100601C0020DB
:1059C000141E0000F0B55F4C8DB023007433A27933
:1059D0001B789A4200DA9AE00023A37123003C333B
:1059E0001B78002B00D090E0574906A804F0E3F89C
:1059F0000222216909A804F079F909A906A804F08E
:105A0000A8F9524904F0B2F9514C0100200002F00B
:105A100029FB09A804F087F806A804F084F84D488B
:105A200000F09FFB4C49012800D04C49200002F0B7
:105A300020FB4B49684604F0BEF8464D280000F0B4
:105A40006BFB0A22010003A804F02CF903A96846A5
:105A500004F07FF9434E310004F088F9394C070017
:105A60002300423319780A2206A804F00AF906A98D
:105A7000380004F06EF9310004F078F923000600D4
:105A800043330A22197809A804F00CF909A9300057
:105A900004F05FF901002E4802F0F8FA09A804F0BA
:105AA00042F806A804F03FF803A804F03CF8684662
:105AB00004F039F8280000F0B4FAFFF79CFBA0646A
:105AC000280000F0AEFAFFF79BFBE064280000F02E
:105AD000A8FAFFF797FB2065280000F0A2FAFFF76D
:105AE00096FB230054331870280000F09AFAFFF751
:105AF0008BFB230055331870280000F092FAFFF753
:105B000089FBA065184801F078FB0DB0F0BD164880
:105B100001F0B4FB0600333633780500002BF4D0D7
:105B20000700323701003A781048FEF7B5FB230032
:105B30003A787533A96B686BFFF7B6FE00233370B4
:105B4000E3E7C046301B0020571E0100741E010011
:105B5000FC220020601C0020771E0100821E010034
:105B60008D1E01009B1E0100540A00201C03002012
:105B7000F0B589B0FFF7E6FD6E4D280000F051FA50
:105B8000FFF7C6F86C4800F0D8FF6C4800F030FD15
:105B9000FFF718FF6A4802F069F86A4C00281BD02A
:105BA00069496A4802F07CFA23000122643301AE9D
:105BB0001A70320083CB83C283CB83C21B68644FCD
:105BC00013607A6939693800FDF736FC7B69320069
:105BD00039693800FDF7E0FB230044331B78002BC4
:105BE00001D005232373207B052830D806F02CFD37
:105BF00099030F21537E23003D331B78022B02DDD6
:105C000002232373B6E75348FEF799FEB2E7230059
:105C10003D331B78002B01D10133F2E7A26E934292
:105C2000F1D9280000F060FA0022A31CDA870323D0
:105C3000E7E7606909F0D4FC474A484B06F0B8FE34
:105C4000002806D023003E331B78002B01D100230F
:105C5000D7E74349206906F0DBFE061E01D0052385
:105C6000CFE7FFF731FDA21CD38FE16E01339BB26A
:105C7000D3878B4200D87DE7FA20C000D68702F098
:105C800099F9280000F0CDF9FFF742F8280000F05C
:105C900023FA0423B5E7606909F0A2FC2E4A2F4BD2
:105CA00006F086FE002806D18021A069C90506F00D
:105CB000B9FE002804D023003E331B78002BC6D049
:105CC0002749206906F0A4FE061EC8D1FFF7FCFC98
:105CD000A21CD38F216F01339BB2D3878B4200D894
:105CE00048E72800D68700F0EFF9A0E7280000F089
:105CF000E3F91C49154802F0D3F93224280000F0DA
:105D000020FA280000F0F8F9200002F053F92800EA
:105D100000F01FFA280000F0F7F9200002F04AF91D
:105D2000ECE7280000F0D0F9220000233D32637137
:105D3000137071E7601C0020540A0020F408002052
:105D4000E01B0020301B002000210100FC2200206D
:105D5000481C0020700800203333333333331140A4
:105D6000000040401821010010B5034800F055F92B
:105D700002F0E5FB10BDC046601C002010B50348D2
:105D800000F049F902F0DBFB10BDC046601C0020AA
:105D900010B5034800F043F902F0D1FB10BDC04636
:105DA000601C002010B5034800F033F902F0C7FB77
:105DB00010BDC046601C002070B51C223749384811
:105DC000FDF7D2FA374C200000F0B0F8364D3749D5
:105DD0002A00200004F038FB8022354BD205002435
:105DE0001A600B2233491A715C719C719C60D961F5
:105DF00009680022196230491A61596209685A61BA
:105E000099622E499A61D96209681C7319632C49F9
:105E1000596309689C64996319003C310C7019003E
:105E20003D310C7019003E310C70991CCC87190063
:105E300042310C70190043310C70190044310C7060
:105E400019005431DC641C650C70190055319A65D9
:105E5000DA650C70603383211A481C70FDF7F4FB7F
:105E60001B211948FDF794FC21001848FEF715FD89
:105E7000174800F0F3FA174C200001F063F92A00EC
:105E80001549200004F0E0FA144C200001F0FDFD5B
:105E90002A001349200004F0D7FA70BD001F01004A
:105EA000481C0020601C002000000020E55E00006F
:105EB000301B00200CA0800040A0800044A0800087
:105EC00048A08000C00200201C03002070080020B1
:105ED000F4080020540A002039520000E01B002082
:105EE0006952000010B504006830FCF70BFC20007C
:105EF00010BD000010B5040003F068FD2000012172
:105F000003F018FD18206043064A815612185368A2
:105F1000C9015B180221044A9B181A788A431A7037
:105F200010BDC046AC2501004044004170B50025BD
:105F30000400056045608560C56005611430FCF7AC
:105F4000E7F92000F430FEF72FFDC62301225B00A5
:105F5000E25009320433E250023A0433E250013293
:105F60000433E25008320433E2500F320433E2507B
:105F70001C3A0433E25001320433E2501432043349
:105F8000E2500433E550063A0433E250033A043356
:105F9000E2500E3A0433E25004320433E25001324C
:105FA0000433E25007320433E250013A0433E25042
:105FB00007320433E25009320433E250123A043318
:105FC000E25001320433E25009320433E250053228
:105FD0000433E25004320433E2500F3A0433E25007
:105FE0000C3A0433E2501C320433E2500D3A0433CD
:105FF000E2500F320433E250093A0433E2500332E4
:106000000433E250013204332000E25070BD1430FA
:106010007047C06870478068704740687047006983
:106020007047F43070470000DC235B0010B5C058A7
:1060300003F01AFC07F0E6FC09F0D2FA054A064B19
:1060400008F06AFC0022054B08F066FC09F01AFB18
:1060500010BDC046CDCCCCCCCCCC16400000503FBF
:10606000DA235B0010B5C05803F0FEFB07F0CAFC52
:10607000034907F083F9EA21890507F07FF910BD8C
:1060800000003041F6235B0010B5C05803F0ECFB74
:1060900007F0B8FC034907F071F9EA21890507F018
:1060A0006DF910BD00004041D82310B55B000121FF
:1060B000C05803F08BFC10BDD82310B55B00002145
:1060C000C05803F083FC10BDE82310B55B0000212D
:1060D000C05803F07BFC10BDE82310B55B00012124
:1060E000C05803F073FC10BDEA2310B55B0001211A
:1060F000C05803F06BFC10BDF42310B55B00002109
:10610000C05803F063FC10BDF42310B55B000121FF
:10611000C05803F05BFC10BDF8B5F22706000A2555
:106120007F00F05903F07EFC0400012807D1022013
:10613000013D01F03FFF002DF3D12000F8BD00200C
:10614000FCE7F02310B55B000121C05803F03EFCD2
:1061500010BDF02310B55B000021C05803F036FCE1
:1061600010BD01207047E62310B55B000321C05825
:1061700003F0E0FB10BDE62310B55B000221C05820
:1061800003F0D8FB10BDDE235B0010B50021040036
:10619000C05803F01BFCE2235B000321E05803F02E
:1061A000C9FB10BDDE235B0010B501210400C058FF
:1061B00003F00CFCE2235B000221E05803F0BAFB81
:1061C00010BD00000221114B5A6B8A435A63DA68F2
:1061D0001205FCD50E4A5A630222596B0A435A63D0
:1061E000DA689205FCD5DA685205FCD402215A6BB4
:1061F0008A435A63DA681205FCD50822596B0A43B0
:106200005A630222596B0A435A63704700080040E0
:1062100004002700D823F0B55B0089B004000021FA
:10622000C058FFF767FEDA235B00E058002103F057
:1062300081FBDC235B00E058002103F07BFB0320A3
:1062400003F0E0FAE8235B00E0580021FFF752FE7C
:10625000EA235B00E0580121FFF74CFEDE235B00E0
:10626000E0580121FFF746FEF0235B00E0580121D2
:10627000FFF740FEC6235B00E0580021FFF73AFE1F
:10628000D2235B00E0580021FFF734FECE235B00F1
:10629000E0580121FFF72EFED0235B00E0580021DB
:1062A000FFF728FED4235B00E058002103F042FBF7
:1062B000D6235B00E058002103F03CFBF2235B0097
:1062C000E058002103F036FBF4235B00E058002186
:1062D000FFF710FEF6235B00E058002103F02AFBD5
:1062E000F8238F255B00E058AD000021FFF702FE88
:1062F000280001F09BFEFE2300275B00E258FC3BD8
:10630000D2B2FF3B0093019713004849060002F008
:10631000ABF8FC235B00E05826613900FFF7EAFD8B
:1063200080239B00E0580121FFF7E4FD81239B00BF
:10633000E0583900FFF7DEFD280001F077FEEC237E
:10634000EE22012106005B005200E358A258DBB2A6
:10635000D2B200910197364902F086F866602800B3
:1063600001F064FEE423E622012106005B005200F6
:10637000E358A25801910231DBB2D2B200912D490B
:1063800002F072F8E6602000FFF7F5FE2000FFF74C
:106390009BFE2000E122E36861681202F430FEF700
:1063A0004BFC280001F042FEE2225200A2580121DB
:1063B0000792E0266A467600127F01910231A35DC2
:1063C00000911D49050002F04FF8E1212800A56069
:1063D000090201F06BFFE2235B00E058032103F0A8
:1063E00039FB0321A05903F035FBF0235B00E35890
:1063F000D2220593CE235B00E358C6210493D02319
:106400005B00E35820000393D6235B00E35852005F
:106410000093D42349005B00143002970197E3589E
:10642000A2586158FBF790FF09B0F0BD0C2900207D
:1064300004290020102900200829002010B50C880C
:106440006040C2B210015040C0B2C20003025340CB
:106450002412634000115840088010BD70B500251B
:106460000400056045608560293029002422FF3042
:1064700009F057FA23000122FC339A64AA235B0037
:10648000E554200070BD01608260436070470B00DE
:10649000FA21FC3010B504008900180006F0E8F875
:1064A000236C1818A36C20640133A36410BD000092
:1064B000F7B504000D00FE21FC3401908905A06BA6
:1064C00006F09CFA002803D0280007F09BFAA0638E
:1064D000A06B09F085F80F4A0F4B08F01DFA060073
:1064E00028000F0009F002F80A4A0C4B08F014FAD1
:1064F00002000B003000390007F0CAFA09F0C2F8B8
:106500002900A0630198FFF7C2FFA06B06F0BEFA56
:10651000FEBDC046696FF085C954E53FC954D53FFB
:10652000F8B5A42704007F00C35D06000D00FC340D
:10653000002B05D001F038FD00230138E063F3554E
:1065400001F032FDE36BC61A01F02EFDE06330006E
:1065500007F058FA0F4906F021FD09F041F806004E
:1065600028000F0009F004F802000B003000390089
:1065700008F0D2F909F086F8074906F0FFFE07494E
:1065800006F0FCFE011CE062206B06F075FB206348
:10659000F8BDC04600BA5B4A000020410000883FB9
:1065A00070B504000D00FFF7BBFFFE21FC34890528
:1065B000606B06F023FA002803D0280007F022FAC7
:1065C00060630949606B06F0D9FE061C280007F0DD
:1065D000C9F9064906F0D2FE011C301C06F04CFB3E
:1065E000606306F053FA70BD4CA62A3FFA7EAA3EBD
:1065F000F0B5060000689BB000286AD0B368002B95
:1066000067D07368002B64D003681B699847002823
:106610005FD0306803685B699847C3B20893002372
:10662000C94C07002373E37BC84D0A2B1DD8180003
:1066300006F00AF806065172638190A4BCDCDC0007
:10664000089BFE2B00D045E2FC3BE3732B000022AD
:10665000FF331A7520216A4652181278DA742B001B
:106660000122FE3352429A74DA74227B012A09D144
:106670002B00FF335B7D6374A38A002B00D1E38280
:106680000133A3822900FF310F7DF776E37BF3739B
:10669000237C3374637C01337374A38AB382A37B3A
:1066A000F3820023A373022A00D0C8E0207C2818BC
:1066B000FF30877E437E3F023B43002033761B0A38
:1066C0007376012320730898A373FE2800D1ADE0F0
:1066D000E3731BB0F0BD20216A462B0052181278DC
:1066E000FF3329001A75002311312374FF310898F4
:1066F000FFF7A4FE0423E373B7E720216A462B00CB
:10670000521829001278FF3311315A75FF31089859
:10671000FFF794FE0323EEE720216A462B00521870
:1067200029001278FF3311319A75FF310898FFF76D
:1067300085FE0523DFE720216A462B005218290039
:106740001278FF331131DA75FF310898FFF776FEC2
:106750000623D0E720226B462F0029009B181B78C8
:10676000FF3711313B76FF310898FFF767FE3B7D1D
:10677000002B01D10823BEE70723BCE7237C20219F
:106780005A1C22746A46521829001278EB18FF33FB
:1067900011315A76FF310898FFF750FE2B00FF3376
:1067A000227C1B7D9A4200D05FE7E3E72900684B1B
:1067B000684A1B7E1131D05CFF31FFF73FFEFF229C
:1067C000634B1740597C9B7C1B020B4313409F4239
:1067D0000AD00A236A462021E373237C5218EB185F
:1067E0001278FF335A7640E70923F3E70A2B05D0E6
:1067F0002B00FF339B7CFFB29F4215D002232373F3
:1068000001236A462021E373237C5218EB18127887
:10681000FF3329009A76300088221131FF3152006F
:10682000183009F063F820E70123E8E700230B752F
:106830000123FE355B42E273AB74EB7449E7002A37
:1068400000D146E7F37F2A2B00D13EE100D989E051
:10685000162B00D1DDE023D8002B00D1B6E0012BB0
:1068600000D036E7F18D3000FFF722FE07F0CAF8BE
:10687000318E071C3000FFF793FE07F0C3F836494E
:1068800006F08CFB3500041C3449381C06F086FBEE
:10689000FC35011C2B6B221C7068FDF79FFA18E772
:1068A0001E2B00D18CE0212B00D1E4E0182B00D06E
:1068B0000FE733003C331F7801331B78708F099347
:1068C000B36A34000893336BF56A0A93B38EFC34D1
:1068D0000B9307F097F8204906F060FB03233A007A
:1068E000BF101A400A991F400B9BE065039101936A
:1068F0000095089B099970680297FDF7FBF828003E
:1069000008F0F4FD0022164B07F0D2FB08F0BAFEA7
:10691000051C089808F0EAFD0022114B07F0C8FB9F
:1069200008F0B0FE00240023011C07930693059392
:1069300004930393029301940094231C2A1CB068CF
:10694000FCF7C6FEC5E6C046AC2200206C1E002047
:106950006B1F0020AA2101000000C84200007A44F9
:10696000D01263414A2B00D199E015D82C2B00D1CD
:10697000A6E03E2B00D0ACE6AE235B00F15A3620F9
:10698000335E328F01933300FC33DB6D706800930C
:10699000336BFDF7EFFB9CE6F22B79D0FD2B52D049
:1069A000932B00D095E6330040331B78002B00D0AA
:1069B0008FE6306A340006F0D5FFFC34206388E6A9
:1069C000B26A716A7068FCF743FF82E60125731DA5
:1069D000DC7F2B001B2C02D83F4BE340DB432B42D8
:1069E00000D176E6F31DDB7F326ADB09511C009390
:1069F0000022C9B27068FCF711FFAA235B00F25CA9
:106A0000002A00D065E6F55421007068FDF7C8FC47
:106A10005FE6B222F38C5200934207D1306A06F04F
:106A200035F801007068FDF7C0FC52E6B62252004E
:106A3000934200D04DE6306A06F028F801007068F5
:106A4000FDF7B8FC45E60DAC33220021200008F02C
:106A500068FF3A1C332F00D933223100D2B22031E3
:106A6000200008F043FF252104AB2278C918706884
:106A7000FDF712FC2DE63100336BFC310193B36A54
:106A8000706800934A6D736A096DFDF711FA20E68C
:106A90003300326AFC331A65726A5A6519E630238C
:106AA000F05E06F05FFF726A031CF16A7068FDF722
:106AB000E3F8728EB36A316A7068FDF79DF908E6F3
:106AC000318C7068FDF77BFC03E6AE23328C5B00F3
:106AD000F252FEE5227BD5E56000040C074B020074
:106AE00003600100002380324360FD311370537056
:106AF0007C3213700B70CB7093607047B42201002E
:106B000010B5040041600800FBF760FC60680021DC
:106B1000FBF7A6FC0023FF34637010BD042000299E
:106B200000D00878704710B504004068FBF7DAFC25
:106B300000216068FBF794FC10BDF0B5040085B03F
:106B40004068FBF7DAFD012802D16068FBF76AFDB7
:106B50006068FBF7D7FC030CDBB2070A0390C6B2F0
:106B6000050E60680093FBF7DFFC2300FF33019301
:106B70005878FFB203280AD805F066FD02263D507A
:106B8000002E04D1009B002B01D1002D05D0002147
:106B90006068FBF765FC002708E02368002F01D040
:106BA0005B6800E09B68200098470700019B5B78CA
:106BB000BB4207D0236820001B689847019BFC3428
:106BC000A0605F7005B0F0BD002EE0D1009B002BEF
:106BD000DDD1002F01D02368E2E7002DD7D1236853
:106BE00020001B68984723000127FC339B6864330F
:106BF0009842DBD9CBE7002FC9D1002DC7D1009B2C
:106C0000002BC4D1002EC2D1236820001B689847F6
:106C10002300FC339B6802376433E9E7002FB6D1C9
:106C2000002DB4D1009B002BB1D1002E05D0012145
:106C30006068FBF715FC0137B8E7236820001B6884
:106C400098472300FC339B6803276433D0E710B5D3
:106C500004002000FFF771FF2300FF335B78002B57
:106C6000F7D16068FBF72CFC10BD0000F0B5050003
:106C7000DBB04068FBF73BFC041E00D12DE20100B5
:106C80002800FFF74BFF012804D0032800D167E15B
:106C9000002022E2210038A800F084FCA64904A8C4
:106CA00002F089FF38A800F0ACFEA449012806DCF8
:106CB00038A800F0A6FEA249012800D0A14922A8C8
:106CC00002F079FF22A904A802F0C2FF22A802F074
:106CD0002AFF2C0038A800F09AFEFC34A06438A8E3
:106CE00000F099FE010007A802F065FF964916A87A
:106CF00002F061FF07A916A803F02BF8934903F0EF
:106D000035F8060038A800F029FE0622011C19A853
:106D100002F0ECFF19A9300003F01BF88C4903F0D6
:106D200025F8060038A800F041FE0622011C1CA828
:106D300002F0DCFF1CA9300003F00BF8854903F0DA
:106D400015F8060038A800F059FE0A2201001FA815
:106D500002F097FF1FA9300002F0FBFF7E4E3100CA
:106D600003F004F804A902F0F4FF310002F0FEFF82
:106D700006000222A16C22A802F0B8FF22A930006E
:106D800002F0E7FF01000AA802F058FF22A802F073
:106D9000CAFE1FA802F0C7FE1CA802F0C4FE2E0007
:106DA00019A802F0C0FE16A802F0BDFE00240936A4
:106DB000FF360C9B9C420AD8E1B20AA803F006F801
:106DC000002803D021000AA802F0EDFF3070013442
:106DD0000136322CEDD138A800F016FE9D23042296
:106DE0005B00002800D10722EA5438A82C0000F0EC
:106DF000B5FDFC34206438A800F0D8FD3C23012206
:106E0000FF3360645049EA5410A802F0D4FE07A989
:106E100010A802F09EFF4D4902F0A8FF050038A817
:106E200000F09AFD0A22010013A802F04DFF13A9F9
:106E3000280002F08EFF464D290002F097FF060061
:106E400038A800F08BFD0622011C16A802F04EFFA8
:106E500016A9300002F07DFF290002F087FF05002F
:106E600038A800F0A3FD0622011C19A802F03EFF7D
:106E700019A9280002F06DFF364D290002F076FFB7
:106E8000060038A800F0BAFD0A2201001CA802F092
:106E9000F8FE1CA9300002F05CFF2F4E310002F01A
:106EA00065FF04A902F055FF310002F05FFF060004
:106EB0000222A16C1FA802F019FF1FA9300002F0E6
:106EC00048FF290002F052FF040038A800F0A1FD9D
:106ED0000222011C22A802F009FF22A9200002F0D0
:106EE00038FF01000DA802F0A9FE22A802F01BFE47
:106EF0001FA802F018FE1CA802F015FE19A802F047
:106F000012FE16A802F00FFE13A802F00CFE10A845
:106F100002F009FE0DA9114801F0B8F80DA802F021
:106F200002FE0AA802F0FFFD07A802F0FCFD04A87B
:106F300002F0F9FDACE6C04608250100C0220100C0
:106F4000C3220100C6220100C8220100CE22010096
:106F5000D22201007F2901003B230100FC220020F6
:106F60006868FBF7C4FA2E000100FC3622A800F086
:106F700065FD316D22A88B6B00930B6B8A6A096AE1
:106F800000F060FA002800D182E64A230024FF3393
:106F9000EC5422A800F068FD032800D19FE00428EB
:106FA00000D1A1E0022800D072E6A5235B00EB5CD3
:106FB0000393A34200D06BE6A4235B00EF5CA742DF
:106FC00000D165E6013FFC012C192300E133FF33BA
:106FD0001B7838AE33712300E533FF331B68210083
:106FE0003A932300E933FF331B68F5313B932300C9
:106FF000ED33FF331B68FF313C932300F133FF3344
:107000001B683F223EA83D9308F070FC394B02A953
:1070100038938D239B00E3181B683000B3658E23E3
:107020009B00E3181B68F3658F239B00E3181B6824
:10703000336690239B00E3181A7851AB1A702E4BDD
:10704000E3181A783E23FF335B181A702B4BE318B2
:107050001A789F235B005B181A7091239B00E3183A
:107060001B68B36692239B00E3181B68F3669323A7
:107070009B00E3181A7854AB1A7094239B00E31812
:107080001B68736795239B00E3181B68B3679623FF
:107090009B00E3181A7857AB1A70194BE3181A784B
:1070A0005623FF335B181A70164BE418053B227801
:1070B000FF3B5B181A70A4235B00EF5400F0C0F98B
:1070C00003000398022B08D130006C6800F0CDF962
:1070D00001002000FBF7C8FA02205BB0F0BD0122DE
:1070E000336D44331A70D3E50122336D3E33197882
:1070F0004A40F7E7842301004102000042020000F9
:10710000590200005A02000010B500F04DFF10BDFA
:10711000F8B5A52300255B00C35C0400AB420FD18A
:10712000EC267600835DAB420AD047685130FF30D1
:1071300000F09BF901003800FBF796FAA5550235DF
:107140002800F8BD70B50400FFF7C8FC1A4B0026F4
:1071500008332360A4235B00E654230025002000AD
:107160004933FF33FC3551305E709E70FF302E6521
:1071700000F0DCFAEC235B00E65423000F4ADD3319
:107180000F49FF33A218196080339A42FBD12000C7
:10719000002609302E6531003222FF3008F0C1FB95
:1071A0009D235B00E6540023AB642B646B643C239B
:1071B000FF33E654200070BDD4220100DC10000033
:1071C0008423010070B5040016002500FFF798FC29
:1071D0002000FC3509302E6532220021FF3008F0F6
:1071E000A0FB9D2300225B00E2540023AB642B64D0
:1071F0006B643C23FF33E25470BD0300FC33196D14
:1072000030B50B0091B075330E93A42304005B00DE
:10721000E35C02250D930B7951300C930B68FF3022
:107220000B930B690A934A23FF33E35C0993CB6DFD
:1072300008938B6D079300230A7B023AD2B29542E2
:107240005B41DBB206930B0055331B7805930B00B3
:1072500054331B7804930B6D0393CB6C02938B6CAC
:1072600001938B6B00930B6B8A6A096A00F06EFACC
:10727000EC2301225B00E25411B030BD0930FF3035
:107280007047A523012210B55B00C254FFF7DFFC55
:1072900010BDA523002210B55B00C254FFF743FCCC
:1072A00010BD000073B504000D001600002901D1C7
:1072B000002A16D1731B01930F2B07D9002201A9B5
:1072C000200003F03BFA019B2060A36032002900FC
:1072D000206803F07EFA0021019B22686360D1548C
:1072E00073BD014803F0B7F83D230100294B70B589
:1072F00004000D1E03604AD00E003C363278183070
:1073000008F0F4FA2300327854331A703D22230037
:10731000AA5655331A703E22AA565A70237EA27E70
:107320002371637E12041B069B18E27E12029B18D7
:10733000227F9B18A360A27F637F12041B069B1809
:10734000E27F12029B18621CD27F9B18E360E21C52
:10735000A31CDB7FD27F1B0612049B18221DD27F49
:1073600012029B18621DD27F9B182361E21DA31D90
:10737000DB7FD27F1B0612049B1822000832D27FCB
:1073800012029B182200283212789B186361200099
:1073900070BDC046F0220100F8B5040016001D00C3
:1073A0000F00E360069B2171A2600361079B3C22F2
:1073B00043610021183008F0B4FA330E6376330CC1
:1073C000A376330AE3762B0E63772B0CA3772B0A75
:1073D000E377631C27762677DD77069B1A0EA31CBE
:1073E000DA77069B1A0CE31CDA77069B1A0A231D30
:1073F000DA776A46127E631DDA77079B1A0EA31DA1
:10740000DA77079B1A0CE31DDA77079B1A0A230029
:107410000833DA776B461B7F28342370F8BD0000F1
:1074200013B5040005482060059801900498009069
:107430002000FFF7B1FF200016BDC046F02201007A
:107440000079704730B50400A56800208D420BD14B
:10745000E168914208D122699A4205D1039B606993
:10746000C01A42424241D0B230BD183070470000CD
:107470000300F0B5002585B000913749083301922B
:1074800003600A000400FFF70DFF009E019B009AB5
:107490009B1BD318002B2ADD327802A96B1C4A559E
:1074A000032B21D10A7803AD93082B704B78302140
:1074B00012010A40190952183C216A7002AA9278F6
:1074C0009B000B4091095B18AB703F2300271A40CB
:1074D000EA70224AEB5D12682000D15C013703F0AC
:1074E0000EFA042FF5D1002301361D00CEE7002D42
:1074F0002FD02B000022022B03DC02A9CA54013337
:10750000F9E7302102AB1A7803AE9308337002AB6F
:107510005B7812010A401909521872703C22002748
:107520009B00134002AA927892099B18B3700B4AF1
:10753000F35D12682000D15C013703F0E0F9BD4231
:10754000F5DA032D05D03D21200003F0D8F90135EF
:10755000F7E7200005B0F0BD08250100DC2200207F
:1075600010B5074C074A2300083323602000064962
:10757000FFF798FE054A0649200002F065FF10BD9E
:10758000DC2200203C230100FC220100000000203E
:10759000A9A800007047704710B5040000F04AFD2C
:1075A000200010BD70B50400FFF7A0FE5C4B08334F
:1075B0002360230054331B78262B00DCAEE023002D
:1075C000220029332A321B7812781B0412029B18DE
:1075D00022002B32127821009B18A3652200230081
:1075E0002D322C331B7812781B0612049B182200B4
:1075F0002E321278643112029B1822002F32127838
:107600009B18E36522002300313230331B78127857
:107610001B0612049B1822003232127812029B18A9
:107620002200333212789B18236623001F22343342
:107630001B781A400A705A06920F5BB24A70002BF0
:1076400003DA2300012266331A70230035331878D9
:1076500001331B780002C01806F084F9314905F0A7
:107660009DFC2300A0663733187801331B78000295
:10767000C01806F077F92C4905F090FC2300E0666D
:1076800039331A7837331A70363B187806F0BAF95E
:10769000244905F083FC8021C90505F0EDFA23009B
:1076A00060673C33187806F0ADF91E4905F076FCAA
:1076B00023003B33051C187806F0A4F9011C281C94
:1076C00005F0DAFA2300A0673D331A783F331A70C9
:1076D0003E3B1A783F331A703E3B1A783F331A709C
:1076E0003E3B1A783F331A703E3B1A783F331A708C
:1076F0003E3B1A783F331A703E3B1A783F331A707C
:107700003E3B1A783F331A703E3B1A783F331A706B
:107710003E3B1A783F331A7000225A70200070BD29
:10772000682301000000C84200002041002213B578
:1077300004001300019200920121FFF771FE024B39
:1077400020000833236016BD68230100F0B587B020
:10775000040010A8007804AE039011A800780490EB
:1077600012A8057825208019C77F18A800780590F1
:1077700019A806780C9800930190130020000A00C5
:107780000121FFF709FE0D9B6A46A3650E9B127B44
:10779000E3650F9B2366230064331A706A46127CEC
:1077A0009D705A70139B6A46A366149B127DE36614
:1077B000230070331F70169B6367179BA36723001A
:1077C0007C331A7000225E7002331A7022008732F6
:1077D0001A99002904D0097819701A9901311A915F
:1077E00001339342F4D10D9B24211A0C2300293339
:1077F0001A700D9B1A0A23002A331A7004AA521811
:10780000127804315A700E9B1A0E23002C331A7012
:107810000E9B1A1423002D331A700E9B1A1223008C
:107820002E331A7004AA5218127804315A700F9B22
:107830001A0E230030331A700F9B1A1423003133B1
:107840001A700F9B1A12230032331A7004AA5218AE
:10785000127803995A706022049B5B011340413AED
:1078600011400B43002D01D08022134322003432FB
:1078700013703649139805F081FD05F007F92300D0
:1078800080B2020A35331A7058703149149805F0E5
:1078900075FD05F0FBF8230080B23733020A1A7039
:1078A00058709F70169807F09BFE80230022DB051E
:1078B00007F0B2FA0022274B07F02EF805F0FEF889
:1078C00023003A331870179805F0E0F82300C5B28A
:1078D0003B331D701D49179805F050FD071C6420AF
:1078E000684306F03FF8011C381C05F067FE05F000
:1078F000CDF86A462300127D3C335A70220018707E
:107900009E707E321278DA7022007F3212781A71FD
:107910002200803212785A712200813212789A71D4
:10792000220082321278DA712200833212781A72BF
:107930002200843212785A7222008532127854342E
:107940009A722F23237007B0F0BDC0460000C842D2
:107950000000204100005940806D704770B5C56D32
:107960000E49280004F00EFF05F0FCFF041C28005F
:1079700005F0F8FF0A49051C201C05F0FFFC011C5E
:10798000281C05F01BFE074905F008FB064905F019
:1079900005FB211C05F070F970BDC04640420F0088
:1079A0000024744900401C460000704270B5056E0A
:1079B0000E49280004F0E6FE05F0D4FF041C280060
:1079C00005F0D0FF0A49051C201C05F0D7FC011C5E
:1079D000281C05F0F3FD074905F0E0FA064905F01B
:1079E000DDFA211C05F048F970BDC04640420F0089
:1079F0000024744900401C46000070426430007846
:107A00007047653000787047663000787047806E48
:107A10007047406F70477E3070477047704710B5B1
:107A2000040000F007FB200010BD7047704710B540
:107A3000040000F0FFFA200010BD000010B50400A3
:107A4000FFF754FC074B08332360230054331B78A3
:107A5000112B04DD230029331A782E331A702000ED
:107A600010BDC0469023010057300078704770B5B4
:107A700005000C00081E07D008F012FD2B6802005C
:107A80005B6821002800984770BD0200002328325F
:107A90000262036043600372C36003610375436263
:107AA000137018328263C363137018320265436522
:107AB0001370704701607047F0B5036887B0050028
:107AC000002B02D1002007B0F0BD06003836534924
:107AD000300002F09CFF00282BD1514E514930005C
