:1020000000800020D17F0000897F0000897F0000D0
:1020100000000000000000000000000000000000C0
:10202000000000000000000000000000897F0000A8
:102030000000000000000000897F000025800000F3
:10204000897F0000897F000041210000897F000016
:10205000897F0000897F0000897F0000757F000074
:10206000897F0000897F0000897F0000695D000092
:102070007D5D0000915D0000A55D0000897F00008E
:10208000897F0000897F0000357F0000897F000084
:1020900000000000897F0000897F0000897F000028
:1020A000897F0000897F0000897F0000897F000010
:1020B0000000000010B5064C2378002B07D1054B1B
:1020C000002B02D0044800E000BF0123237010BDA4
:1020D000A00200200000000098330100084B10B55A
:1020E000002B03D00749084800E000BF07480368F9
:1020F000002B00D110BD064B002BFBD09847F9E711
:1021000000000000A4020020983301009C0200207F
:10211000000000000022014B1A707047BC02002032
:10212000034AD379DB09FCD1A53313727047C0464B
:1021300000100040014B1878C0B2704738040040CE
:102140000221064B1A788A431A70DA79D209FCD137
:10215000997901320A439A717047C04600100040D5
:102160000F4B104A30B59A600F4A5A605A78D2091C
:10217000FCD10E4A0E495A8004220E4BCA67BFF3A7
:102180004F8FBFF36F8FC021C02449005A50A40065
:102190001959094D294019511A600123037030BDA6
:1021A000000C004002040000020311000342000082
:1021B00004E100E000E100E0FFFF00FFF8B5037874
:1021C00006000D001700002B01D1FFF7C9FF002307
:1021D000484C2370E379DB09FCD1474B9D4250DC2E
:1021E000002D4ED0AD022800FA21F530FF308900D5
:1021F0000AF014FB414B984247DC414B984248DCC3
:10220000404B984249DC404B98424ADC3F4B984255
:102210004BDCFF284DDC7F284FDC3F2850DC1F289B
:1022200051DC0F2852DC002308250122002F50D05A
:1022300061790F200A4362710B2261780340814368
:102240000A43627062781901130003400B43637004
:102250000423227813432370E379DB09FCD1300097
:10226000FFF75EFF0223227813432370E379DB0933
:10227000FCD1FA208023800068439B00C0188012A4
:10228000F8BD80250B23ED01CFE780250A23AD01A2
:10229000CBE7802509236D01C7E7802508232D01A1
:1022A000C3E780250723ED00BFE780250623AD00A7
:1022B000BBE7802505236D00B7E704238025B4E73D
:1022C00003234025B1E702232025AEE70123102593
:1022D000ABE72179914321710F2162780B408A434A
:1022E000134304226370237893432370E379DB095B
:1022F000FCD1B4E7001000407F3E0000FF1F00004B
:10230000FF0F0000FF070000FF030000FF010000B7
:102310000A4B10B5436203000D22040028331A70E3
:10232000543000F0EBFB23000022DB331A70044A28
:1023300001331A80034A20005A8010BD00180D8F07
:102340000240000001400000F0B515001A00040032
:1023500087B00160456082600C980F9BE0600D982B
:10236000109E20610E98119F60612000A361E661BC
:10237000276203930E9B543001930D9B05970093A6
:1023800004960C9B029500F0D3FB220000239932A7
:1023900013709A34013A1370D370237007B0F0BDF4
:1023A000543010B50400002100F010FC0121200081
:1023B00000F007FC10BD543010B50400002100F0FF
:1023C00000FC0121200000F001FC10BDF7B5050064
:1023D00004005435280000F025FC2800012100F0FD
:1023E00092FE20003C2200219C300DF0E6FA2700EE
:1023F00022000123702146374A323B7011704A395E
:1024000051709370213A13702300019208223133E6
:102410001A7034329A70002620225E70DA701E71B3
:102420003100280000F02EFC3978280000F03DFC37
:102430003900280000F075FC2800019900F0ADFC7F
:102440002800616A00F03CFC32003100280000F0F6
:102450005DFC282128006156E02200F04BFCF7BD0E
:102460007FB5040025000E00FFF7A5FF0023DC3434
:102470002188543500930A00280000F015FE002E34
:1024800009D0022202AB1A7030325A800299280019
:1024900000F0A4FE7FBD012203AB52421E705A80A1
:1024A0000399F4E710B50400FFF785FF2000002131
:1024B000FFF7D6FF20000021543000F07DFB10BD57
:1024C000543010B50400002100F07BFB00212000F7
:1024D00000F07CFB200000F020FE0E21200000F028
:1024E000ABFB10BD10B5543000F0C2FB10BD0200B4
:1024F000DB3211780B1E03D00023137003009C33D2
:102500001800704713B598300368FF211A00180AA5
:102510001C0C08400A4000022140090410431B0E15
:102520001B060843184316BD02000023993213709E
:102530009A30013A1370D3700370704770B500245D
:102540000748084DA3B2934209DA0B5D06127340A7
:102550005B000602585B0134704080B2F2E770BD48
:10256000FFFF0000B41B01000300F7B504009C331B
:102570003C2200211800270000930DF01EFA0023D2
:10258000D8373B702300543301933A003C23009921
:10259000019800F0D3FD061E36D13B789A1EA11893
:1025A0009C31E3180D789B331878D2B22D020E704F
:1025B00045191E7000993A702000FFF7BFFFADB2B9
:1025C0003F3F85422CD1250041350198290000F07C
:1025D00071FC28780F2812D80AF082F81B08081B13
:1025E0001B111111111111111111111E2300423370
:1025F0001A7897331A70963B1A7897331A7022001C
:102600000123DB323B70137000212000FFF728FF0D
:10261000F7BD23004233EFE723000022D933EDE773
:102620003E70F1E710B50400543000F003FE2300C3
:102630002200210058331B78983213705D310978DD
:102640000232517021005C3109781170002B02D0E8
:102650002000FFF727FF230059331B78002B02D0FF
:102660002000FFF781FF10BD0B00F0B5050007004B
:1026700004003C331A78D8359C3785B02A7038006E
:102680000DF080F92E78390032002000FFF756FF58
:10269000A319020A9C331A70B31C0136F6B2A619AC
:1026A0009C362B7030702000FFF77AFE2300260046
:1026B000DE3319880023543600930A00300000F0FE
:1026C000F3FC230021002A7833331A7030002931BB
:1026D00000F063FB022103AB2A7819703031598076
:1026E0000023390000933000039B00F06BFD0121B3
:1026F000300000F061FA05B0F0BD10B5543000F0C4
:102700006AFA10BD704713B513006A46073213709A
:1027100003689C690123A04713BD37B56B46DC1DD8
:10272000036822001D6A0123A84720783EBD10B52A
:10273000040005F0CBFC200010BD10B504001420EF
:1027400005F084FC606A012107F040F90021606A0D
:1027500007F088F9322005F079FC606A012107F062
:1027600081F90021606A07F031F9142005F06EFC50
:1027700010BD000073B505000021006A07F072F972
:1027800096231B01013BFDD100266B460E4C5E716A
:102790001E71019A0D49200007F0B6FBC0212000F0
:1027A00007F0E2FB3100200007F0DEFB286A012180
:1027B00007F058F9200007F0C3FBA86A07F07EF97C
:1027C0000128FAD073BDC046D428002080841E00A2
:1027D000F0B505000F0085B000920193A86A07F0DC
:1027E0006DF90128FAD000240021286A07F03AF98F
:1027F00002AB134E5C711C7112493000039A07F052
:1028000083FB3900300007F0AFFB019B9C4207DAE5
:10281000009B3000195D013407F0A6FBA4B2F4E779
:10282000286A012107F01EF9300007F089FB842F88
:1028300004D0A86A07F042F90128FAD005B0F0BD2B
:10284000D428002080841E00F0B506000F0085B05B
:1028500000920193B06A07F031F90128FAD0002400
:102860000021306A07F0FEF802AB1C4D5C711C7150
:102870001B492800039A07F047FB39002800C02FA6
:1028800019D107F071FB009B21001870280007F098
:102890006BFB2100280007F067FB306A012107F07D
:1028A000E1F8280007F04CFBB06A07F007F90128AF
:1028B000FAD005B0F0BD07F057FB2100280007F063
:1028C00053FB019B9C42E8DA009B002128001F1962
:1028D00007F04AFB01343870A4B2F2E7D428002094
:1028E00080841E00F0B506000F0085B000920193B1
:1028F000B06A07F0E3F80128FAD000240021306A1A
:1029000007F0B0F802AB164D5C711C71039A1549C3
:10291000280007F0F9FA1821280007F025FB390AEA
:10292000280007F021FBF9B2280007F01DFB019BEE
:102930009C4207DA009B2800195D013407F014FB64
:10294000A4B2F4E7306A012107F08CF8280007F000
:10295000F7FAB06A07F0B2F80128FAD005B0F0BD76
:10296000D428002080841E00F0B506000F0085B03A
:1029700000920193B06A07F0A1F80128FAD0002470
:102980000021306A07F06EF802AB194D5C711C71C2
:10299000039A1849280007F0B7FA1921280007F010
:1029A000E3FA390A280007F0DFFAF9B2280007F045
:1029B000DBFA2100280007F0D7FA019B9C4209DAD4
:1029C000009B002128001F1907F0CEFA013438704F
:1029D000A4B2F2E7306A012107F044F8280007F0BA
:1029E000AFFAB06A07F06AF80128FAD005B0F0BD76
:1029F000D428002080841E00F0B506000F0085B0AA
:102A000000920193B06A07F059F80128FAD0002427
:102A10000021306A07F026F802AB144D5C711C717E
:102A20001349039A280007F06FFA1A21280007F0CB
:102A30009BFA3900280007F097FA019B9C4207DABD
:102A4000009B2800195D013407F08EFAA4B2F4E768
:102A5000306A012107F006F8280007F071FAB06A21
:102A600007F02CF80128FAD005B0F0BDD4280020DA
:102A700080841E00F0B506000F0085B0009201931F
:102A8000B06A07F01BF80128FAD000240021306A50
:102A900006F0E8FF02AB174D5C711C71039A1649F2
:102AA000280007F031FA1B21280007F05DFA3900F1
:102AB000280007F059FA2100280007F055FA019B79
:102AC0009C4209DA009B002128001F1907F04CFAEC
:102AD00001343870A4B2F2E7306A012106F0C2FF77
:102AE000280007F02DFAB06A06F0E8FF0128FAD0B6
:102AF00005B0F0BDD428002080841E0000230222EF
:102B0000037143718371C3718372C3720373037260
:102B10004372437401330377044B42730D32C27323
:102B20000833053A027403607047C046B41D0100C3
:102B300010B50400E362059B0800A363069B2162B5
:102B4000E3630499079BA26223646162012106F09A
:102B50003DFF206A012106F085FF606A012106F031
:102B600035FF606A012106F07DFFE06A002106F072
:102B70002DFFA06A002106F029FFA06B012106F0BD
:102B800025FFA06B002106F06DFFE06B012106F030
:102B90001DFFE06B012106F065FF206C012106F0AE
:102BA00015FF0021206C06F05DFF024807F084F954
:102BB00010BDC046D428002010B5006C06F052FFAE
:102BC00010BD10B5806B06F04DFF10BD10B5C06B89
:102BD00006F048FF10BD10B5C06A06F06FFFC0B226
:102BE00010BD5421036870B505005B6AFF3198473A
:102BF000AA212B6804005B6A280049009847240238
:102C0000204380B270BD37B56B46DC1D00232370B6
:102C1000036822005D69C0210123A84720783EBDDA
:102C2000407B704710B5040003689B689847236891
:102C300020005B6B984710BD13B56B468C07DA1DFF
:102C4000CB07DB0FE40FA400DB0023430C0749078D
:102C5000E40FC90F2343490019431170437B8421BA
:102C600083730023437303681C690123A04713BDCA
:102C7000437B10B5002B04D1837B437303685B6BEC
:102C8000984710BD73B56B46DD1DD97103682A00E6
:102C90001E69802101230400B0472B78002B02D14C
:102CA0000233637373BD0323FBE713B56B46DA1D71
:102CB00003681170C1731C698A210123A04713BDE9
:102CC00037B5040008000CF09FFC0022084B0BF005
:102CD0003BFA09F03FFF01AA030C1370030A53707B
:102CE000236890701D69862103232000A84737BD03
:102CF000A8CB684037B5036801AC12311D6921705B
:102D00006270022322008E21A84737BD37B50368C1
:102D100001AC1D6921706270022322008F21A84737
:102D200037BD37B50C00C37B097805008B4201D055
:102D3000FFF7BBFF207801AA0F2817D809F0D0FCB5
:102D4000080F0F1D23161616161616161616162918
:102D500063781370A3785370E378937006E0237957
:102D6000137063795370A1792B7491702B682800CC
:102D70001C698B210323A04737BDE3791370237AA5
:102D80005370637AE9E7A37A1370E37A5370237B75
:102D9000E3E7002313705370DFE737B50C00C37B04
:102DA000097805008B4201D0FFF77FFF20780F28BC
:102DB00018D809F095FC081F1F2D3C171717171777
:102DC0001717171717486A4663781370A37853705C
:102DD000E37893702379D37063791371A379537176
:102DE000E37993712B6828001C696A4607238C21BC
:102DF000A04737BD6A46237A1370637A5370A37A6B
:102E00009370E37AD370237B137100235371E8E747
:102E10006A46637B1370A37B5370E37B9370237CC0
:102E2000D370637C1371A37C5371E37CD9E76A464A
:102E3000237D1370637D5370A37D9370E37DD37006
:102E400000231371E2E700236A46137053709370F6
:102E5000D370F6E7F0B5040085B0036803AD0192C6
:102E60005F690E0002232A001721B847E37B012B7C
:102E700010D123680D495B6A20009847C0110128D2
:102E800008D123680A495B6A20009847307007E040
:102E90002B7804E0E37B042BFAD12B7802333370D8
:102EA0006B78019A137005B0F0BDC04603090000AD
:102EB00001090000F7B505000C0003686A465E6969
:102EC0001D210523B047E87B20700F285BD809F04F
:102ED00007FC084F4F5EAA5A5A5A5A5A5A5A5A5A17
:102EE0005AE36B465B7801225B085B4263706B467A
:102EF0009878A378810911409343450915400B4305
:102F00000221954006098B4316402B4304258E4031
:102F1000AB4333430826C5081540ED00B3432B43AC
:102F20001025860816403601AB433343202645085A
:102F300015406D01B3432B43402510408001AB4346
:102F40000343A3706B46D878E37845091540934353
:102F500010402B4390401A008A430243E2706B46B4
:102F600007211A7923790A408B43134323710AE01E
:102F70006B461B785B085B4263706B465B787F2B0C
:102F800002DC9B08A370F7BDFD3B9B10FAE76B4684
:102F90005B7801215B085B4263706B469878A2788E
:102FA00083090B408A431A43022345090D408D4093
:102FB000070904260F409F409A432A43B2433A43ED
:102FC0000827C5080D40ED00BA432A431025AA433F
:102FD000944683080B406546B3402B4320254208A6
:102FE0000A405201AB4313434022084093438001FF
:102FF00018436B46A070DA78E0781D3DA84393092A
:1030000055090D400343AD001009B34308402B435D
:10301000C000BB4303430A4019001023B240994348
:103020001143E1709BE76B465B7801225B085B42D2
:1030300063706B469978A3788D09154048099343CE
:103040002B43104002259040AB43034304200D095D
:103050001540AD0083432B430825C8081040C0002D
:10306000AB43034310208D0815402D0183432B43B0
:103070002025480810404001AB4303434020114045
:10308000890183430B43A3706B46D978E3781140E1
:1030900093430B43E37062E70522002120000CF00C
:1030A0008CFC0F2323706EE773B56E4606AC248844
:1030B0000D0A7170F2707371110A1A0A230AB37142
:1030C00003683570B1703271F4716A461C698D21E4
:1030D0000823A04773BD37B5036801AC5D692200C2
:1030E00002231521A847237860781B0218433EBDB0
:1030F00013B50B0A01AA1370036851701C6997215C
:103100000223A04713BD13B56B46DA1D0368117087
:103110001C6996210123A04713BD036810B51C69E3
:103120000023D5211A00A04710BD70B50D0019006D
:1031300003689C6A13002A00A04770BDF0B5160012
:1031400085B0019302ABDD1D2A000F0031000400A1
:10315000FFF780FE3378019A0120934206DC226853
:1031600029782000D56A3A00A847002005B0F0BDB4
:1031700013B5036801AA11701C69A3210123A0479C
:1031800013BD00007FB50B000400019103AD090CD5
:103190002B70A9700B0A0A496B70FFF7A9FFE37B3C
:1031A000022B03D101212000FFF7E2FF23682A0050
:1031B0001E69832103232000B047062363737FBD6C
:1031C000FFFF000013B50400019304AB1B78FFF769
:1031D000ACFF01992000FFF7D5FF13BD7FB50B00B1
:1031E0000400019103AD090C2B70A9700B0A0A4968
:1031F0006B70FFF77DFFE37B022B03D100212000E2
:10320000FFF7B6FF23682A001E69822103232000EE
:10321000B047052363737FBDFFFF000000230371E8
:1032200043718371C3718372C372037303724372F8
:103230007047000070B50400C67BFFF74CFF49499A
:1032400005002000FFF754FF2000FFF7E7FF042EE2
:103250000BD83000637BDBB209F042FA032D5D032B
:103260000300052B02D0062B1CD070BD02231D428B
:1032700003D06A0611D50133A3726B0701D5012370
:10328000A3712B0701D50223A37201236A0400D581
:1032900063721D42E9D02371E7E72A07ECD40123CA
:1032A0006371EAE701231D4200D023716B04DCD572
:1032B00001232372D9E7062BF4D0072B1BD0052B53
:1032C000D3D1AB0703D56B0612D50323A372EB064C
:1032D00001D50123E371AB0601D50123A3726B0471
:1032E00001D501236372EB05BFD50423A372BCE7AC
:1032F00001236371EBE7EB0408D580239B011D409C
:1033000002D001232373B0E72573AEE76B04ACD57D
:1033100001236372A9E7052B0AD0062BA5D16B0503
:1033200001D50323E372AB059FD50423E3729CE729
:10333000EB0501D50123E3722B0501D50223E372CE
:103340002B0601D50223E3726B0401D50123E3723E
:10335000EB0601D50123E371AB0600D485E7012319
:10336000C4E7C046FFFF000030B5094D094CAB680B
:103370005B035B0F9B001C590460AB6801619BB24F
:1033800043606343A4008360C460426130BDC046B3
:1033900000400041F81D0100F7B580261A4D0333A7
:1033A0006F689B083E436E600191002B2BD0174E37
:1033B0002E802E7DF107FCD51E0001689F1B890819
:1033C0008F4219D2002E17D0FF2117788C433C432F
:1033D0000F4957780C403F023C439778013E39042F
:1033E0000C4F2740D478BFB20F43240601993C43C9
:1033F00010C101910432E0E7074B2B802B7DDB07E6
:10340000FCD53300D1E7F7BD0040004144A5FFFFE4
:10341000FF00FFFFFFFF00FF04A5FFFF044B054A6D
:103420004908D9611A801A7DD207FCD57047C04679
:103430000040004102A5FFFF70B5050016000C001A
:10344000EB68210028009E4205D9FFF7E7FFEB68F3
:10345000E418F61AF4E7FFF7E1FF70BD10B51000AD
:103460001A000CF08FFA10BD704700207047000062
:10347000034B017108330360002343717047C0465A
:10348000181E010070B51D000379040016008B4260
:1034900001D0FF2B0AD183231B019E4243D007D8C2
:1034A000303B9E421AD020339E4231D000262BE082
:1034B00084231B019E4241D010339E42F6D1E9B2D3
:1034C0002A0A2B0C2D0E002943D0210056310A70F8
:1034D0002200553213705434257015E0A80080087E
:1034E0000CF092F800221F4B0AF02EFE1E4B002219
:1034F0000AF02AFE0CF012F96B0002D580231B069D
:10350000C018002D02DB2064300070BD6064FBE752
:1035100028000CF037F80022144B0AF015FE0CF0CE
:10352000FDF8A064F0E728000CF06EF80022104BC4
:103530000AF00AFE0CF0F2F8E064E5E728000CF06F
:1035400063F80022094B0AF0FFFD0CF0E7F8206554
:10355000DAE7210059310A702200583213705734CB
:10356000BAE7C0460088C34000004E400000594002
:1035700000609E4070B50D0001790400914221D198
:103580004079062818D809F0ABF8041E27323D48C8
:103590005300626A93420AD9FA2292009B18A268E9
:1035A000636280210901280001F017F904E08021FD
:1035B0000901280001F047F963790133DBB2062BDA
:1035C0003ED8637170BDA26A9342F0D9FA2292008C
:1035D0009B18A362E268E4E7E26A934205D9F533F7
:1035E000FF33E36222698221DCE78221E0E7226B7C
:1035F000934205D9F533FF33236362698321D1E711
:103600008321D5E7626B934205D9F533FF336363BA
:10361000A2698421C6E78421CAE7A26B934205D937
:10362000084A9B18E269A3638521BBE78521BFE7B0
:10363000E26B9342FAD9034A9B18E363226AF3E7E9
:103640000023BEE71027000010B50400FFF710FFAD
:10365000024B20000833236010BDC046281E010025
:1036600070B50E000021051C09F014FA002812D0D4
:1036700080231B06E818144909F0CCFE134909F011
:10368000C9FE09F04FFA8400A408002E16D1802349
:103690001B061C430CE00C49281C09F0BBFE0B491F
:1036A00009F0B8FE09F03EFA8400A408002EEED01E
:1036B0000021281C09F0EEF9002802D08023DB0548
:1036C0001C43200070BDC0460000704200401C46F4
:1036D000F0B587B01E1C0EAB1B78040001930FAB36
:1036E0001B78081C029310AB1B780121039311ABCC
:1036F0001B78171C049312AB1B78059313AB1D7832
:10370000FFF7AEFF0021A060381CFFF7A9FF1549A5
:10371000E0600D9809F07EFE09F004FA1249A061FC
:103720000C9809F077FE09F0FDF90E496061301C34
:1037300009F070FE0AF042F9019B029A1B02134342
:10374000039A1B021343FF221B021343E361049BF2
:10375000059A1B0213431B021D432D0220612562A3
:1037600007B0F0BD0000C8420000F34400207047DD
:1037700030B5884000230125013A8A18D2B28A4226
:1037800004D32C008C4001312343F8E7184030BDAE
:1037900010B50400FFF76CFE174B8222083323603C
:1037A0000123A3710023D200E371E360A352134A03
:1037B0002000A352124AA3500432A354114AA3502A
:1037C000114AA350114AA3505432A3501832A350A7
:1037D0000F4AA3500C32A3503032A21813700D4A76
:1037E000A21813700C4AA3540C32A3502032A350D9
:1037F0001832A35010BDC046641E01001204000020
:1038000014040000240400003C0400004C040000E8
:10381000CC040000090500000C05000030B5FF25B0
:1038200003ACDB0124782B40E03D294019432302FF
:103830008024640023401943602352011A40034B43
:103840000A43C2500122043BC25430BD240400008C
:1038500070B50500081C1D49141C09F0DBFD0BF0B8
:103860000BFF1B4A1B4B0AF06FFC0BF057FF982312
:10387000DB00E850061C1549201C09F0CBFD0BF0BD
:10388000FBFE134A134B0AF05FFC0BF047FF124B91
:103890001249E85009F03CFA114909F0BBFD09F062
:1038A00041F9C4020F4809490440301C09F030FABC
:1038B0000B4909F0AFFD09F035F901224005400D33
:1038C000094B0443EC50043BEA5470BD00A08C4605
:1038D0006F1283C0CA210940C404000000A00C4636
:1038E000CDCC4C3D00F83F00CC04000070B51D006D
:1038F000CB17C8180C0016005840012A1BD1002312
:10390000012D06D1092806DC400083B22022002CBC
:103910001DDB180070BD1F239528F7DC0AF0BEF8E8
:10392000674909F077FD07F03FFA09F0FBF8C3B2E9
:103930005B002B43EAE7022A5BD1012D1AD16328F1
:1039400007DC400083B2002CE3DA802252001343EC
:10395000DFE75C4AFF239042F5DC0AF09FF8584904
:1039600009F058FD07F020FA09F0DCF8C3B25B005B
:103970002B43E8E70023022DCBD1632806DC80002F
:1039800083B2002CC5DA80229200E0E74E4B9842C9
:103990000DDC0AF083F84A4909F03CFD07F004FA0F
:1039A00009F0C0F80123C0B280000343E9E7474BA8
:1039B00098420CD80AF072F8454909F02BFD07F03F
:1039C000F3F909F0AFF8C3B29B002B43D9E7414BA1
:1039D00098420CD80AF062F83F4909F01BFD07F045
:1039E000E3F909F09FF8C0B280000323DDE73B4B09
:1039F000C7E70023032A00D08BE7012D1DD1324BEE
:103A0000984207DC400083B2002C00DB81E7802273
:103A100012019CE7324B98420DDC0AF03FF828492E
:103A200009F0F8FC07F0C0F909F07CF883B25B00FC
:103A30002B439BB2E8E72B4BE6E7022D00D068E76B
:103A4000214B984207DC800083B2002C00DB60E74A
:103A5000802252017BE71D4A90420EDC0AF01EF8DC
:103A6000174909F0D7FC07F09FF909F05BF801232B
:103A700080B2800003439BB2E7E71B4A90420CD818
:103A80000AF00CF8124909F0C5FC07F08DF909F0AD
:103A900049F883B29B002B43EDE7144A90420CD8BF
:103AA00009F0FCFF0C4909F0B5FC07F07DF909F0BD
:103AB00039F883B29B003343DDE70D4BC5E7C046C1
:103AC000CDCCCC3DF5040000E70300000F2700003B
:103AD0000AD7233C17F001006F12833AFF01000060
:103AE000FF270000FF0700009F860100FF9F0F00D7
:103AF000FF0F0000F7B509AB1D880AAB1B78170054
:103B000004000422080000210193FFF731FE022285
:103B1000060004213800FFF72BFE022206430E2187
:103B20000198FFF725FE204A204B0643A65001923C
:103B30001F4F9D4230DDE353E15B01230222200051
:103B4000FFF7D4FE08220621FFF712FE019B064371
:103B5000E65064210B9808F061FE8621154BC900E0
:103B600098421FDC6050144B62589A4200DA63504E
:103B7000022361581A002000FFF7B8FE0F4B0922FC
:103B8000E0501621FFF7F4FD019B0643E650872322
:103B90000122DB00E254F7BD0A21280008F0B4FD41
:103BA000E053C9E76350DEE73C040000F604000080
:103BB0002C04000018F00100E80FFEFF34040000A0
:103BC000F8B50400081C151C1E1C07F0EDF809F0E0
:103BD000F5FE0223010003222000FFF787FE204BA1
:103BE0000C22E0520021FFF7C3FD1E490700281CEC
:103BF00009F010FC07F0D8F809F0E0FE02230100FC
:103C000003222000FFF772FE0C22174B05B21100B1
:103C1000E5522800FFF7ACFD94223843D200002D76
:103C20001ADBA050301C0BF027FD104A104B0AF095
:103C3000BFFE0BF073FC8B2300B2DB00E0520722C7
:103C40001921FFF795FD9423DB00E2581043012270
:103C5000E050084BE254F8BD80235B041843E0E7D2
:103C6000540400000000204156040000BEA4315A54
:103C70004755D53F9C040000F7B5161C9722040059
:103C80001F1C0023D200A350081C364909F0C2FBB8
:103C90009523DB00E050051C3249301C09F0BAFBCB
:103CA000314B3049E050061C381C09F0B3FB962319
:103CB000DB00E050071C0021281C08F0EBFE2A4B1B
:103CC0000193002804D0802397225B00D200A350E8
:103CD000281C07F069F809F071FE01230100022297
:103CE0002000FFF703FE050009F0D8FE9523DB0056
:103CF000E050082200212800FFF73AFD9723DB005F
:103D0000E3580500301C019307F04EF809F056FE09
:103D10000123010002222000FFF7E8FD060009F060
:103D2000BDFE114B0822E05009213000FFF720FDB5
:103D3000FC21019B89050543381C1D4309F06AFBE2
:103D40009623DB00E05008F0EDFE0B221121FFF777
:103D50000FFD972301220543DB00E550034BE2549E
:103D6000F7BDC04600002041AC040000B4040000D0
:103D7000F8B50500081C17491E1C171C09F04AFB62
:103D800008F0D0FE09220021FFF7F2FC11490400DF
:103D9000381C09F03FFB09F011FE09F02FFE09F075
:103DA0000DFE0123010002222800FFF79FFD0A4BB0
:103DB0000822E8520921FFF7DBFC0443301C08F01D
:103DC000B1FE0F221121FFF7D3FC89232043DB0032
:103DD000E850F8BD000020414404000010B5040084
:103DE000FFF7C6FF0122024BE050024BE25410BD28
:103DF0004C04000046040000F8B504001F1C214BD1
:103E0000081CE2522049160009F004FB06F0CCFF22
:103E100009F0D4FD0123010002222000FFF766FD16
:103E2000050009F03BFE194B0822E0500021280054
:103E3000FFF79EFC0722050008213000FFF798FCE1
:103E400011490543381C09F0E5FA06F0ADFF09F009
:103E5000B5FD0223010003222000FFF747FD060005
:103E600009F01CFEA923DB00E0500C2230000F21DA
:103E7000FFF77EFCAA2301220543DB00E550103B3F
:103E8000E254F8BD4C05000000002041440500004C
:103E90008A1892B210B2002803DA6932FF3210B2E7
:103EA00070476823FF339842FADD693AFF3AF6E734
:103EB000F0B5070085B0180001920E0009F09EFDD4
:103EC000924909F0B7F8924B041CF8500A9809F08F
:103ED00095FD8E4909F0AEF88C23DB00F850051CE7
:103EE000300009F08BFD894909F0A4F8894B061CC4
:103EF000F850019809F082FD844909F09BF88D2360
:103F0000DB00F850844909F095F80BF0B5FB834AC3
:103F1000834B0AF04DFD0BF001FC8E23DB00F850C3
:103F200001907D49301C09F085F80BF0A5FB7B4A18
:103F30007B4B0AF03DFD0BF0F1FB7A4B061CF85071
:103F40007549281C09F076F80BF096FB734A744B00
:103F50000AF02EFD0BF0E2FB8F23DB00F850051C6E
:103F60006D49201C09F066F80BF086FB6B4A6C4B20
:103F70000AF01EFD0BF0D2FB6B4B0199F850041CAC
:103F8000281C09F067FB051C06F032FF0290201C7C
:103F900006F0CCFE0190301C06F0C8FE0390201CF9
:103FA00006F026FF041C301C06F022FF061C281C0D
:103FB00006F0BCFE211C051C039809F02BFA311CED
:103FC000041C019809F026FA291C09F023FA011CA7
:103FD000201C09F03FFB0199041C029809F01AFA11
:103FE000211C06F097FF514C4B49385109F012FA49
:103FF0000BF042FB4A4B494A0AF0A6F80BF08EFB45
:104000000021061C08F046FD464B02940193464DE4
:10401000474C002800D072E03E51385909F0CEFCE0
:10402000B42201B252423800FFF732FF09F0E6FC39
:104030009123DB00F8503B4B7E59FB58301C191C78
:10404000019309F007FB3B4B041CF8501C3BF9584B
:104050000833F85809F0FEFA9223FC21DB00F850EF
:10406000051C8905201C09F0D5F906F0C1FEFC21CC
:10407000041C8905281C09F0CDF906F0B9FE051CC1
:10408000019806F053FE0190301C06F04FFE291CEB
:10409000061C281C09F0BEF9019909F0BBF9311C76
:1040A00009F0B8F9211C051C201C09F0B3F9011C0A
:1040B000281C08F02DFE029BF85006F097FF06F032
:1040C000D5FE011C08F024FE9023DB00F8501A49AD
:1040D00009F0A0F9194B041CF8500B9809F08EFC5C
:1040E000174908F0A7FF9323DB00F850103B021C90
:1040F000FB58211C3800FFF763FD05B0F0BD1149E6
:10410000301C08F005FE385187E7C0468096184BF2
:104110005C0400006404000000003443182D445483
:10412000FB2109406C040000740400007C040000C2
:10413000840400008C040000706DC24A94040000E6
:1041400000007A440000B44310B5080009F056FCA2
:10415000074906F0E3FE0021041C08F09BFC002840
:1041600004D0201C024908F0D3FD041C201C10BD03
:104170000000B443F7B5019108A980C904000020EC
:10418000085EA7210025C9006550314E314DA2536C
:10419000635109F033FCA523DB00E050391C09F022
:1041A00059FA09F00BFC01B22000FFF7CDFF09F02E
:1041B00005FC2D21284B294FE0500433E1501630E7
:1041C00008F02CFB0095074004D50820013F404231
:1041D00007430137224B0198E7540A220021FFF7D9
:1041E000C7FAA723DB00E358A15B01930500022374
:1041F00003222000FFF77AFB0C220A21A053FFF7CD
:10420000B7FA019B05431D43009BE05806F0CCFD27
:1042100009F0D4FB012301001A002000FFF766FB20
:10422000060009F03BFC009B0622E05016213000FE
:10423000FFF79EFA032205431D213800FFF798FA85
:10424000A72301220543DB00E550183BE254F7BDEC
:1042500022050000240500002C0500000700008056
:104260003405000030B580250A4C6D00025B002348
:10427000AA420DD08023DB00C35A9B18FF2B01D923
:10428000013BFF3B9BB29B001950012301320253BB
:10429000180030BD02040000F8B500238027040098
:1042A0000E001500C3607F0000223178E3680B43E5
:1042B000032A15D1E3600B00581E83410132F61822
:1042C000042AF2D1144B00290CD0E35ABB4204D08B
:1042D0002000E1681030FFF7C5FF0023E360E3E74B
:1042E0001B02E7E7802280206905120411400002CA
:1042F000AA0302401143E268ED011143FF22E35A91
:10430000154029430132E160934203D02000103070
:10431000FFF7A8FFF8BDC0461204000010B5040066
:104320002934227800230A2A0DD0030028331B7871
:104330009B18092B01D90A3B9BB2DBB29B00195099
:10434000012301322270180010BD000070B5040076
:104350001600080018220021FFF70AFA05001821AC
:1043600004223000FFF704FA2900094B0143E15011
:10437000084BE35C0A2B05D09C23DB00E018FFF719
:10438000CDFF70BD0449054803F0D6FEF9E7C046ED
:10439000DC04000009050000381E0100FC2200209A
:1043A00010B50122FFF7D2FF10BD10B50422FFF7B0
:1043B000CDFF10BD10B50522FFF7C8FF10BD10B529
:1043C0000622FFF7C3FF10BD70B50C4E0200845BE0
:1043D0000020844211D08025ED00535B013C980001
:1043E00080580133086080219BB253534900945395
:1043F00001208B4201D10023535370BD0204000001
:1044000010B504000300002029342278824211D024
:104410001A00283210788000C35801200B601378EE
:104420000133DBB213702178013921700A2B01D1DD
:104430000023137010BD0000F0B589B001911E007B
:104440000379040093423AD1C379069343790793E1
:10445000012303930293A3790493012B00D06EE010
:10446000039B05936779012F2BD0002F03D0022FD8
:104470003CD0002508E0A3683D009E4204D9A24B31
:10448000E35A002B00D024E163790133DBB2022B25
:1044900050D863716379079A93424DD0039B002DE6
:1044A0004BD1002BDED10023A371059B0393002D7C
:1044B00005D1029B002BCED1039B002BCBD109B0A1
:1044C000F0BD9922D200A55C002DDDD08F490023DC
:1044D000605886422CD9300032306050A3548C4B47
:1044E0008C49E258019800F078F9CDE79A23DB0077
:1044F000E35800259E42C7D9874BE35CAB42C3D04B
:10450000864FE3575A1CE255022B07DD9B23DB0045
:10451000E1180833E018FFF773FFE5559A223300DE
:10452000D2000A33A3509B23DB00E2587C49E5E02C
:104530001D00A9E70023ACE700230593B3E7029F22
:10454000E079002507281BD808F0CAF80430445742
:104550006B7E92A68422D200A55C002D10D07149FA
:1045600000236058864200D8ABE03000F530FF30C1
:104570006050A3546C4B6D49E258019800F02DF93E
:10458000E3790133DBB2072B00D99CE0E371E379D7
:10459000069A934200D198E0002D00D097E0029B4C
:1045A000002BCDD101230297A37180E78722D2008F
:1045B000A55C002DE4D08521C90060580023864207
:1045C0007FD9FA20800030186050A354584B5949C5
:1045D000E258D2E7584AA55C002DD1D08821C90005
:1045E0006058002386426CD9FA2080003018605051
:1045F000A354524B5249E258BFE7524AA55C002DE2
:10460000BED08A21C90060580023864259D93000A3
:10461000F530FF306050A3549423DB00E2584A4940
:10462000ABE74A4AA55C002DAAD04949002360584F
:10463000864246D93000F530FF306050A3549723AE
:10464000DB00E258434998E7434AA55C002D97D028
:10465000A221C90060580023864232D9FA20800086
:1046600030186050A354A323DB00E2583B4984E791
:10467000A822D200A55C002D82D0394900236058C1
:1046800086421ED93000F530FF306050A354AA2373
:10469000DB00E258334970E7A422D200A55C002D6C
:1046A00000D16DE7304900236058864209D9FA20CD
:1046B000800030186050A354A723DB00E2582B4938
:1046C0005BE71D005CE7002360E700276AE7029FC5
:1046D00068E78325ED0063575A1C6255012B06DD00
:1046E0002000234B1030E118FFF76EFE67553300B2
:1046F000A0210A33A3601E4BC901E258019800F0C3
:104700006CF8049DC0E6C04612040000BC04000022
:10471000CC04000006500000090500000C05000054
:10472000075000001C040000240400000150000099
:104730003C04000002500000460400004C0400004D
:10474000035000009C04000004500000B40400006A
:10475000A4040000055000001405000008500000EB
:104760003C050000F25000001C050000095000004C
:1047700014040000002343600360704700230160BD
:104780000381704770B5040000680D00002811D047
:1047900003681B687E290ED17D2198475E21206821
:1047A00003681B6898472189491989B20B12C918F7
:1047B000C9B2218170BD7D29F4D1984720685D215F
:1047C00003681B68EEE7018910B5C943C9B204004C
:1047D000FFF7D8FF0023238110BD37B56B460400D7
:1047E000006800929D1DD98000282BD003F0D4FDD5
:1047F00010212000FFF7C6FF29782000FFF7C2FF35
:1048000069782000FFF7BEFF6B4620001978FFF79C
:10481000B9FF6B4620005978FFF7B4FF6B462000C4
:104820009978FFF7AFFF6B462000D978FFF7AAFF12
:104830002000FFF7C8FF20680368DB6898472068FE
:1048400003F0A5FD37BD37B56B46040000689D1D1C
:10485000D980002820D003F09FFD00212000FFF721
:1048600091FF29782000FFF78DFF69782000FFF77E
:1048700089FF0525013D002D04D000212000FFF710
:1048800081FFF7E72000FFF79EFF20680368DB68E1
:104890009847206803F07BFD37BD10B504007030E9
:1048A000FFF768FF0022231D2000DA6710BD10B556
:1048B0004360029B02608360039B0200C360049B11
:1048C0007C320361059B4361069B8361079BC36147
:1048D000089B0362099B43620A9B83620B9BC36232
:1048E0000C9B03630D9B43630E9B83630F9BC3630E
:1048F000109B0364119B4364129B8364139BC364EA
:10490000149B0365159B4365169B8365179BC365C5
:10491000189B0366199B43661A9B83661B9BC366A1
:104920000023137013781B2B05DC9C002458002CEB
:1049300001D00133F5E77030FFF720FF10BD036FA2
:10494000F7B50400002B2ED003F07AFB231DDB6F9C
:104950000190002B27D1206F03681B69984700281E
:1049600021D0206FFF2603685B69984723007D33C1
:104970001A78C0B27E2A00D106001870FF2E12D01D
:10498000002523007C331B789D420CDA2100AB000C
:1049900018593200036870311B6801351F00019BF4
:1049A000B847EDB2EDE7F7BD020000234D320370CA
:1049B00043704360836003734373837313704032A7
:1049C0001370D3709371D3711372704710B50023B5
:1049D000020004000021036557326034A24202D075
:1049E00011700132FAE701000400002262316C34D8
:1049F000A14202D00A700131FAE704002A21613491
:104A0000026742672173E17721700C342275627569
:104A100002000832D3678032136011718367C36765
:104A200010BD0000F8B5056D040005617B49281C28
:104A300008F000FB08F076F879490600281C08F019
:104A4000F9FA071C6420704309F028F8011C381C8F
:104A500008F000FE08F066F807007248704309F09D
:104A60001DF8011C281C08F0F5FD051C6420784386
:104A700009F014F8011C281C08F0ECFD08F052F8AD
:104A80002300210020756775A675173320318B42EE
:104A900005D01A00403212781A700133F7E723006C
:104AA000210022332C31994205D01A00403212786D
:104AB0001A700133F7E7250057352B78002B21D0EA
:104AC000002326000A27584823636036AE4212D0DE
:104AD00029782E290DD00B00303BDBB2392901DDBE
:104AE0003739CBB24343226B3900D318236307F025
:104AF00095FE0135EAE7230061331B78532B02D181
:104B0000236B5B422363266B4849300007F086FE27
:104B100008F074FF051C300008F070FF3F4908F0F2
:104B200089FA3F49061C281C08F074FC011C301C43
:104B300008F090FD3E4908F07DFA291C08F0E8F8DD
:104B40002500A06362352B78002B21D0002326009E
:104B50000A27384863636C36AE4212D029782E2972
:104B60000DD00B00303BDBB2392901DD3739CBB238
:104B70004343626B3900D318636307F04FFE01357E
:104B8000EAE723006D331B78572B02D1636B5B423E
:104B90006363666B2549300007F040FE08F02EFF86
:104BA000051C300008F02AFF1C4908F043FA1C4994
:104BB000061C281C08F02EFC011C301C08F04AFDC5
:104BC0001B4908F037FA291C08F0A2F82200E0631C
:104BD00061321278A31CDA7722006D3212782B33FF
:104BE0001A70220080321278DA7422008132127830
:104BF0001A752200823212785A75253BDB6F22002B
:104C00006364230088331B688C32A364230012780A
:104C10004C331A7001234D342370F8BD00401C46FC
:104C20000000C842102700008096980040420F0004
:104C30000000704200E1F50570B50400A360230098
:104C40001500002296264D3361601A700B68B6017C
:104C5000DB69080031009847FA20800003F0F6F97C
:104C60001E49606803F068FAFA20800003F0EEF94C
:104C700096231B029D422DD00DD8B54225D09623F8
:104C80001749DB019D420FD02000FFF79FFE200057
:104C9000FFF7C8FE70BDE1231B029D421CD0E1233B
:104CA00010495B029D42EFD1606803F045FAFA209B
:104CB000800003F0CBF9606803685B6A984760681E
:104CC00029000368DB699847DEE7FA20800003F0DB
:104CD000BDF9D9E70449E7E70449E5E7741E010097
:104CE000A61E0100DC1E0100B81E0100CA1E010044
:104CF00002000D2902D00120242908D1110092318F
:104D00000B78FF2B01D001330B700020107370471C
:104D1000F7B50400606803681B69984703005A1ED2
:104D200093412370002870D0606803685B699847DE
:104D3000C1B20200207B61700F2832D807F0DAFC84
:104D400010001E003F00660071008C00A700C1002B
:104D5000DC00020135019701F1010D022502360246
:104D600024294FD122000023903263732000137056
:104D7000D370FFF72BFE0123237343E02200607BF7
:104D800093320130C0B26073137801384B40137016
:104D9000052806D807F0A4FC030703030A0D4729DA
:104DA000E9D00023E8E75029FBD1E4E74129F8D115
:104DB000E1E72C29F5D1002363730233DCE7637B41
:104DC000200001336373FFF793FF00281AD02200FD
:104DD0009332657813786B40137003232E2DCBD05C
:104DE000BF49206D08F016FB061C28003038C0B201
:104DF000392D01DD373DE8B208F000FE311C07F027
:104E000087FF20652378002B84D1F7BD22009332E1
:104E100013784B4013702C29F4D1002363730433AF
:104E2000AAE7637B200001336373FFF761FF00286B
:104E3000E8D02100933162780B7853400B702C2A14
:104E400003D100236373053396E7637B092BD9DC19
:104E5000E31856331A70D5E7637B20000133637380
:104E6000FFF746FF0028CDD02100933163780A7800
:104E70005A400A702C2B03D10023637306337BE75F
:104E8000627B012ABED1220061321370BAE7637BD4
:104E9000200001336373FFF72BFF0028B2D02100FD
:104EA000933162780B7853400B702C2A03D1002386
:104EB0006373073360E7637B0A2BA3DCE31861337A
:104EC000C8E7637B200001336373FFF711FF0028FD
:104ED00098D02100933163780A785A400A702C2BBD
:104EE00003D100236373083346E7627B012A00D0B5
:104EF00088E722006D32C8E7637B200001336373CB
:104F0000FFF7F6FE002800D17CE72100933163789B
:104F10000A785A400A702C2B03D10023637309339B
:104F20002AE7627B012A00D06CE7220080321370EE
:104F30001A00303AD2B2392B01DD373BDAB2230006
:104F4000813387E7637B200001336373FFF7D0FE73
:104F5000002800D156E72100933163780A785A403F
:104F60000A702C2B06D12200002395326373137034
:104F70000A3301E72100627B8231012A08D11A003D
:104F8000303AD2B2392B01DD373BDAB20A7039E759
:104F90000A220878424318003038D2B2C0B2392B06
:104FA00001DD373BD8B21218F0E7637B20000133F4
:104FB0006373FFF79DFE002800D123E722009332A0
:104FC000657813786B4013702C2D04D10023637324
:104FD00093700B33D0E62E2D03D123000A22953394
:104FE00038E72D2D04D123003E4A0833DA6709E75C
:104FF0002300953300931E78002E14D12600083626
:105000003749F06F08F006FA071C28003038C0B2A4
:10501000392D01DD373DE8B208F0F0FC391C07F00E
:1050200077FEF067EEE6642E00DDEBE62700280051
:105030000837FB6F30380193C0B2392D01DD373DA1
:10504000E8B208F02BFD051C300008F027FD011C1C
:10505000281C07F0EFFF019907F05AFEF867642E4D
:1050600000D1CFE60A235E43009B1E70CAE6637B35
:10507000200001336373FFF73BFE002800D1C1E637
:1050800022009332657813786B4013702C2D03D176
:10509000002363730C336FE62E2D9ED02D2D04D18B
:1050A0002300104A88331A60ACE62300953300933E
:1050B0001E78002E18D1260088360949306808F07D
:1050C000A9F9071C28003038C0B2392D01DD373D61
:1050D000E8B208F093FC391C07F01AFE306091E644
:1050E00000002041000080BF642E00DD8AE627001A
:1050F000280088373B6830380193C0B2392D01DD74
:10510000373DE8B208F0CAFC051C300008F0C6FCC8
:10511000011C281C07F08EFF019907F0F9FD38608B
:105120009DE7637B200001336373FFF7E1FD0028F7
:1051300000D167E62100933163780A785A400A70FB
:105140002C2B03D1002363730D3315E6627B012AF8
:1051500000D057E622008C3297E6637B20000133B3
:105160006373FFF7C5FD002800D14BE663782A2B57
:1051700006D1220000239432637313700E33FBE5D3
:105180002200933211784B407FE6FF231A400B0038
:10519000303BDBB2392A01DD3739CBB22200943201
:1051A00011781B01CB1813700F23E5E5FF231A407C
:1051B0000B00303BDBB2392A01DD3739CBB222009C
:1051C0009432117859182300C9B2117093331B78A7
:1051D0008B4203D12000FFF725FCE2E5220091324B
:1051E0001378FF2B00D1DCE501331370D9E5C046FD
:1051F0004D300078704710B5006907F093FC10BD82
:10520000006B7047406B7047413000787047423008
:1052100000787047406C704710B50C886040C2B28F
:1052200010015040C0B2C200030253402412634038
:1052300000115840088010BD70B506000500084BED
:10524000DD360360074BFF36C418B44205D0803CFE
:10525000236820005B689847F7E7280070BDC046C8
:10526000DC230100DC10000010B50400503005F014
:10527000CDFA2000383005F0C9FA2000203005F0C2
:10528000C5FA200010BD0000FE23F0B585B0837084
:105290006B4600911B780192C37000231A4A437138
:1052A00083719379050003710133937102AB9F1DE4
:1052B000012304005B423B80C61C0835AE4205D08A
:1052C00030783900FFF7A8FF0136F7E72E003B885A
:1052D000E7782380EF19BE4205D030782100FFF730
:1052E0009BFF0136F7E701982100FFF795FFE37870
:1052F00022880098EA54E3780830ED1823881B12BE
:105300006B7005B0F0BDC046B01B0020F0B5D94CA5
:10531000C3B0200000F0CAFFE121D748490203F0E2
:10532000C7FAD648FCF706FF0700200000F096FFFA
:10533000D3483BAC436922000169FEF78FF8D14B9B
:105340001900643125CC25C125CC25C122680A600D
:105350001A0064321278002A2BD13C219966D96652
:1053600096218900196719000A2074310870190004
:105370003730753108701900013076310870190026
:105380000130773108701900013078310870190048
:10539000013079310870190001307A310870190034
:1053A00001307B310870190001307C317D33087089
:1053B0001A70B54935A804F04AFCB24D31AC290049
:1053C0002000753104F043FC210035A804F00DFDE8
:1053D00001001CA804F07EFC200004F0F0FB35A8BE
:1053E00004F0EDFBA34E300000F0CDFEA74935A838
:1053F00004F02DFC0A223900200004F0B1FC210049
:1054000035A804F0F2FC01001FA804F063FC2000A2
:1054100004F0D5FB35A804F0D2FB9D49200004F030
:1054200016FC286808F0CAFA0A2201002EA804F027
:1054300085FC2EA9200004F0D8FC964904F0E2FC7B
:105440002F681B90381C08F0B9FA08F0D7FA011C35
:10545000381C08F0FFF8904907F0DCFF08F0AEFABE
:105460000A22010035A804F069FC35A91B9804F054
:10547000BCFC8A4904F0C6FC010022A804F02AFC06
:1054800035A804F09CFB2EA804F099FB200004F042
:1054900096FB300000F0BDFDE12103684902DB69A5
:1054A00098477F4935A804F0D2FBE1210A2249023E
:1054B000200004F043FC210035A804F096FC010014
:1054C00025A804F007FC200004F079FB35A804F0BF
:1054D00076FB2B6A73491A0E22701A0C6270E37005
:1054E0001A0AAB6AA2701A0E22711A0C6271E37169
:1054F0001A0A2B6BA2711A0E22721A0C6272E372D4
:105500001A0AAB6BA2721A0E22731A0C62732EA8BF
:105510001A0AE373A27304F09AFB1022210035A843
:1055200001F0F2FF35992BA804F091FB2BA92EA8CE
:1055300004F05BFC5C4904F065FC010028A804F061
:10554000C9FB2BA804F03BFB35A805F05FF92EA89A
:1055500004F035FB300000F05AFD2A0001005348EA
:1055600001F07CFE300000F056FD0024504F010099
:105570003B00504A0294019400944F4819941894A7
:1055800017941694159414941394129411941094DF
:105590000F940E940D940C940B940A94099408940F
:1055A00007940694059404940394FFF780F930005F
:1055B00000F02FFD3B003F4A0100404800F0AFFFE4
:1055C000012002F06BFC30002C7300F06DFD300008
:1055D00000F0C1FD300000F027FD2861300000F030
:1055E0003FFD6861300000F04DFD234EA86122A907
:1055F000300002F097FD1FA9300002F093FD28A9AA
:10560000300002F08FFD1CA9300002F08BFD25A9AF
:10561000300002F087FD229938000722FEF73CFE99
:10562000289938000722FEF737FE1C993800072218
:10563000FEF732FE072225993800FEF72DFE2900DD
:105640001F4802F083FA22001E490C48FCF7B6FD01
:1056500028A804F0B4FA25A804F0B1FA22A804F0AE
:10566000AEFA1FA804F0ABFA1CA804F0A8FA43B0E5
:10567000F0BDC046601C0020FC220020BC020020BF
:10568000481C0020301B0020462201005B22010044
:1056900071220100442201000000C8428A22010058
:1056A0008D220100A0220100A8220100540A00203E
:1056B0001C030020C002002070080020F408002015
:1056C000E01B00208813000070B5184D280001F081
:1056D00024FE174C200000F092FD200000F09FFDFA
:1056E000144B9B680A2B16D9134E300003F0D4FBE1
:1056F0000423124A11690B4313610222104B1968EB
:1057000091431960BFF34F8F30BF196830000A43CF
:105710001A6003F083FB200000F090FD200000F0F1
:1057200076FD280001F001FE70BDC046540A00203D
:10573000601C0020301B00201823002000ED00E03A
:1057400010E000E0F0B585B04F4C6379002B00D13C
:1057500098E04E48FCF7E4FC4D4D63792800013B8E
:10576000637100F061FC2061280000F079FC606149
:10577000280000F087FCA061061C606909F07CFF2E
:10578000444A454B07F056F9002806D08021301CCA
:10579000C90507F089F9002804D123003E331B789E
:1057A000002B1AD022003D321378FF2B01D0013399
:1057B0001370280000F0F7FC002843D0220042328A
:1057C00013780133DBB21370022B09D1280000F0EB
:1057D000DAFC2300433301220AE022003D32E7E7EE
:1057E000032B06DD280000F0D6FC23000022433303
:1057F0001A70A368052B07D9230043331B78002BAD
:1058000002D1280000F0C7FC280000F00AFCFFF7D6
:10581000EFFC002898D060342378002B94D11F49E6
:1058200001A804F014FA072201991D48FEF734FD7F
:1058300001A91C4802F076FC012301A8237004F0A2
:10584000BEF981E7230043331B78002B16D00A26CC
:105850003227280000F09FFC380002F0F7FB2800F8
:1058600000F091FC013E380002F0F0FB002EF0D178
:10587000230043331E7023004433ACE7220042323E
:105880001370B6E705B0F0BD301B0020BC0200204D
:10589000601C00203333333333331140351F010094
:1058A0001C030020FC220020F0B5404C1500A5444C
:1058B0000F1C1C0009F0E0FE00223D4B09F078F8B7
:1058C00009F02CFE0600381C09F0D6FE0022384BE9
:1058D00009F06EF809F022FE042D61DDE123DB0002
:1058E000002202AD5119A55C0132CD76092AF8D10A
:1058F000002403A950ADCC772E492B833E23509131
:105900003121A860FF3302A81B18E9822339D97717
:105910009F231B215B001B180918DC770300542010
:10592000FF30C0186E60EC602C826C82AC82AC766A
:105930000AF028F8262229000EA80AF023F8F623F8
:105940000CAEB82226213000F371FFF79DFCF379ED
:10595000194AF178D25C3000FFF796FC80222100D2
:10596000920028000AF029F82A21F37828009F1DC8
:10597000019302AB3A00C9180AF004F83388EF1912
:10598000019E3B701B127B700836B4420ADA0B484A
:1059900000F03FFB0368295D1B6898470134F4E77A
:1059A000074B9DE7D1239B009D44F0BDBCFCFFFF4E
:1059B000D0126341FFCA000000210100601C0020DA
:1059C000141E0000F0B55F4C8DB023007433A27933
:1059D0001B789A4200DA9AE00023A37123003C333B
:1059E0001B78002B00D090E0574906A804F02FF94F
:1059F0000222216909A804F0C5F909A906A804F042
:105A0000F4F9524904F0FEF9514C0100200002F073
:105A100075FB09A804F0D3F806A804F0D0F84D48A7
:105A200000F0E6FB4C49012800D04C49200002F070
:105A30006CFB4B49684604F00AF9464D280000F01B
:105A4000B2FB0A22010003A804F078F903A9684612
:105A500004F0CBF9434E310004F0D4F9394C07007F
:105A60002300423319780A2206A804F056F906A941
:105A7000380004F0BAF9310004F0C4F9230006003C
:105A800043330A22197809A804F058F909A930000B
:105A900004F0ABF901002E4802F044FB09A804F021
:105AA0008EF806A804F08BF803A804F088F868467E
:105AB00004F085F8280000F0B4FAFFF79CFBA0641E
:105AC000280000F0AEFAFFF79BFBE064280000F02E
:105AD000A8FAFFF797FB2065280000F0A2FAFFF76D
:105AE00096FB230054331870280000F09AFAFFF751
:105AF0008BFB230055331870280000F092FAFFF753
:105B000089FBA065184801F0C4FB0DB0F0BD164834
:105B100001F000FC0600333633780500002BF4D08A
:105B20000700323701003A781048FEF7B5FB230032
:105B30003A787533A96B686BFFF7B6FE00233370B4
:105B4000E3E7C046301B0020EF1E01000C1F0100E0
:105B5000FC220020601C00200F1F01001A1F010002
:105B6000251F0100331F0100540A00201C030020E0
:105B7000F0B589B0FFF7E6FD6E4D280000F051FA50
:105B8000FFF7C6F86C4801F024F86C4800F07CFD83
:105B9000FFF718FF6A4802F0B5F86A4C00281BD0DE
:105BA00069496A4802F0C8FA23000122643301AE51
:105BB0001A70320083CB83C283CB83C21B68644FCD
:105BC00013607A6939693800FDF736FC7B69320069
:105BD00039693800FDF7E0FB230044331B78002BC4
:105BE00001D005232373207B052830D806F078FDEB
:105BF00099030F21537E23003D331B78022B02DDD6
:105C000002232373B6E75348FEF799FEB2E7230059
:105C10003D331B78002B01D10133F2E7A26E934292
:105C2000F1D9280000F097FA0022A31CDA87032399
:105C3000E7E7606909F020FD474A484B06F004FF9A
:105C4000002806D023003E331B78002B01D100230F
:105C5000D7E74349206906F027FF061E01D0052338
:105C6000CFE7FFF731FDA21CD38FE16E01339BB26A
:105C7000D3878B4200D87DE7FA20C000D68702F098
:105C8000E5F9280000F0CDF9FFF742F8280000F010
:105C90005AFA0423B5E7606909F0EEFC2E4A2F4B4F
:105CA00006F0D2FE002806D18021A069C90506F0C1
:105CB00005FF002804D023003E331B78002BC6D0FC
:105CC0002749206906F0F0FE061EC8D1FFF7FCFC4C
:105CD000A21CD38F216F01339BB2D3878B4200D894
:105CE00048E72800D68700F026FAA0E7280000F051
:105CF00002FA1C49154802F01FFA3224280000F06D
:105D000067FA280000F03FFA200002F09FF928000F
:105D100000F066FA280000F03EFA200002F096F942
:105D2000ECE7280000F007FA220000233D326371FF
:105D3000137071E7601C0020540A0020F408002052
:105D4000E01B0020301B002000220100FC2200206C
:105D5000481C0020700800203333333333331140A4
:105D6000000040401822010010B5034800F055F92A
:105D700002F031FC10BDC046601C002010B5034885
:105D800000F049F902F027FC10BDC046601C00205D
:105D900010B5034800F043F902F01DFC10BDC046E9
:105DA000601C002010B5034800F033F902F013FC2A
:105DB00010BDC046601C002070B51C223749384811
:105DC000FDF7D2FA374C200000F0B0F8364D3749D5
:105DD0002A00200004F084FB8022354BD2050024E9
:105DE0001A600C2233491A715C719C719C60D961F4
:105DF00009680022196230491A61596209685A61BA
:105E000099622E499A61D96209681C7319632C49F9
:105E1000596309689C64996319003C310C7019003E
:105E20003D310C7019003E310C70991CCC87190063
:105E300042310C70190043310C70190044310C7060
:105E400019005431DC641C650C70190055319A65D9
:105E5000DA650C70603383211A481C70FDF7F4FB7F
:105E60001B211948FDF794FC21001848FEF715FD89
:105E7000174800F03FFB174C200001F0AFF92A0053
:105E80001549200004F02CFB144C200001F049FEC1
:105E90002A001349200004F023FB70BD00200100FC
:105EA000481C0020601C002000000020E55E00006F
:105EB000301B00200CA0800040A0800044A0800087
:105EC00048A08000C00200201C03002070080020B1
:105ED000F4080020540A002039520000E01B002082
:105EE0006952000010B504006830FCF70BFC20007C
:105EF00010BD000010B5040003F0B4FD2000012126
:105F000003F064FD18206043064A81561218536856
:105F1000C9015B180221044A9B181A788A431A7037
:105F200010BDC046AC2601004044004170B50025BC
:105F30000400056045608560C56005611430FCF7AC
:105F4000E7F92000F430FEF72FFDC62301225B00A5
:105F5000E25009320433E250023A0433E250013293
:105F60000433E25008320433E2500F320433E2507B
:105F70001C3A0433E25001320433E2501432043349
:105F8000E2500433E550063A0433E250033A043356
:105F9000E2500E3A0433E25004320433E25001324C
:105FA0000433E25007320433E250013A0433E25042
:105FB00007320433E25009320433E250123A043318
:105FC000E25001320433E25009320433E250053228
:105FD0000433E25004320433E2500F3A0433E25007
:105FE0000C3A0433E2501C320433E25002320433E0
:105FF000E250053A0433E250013A0433E250093AE0
:106000000433E250063204332000E25070BD1430F5
:106010007047C06870478068704740687047006983
:106020007047F43070470000DC235B0010B5C058A7
:1060300003F066FC07F032FD09F01EFB054A064B33
:1060400008F0B6FC0022054B08F0B2FC09F066FB34
:1060500010BDC046F6285C8FC2F517400000503FC7
:10606000DA235B0010B5C05803F04AFC07F016FDB8
:10607000034907F0CFF9EA21890507F0CBF910BDF4
:1060800000003041F6235B0010B5C05803F038FC27
:1060900007F004FD034907F0BDF9EA21890507F07F
:1060A000B9F910BD0000304170B5D826FE250400B6
:1060B0007600805901216D0003F0D4FC052001F029
:1060C000C5FF6059002103F0CDFC052001F0BEFFA3
:1060D0006059012103F0C6FC052001F0B7FF6059AB
:1060E000002103F0BFFC052001F0B0FFA059002102
:1060F00003F0B8FC70BDD82370B5FE2504005B002A
:10610000C05800216D0003F0ADFC052001F09EFF9A
:106110006059002103F0A6FC052001F097FF6059AB
:10612000012103F09FFC052001F090FF6059002140
:1061300003F098FC70BDE82310B55B000021C05847
:1061400003F090FC10BDE82310B55B000121C0589E
:1061500003F088FC10BDEA2310B55B000121C05894
:1061600003F080FC10BD70B580240500A400002160
:10617000005903F077FC0F2001F068FF2859012136
:1061800003F070FC70BDF42310B55B000021C05813
:1061900003F068FC10BDF42310B55B000121C0586A
:1061A00003F060FC10BDF8B5F22706000A257F0059
:1061B000F05903F083FC0400012807D10220013DBF
:1061C00001F044FF002DF3D12000F8BD0020FCE7D2
:1061D000F02310B55B000121C05803F043FC10BD53
:1061E000F02310B55B000021C05803F03BFC10BD4C
:1061F000FC2310B55B00C05803F060FC10BDE62323
:1062000010B55B000321C05803F0E0FB10BDE6238E
:1062100010B55B000221C05803F0D8FB10BDDE238F
:106220005B0010B500210400C05803F01BFCE22302
:106230005B000321E05803F0C9FB10BDDE235B00C7
:1062400010B501210400C05803F00CFCE2235B00F0
:106250000221E05803F0BAFB10BD00000221114BEF
:106260005A6B8A435A63DA681205FCD50E4A5A63A0
:106270000222596B0A435A63DA689205FCD5DA6840
:106280005205FCD402215A6B8A435A63DA6812051C
:10629000FCD50822596B0A435A630222596B0A4300
:1062A0005A6370470008004004002700D823F0B567
:1062B0005B0089B004000021C058FFF71BFEDA2301
:1062C0005B00E058002103F081FBDC235B00E05819
:1062D000002103F07BFB032003F0E0FAE8235B00DE
:1062E000E0580021FFF706FEEA235B00E058012199
:1062F000FFF700FEDE235B00E0580121FFF7FAFD07
:10630000F0235B00E0580121FFF7F4FDC6235B009A
:10631000E0580021FFF7EEFDD2235B00E05800219A
:10632000FFF7E8FDCE235B00E0580121FFF7E2FD17
:10633000D0235B00E0580021FFF7DCFDD4235B0095
:10634000E058002103F042FBD6235B00E058002117
:1063500003F03CFBF2235B00E058002103F036FB26
:10636000F4235B00E0580021FFF7C4FDF6235B0037
:10637000E058002103F02AFBF8235B00E0580021DD
:10638000FFF7B8FDFE23FC255B00E0586D000021FF
:10639000FFF7B0FD6059002103F018FB605901219F
:1063A00003F060FB80239B00E0580121FFF7A2FD72
:1063B00081239B00E0580021FFF79CFD82239B0076
:1063C000E05844350021FFF795FD280001F07AFEE2
:1063D000EC23EE22002106005B005200E358A25895
:1063E00001910131DBB2D2B20091374902F088F855
:1063F0006660280001F066FEE423E62203270121FF
:1064000006005B005200E358A258DBB2D2B2019101
:1064100000972E4902F074F8E6602000FFF7F7FEBF
:106420002000FFF788FE2000FFF79DFE2000E122FC
:10643000E36861681202F430FEF7FEFB280001F009
:1064400041FEE2225200A258E026079201216A464C
:106450007600127FA35D019100971D49050002F0AF
:106460004FF8E1212800A560090201F06BFFE2234B
:106470005B00E058390003F039FB3900A05903F004
:1064800035FBF0235B00E358D2220593CE235B005B
:10649000E358C6210493D0235B00E3582000039304
:1064A000002302930193AD33FF33E358520000936E
:1064B000D42349005B001430E358A2586158FBF71D
:1064C00043FF09B0F0BDC046042900201029002078
:1064D0000829002010B50C886040C2B2100150405D
:1064E000C0B2C2000302534024126340001158405E
:1064F000088010BD70B5002504000560456085600A
:10650000293029002422FF3009F057FA2300012204
:10651000FC339A64AA235B00E554200070BD01603F
:106520008260436070470B00FA21FC3010B5040014
:106530008900180006F0E8F8236C1818A36C206492
:106540000133A36410BD0000F7B504000D00FE2167
:10655000FC3401908905A06B06F09CFA002803D05A
:10656000280007F09BFAA063A06B09F085F80F4A9A
:106570000F4B08F01DFA060028000F0009F002F882
:106580000A4A0C4B08F014FA02000B0030003900E4
:1065900007F0CAFA09F0C2F82900A0630198FFF7D2
:1065A000C2FFA06B06F0BEFAFEBDC046696FF08563
:1065B000C954E53FC954D53FF8B5A42704007F006E
:1065C000C35D06000D00FC34002B05D001F038FD42
:1065D00000230138E063F35501F032FDE36BC61A86
:1065E00001F02EFDE063300007F058FA0F4906F085
:1065F00021FD09F041F8060028000F0009F004F819
:1066000002000B003000390008F0D2F909F086F8DA
:10661000074906F0FFFE074906F0FCFE011CE06298
:10662000206B06F075FB2063F8BDC04600BA5B4ADC
:10663000000020410000883F70B504000D00FFF706
:10664000BBFFFE21FC348905606B06F023FA0028AD
:1066500003D0280007F022FA60630949606B06F056
:10666000D9FE061C280007F0C9F9064906F0D2FE3B
:10667000011C301C06F04CFB606306F053FA70BD41
:106680004CA62A3FFA7EAA3EF0B5060000689BB0F1
:1066900000286AD0B368002B67D07368002B64D0E1
:1066A00003681B69984700285FD0306803685B69FE
:1066B0009847C3B208930023C94C07002373E37BB8
:1066C000C84D0A2B1DD8180006F00AF806065172AC
:1066D000638190A4BCDCDC00089BFE2B00D045E26B
:1066E000FC3BE3732B000022FF331A7520216A461E
:1066F00052181278DA742B000122FE3352429A7437
:10670000DA74227B012A09D12B00FF335B7D63748D
:10671000A38A002B00D1E3820133A3822900FF3139
:106720000F7DF776E37BF373237C3374637C013353
:106730007374A38AB382A37BF3820023A373022A18
:1067400000D0C8E0207C2818FF30877E437E3F02BF
:106750003B43002033761B0A73760123207308988D
:10676000A373FE2800D1ADE0E3731BB0F0BD202180
:106770006A462B0052181278FF3329001A7500233D
:1067800011312374FF310898FFF7A4FE0423E3734B
:10679000B7E720216A462B00521829001278FF33F0
:1067A00011315A75FF310898FFF794FE0323EEE785
:1067B00020216A462B00521829001278FF3311312C
:1067C0009A75FF310898FFF785FE0523DFE7202142
:1067D0006A462B00521829001278FF331131DA75FE
:1067E000FF310898FFF776FE0623D0E720226B469C
:1067F0002F0029009B181B78FF3711313B76FF31A2
:106800000898FFF767FE3B7D002B01D10823BEE708
:106810000723BCE7237C20215A1C22746A465218A5
:1068200029001278EB18FF3311315A76FF3108989E
:10683000FFF750FE2B00FF33227C1B7D9A4200D0D5
:106840005FE7E3E72900684B684A1B7E1131D05CA3
:10685000FF31FFF73FFEFF22634B1740597C9B7CC3
:106860001B020B4313409F420AD00A236A46202191
:10687000E373237C5218EB181278FF335A7640E703
:106880000923F3E70A2B05D02B00FF339B7CFFB2D3
:106890009F4215D00223237301236A462021E3730C
:1068A000237C5218EB181278FF3329009A763000B7
:1068B00088221131FF315200183009F063F820E7C7
:1068C0000123E8E700230B750123FE355B42E273E9
:1068D000AB74EB7449E7002A00D146E7F37F2A2B1B
:1068E00000D13EE100D989E0162B00D1DDE023D8AC
:1068F000002B00D1B6E0012B00D036E7F18D30003F
:10690000FFF722FE07F0CAF8318E071C3000FFF7B0
:1069100093FE07F0C3F8364906F08CFB3500041CE3
:106920003449381C06F086FBFC35011C2B6B221CFD
:106930007068FDF753FA18E71E2B00D18CE0212B6D
:1069400000D1E4E0182B00D00FE733003C331F7870
:1069500001331B78708F0993B36A34000893336B4B
:10696000F56A0A93B38EFC340B9307F097F820492D
:1069700006F060FB03233A00BF101A400A991F403B
:106980000B9BE065039101930095089B0999706842
:106990000297FDF7AFF8280008F0F4FD0022164B2F
:1069A00007F0D2FB08F0BAFE051C089808F0EAFDD3
:1069B0000022114B07F0C8FB08F0B0FE00240023B2
:1069C000011C079306930593049303930293019488
:1069D0000094231C2A1CB068FCF77AFEC5E6C0466A
:1069E000AC2200206C1E00206B1F0020AA22010098
:1069F0000000C84200007A44D01263414A2B00D103
:106A000099E015D82C2B00D1A6E03E2B00D0ACE6A7
:106A1000AE235B00F15A3620335E328F0193330090
:106A2000FC33DB6D70680093336BFDF7A3FB9CE6D2
:106A3000F22B79D0FD2B52D0932B00D095E633006A
:106A400040331B78002B00D08FE6306A340006F00C
:106A5000D5FFFC34206388E6B26A716A7068FCF77F
:106A6000F7FE82E60125731DDC7F2B001B2C02D86C
:106A70003F4BE340DB432B4200D176E6F31DDB7F47
:106A8000326ADB09511C00930022C9B27068FCF71E
:106A9000C5FEAA235B00F25C002A00D065E6F5542F
:106AA00021007068FDF77CFC5FE6B222F38C520097
:106AB000934207D1306A06F035F801007068FDF79F
:106AC00074FC52E6B6225200934200D04DE6306A82
:106AD00006F028F801007068FDF76CFC45E60DAC87
:106AE00033220021200008F068FF3A1C332F00D920
:106AF00033223100D2B22031200008F043FF25219B
:106B000004AB2278C9187068FDF7C6FB2DE631008A
:106B1000336BFC310193B36A706800934A6D736AFA
:106B2000096DFDF7C5F920E63300326AFC331A65BA
:106B3000726A5A6519E63023F05E06F05FFF726AEA
:106B4000031CF16A7068FDF797F8728EB36A316AB8
:106B50007068FDF751F908E6318C7068FDF72FFC7D
:106B600003E6AE23328C5B00F252FEE5227BD5E5D4
:106B70006000040C074B0200036001000023803218
:106B80004360FD31137053707C3213700B70CB7007
:106B900093607047B423010010B504004160080001
:106BA000FBF714FC60680021FBF75AFC0023FF345C
:106BB000637010BD0420002900D00878704710B51C
:106BC00004004068FBF78EFC00216068FBF748FC7E
:106BD00010BDF0B5040085B04068FBF78EFD0128BC
:106BE00002D16068FBF71EFD6068FBF78BFC030CAD
:106BF000DBB2070A0390C6B2050E60680093FBF78C
:106C000093FC2300FF3301935878FFB203280AD87E
:106C100005F066FD02263D50002E04D1009B002B9E
:106C200001D1002D05D000216068FBF719FC002779
:106C300008E02368002F01D05B6800E09B6820001B
:106C400098470700019B5B78BB4207D02368200070
:106C50001B689847019BFC34A0605F7005B0F0BDD5
:106C6000002EE0D1009B002BDDD1002F01D0236846
:106C7000E2E7002DD7D1236820001B689847230046
:106C80000127FC339B6864339842DBD9CBE7002FA4
:106C9000C9D1002DC7D1009B002BC4D1002EC2D179
:106CA000236820001B6898472300FC339B68023749
:106CB0006433E9E7002FB6D1002DB4D1009B002B3F
:106CC000B1D1002E05D001216068FBF7C9FB013767
:106CD000B8E7236820001B6898472300FC339B68B3
:106CE00003276433D0E710B504002000FFF771FFDD
:106CF0002300FF335B78002BF7D16068FBF7E0FBE4
:106D000010BD0000F0B50500DBB04068FBF7EFFBFD
:106D1000041E00D12DE201002800FFF74BFF0128DF
:106D200004D0032800D167E1002022E2210038A826
:106D300000F084FCA64904A802F089FF38A800F0FE
:106D4000ACFEA449012806DC38A800F0A6FEA24942
:106D5000012800D0A14922A802F079FF22A904A8A5
:106D600002F0C2FF22A802F02AFF2C0038A800F08F
:106D70009AFEFC34A06438A800F099FE010007A830
:106D800002F065FF964916A802F061FF07A916A850
:106D900003F02BF8934903F035F8060038A800F00B
:106DA00029FE0622011C19A802F0ECFF19A93000E7
:106DB00003F01BF88C4903F025F8060038A800F012
:106DC00041FE0622011C1CA802F0DCFF1CA93000B9
:106DD00003F00BF8854903F015F8060038A800F019
:106DE00059FE0A2201001FA802F097FF1FA93000D8
:106DF00002F0FBFF7E4E310003F004F804A902F01C
:106E0000F4FF310002F0FEFF06000222A16C22A86E
:106E100002F0B8FF22A9300002F0E7FF01000AA843
:106E200002F058FF22A802F0CAFE1FA802F0C7FE17
:106E30001CA802F0C4FE2E0019A802F0C0FE16A87D
:106E400002F0BDFE00240936FF360C9B9C420AD896
:106E5000E1B20AA803F006F8002803D021000AA82E
:106E600002F0EDFF307001340136322CEDD138A83C
:106E700000F016FE9D2304225B00002800D10722AB
:106E8000EA5438A82C0000F0B5FDFC34206438A882
:106E900000F0D8FD3C230122FF3360645049EA54DE
:106EA00010A802F0D4FE07A910A802F09EFF4D49D9
:106EB00002F0A8FF050038A800F09AFD0A220100A0
:106EC00013A802F04DFF13A9280002F08EFF464DD3
:106ED000290002F097FF060038A800F08BFD06227B
:106EE000011C16A802F04EFF16A9300002F07DFF2B
:106EF000290002F087FF050038A800F0A3FD062254
:106F0000011C19A802F03EFF19A9280002F06DFF2C
:106F1000364D290002F076FF060038A800F0BAFDD1
:106F20000A2201001CA802F0F8FE1CA9300002F0A1
:106F30005CFF2F4E310002F065FF04A902F055FFFF
:106F4000310002F05FFF06000222A16C1FA802F0D0
:106F500019FF1FA9300002F048FF290002F052FF7C
:106F6000040038A800F0A1FD0222011C22A802F0B2
:106F700009FF22A9200002F038FF01000DA802F04D
:106F8000A9FE22A802F01BFE1FA802F018FE1CA8F2
:106F900002F015FE19A802F012FE16A802F00FFE6C
:106FA00013A802F00CFE10A802F009FE0DA911486A
:106FB00001F0B8F80DA802F002FE0AA802F0FFFDE9
:106FC00007A802F0FCFD04A802F0F9FDACE6C046FB
:106FD00008260100C0230100C3230100C6230100CD
:106FE000C8230100CE230100D22301007F2A010023
:106FF0003B240100FC2200206868FBF778FA2E0091
:107000000100FC3622A800F065FD316D22A88B6BD3
:1070100000930B6B8A6A096A00F060FA002800D1BD
:1070200082E64A230024FF33EC5422A800F068FDD6
:10703000032800D19FE0042800D1A1E0022800D05D
:1070400072E6A5235B00EB5C0393A34200D06BE6E2
:10705000A4235B00EF5CA74200D165E6013FFC0181
:107060002C192300E133FF331B7838AE3371230032
:10707000E533FF331B6821003A932300E933FF33E4
:107080001B68F5313B932300ED33FF331B68FF3161
:107090003C932300F133FF331B683F223EA83D930E
:1070A00008F070FC394B02A938938D239B00E3183C
:1070B0001B683000B3658E239B00E3181B68F365E3
:1070C0008F239B00E3181B68336690239B00E31813
:1070D0001A7851AB1A702E4BE3181A783E23FF33FF
:1070E0005B181A702B4BE3181A789F235B005B1810
:1070F0001A7091239B00E3181B68B36692239B00D0
:10710000E3181B68F36693239B00E3181A7854ABCB
:107110001A7094239B00E3181B68736795239B00E8
:10712000E3181B68B36796239B00E3181A7857ABE4
:107130001A70194BE3181A785623FF335B181A702C
:10714000164BE418053B2278FF3B5B181A70A4230A
:107150005B00EF5400F0C0F903000398022B08D144
:1071600030006C6800F0CDF901002000FBF77CFADC
:1071700002205BB0F0BD0122336D44331A70D3E5B9
:107180000122336D3E3319784A40F7E78424010029
:107190004102000042020000590200005A020000B1
:1071A00010B500F04DFF10BDF8B5A52300255B001C
:1071B000C35C0400AB420FD1EC267600835DAB428A
:1071C0000AD047685130FF3000F09BF901003800C9
:1071D000FBF74AFAA55502352800F8BD70B5040042
:1071E000FFF7C8FC1A4B002608332360A4235B007A
:1071F000E6542300250020004933FF33FC3551308D
:107200005E709E70FF302E6500F0DCFAEC235B00B0
:10721000E65423000F4ADD330F49FF33A2181960EB
:1072200080339A42FBD12000002609302E653100C0
:107230003222FF3008F0C1FB9D235B00E65400239F
:10724000AB642B646B643C23FF33E654200070BDB9
:10725000D4230100DC1000008424010070B5040078
:1072600016002500FFF798FC2000FC3509302E653C
:1072700032220021FF3008F0A0FB9D2300225B009A
:10728000E2540023AB642B646B643C23FF33E25471
:1072900070BD0300FC33196D30B50B0091B0753330
:1072A0000E93A42304005B00E35C02250D930B798D
:1072B00051300C930B68FF300B930B690A934A23F0
:1072C000FF33E35C0993CB6D08938B6D0793002329
:1072D0000A7B023AD2B295425B41DBB206930B00C5
:1072E00055331B7805930B0054331B7804930B6DB7
:1072F0000393CB6C02938B6C01938B6B00930B6BA2
:107300008A6A096A00F06EFAEC2301225B00E254FB
:1073100011B030BD0930FF307047A523012210B5F0
:107320005B00C254FFF7DFFC10BDA523002210B59F
:107330005B00C254FFF743FC10BD000073B50400AE
:107340000D001600002901D1002A16D1731B0193EC
:107350000F2B07D9002201A9200003F03BFA019B63
:107360002060A36032002900206803F07EFA00212B
:10737000019B22686360D15473BD014803F0B7F8E4
:107380003D240100294B70B504000D1E03604AD056
:107390000E003C363278183008F0F4FA23003278C8
:1073A00054331A703D222300AA5655331A703E22D8
:1073B000AA565A70237EA27E2371637E12041B0696
:1073C0009B18E27E12029B18227F9B18A360A27F6B
:1073D000637F12041B069B18E27F12029B18621C3B
:1073E000D27F9B18E360E21CA31CDB7FD27F1B06CD
:1073F00012049B18221DD27F12029B18621DD27F9D
:107400009B182361E21DA31DDB7FD27F1B061204A4
:107410009B1822000832D27F12029B1822002832C9
:1074200012789B186361200070BDC046F0230100F4
:10743000F8B5040016001D000F00E360069B2171E3
:10744000A2600361079B3C2243610021183008F0D1
:10745000B4FA330E6376330CA376330AE3762B0E3D
:1074600063772B0CA3772B0AE377631C27762677A9
:10747000DD77069B1A0EA31CDA77069B1A0CE31C19
:10748000DA77069B1A0A231DDA776A46127E631D95
:10749000DA77079B1A0EA31DDA77079B1A0CE31DF8
:1074A000DA77079B1A0A23000833DA776B461B7FCB
:1074B00028342370F8BD000013B50400054820608F
:1074C00005980190049800902000FFF7B1FF20007C
:1074D00016BDC046F02301000079704730B50400A6
:1074E000A56800208D420BD1E168914208D1226944
:1074F0009A4205D1039B6069C01A42424241D0B210
:1075000030BD1830704700000300F0B5002585B08D
:10751000009137490833019203600A000400FFF725
:107520000DFF009E019B009A9B1BD318002B2ADDA8
:10753000327802A96B1C4A55032B21D10A7803AD7E
:1075400093082B704B78302112010A401909521808
:107550003C216A7002AA92789B000B4091095B184B
:10756000AB703F2300271A40EA70224AEB5D126895
:107570002000D15C013703F00EFA042FF5D100236F
:1075800001361D00CEE7002D2FD02B000022022B4C
:1075900003DC02A9CA540133F9E7302102AB1A789F
:1075A00003AE9308337002AB5B7812010A401909ED
:1075B000521872703C2200279B00134002AA927856
:1075C00092099B18B3700B4AF35D12682000D15CDE
:1075D000013703F0E0F9BD42F5DA032D05D03D2176
:1075E000200003F0D8F90135F7E7200005B0F0BD21
:1075F00008260100DC22002010B5074C074A2300B2
:107600000833236020000649FFF798FE054A064923
:10761000200002F065FF10BDDC2200203C240100A8
:10762000FC2301000000002041A9000070477047C2
:1076300010B5040000F04AFD200010BD70B5040034
:10764000FFF7A0FE5C4B08332360230054331B7804
:10765000262B00DCAEE02300220029332A321B78DF
:1076600012781B0412029B1822002B321278210080
:107670009B18A365220023002D322C331B7812782F
:107680001B0612049B1822002E321278643112025B
:107690009B1822002F3212789B18E36522002300EA
:1076A000313230331B7812781B0612049B182200EB
:1076B0003232127812029B182200333212789B1851
:1076C000236623001F2234331B781A400A705A069F
:1076D000920F5BB24A70002B03DA2300012266335B
:1076E0001A7023003533187801331B780002C01854
:1076F00006F084F9314905F09DFC2300A06637337C
:10770000187801331B780002C01806F077F92C496D
:1077100005F090FC2300E06639331A7837331A708D
:10772000363B187806F0BAF9244905F083FC80212D
:10773000C90505F0EDFA230060673C33187806F0C0
:10774000ADF91E4905F076FC23003B33051C187883
:1077500006F0A4F9011C281C05F0DAFA2300A06742
:107760003D331A783F331A703E3B1A783F331A7014
:107770003E3B1A783F331A703E3B1A783F331A70FB
:107780003E3B1A783F331A703E3B1A783F331A70EB
:107790003E3B1A783F331A703E3B1A783F331A70DB
:1077A0003E3B1A783F331A703E3B1A783F331A70CB
:1077B00000225A70200070BD682401000000C842F9
:1077C00000002041002213B5040013000192009232
:1077D0000121FFF771FE024B20000833236016BD24
:1077E00068240100F0B587B0040010A8007804AE4A
:1077F000039011A80078049012A80578252080191C
:10780000C77F18A80078059019A806780C980093EF
:107810000190130020000A000121FFF709FE0D9BD3
:107820006A46A3650E9B127BE3650F9B23662300CC
:1078300064331A706A46127C9D705A70139B6A46B4
:10784000A366149B127DE366230070331F70169BA2
:107850006367179BA36723007C331A7000225E7056
:1078600002331A70220087321A99002904D009784D
:1078700019701A9901311A9101339342F4D10D9B79
:1078800024211A0C230029331A700D9B1A0A230095
:107890002A331A7004AA5218127804315A700E9BB7
:1078A0001A0E23002C331A700E9B1A1423002D334A
:1078B0001A700E9B1A1223002E331A7004AA521843
:1078C000127804315A700F9B1A0E230030331A704D
:1078D0000F9B1A14230031331A700F9B1A122300C6
:1078E00032331A7004AA5218127803995A7060221F
:1078F000049B5B011340413A11400B43002D01D022
:10790000802213432200343213703649139805F055
:1079100081FD05F007F9230080B2020A35331A70A1
:1079200058703149149805F075FD05F0FBF82300F7
:1079300080B23733020A1A7058709F70169807F099
:107940009BFE80230022DB0507F0B2FA0022274BC2
:1079500007F02EF805F0FEF823003A331870179858
:1079600005F0E0F82300C5B23B331D701D491798A0
:1079700005F050FD071C6420684306F03FF8011C29
:10798000381C05F067FE05F0CDF86A462300127D2D
:107990003C335A70220018709E707E321278DA7072
:1079A00022007F3212781A712200803212785A71C6
:1079B0002200813212789A71220082321278DA71B2
:1079C0002200833212781A722200843212785A729C
:1079D00022008532127854349A722F23237007B014
:1079E000F0BDC0460000C8420000204100005940E0
:1079F000806D704770B5C56D0E49280004F00EFF0C
:107A000005F0FCFF041C280005F0F8FF0A49051CDE
:107A1000201C05F0FFFC011C281C05F01BFE07497B
:107A200005F008FB064905F005FB211C05F070F97F
:107A300070BDC04640420F000024744900401C46FF
:107A40000000704270B5056E0E49280004F0E6FE95
:107A500005F0D4FF041C280005F0D0FF0A49051CDE
:107A6000201C05F0D7FC011C281C05F0F3FD07497C
:107A700005F0E0FA064905F0DDFA211C05F048F9A9
:107A800070BDC04640420F000024744900401C46AF
:107A900000007042643000787047653000787047AD
:107AA000663000787047806E7047406F70477E3058
:107AB00070477047704710B5040000F007FB2000C6
:107AC00010BD7047704710B5040000F0FFFA2000A9
:107AD00010BD000010B50400FFF754FC074B08333D
